020180123                                                                                                                                                                                                                                                                                                                                                                                                                                                      000001                                                                                                                                                                                                                                                                                                                                                                                                                                                                                                                                                                   
15148527400015951485274000159C00350396301 91517                         91517                         1380571017201712045BYD5650 1 BRASIL                                            SPLIMEIRA                                           BRASIL                                            SPSAO PAULO                                         2017120427000020000000000160INTEGRACAO                                        0571017   2018012206300423705710170000020000000000000000000937171691810ADRIANO ALVES SILVA                                         1                        1 3092911                           029012590490624637171691810   ADRIANO ALVES DA SILVA                                      376336                          91517                                                                                                                                                                                                                                                                            
15148527400015951485274000159C00350396301 91517                         91517                         1380571017201712045BYD5650 1 BRASIL                                            SPLIMEIRA                                           BRASIL                                            SPSAO PAULO                                         2017120427000005000000000040INTEGRACAO                                        0571017   2018012217000623705710170000030000000000000000000937171691810ADRIANO ALVES SILVA                                         1                        1 3094024                           029012590490624637171691810   ADRIANO ALVES DA SILVA                                      399179                          91517                                                                                                                                                                                                                                                                            
15148527400015951485274000159C00350397201 91518                         91518                         1576011018201712045ELQ7472 1 BRASIL                                            SPLIMEIRA                                           BRASIL                                            SPSAO PAULO                                         2017120427000007000000000056INTEGRACAO                                        6011018   2018012212001223760110180000040000000000000000000936497274804AURINO M FERREIRA                                           1                        1 3093391                           020012590526979336497274804   AURINO MAIA FERREIRA                                        386062                          91518                                                                                                                                                                                                                                                                            
15148527400015951485274000159C00350406871 91520                         91520                         1329617012201712045GSW0110 1 BRASIL                                            SPLIMEIRA                                           BRASIL                                            SPSAO PAULO                                         2017120427000015000000000120INTEGRACAO                                        9617012   2018012207300323796170120000050000000000000000000921845389816DANIEL BOSCOLO                                              1                        1 3092929                           021012590960313421845389816   DANIEL BOSCOLO                                              376733                          91520                                                                                                                                                                                                                                                                            
15148527400015951485274000159C00350406871 91520                         91520                         1329617012201712045GSW0110 1 BRASIL                                            SPLIMEIRA                                           BRASIL                                            SPSAO PAULO                                         2017120427000015000000000120INTEGRACAO                                        9617012   2018012218300323796170120000060000000000000000000921845389816DANIEL BOSCOLO                                              1                        1 3094095                           021012590960313421845389816   DANIEL BOSCOLO                                              403978                          91520                                                                                                                                                                                                                                                                            
15148527400015951485274000159C00350410251 91521                         91521                         1413844019201712045DTE4881 1 BRASIL                                            SPLIMEIRA                                           BRASIL                                            SPSAO PAULO                                         2017120427000020000000000160INTEGRACAO                                        3844019   2018012212200323738440190000070000000000000000000912857993803HELCIO JOSE SILVA                                           1                        1 3093410                           022012591129654103520275848   IVA DAVID DE SOUZA                                          386435                          91521                                                                                                                                                                                                                                                                            
15148527400015951485274000159C00350413531 91522                         91522                         0115556134201712045MRW9411 1 BRASIL                                            SPLIMEIRA                                           BRASIL                                            SPSAO PAULO                                         2017120427000300000000002400INTEGRACAO                                        4161028   2018012219100323741610280000080000000000000000000462331167915LUIZ C MANZINI                                              1                        1 3094131                           026012591274815262331167915   LUIZ CASSIO MANZINI                                         405057                          91522                                                                                                                                                                                                                                                                            
15148527400015951485274000159C00350419141 91523                         91523                         1557007019201712045EFV4023 1 BRASIL                                            SPLIMEIRA                                           BRASIL                                            SPSAO PAULO                                         2017120427000010000000000080INTEGRACAO                                        7007019   2018012206400823770070190000090000000000000000000933366426802IVO DAVID SOUZA JR                                          1                        1 3092914                           025012591533790233366426802   IVO DAVID DE SOUSA JR                                       376471                          91523                                                                                                                                                                                                                                                                            
15148527400015951485274000159C00350426891 91525                         91525                         1478759011201712045EXO0437 1 BRASIL                                            SPLIMEIRA                                           BRASIL                                            SPSAO PAULO                                         2017120427000012000000000096INTEGRACAO                                        8759011   2018012219400323787590110000100000000000000000000959908572849JOSE WINKLER                                                1                        1 3094157                           028012591838650059908572849   JOSE WINKLER                                                405675                          91525                                                                                                                                                                                                                                                                            
15148527400015951485274000159C00350428441 91526                         91526                         1354852013201712045EFV5547 1 BRASIL                                            SPLIMEIRA                                           BRASIL                                            SPSAO PAULO                                         2017120427000030000000000240INTEGRACAO                                        4852013   2018012222500323748520130000110000000000000000000911634488857VALDENIR A FERREIRA                                         1                        1 3094346                           029012591908982911634488857   VALDENIR ALMEIDA FERREIRA                                   408363                          91526                                                                                                                                                                                                                                                                            
15148527400015951485274000159C00350431091 91528                         91528                         1380568013201712045ETG0129 1 BRASIL                                            SPLIMEIRA                                           BRASIL                                            SPSAO PAULO                                         2017120427000030000000000240INTEGRACAO                                        0568013   2018012222300323705680130000120000000000000000000928905683851VENICIUS B CARVALHO                                         1                        1 3094304                           024012592000372128905683851   VENICIUS BORGES DE CARVALHO                                 408259                          91528                                                                                                                                                                                                                                                                            
15148527400015951485274000159C00350523081 91530                         91530                         1627413015201712055CZC3101 1 BRASIL                                            SPLIMEIRA                                           BRASIL                                            SPSAO PAULO                                         2017120527000020000000000160INTEGRACAO                                        7413015   2018012211500523774130150000130000000000000000000996231262804JOSE F SIQUEIRA                                             1                        1 3093388                           027012596681258096231262804   JOSE FRANCISCO SIQUEIRA                                     385685                          91530                                                                                                                                                                                                                                                                            
15148527400015951485274000159C00350654671 91538                         91538                         1380569011201712055BTR1378 1 BRASIL                                            SPLIMEIRA                                           BRASIL                                            SPSAO PAULO                                         2017120527000050000000000400INTEGRACAO                                        0569011   2018012221400423705690110000140000000000000000000901653338806CLEUCIO A SILVA                                             1                        1 3094225                           028012602993035301653338806   CLEUCIO APARECIDO DA SILVA                                  407646                          91538                                                                                                                                                                                                                                                                            
15148527400015951485274000159C00350680941 91542                         91542                         1479144015201712055BIX9164 1 BRASIL                                            SPLIMEIRA                                           BRASIL                                            SPSAO PAULO                                         2017120527000030000000000240INTEGRACAO                                        9144015   2018012217401323791440150000150000000000000000000935690400890KLEYTON S V AH                                              1                        1 3094060                           022012604080441635690400890   KLEYTON SANTANA VON AH                                      401742                          91542                                                                                                                                                                                                                                                                            
15148527400015951485274000159C00350941701 91554                         91554                         1627426017201712065DBC1203 1 BRASIL                                            SPLIMEIRA                                           BRASIL                                            SPSAO PAULO                                         2017120627000050000000000400INTEGRACAO                                        7426017   2018012214100723774260170000160000000000000000000910065639898MARIO A K SEVDALIS                                          1                        1 3093608                           028012615684727910065639898   MARIO ANTONIO KILO SEVDALIS                                 390183                          91554                                                                                                                                                                                                                                                                            
15148527400015951485274000159C00350949021 91555                         91555                         1479143017201712065BFZ4966 1 BRASIL                                            SPLIMEIRA                                           BRASIL                                            SPSAO PAULO                                         2017120627000020000000000160INTEGRACAO                                        9143017   2018012216200523791430170000170000000000000000000910455075808JOEL N SANTOS                                               1                        1 3093950                           022012616083212310455075808   JOEL NOGUEIRA DOS SANTOS                                    396639                121004622191555                                                                                                                                                                                                                                                                            
15148527400015951485274000159C00351104451 91561                         91561                         1607783015201712075DPE7284 1 BRASIL                                            SPLIMEIRA                                           BRASIL                                            SPSAO PAULO                                         2017120727000020000000000160INTEGRACAO                                        7783015   2018012212400323777830150000180000000000000000000902046357990ROGERIO AUGUSTO                                             1                        1 3093429                           022012623719088902046357990   ROGERIO AUGUSTO                                             387417                          91561                                                                                                                                                                                                                                                                            
15148527400015951485274000159C00351162481 91568                         91568                         0259658012201712075DBB3324 1 BRASIL                                            SPLIMEIRA                                           BRASIL                                            SPSAO PAULO                                         2017120727000030000000000240INTEGRACAO                                        1256010   2018012213400423712560100000190000000000000000000427744841972ADAIR JANUARIO                                              1                        1 3093561                           020012626686092627744841972   ADAIR JANUARIO                                              388915                          91568                                                                                                                                                                                                                                                                            
15148527400015951485274000159C00351169131 91572                         91572                         0453365050201712075KQC9415 1 BRASIL                                            SPLIMEIRA                                           BRASIL                                            SPSAO PAULO                                         2017120727000019200000000154INTEGRACAO                                        4125023   2018012207400323741250230000200000000000000000000406225606890ADEVALDO OLIVEIRA                                           1                        1 3092818                           027012627041969806225606890   ADEVALDO DE OLIVEIRA JUNIOR                                 376856                          91572                                                                                                                                                                                                                                                                            
15148527400015951485274000159C00351175171 91576                         91576                         1607769014201712075BTT5209 1 BRASIL                                            SPLIMEIRA                                           BRASIL                                            SPSAO PAULO                                         2017120727000040000000000320INTEGRACAO                                        7769014   2018012219500323777690140000210000000000000000000915683219884ANDERSON T RIBEIRO                                          1                        1 3094173                           027012627381153030790294885   ALESSANDRA BISPO DOS SANTOS DE JESUS                        405869                          91576                                                                                                                                                                                                                                                                            
15148527400015951485274000159C00351190891 91584                         91584                         1354835018201712075DPE7075 1 BRASIL                                            SPLIMEIRA                                           BRASIL                                            SPSAO PAULO                                         2017120727000160000000001280INTEGRACAO                                        4835018   2018012220000423748350180000220000000000000000000906290232800APARECIDO R PONTES                                          1                        1 3094178                           025012628188476906290232800   APARECIDO RODRIGUES PONTES                                  405812                          91584                                                                                                                                                                                                                                                                            
15148527400015951485274000159C00351193351 91591                         91591                         1413843011201712075GMN7056 1 BRASIL                                            SPLIMEIRA                                           BRASIL                                            SPSAO PAULO                                         2017120727000080000000000640INTEGRACAO                                        3843011   2018012221300523738430110000230000000000000000000950536869634CELSO O RODRIGUES                                           1                        1 3094223                           026012628324287050536869634   CELSO DE OLIVEIRA RODRIGUES                                 407563                          91591                                                                                                                                                                                                                                                                            
15148527400015951485274000159C00351195211 91593                         91593                         1232537018201712075CZC2654 1 BRASIL                                            SPLIMEIRA                                           BRASIL                                            SPSAO PAULO                                         2017120727000009600000000077INTEGRACAO                                        2537018   2018012209200323725370180000240000000000000000000909132633890CELSO G DONADEL                                             1                        1 3092837                           022012628397452609132633890   CELSO GUILHERME DONADEL                                     379467                          91593                                                                                                                                                                                                                                                                            
15148527400015951485274000159C00351198601 91596                         91596                         1055969031201712075MDH0525 1 BRASIL                                            SPLIMEIRA                                           BRASIL                                            SPSAO PAULO                                         2017120727000025000000000200INTEGRACAO                                        5182020   2018012210500323751820200000250000000000000000000425809002846CLEBER O ARAUJO                                             1                        1 3093231                           022012628514324425809002846   Cleber de Oliveira araujo                                   382898                125418748591596                                                                                                                                                                                                                                                                            
15148527400015951485274000159C00351199881 91597                         91597                         1483045014201712075BWY0827 1 BRASIL                                            SPLIMEIRA                                           BRASIL                                            SPSAO PAULO                                         2017120727000016800000000134INTEGRACAO                                        2262012   2018012212100323722620120000260000000000000000000480050913891CLEIDO N MELO                                               1                        1 3093086                           028012628554702580050913891   CLEIDO NARCISO MELO                                         386464                          91597                                                                                                                                                                                                                                                                            
15148527400015951485274000159C00351203351 91600                         91600                         1297713031201712075BXG8144 1 BRASIL                                            SPLIMEIRA                                           BRASIL                                            SPSAO PAULO                                         2017120727000029340000000235INTEGRACAO                                        4137028   2018012208300423741370280000270000000000000000000435108828810DIEGO GUADAGNINI                                            1                        1 3092544                           026012628705925835108828810   DIEGO GUADAGNINI                                            377305                          91600                                                                                                                                                                                                                                                                            
15148527400015951485274000159C00351205991 91602                         91602                         0968974041201712075DBC0547 1 BRASIL                                            SPLIMEIRA                                           BRASIL                                            SPSAO PAULO                                         2017120727000060000000000480INTEGRACAO                                        4138026   2018012222300523741380260000280000000000000000000453228057615DONIZETTI REZENDE                                           1                        1 3094166                           020012628831894353228057615   DONIZETTI REZENDE                                           408260                          91602                                                                                                                                                                                                                                                                            
15148527400015951485274000159C00351207411 91603                         91603                         1589604015201712075ILX5266 1 BRASIL                                            SPLIMEIRA                                           BRASIL                                            SPSAO PAULO                                         2017120727000040000000000320INTEGRACAO                                        9604015   2018012220200523796040150000290000000000000000000928210364855JOSE ALMEIDA MELO                                           1                        1 3094142                           027012628903536829275464871   DULCILEIA DE AVIZ                                           406329                          91603                                                                                                                                                                                                                                                                            
15148527400015951485274000159C00351208461 91605                         91605                         1424308028201712075GXA4183 1 BRASIL                                            SPLIMEIRA                                           BRASIL                                            SPSAO PAULO                                         2017120727000060000000000480INTEGRACAO                                        4215022   2018012220000623742150220000300000000000000000000488081842853EDSON BONGIORNO                                             1                        1 3094183                           029012628959660888081842853   EDSON BONGIORNO                                             405814                          91605                                                                                                                                                                                                                                                                            
15148527400015951485274000159C00351209891 91606                         91606                         1393869010201712075GOA4922 1 BRASIL                                            SPLIMEIRA                                           BRASIL                                            SPSAO PAULO                                         2017120727000080000000000640INTEGRACAO                                        3869010   2018012222500523738690100000310000000000000000000937093675816EDUARDO O TEODORO                                           1                        1 3094332                           020012629034156737093675816   EDUARDO DE OLIVEIRA TEODORO                                 408232                          91606                                                                                                                                                                                                                                                                            
15148527400015951485274000159C00351214241 91612                         91612                         1167191013201712075ADU6410 1 BRASIL                                            SPLIMEIRA                                           BRASIL                                            SPSAO PAULO                                         2017120727000150000000001200INTEGRACAO                                        7191013   2018012217201523771910130000320000000000000000000906995077822RAFAEL S RODRIGUES                                          1                        1 3094041                           023012629235286706995077822   RAFAEL DOS SANTOS RODRIGUES                                 400477                          91612                                                                                                                                                                                                                                                                            
15148527400015951485274000159C00351214241 91612                         91612                         1167191013201712075ADU6410 1 BRASIL                                            SPLIMEIRA                                           BRASIL                                            SPSAO PAULO                                         2017120727000002996000000024INTEGRACAO                                        7191013   2018012217231323771910130000330000000000000000000906995077822RAFAEL S RODRIGUES                                          1                        1 3056889                           023012629235286706995077822   RAFAEL DOS SANTOS RODRIGUES                                 400787                          91612                                                                                                                                                                                                                                                                            
15148527400015951485274000159C00351216611 91614                         91614                         1607772018201712075BUP0524 1 BRASIL                                            SPLIMEIRA                                           BRASIL                                            SPSAO PAULO                                         2017120727000050000000000400INTEGRACAO                                        7772018   2018012209301123777720180000340000000000000000000909275101892VILSON L FREZZATTI                                          1                        1 3092963                           023012629358164413129177841   IVAN SOUSA NOVAIS                                           379905                          91614                                                                                                                                                                                                                                                                            
15148527400015951485274000159C00351221451 91618                         91618                         1510792012201712075GUD3165 1 BRASIL                                            SPLIMEIRA                                           BRASIL                                            SPSAO PAULO                                         2017120727000080000000000640INTEGRACAO                                        0792012   2018012218200323707920120000350000000000000000000903284939881JOSE D C CABRAL                                             1                        1 3094084                           021012629590391403284939881   JOSE DANIEL CASACCHI CABRAL                                 403397                          91618                                                                                                                                                                                                                                                                            
15148527400015951485274000159C00351225801 91624                         91624                         1435389019201712075DPE7544 1 BRASIL                                            SPLIMEIRA                                           BRASIL                                            SPSAO PAULO                                         2017120727000150000000001200INTEGRACAO                                        5389019   2018012215300923753890190000360000000000000000000913941116819LUIS V CHIQUETO                                             1                        1 3093870                           026012629795403013941116819   LUIS VANDERLEI CHIQUETO                                     394339                          91624                                                                                                                                                                                                                                                                            
15148527400015951485274000159C00351226441 91625                         91625                         1167175016201712075BWC0262 1 BRASIL                                            SPLIMEIRA                                           BRASIL                                            SPSAO PAULO                                         2017120727000100000000000800INTEGRACAO                                        7175016   2018012216400423771750160000370000000000000000000914896936884LUIZ CARLOS TRISTAO                                         1                        1 3093987                           023012629829135414896936884   LUIZ CARLOS TRISTAO                                         397909                          91625                                                                                                                                                                                                                                                                            
15148527400015951485274000159C00351227691 91627                         91627                         1435386015201712075GMH9217 1 BRASIL                                            SPLIMEIRA                                           BRASIL                                            SPSAO PAULO                                         2017120727000110000000000880INTEGRACAO                                        5386015   2018012222100323753860150000380000000000000000000911454333839CLAUDIO D TEODORO                                           1                        1 3094275                           026012629899630914402061806   MARCIO FERNANDO CORREA                                      407980                          91627                                                                                                                                                                                                                                                                            
15148527400015951485274000159C00351231001 91631                         91631                         1300557013201712075GZG1429 1 BRASIL                                            SPLIMEIRA                                           BRASIL                                            SPSAO PAULO                                         2017120727000009780000000078INTEGRACAO                                        0557013   2018012204500623705570130000390000000000000000000922141234824MARCEL G SILVA                                              1                        1 3092567                           021012630046541409783233866   MARCELO RODRIGUES DA SILVA                                  375968                          91631                                                                                                                                                                                                                                                                            
15148527400015951485274000159C00351231001 91631                         91631                         1300557013201712075GZG1429 1 BRASIL                                            SPLIMEIRA                                           BRASIL                                            SPSAO PAULO                                         2017120727000013680000000109INTEGRACAO                                        0557013   2018012216200723705570130000400000000000000000000922141234824MARCEL G SILVA                                              1                        1 3093798                           021012630046541409783233866   MARCELO RODRIGUES DA SILVA                                  396641                          91631                                                                                                                                                                                                                                                                            
15148527400015951485274000159C00351231921 91633                         91633                         1270028011201712075DBC1477 1 BRASIL                                            SPLIMEIRA                                           BRASIL                                            SPSAO PAULO                                         2017120727000060000000000480INTEGRACAO                                        0028011   2018012220001623700280110000410000000000000000000925438502870MARIO C A BARBOZA                                           1                        1 3094123                           028012630095195025438502870   MARIO CELSO ASNAR BARBOZA                                   405815                          91633                                                                                                                                                                                                                                                                            
15148527400015951485274000159C00351232471 91634                         91634                         0274297018201712075DBC1261 1 BRASIL                                            SPLIMEIRA                                           BRASIL                                            SPSAO PAULO                                         2017120727000050000000000400INTEGRACAO                                        4607016   2018012214400323746070160000420000000000000000000409588072808MESSIAS CAMPOS                                              1                        1 3093689                           027012630128304709588072808   MESSIAS CAMPOS                                              391868                          91634                                                                                                                                                                                                                                                                            
15148527400015951485274000159C00351234351 91638                         91638                         1627424012201712075BXG3018 1 BRASIL                                            SPLIMEIRA                                           BRASIL                                            SPSAO PAULO                                         2017120727000050000000000400INTEGRACAO                                        7424012   2018012220200923774240120000430000000000000000000917559015859ORIAS L RIBEIRO                                             1                        1 3094145                           024012630238641317559015859   ORIAS LATIEL RIBEIRO                                        406331                          91638                                                                                                                                                                                                                                                                            
15148527400015951485274000159C00351235721 91641                         91641                         1576008014201712075BSF5355 1 BRASIL                                            SPLIMEIRA                                           BRASIL                                            SPSAO PAULO                                         2017120727000080000000000640INTEGRACAO                                        6008014   2018012217100323760080140000440000000000000000000926712330866RANGEL A RAYMUNDO                                           1                        1 3094027                           028012630321401026712330866   RANGEL APARECIDO RAYMUNDO                                   399866                          91641                                                                                                                                                                                                                                                                            
15148527400015951485274000159C00351236661 91643                         91643                         1575996011201712075EFO8413 1 BRASIL                                            SPLIMEIRA                                           BRASIL                                            SPSAO PAULO                                         2017120727000080000000000640INTEGRACAO                                        5996011   2018012218400323759960110000450000000000000000000907880653864REINALDO L OLIVEIRA                                         1                        1 3094109                           022012630376813007880653864   REINALDO LOURENCINI DE OLIVEIRA                             404117                          91643                                                                                                                                                                                                                                                                            
15148527400015951485274000159C00351237581 91645                         91645                         1232526011201712075BUS0845 1 BRASIL                                            SPLIMEIRA                                           BRASIL                                            SPSAO PAULO                                         2017120727000080000000000640INTEGRACAO                                        2526011   2018012218500623725260110000460000000000000000000971460322800RENATO C SANTIAGO                                           1                        1 3094112                           025012630431121271460322800   RENATO CORREA SANTIAGO                                      404646                          91645                                                                                                                                                                                                                                                                            
15148527400015951485274000159C00351237741 91646                         91646                         1270014011201712075BWK0810 1 BRASIL                                            SPLIMEIRA                                           BRASIL                                            SPSAO PAULO                                         2017120727000019560000000156INTEGRACAO                                        0014011   2018012208300623700140110000470000000000000000000925612980515ROBERTO CONCEICAO                                           1                        1 3092573                           024012630441281035108828810   DIEGO GUADAGNINI                                            377642                          91646                                                                                                                                                                                                                                                                            
15148527400015951485274000159C00351325181 91650                         91650                         1354834011201712085GMO0059 1 BRASIL                                            SPLIMEIRA                                           BRASIL                                            SPSAO PAULO                                         2017120827000080000000000640INTEGRACAO                                        4834011   2018012218500823748340110000480000000000000000000971960600834ROBERTO L GARCIA                                            1                        1 3094115                           020012634950814171960600834   ROBERTO LOPES GARCIA                                        404648                          91650                                                                                                                                                                                                                                                                            
15148527400015951485274000159C00351328421 91651                         91651                         1301526017201712085CBO5292 1 BRASIL                                            SPLIMEIRA                                           BRASIL                                            SPSAO PAULO                                         2017120827000060000000000480INTEGRACAO                                        1526017   2018012220201223715260170000490000000000000000000932430592835ROBERTO L GARCIA JR                                         1                        1 3094138                           022012635010813332430592835   ROBERTO LOPES GARCIA JR                                     406332                          91651                                                                                                                                                                                                                                                                            
15148527400015951485274000159C00351330811 91652                         91652                         1510777013201712085BWC7689 1 BRASIL                                            SPLIMEIRA                                           BRASIL                                            SPSAO PAULO                                         2017120827000050000000000400INTEGRACAO                                        0777013   2018012210000523707770130000500000000000000000000908208452807SERGIO D BISCARO                                            1                        1 3093047                           020012635068358408208452807   SERGIO DONIZETE BISCARO                                     380831                          91652                                                                                                                                                                                                                                                                            
15148527400015951485274000159C00351334771 91656                         91656                         0466345091201712085DPE6932 1 BRASIL                                            SPLIMEIRA                                           BRASIL                                            SPSAO PAULO                                         2017120827000055000000000440INTEGRACAO                                        4186041   2018012220100523741860410000510000000000000000000405729267827WAGNER PRONI                                                1                        1 3094135                           025012635259737605729267827   WAGNER PRONI                                                406214                          91656                                                                                                                                                                                                                                                                            
15148527400015951485274000159C00351342071 91658                         91658                         0265004083201712085DPE7761 1 BRASIL                                            SPLIMEIRA                                           BRASIL                                            SPSAO PAULO                                         2017120827000020000000000160INTEGRACAO                                        4618047   2018012208200323746180470000520000000000000000000416072492860PAULO H ANGELO                                              1                        1 3092947                           020012635600759816072492860   PAULO HENRIQUE DE ANGELO                                    377432                          91658                                                                                                                                                                                                                                                                            
15148527400015951485274000159C00351343771 91660                         91660                         0272932018201712085EFO8301 1 BRASIL                                            SPLIMEIRA                                           BRASIL                                            SPSAO PAULO                                         2017120827000100000000000800INTEGRACAO                                        6428010   2018012216500923764280100000530000000000000000000480941869920ADILSON ROSSI                                               1                        1 3094017                           023012635689267580941869920   ADILSON ROSSI                                               398429                          91660                                                                                                                                                                                                                                                                            
15148527400015951485274000159C00351346831 91661                         91661                         1380262013201712085IAB3789 1 BRASIL                                            SPLIMEIRA                                           BRASIL                                            SPSAO PAULO                                         2017120827000002996000000024INTEGRACAO                                        0262013   2018012209022923702620130000540000000000000000002317396557534JOSE ERIVALDO MOTA CARDOSO                                  1                        1 3057619             63240816000102029012635827467663240816000102JOSE ERIVALDO MOTA CARDOSO                                  378944                          91661                                                                                                                                                                                                                                                                            
15148527400015951485274000159C00351463711 91671                         91671                         1607782017201712085BXF6581 1 BRASIL                                            SPLIMEIRA                                           BRASIL                                            SPSAO PAULO                                         2017120827000030000000000240INTEGRACAO                                        7782017   2018012215000923777820170000550000000000000000000902549291840EDUARDO B                                                   1                        1 3093762                           028012640527561102549291840   EDUARDO BARRANQUEIRO                                        392836                          91671                                                                                                                                                                                                                                                                            
15148527400015951485274000159C00351686731 91678                         91678                         1413847012201712115AJJ3207 1 BRASIL                                            SPLIMEIRA                                           BRASIL                                            SPSAO PAULO                                         2017121127000020000000000160INTEGRACAO                                        3847012   2018012218001223738470120000560000000000000000000977805178887ADEMAR N SOUZA                                              1                        1 3094066                           022012651745087377805178887   ADEMAR NOVAIS DE SOUZA                                      402841                          91678                                                                                                                                                                                                                                                                            
15148527400015951485274000159C00351750401 91701                         91701                         1435400014201712115HQG6787 1 BRASIL                                            SPLIMEIRA                                           BRASIL                                            SPSAO PAULO                                         2017121127000035500000000284INTEGRACAO                                        5400014   2018012202100323754000140000570000000000000000000909280206818ELIAS ALVES JR                                              1                        1 3092902                           024012654465016109280206818   ELIAS ALVES JR                                              375729                          91701                                                                                                                                                                                                                                                                            
15148527400015951485274000159C00351750401 91701                         91701                         1435400014201712115HQG6787 1 BRASIL                                            SPLIMEIRA                                           BRASIL                                            SPSAO PAULO                                         2017121127000025500000000204INTEGRACAO                                        5400014   2018012214400623754000140000580000000000000000000909280206818ELIAS ALVES JR                                              1                        1 3093648                           024012654465016109280206818   ELIAS ALVES JR                                              391870                          91701                                                                                                                                                                                                                                                                            
15148527400015951485274000159C00351750401 91701                         91701                         1435400014201712115HQG6787 1 BRASIL                                            SPLIMEIRA                                           BRASIL                                            SPSAO PAULO                                         2017121127000150000000001200INTEGRACAO                                        5400014   2018012220001023754000140000590000000000000000000909280206818ELIAS ALVES JR                                              1                        1 3094187                           024012654465016109280206818   ELIAS ALVES JR                                              405993                          91701                                                                                                                                                                                                                                                                            
15148527400015951485274000159C00351753181 91702                         91702                         1501996013201712115DBB3322 1 BRASIL                                            SPLIMEIRA                                           BRASIL                                            SPSAO PAULO                                         2017121127000110000000000880INTEGRACAO                                        3800015   2018012218300623738000150000600000000000000000000406005867822ELIO A PEREIRA                                              1                        1 3094093                           025012654568977606005867822   ELIO APARECIDO PEREIRA                                      403980                          91702                                                                                                                                                                                                                                                                            
15148527400015951485274000159C00351753561 91703                         91703                         1413855015201712115EJV7609 1 BRASIL                                            SPLIMEIRA                                           BRASIL                                            SPSAO PAULO                                         2017121127000080000000000640INTEGRACAO                                        3855015   2018012203102123738550150000610000000000000000000927877434987EZEQUIEL TONCHE                                             1                        1 3092905                           026012654582583527877434987   EZIQUIEL TONCHE                                             375795                          91703                                                                                                                                                                                                                                                                            
15148527400015951485274000159C00351755771 91704                         91704                         1478747016201712115BTB8142 1 BRASIL                                            SPLIMEIRA                                           BRASIL                                            SPSAO PAULO                                         2017121127000095000000000760INTEGRACAO                                        8747016   2018012222000523787470160000620000000000000000000938185875820LUIZ J TONCHE JR                                            1                        1 3094242                           029012654665410627877434987   EZIQUIEL TONCHE                                             407895                          91704                                                                                                                                                                                                                                                                            
15148527400015951485274000159C00351767931 91712                         91712                         0168775075201712115DAJ1291 1 BRASIL                                            SPLIMEIRA                                           BRASIL                                            SPSAO PAULO                                         2017121127000040000000000320INTEGRACAO                                        4149023   2018012212100523741490230000630000000000000000000400599411899HELENO J SILVA                                              1                        1 3093399                           029012655250038900599411899   HELENO JOSE DA SILVA                                        386467                          91712                                                                                                                                                                                                                                                                            
15148527400015951485274000159C00351777081 91721                         91721                         1232541010201712115HQZ9423 1 BRASIL                                            SPLIMEIRA                                           BRASIL                                            SPSAO PAULO                                         2017121127000018000000000144INTEGRACAO                                        2541010   2018012222400323725410100000640000000000000000000932705101870LEANDRO N SANTOS                                            1                        1 3094311                           029012655716009232705101870   LEANDRO NEVES DOS SANTOS                                    408325                          91721                                                                                                                                                                                                                                                                            
15148527400015951485274000159C00351779941 91723                         91723                         1150345014201712115CZC7445 1 BRASIL                                            SPLIMEIRA                                           BRASIL                                            SPSAO PAULO                                         2017121127000060000000000480INTEGRACAO                                        0345014   2018012220201423703450140000650000000000000000000984732539815GERALDO DOMINGUES                                           1                        1 3094196                           021012655796426115851122838   LOURDES MENDES DOMINGUES                                    406334                          91723                                                                                                                                                                                                                                                                            
15148527400015951485274000159C00351783281 91726                         91726                         1627423014201712115ANQ7158 1 BRASIL                                            SPLIMEIRA                                           BRASIL                                            SPSAO PAULO                                         2017121127000050000000000400INTEGRACAO                                        7423014   2018012223300323774230140000660000000000000000000925733456884LUIS C F SILVA                                              1                        1 3094370                           021012655956848825733456884   LUIS CARLOS FERNANDES DA SILVA                              408739                          91726                                                                                                                                                                                                                                                                            
15148527400015951485274000159C00351784201 91727                         91727                         1232528017201712115FCB2599 1 BRASIL                                            SPLIMEIRA                                           BRASIL                                            SPSAO PAULO                                         2017121127000005000000000040INTEGRACAO                                        2528017   2018012218200523725280170000670000000000000000000931904328806LUIS F QUEIROZ                                              1                        1 3094087                           024012656006782531904328806   LUIS FERNANDO DE QUEIROZ SILVA                              403560                          91727                                                                                                                                                                                                                                                                            
15148527400015951485274000159C00351786991 91728                         91728                         1589607018201712115BWK9895 1 BRASIL                                            SPLIMEIRA                                           BRASIL                                            SPSAO PAULO                                         2017121127000020000000000160INTEGRACAO                                        9607018   2018012217401623796070180000680000000000000000000939198273841LUIZ E CLEMENTE                                             1                        1 3094058                           024012656153365239198273841   LUIZ EDUARDO CLEMENTE DE SOUSA                              401743                          91728                                                                                                                                                                                                                                                                            
15148527400015951485274000159C00351787421 91729                         91729                         1215465013201712115HBZ1626 1 BRASIL                                            SPLIMEIRA                                           BRASIL                                            SPSAO PAULO                                         2017121127000100000000000800INTEGRACAO                                        5465013   2018012209200523754650130000690000000000000000000926870130809MOYSES A TEIXEIRA                                           1                        1 3093023                           026012656171723710578770000170MANOEL TEIXEIRA ROSA TRANSPORTES ME                         379470                          91729                                                                                                                                                                                                                                                                            
15148527400015951485274000159C00351791451 91732                         91732                         1607774014201712115BZT8365 1 BRASIL                                            SPLIMEIRA                                           BRASIL                                            SPSAO PAULO                                         2017121127000025000000000200INTEGRACAO                                        7774014   2018012220300323777740140000700000000000000000000918426400892MARCIO A AMARAL                                             1                        1 3094210                           029012656377599418426400892   MARCIO ALEXANDRE DO AMARAL                                  406605                          91732                                                                                                                                                                                                                                                                            
15148527400015951485274000159C00351793631 91733                         91733                         1592300016201712115MGP2754 1 BRASIL                                            SPLIMEIRA                                           BRASIL                                            SPSAO PAULO                                         2017121127000110000000000880INTEGRACAO                                        9279012   2018012211000923792790120000710000000000000000000489610997520MARCIO R C VEIGA                                            1                        1 3093254                           027012656482552189610997520   MARCIO RANGEL COSTA VEIGA                                   383456                          91733                                                                                                                                                                                                                                                                            
15148527400015951485274000159C00351798441 91737                         91737                         1037157020201712115AJY4232 1 BRASIL                                            SPLIMEIRA                                           BRASIL                                            SPSAO PAULO                                         2017121127000095000000000760INTEGRACAO                                        7157020   2018012201100323771570200000720000000000000000000941103197819WILLIAN ROGERIO                                             1                        1 3092898                           022012656738221917062468894   MARCOS ROGERIO ALVES                                        375654                          91737                                                                                                                                                                                                                                                                            
15148527400015951485274000159C00351799961 91738                         91738                         1479145012201712115FAO8370 1 BRASIL                                            SPLIMEIRA                                           BRASIL                                            SPSAO PAULO                                         2017121127000020000000000160INTEGRACAO                                        9145012   2018012213201223791450120000730000000000000000000980839908849MARIO L O GARCIA                                            1                        1 3093505                           025012656807448180839908849   MARIO LUIZ DE OLIVEIRA GARCIA                               388117                          91738                                                                                                                                                                                                                                                                            
15148527400015951485274000159C00351801441 91739                         91739                         1190452010201712115FRK5046 1 BRASIL                                            SPLIMEIRA                                           BRASIL                                            SPSAO PAULO                                         2017121127000010000000000080INTEGRACAO                                        0452010   2018012213501023704520100000740000000000000000000935082614843MICHEL R NACIMENTO                                          1                        1 3093569                           029012656886106535082614843   MICHEL RODRIGUES DO NASCIMENTO                              389514                          91739                                                                                                                                                                                                                                                                            
15148527400015951485274000159C00351808321 91743                         91743                         1557022018201712115CUB3859 1 BRASIL                                            SPLIMEIRA                                           BRASIL                                            SPSAO PAULO                                         2017121127000030000000000240INTEGRACAO                                        7022018   2018012209200723770220180000750000000000000000000925078634800ANDRE C MARTINS                                             1                        1 3093016                           020012657220587518072233882   PAULO HENRIQUE SAMPAIO                                      379473                          91743                                                                                                                                                                                                                                                                            
15148527400015951485274000159C00351809201 91744                         91744                         1150333010201712115CUB2443 1 BRASIL                                            SPLIMEIRA                                           BRASIL                                            SPSAO PAULO                                         2017121127000010000000000080INTEGRACAO                                        0333010   2018012210300323703330100000760000000000000000000918072233882PAULO H SAMPAIO                                             1                        1 3093151                           024012657275545018072233882   PAULO HENRIQUE SAMPAIO                                      381723                          91744                                                                                                                                                                                                                                                                            
15148527400015951485274000159C00351810261 91747                         91747                         0830296019201712115BFZ7446 1 BRASIL                                            SPLIMEIRA                                           BRASIL                                            SPSAO PAULO                                         2017121127000065000000000520INTEGRACAO                                        0296019   2018012215301123702960190000770000000000000000002371986405834PEDRO FERREIRA                                              1                        1 3093847             11843123000100027012657330065811843123000100PEDRO FERREIRA TRANSPORTES ME                               394340                          91747                                                                                                                                                                                                                                                                            
15148527400015951485274000159C00351814081 91750                         91750                         1478756017201712115DBM1220 1 BRASIL                                            SPLIMEIRA                                           BRASIL                                            SPSAO PAULO                                         2017121127000145000000001160INTEGRACAO                                        8756017   2018012210300723787560170000780000000000000000000927752405850WILLIANS R BORGES                                           1                        1 3093135                           022012657498801818212504867   REGINALDO CARVALHO                                          381917                          91750                                                                                                                                                                                                                                                                            
15148527400015951485274000159C00351818561 91751                         91751                         1479141011201712115DBL1051 1 BRASIL                                            SPLIMEIRA                                           BRASIL                                            SPSAO PAULO                                         2017121127000040000000000320INTEGRACAO                                        9141011   2018012219500423791410110000790000000000000000000918212504867REGINALDO CARVALHO                                          1                        1 3094169                           020012657668594818212504867   REGINALDO CARVALHO                                          405870                          91751                                                                                                                                                                                                                                                                            
15148527400015951485274000159C00351818561 91751                         91751                         1479141011201712115DBL1051 1 BRASIL                                            SPLIMEIRA                                           BRASIL                                            SPSAO PAULO                                         2017121127000040000000000320INTEGRACAO                                        9141011   2018012220002723791410110000800000000000000000000918212504867REGINALDO CARVALHO                                          1                        1 3094120                           020012657668594818212504867   REGINALDO CARVALHO                                          405996                          91751                                                                                                                                                                                                                                                                            
15148527400015951485274000159C00351820091 91752                         91752                         1270011017201712115DDY4684 1 BRASIL                                            SPLIMEIRA                                           BRASIL                                            SPSAO PAULO                                         2017121127000095000000000760INTEGRACAO                                        0011017   2018012222500623700110170000810000000000000000000914989733886REYNALDO BENATTI FL                                         1                        1 3094335                           029012657720795114989733886   REYNALDO BENATTI FL                                         408233                          91752                                                                                                                                                                                                                                                                            
15148527400015951485274000159C00351825671 91755                         91755                         1376641014201712115CZC5904 1 BRASIL                                            SPLIMEIRA                                           BRASIL                                            SPSAO PAULO                                         2017121127000037500000000300INTEGRACAO                                        6641014   2018012210301023766410140000820000000000000000000915500833847RODNEI GALUSNI                                              1                        1 3093116                           023012657935373715500833847   RODNEI GALUSNI                                              381725                          91755                                                                                                                                                                                                                                                                            
15148527400015951485274000159C00351826241 91756                         91756                         1354853011201712115DKG7457 1 BRASIL                                            SPLIMEIRA                                           BRASIL                                            SPSAO PAULO                                         2017121127000015000000000120INTEGRACAO                                        4853011   2018012210400323748530110000830000000000000000000917457960880RONALDO A D CARDOSO                                         1                        1 3093228                           024012657954417217457960880   RONALDO ADRIANO DIAS CARDOSO                                382333                          91756                                                                                                                                                                                                                                                                            
15148527400015951485274000159C00351829311 91759                         91759                         1167179018201712115DPE7074 1 BRASIL                                            SPLIMEIRA                                           BRASIL                                            SPSAO PAULO                                         2017121127000025000000000200INTEGRACAO                                        7179018   2018012209500723771790180000840000000000000000000913951719800SERGIO A SILVA                                              1                        1 3093077                           028012658070645413951719800   SERGIO AGUIAR SILVA                                         380651                          91759                                                                                                                                                                                                                                                                            
15148527400015951485274000159C00351829311 91759                         91759                         1167179018201712115DPE7074 1 BRASIL                                            SPLIMEIRA                                           BRASIL                                            SPSAO PAULO                                         2017121127000025000000000200INTEGRACAO                                        7179018   2018012217401823771790180000850000000000000000000913951719800SERGIO A SILVA                                              1                        1 3094051                           028012658070645413951719800   SERGIO AGUIAR SILVA                                         401726                          91759                                                                                                                                                                                                                                                                            
15148527400015951485274000159C00351831961 91761                         91761                         1424446030201712115BXE8476 1 BRASIL                                            SPLIMEIRA                                           BRASIL                                            SPSAO PAULO                                         2017121127000010000000000080INTEGRACAO                                        4259038   2018012210301423742590380000860000000000000000000407418559844VANDERLEI A SANAVIO                                         1                        1 3093157                           028012658174447507418559844   VANDERLEI ANTONIO SANAVIO                                   381919                          91761                                                                                                                                                                                                                                                                            
15148527400015951485274000159C00351834741 91763                         91763                         1510774010201712115JQW8526 1 BRASIL                                            SPLIMEIRA                                           BRASIL                                            SPSAO PAULO                                         2017121127000150000000001200INTEGRACAO                                        0774010   2018012210100623707740100000870000000000000000000991431697834ESMERALDO S SILVA                                           1                        1 3093100                           028012658305612506838443856   VLADIMIR APARECIDO BEVILACQUA                               381229                          91763                                                                                                                                                                                                                                                                            
15148527400015951485274000159C00351908091 91764                         91764                         1607776019201712125FHD5185 1 BRASIL                                            SPLIMEIRA                                           BRASIL                                            SPSAO PAULO                                         2017121227000060000000000480INTEGRACAO                                        7776019   2018012221000823777760190000880000000000000000000900488173841AMARO JOSE LUIZ                                             1                        1 3094220                           021012662358127000488173841   AMARO JOSE LUIS                                             407118                          91764                                                                                                                                                                                                                                                                            
15148527400015951485274000159C00355353901 92155                         92155                         1607780011201801025BWY5476 1 BRASIL                                            SPLIMEIRA                                           BRASIL                                            SPSAO PAULO                                         2018010227000110000000000880INTEGRACAO                                        7780011   2018012208300823777800110000890000000000000000000935650282897VAGNER S PEREIRA                                            1                        1 3092955                           022012827419380806838443856   VLADIMIR APARECIDO BEVILACQUA                               377644                          92155                                                                                                                                                                                                                                                                            
15148527400015951485274000159C00355639871 92164                         92164                         1393868012201801045ODA6686 1 BRASIL                                            SPLIMEIRA                                           BRASIL                                            SPSAO PAULO                                         2018010427000030000000000240INTEGRACAO                                        3868012   2018012213201823738680120000900000000000000000000979222765672CUSTODIO S FONSECA                                          1                        1 3093479                           023012840528575114173244000180TRANSPORTADORA BRUZASCO LTDA ME                             388411                          92164                                                                                                                                                                                                                                                                            
15148527400015951485274000159C00356718511 92358                         92358                         1197082018201801105IPF7549 1 BRASIL                                            SPLIMEIRA                                           BRASIL                                            SPOSASCO                                            2018011027000045000000000360INTEGRACAO                                        7082018   2018012206500323770820180000910000000000000000002383163875653JOSE ADENILSON DA SILVA                                     1                        1 3092917             24469045000178027012890601555124469045000178JOSE ADENILSON DA SILVA 83163875653                         376432                          92358                                                                                                                                                                                                                                                                            
15148527400015951485274000159C00358553861 92414                         92414                         1590304019201801225CZC3304 1 BRASIL                                            SPLIMEIRA                                           BRASIL                                            SPOSASCO                                            2018012227000002996000000024INTEGRACAO                                        0304019   2018012210501823703040190000920000000000000000002384942240859SEBASTIAO RODRIGUES DOS SANTOS                              1                        1 3093053             08777683000108027012980588525208777683000108SEBASTIAO RODRIGUES DOS SANTOS TRANSPORTES RODOVIARIOS ME   382915                          92414                                                                                                                                                                                                                                                                            
15148527400015951485274000159C00358553861 92414                         92414                         1590304019201801225CZC3304 1 BRASIL                                            SPLIMEIRA                                           BRASIL                                            SPOSASCO                                            2018012227000030000000000240INTEGRACAO                                        0304019   2018012210502023703040190000930000000000000000002384942240859SEBASTIAO RODRIGUES DOS SANTOS                              1                        1 3093234             08777683000108027012980588525208777683000108SEBASTIAO RODRIGUES DOS SANTOS TRANSPORTES RODOVIARIOS ME   382917                          92414                                                                                                                                                                                                                                                                            
15148527400015951485274000159C00358668511 92417                         92417                         1627414013201801225GVH8749 1 BRASIL                                            SPLIMEIRA                                           BRASIL                                            SPOSASCO                                            2018012227000002996000000024INTEGRACAO                                        7414013   2018012222000823774140130000940000000000000000000907107763814JAIR TOMAZ                                                  1                        1 3093946                           023012985620166507107763814   JAIR TOMAZ                                                  407897                          92417                                                                                                                                                                                                                                                                            
15148527400015951485274000159C00358668511 92417                         92417                         1232531011201801225GVH8749 1 BRASIL                                            SPLIMEIRA                                           BRASIL                                            SPOSASCO                                            2018012227000010000000000080INTEGRACAO                                        2531011   2018012222000923725310110000950000000000000000000944048050630SERGIO C MARTINS                                            1                        1 3094240                           023012985620166507107763814   JAIR TOMAZ                                                  407899                          92417                                                                                                                                                                                                                                                                            
15148527400015951485274000159C00358531705 NAO DECLARADO                                               1510789018201801223        1 BRASIL                                            SPLIMEIRA                                           BRASIL                                            SPINDAIATUBA                                        2018012217000004120000000033SARITA BUENO DE CAMPOS                            0789018   2018012207323523707890180000960000041200000011500977866967849MAURILIO DA SILVA                                           1                                                                            77866967849   MAURILIO DA SILVA                                           376762    5                     NAO DECLARADO                                                                                                                                                                                                                                                                    
15148527400015951485274000159C00358532065 NAO DECLARADO                                               1607781019201801223        2 BRASIL                                            SPLIMEIRA                                           BRASIL                                            SPBRAGANCA PAULISTA                                 2018012217000008620000000069SARITA BUENO DE CAMPOS                            7781019   2018012207392523777810190000970000086200000298200915465255803RENATO F MARCONDES                                          1                                                                            15465255803   RENATO FERREIRA MARCONDES                                   376868    5                     NAO DECLARADO                                                                                                                                                                                                                                                                    
15148527400015951485274000159C00358532235 NAO DECLARADO                                               1367904017201801223        2 BRASIL                                            SPLIMEIRA                                           BRASIL                                            SPITAPETININGA                                      2018012217000010080000000081SARITA BUENO DE CAMPOS                            7904017   2018012207415623779040170000980000100800000056802326997793851WILLIAN FERREIRA MARCONDES                                  1                                                                            17474066000116WILLIAN FERREIRA MARCONDES - ME                             376883    5           1258272223NAO DECLARADO                                                                                                                                                                                                                                                                    
15148527400015951485274000159C00358533715 NAO DECLARADO                                               0265004083201801223        8 BRASIL                                            SPLIMEIRA                                           BRASIL                                            SPLIMEIRA                                           2018012217000009600000000077SARITA BUENO DE CAMPOS                            4618047   2018012208021723746180470000990000096000000000000416072492860PAULO H ANGELO                                              1                                                                            16072492860   PAULO HENRIQUE DE ANGELO                                    377002    5                     NAO DECLARADO                                                                                                                                                                                                                                                                    
