020170321                                                                                                                                                                                                                                                                                                                                                                                                                                                      000001                                                                                                                                                                                                                                                                                                                                                                                                                                                                                                                                                                   
15148527400015951485274000159C00287318051 23603                         84300                         0135704016201612025BWC7689 1 BRASIL                                            SPLIMEIRA                                           BRASIL                                            SPSAO PAULO                                         2016120227000050000000000400INTEGRACAO                                        3565017   2017013022100723735650170000020000000000000000000409592597839JOSE R CLAUDIANO                                            1                        1 2809039                           029009582455669009592597839   JOSE ROBERTO CLAUDIANO                                      690669                                                                                                                                                                                                                                                                                                           
15148527400015951485274000159C00287371911 24792                         84304                         0422286014201612025DBC1380 1 BRASIL                                            SPLIMEIRA                                           BRASIL                                            SPSAO PAULO                                         2016120227000002996000000024INTEGRACAO                                        2286014   2017013018401923722860140000030000000000000000000996492830806NIVALDO PAVANELLO                                           1                        1 2768701                           023009585112911696492830806   nivaldo pavanello                                           687399                                                                                                                                                                                                                                                                                                           
15148527400015951485274000159C00287946641 221254                        84320                         1393874010201612065BWB9478 1 BRASIL                                            SPLIMEIRA                                           BRASIL                                            SPSAO PAULO                                         2016120627000010000000000080INTEGRACAO                                        3874010   2017013012401023738740100000040000000000000000000901642228800CLAUDEMIR QUESSADA                                          1                        1 2808678                           022009611710279001642228800   CLAUDEMIR QUESSADA                                          673033                                                                                                                                                                                                                                                                                                           
15148527400015951485274000159C00288004351 24464                         84329                         0422310012201612065DBC0922 1 BRASIL                                            SPLIMEIRA                                           BRASIL                                            SPSAO PAULO                                         2016120627000002996000000024INTEGRACAO                                        2310012   2017013018401823723100120000050000000000000000000901604974850JOSE ROCHA BUENO                                            1                        1 2770936                           028009614447602701604974850   JOSE ROCHA BUENO                                            687483                                                                                                                                                                                                                                                                                                           
15148527400015951485274000159C00288103401 10606                         84334                         1393868012201612075CQF2397 1 BRASIL                                            SPLIMEIRA                                           BRASIL                                            SPSAO PAULO                                         2016120727000030000000000240INTEGRACAO                                        3868012   2017013014002523738680120000060000000000000000000979222765672CUSTODIO S FONSECA                                          1                        1 2808787                           027009619822991014173244000180TRANSPORTADORA BRUZASCO LTDA ME                             674870                                                                                                                                                                                                                                                                                                           
15148527400015951485274000159C00288150951 24303                         84337                         1380569011201612075BTR1378 1 BRASIL                                            SPLIMEIRA                                           BRASIL                                            SPSAO PAULO                                         2016120727000050000000000400INTEGRACAO                                        0569011   2017013020300423705690110000070000000000000000000901653338806CLEUCIO A SILVA                                             1                        1 2808976                           021009622139656101653338806   CLEUCIO APARECIDO DA SILVA                                  689308                                                                                                                                                                                                                                                                                                           
15148527400015951485274000159C00288153631 1827                          84340                         1413849018201612075EJV5072 1 BRASIL                                            SPLIMEIRA                                           BRASIL                                            SPSAO PAULO                                         2016120727000050000000000400INTEGRACAO                                        3849018   2017013023100323738490180000080000000000000000000929554811810VAGNER O SIQUEIRA                                           1                        1 2809099                           026009622293204729554811810   VAGNER ORTEGA SIQUEIRA                                      691030                                                                                                                                                                                                                                                                                                           
15148527400015951485274000159C00288154991 22321                         84341                         1413838011201612075DBC1203 1 BRASIL                                            SPLIMEIRA                                           BRASIL                                            SPSAO PAULO                                         2016120727000050000000000400INTEGRACAO                                        3838011   2017013012100423738380110000090000000000000000000910065639898MARIO A K SEVDALIS                                          1                        1 2808651                           025009622364464610065639898   MARIO ANTONIO KILO SEVDALIS                                 672174                                                                                                                                                                                                                                                                                                           
15148527400015951485274000159C00288183561 221260                        84344                         0830312014201612075ODA6686 1 BRASIL                                            SPLIMEIRA                                           BRASIL                                            SPSAO PAULO                                         2016120727000035000000000280INTEGRACAO                                        0312014   2017013018200723703120140000100000000000000000002301630963844DOMINGOS EDUARDO BRUZASCO                                   1                        1 2808906             14173244000180022009623826495714173244000180TRANSPORTADORA BRUZASCO LTDA ME                             686705                                                                                                                                                                                                                                                                                                           
15148527400015951485274000159C00288428581 6869                          84355                         0227011017201612085EFO8333 1 BRASIL                                            SPLIMEIRA                                           BRASIL                                            SPSAO PAULO                                         2016120827000150000000001200INTEGRACAO                                        4458014   2017013023200423744580140000110000000000000000000426307445823ABEL C METZNER                                              1                        1 2809114                           021009636315518926307445823   ABEL C METZNER                                              691172                                                                                                                                                                                                                                                                                                           
15148527400015951485274000159C00288429531 104667                        84356                         1465294015201612085DTV5919 1 BRASIL                                            SPLIMEIRA                                           BRASIL                                            SPSAO PAULO                                         2016120827000035000000000280INTEGRACAO                                        6430016   2017013003200323764300160000120000000000000000000406947120861ADAO R MOURA                                                1                        1 2808123                           022009636372018106947120861   ADAO RODRIGUES DE MOURA                                     662997                                                                                                                                                                                                                                                                                                           
15148527400015951485274000159C00288431361 104664                        84358                         1167178010201612085AJJ3207 1 BRASIL                                            SPLIMEIRA                                           BRASIL                                            SPSAO PAULO                                         2016120827000020000000000160INTEGRACAO                                        7178010   2017013018500923771780100000130000000000000000000977805178887ADEMAR N SOUZA                                              1                        1 2808879                           026009636474821577805178887   ADEMAR N SOUZA                                              687691                                                                                                                                                                                                                                                                                                           
15148527400015951485274000159C00288431361 104664                        84358                         1167178010201612085AJJ3207 1 BRASIL                                            SPLIMEIRA                                           BRASIL                                            SPSAO PAULO                                         2016120827000024000000000192INTEGRACAO                                        7178010   2017013023000523771780100000140000000000000000000977805178887ADEMAR N SOUZA                                              1                        1 2809085                           026009636474821577805178887   ADEMAR N SOUZA                                              690992                                                                                                                                                                                                                                                                                                           
15148527400015951485274000159C00288432371 9286                          84359                         0210586067201612085ESU5447 1 BRASIL                                            SPLIMEIRA                                           BRASIL                                            SPSAO PAULO                                         2016120827000100000000000800INTEGRACAO                                        2265015   2017013018201323722650150000150000000000000000000426743368890ADENILSON P CRUZ                                            1                        1 2808903                           021009636532613326743368890   Adenilson Pereira da Cruz                                   686718                                                                                                                                                                                                                                                                                                           
15148527400015951485274000159C00288432881 54699                         84360                         0453365050201612085KQC9415 1 BRASIL                                            SPLIMEIRA                                           BRASIL                                            SPSAO PAULO                                         2016120827000013200000000106INTEGRACAO                                        4125023   2017013020200823741250230000160000000000000000000406225606890ADEVALDO OLIVEIRA                                           1                        1 2807792                           029009636566520806225606890   Adevaldo de Oliveira Junior                                 689250                                                                                                                                                                                                                                                                                                           
15148527400015951485274000159C00288476531 9279                          84365                         1354825019201612095FFW1280 1 BRASIL                                            SPLIMEIRA                                           BRASIL                                            SPSAO PAULO                                         2016120927000035000000000280INTEGRACAO                                        4825019   2017013013201523748250190000170000000000000000000931518252818FABIO BARBOSA                                               1                        1 2808703                           028009639396601530668292865   ALESSANDRA BARBOSA                                          673734                                                                                                                                                                                                                                                                                                           
15148527400015951485274000159C00288498041 19067                         84377                         0729979014201612095CYN5506 1 BRASIL                                            SPLIMEIRA                                           BRASIL                                            SPSAO PAULO                                         2016120927000029340000000235INTEGRACAO                                        9979014   2017013017400923799790140000180000000000000000000927713424806ANDERSON W F SILVA                                          1                        1 2807585                           020009640332138627713424806   ANDERSON WILSON FREITAS CARVALHO DA SILVA                   685032                                                                                                                                                                                                                                                                                                           
15148527400015951485274000159C00288514231 221227                        84380                         1301528013201612095DBC0991 1 BRASIL                                            SPLIMEIRA                                           BRASIL                                            SPSAO PAULO                                         2016120927000010000000000080INTEGRACAO                                        1528013   2017013008300423715280130000190000000000000000000969547912968ANTONIO R G FONSECA                                         1                        1 2808225                           025009641169127169547912968   ANTONIO ROBERTO GOMES FONSECA                               664642                                                                                                                                                                                                                                                                                                           
15148527400015951485274000159C00288520681 174777                        84382                         1354835018201612095DPE7075 1 BRASIL                                            SPLIMEIRA                                           BRASIL                                            SPSAO PAULO                                         2016120927000150000000001200INTEGRACAO                                        4835018   2017013020504823748350180000200000000000000000000906290232800APARECIDO R PONTES                                          1                        1 2808997                           028009641441975506290232800   Aparecido Rodrigues pontes                                  689749                                                                                                                                                                                                                                                                                                           
15148527400015951485274000159C00288521601 24271                         84384                         1444046011201612095DIY2604 1 BRASIL                                            SPLIMEIRA                                           BRASIL                                            SPSAO PAULO                                         2016120927000020000000000160INTEGRACAO                                        2586015   2017013019501423725860150000210000000000000000000430189952873ARY L BRISOLLA                                              1                        1 2808943                           020009641478720630189952873   ARY LEME BRISOLLA NETTO                                     688695                                                                                                                                                                                                                                                                                                           
15148527400015951485274000159C00288523961 90902                         84385                         1424279028201612095ELQ7472 1 BRASIL                                            SPLIMEIRA                                           BRASIL                                            SPSAO PAULO                                         2016120927000008000000000064INTEGRACAO                                        4203028   2017013020002223742030280000220000000000000000000436497274804AURINO M FERREIRA                                           1                        1 2808958                           024009641589162236497274804   AURINO MAIA FERREIRA                                        688871                                                                                                                                                                                                                                                                                                           
15148527400015951485274000159C00288548391 9295                          84389                         1435396014201612095ESU5269 1 BRASIL                                            SPLIMEIRA                                           BRASIL                                            SPSAO PAULO                                         2016120927000010000000000080INTEGRACAO                                        1532015   2017013008000823715320150000230000000000000000000911929719817CELSO B MACHADO                                             1                        1 2808191                           020009642755640511929719817   Celso batista machado                                       664018                                                                                                                                                                                                                                                                                                           
15148527400015951485274000159C00288551611 18941                         84393                         1424286024201612095AAL3952 1 BRASIL                                            SPLIMEIRA                                           BRASIL                                            SPSAO PAULO                                         2016120927000024180000000193INTEGRACAO                                        4206021   2017013020504923742060210000240000000000000000000401653786892CLAUDIO A SILVA                                             1                        1 2807594                           029009642954382301653786892   CLAUDIO APARECIDO DA SILVA                                  689657                                                                                                                                                                                                                                                                                                           
15148527400015951485274000159C00288552651 1799                          84395                         1354832015201612095FGG9920 1 BRASIL                                            SPLIMEIRA                                           BRASIL                                            SPSAO PAULO                                         2016120927000010000000000080INTEGRACAO                                        4832015   2017013009300523748320150000250000000000000000000975214180853CLAUDIO A SIQUEIRA                                          1                        1 2808315                           028009643015687675214180853   CLAUDIO APARECIDO DO VALE SIQUEIRA                          666101                                                                                                                                                                                                                                                                                                           
15148527400015951485274000159C00288553511 104735                        84398                         1354836016201612095DBL7891 1 BRASIL                                            SPLIMEIRA                                           BRASIL                                            SPSAO PAULO                                         2016120927000020000000000160INTEGRACAO                                        4836016   2017013010302423748360160000260000000000000000000915851126825CLEBER R DOMINGUES                                          1                        1 2808469                           021009643066209315851126825   CLEBER ROGERIO DOMINGUES                                    668130                                                                                                                                                                                                                                                                                                           
15148527400015951485274000159C00288553541 104671                        84397                         1380258011201612095DNA8151 1 BRASIL                                            SPLIMEIRA                                           BRASIL                                            SPSAO PAULO                                         2016120927000020000000000160INTEGRACAO                                        0258011   2017013020100623702580110000270000000000000000002306746863816VICTOR ALBERTO GANDRA BRAZ                                  1                        1 2808962             21028404000163025009643069780121028404000163A T TRANSPORTES EIRELI ME                                   689069                                                                                                                                                                                                                                                                                                           
15148527400015951485274000159C00288553541 104671                        84397                         1380258011201612095DNA8151 1 BRASIL                                            SPLIMEIRA                                           BRASIL                                            SPSAO PAULO                                         2016120927000085000000000680INTEGRACAO                                        0258011   2017013022400623702580110000280000000000000000002306746863816VICTOR ALBERTO GANDRA BRAZ                                  1                        1 2809066             21028404000163025009643069780121028404000163A T TRANSPORTES EIRELI ME                                   690938                                                                                                                                                                                                                                                                                                           
15148527400015951485274000159C00288553921 35987                         84399                         1354824012201612095CYN2539 1 BRASIL                                            SPLIMEIRA                                           BRASIL                                            SPSAO PAULO                                         2016120927000035000000000280INTEGRACAO                                        4824012   2017013017201423748240120000290000000000000000000922072474817CLEBER T B SANTOS                                           1                        1 2808894                           021009643090371222072474817   CLEBER TRAVEZANI BOSGES DOS SANTOS                          684084                                                                                                                                                                                                                                                                                                           
15148527400015951485274000159C00288555181 54709                         84400                         1483045014201612095BWY0827 1 BRASIL                                            SPLIMEIRA                                           BRASIL                                            SPSAO PAULO                                         2016120927000016800000000134INTEGRACAO                                        2262012   2017013017402123722620120000300000000000000000000480050913891CLEIDO N MELO                                               1                        1 2807820                           027009643167509780050913891   CLEIDO N MELO                                               685114                                                                                                                                                                                                                                                                                                           
15148527400015951485274000159C00288559931 23698                         84409                         1329621014201612095FEI4293 1 BRASIL                                            SPLIMEIRA                                           BRASIL                                            SPSAO PAULO                                         2016120927000035000000000280INTEGRACAO                                        9621014   2017013004001523796210140000310000000000000000000934501205814DIEGO Q ALMEIDA                                             1                        1 2808130                           027009643474764634501205814   DIEGO Q ALMEIDA                                             663028                                                                                                                                                                                                                                                                                                           
15148527400015951485274000159C00288561231 23614                         84410                         0968974041201612095DBC0547 1 BRASIL                                            SPLIMEIRA                                           BRASIL                                            SPSAO PAULO                                         2016120927000050000000000400INTEGRACAO                                        4138026   2017013020100723741380260000320000000000000000000453228057615DONIZETTI REZENDE                                           1                        1 2808973                           020009643547511853228057615   DONIZETTI REZENDE                                           688981                                                                                                                                                                                                                                                                                                           
15148527400015951485274000159C00288591551 104717                        84423                         0830350014201612095DPB7675 1 BRASIL                                            SPLIMEIRA                                           BRASIL                                            SPSAO PAULO                                         2016120927000120000000000960INTEGRACAO                                        0350014   2017013012303323703500140000330000000000000000002326491412806EDVALDO RICHITTA                                            1                        1 2808675             07414374000100026009644997424007414374000100EDVALDO RICHITTA TRANSPORTES ME                             672885                                                                                                                                                                                                                                                                                                           
15148527400015951485274000159C00288593271 36005                         84424                         1380565019201612095BWS6879 1 BRASIL                                            SPLIMEIRA                                           BRASIL                                            SPSAO PAULO                                         2016120927000020000000000160INTEGRACAO                                        0565019   2017013017402123705650190000340000000000000000000952146057904ELCIO DANIEL                                                1                        1 2808897                           023009645069780152146057904   ELCIO DANIEL                                                685120                                                                                                                                                                                                                                                                                                           
15148527400015951485274000159C00288601141 9283                          84427                         0118418093201612095EJV7609 1 BRASIL                                            SPLIMEIRA                                           BRASIL                                            SPSAO PAULO                                         2016120927000100000000000800INTEGRACAO                                        4145021   2017013010505123741450210000350000000000000000000427877434987EZIQUIEL TONCHE                                             1                        1 2808534                           028009645415099527877434987   EZEQUIEL TONCHE                                             669146                                                                                                                                                                                                                                                                                                           
15148527400015951485274000159C00288603561 10857                         84428                         1353007015201612095DBC1431 1 BRASIL                                            SPLIMEIRA                                           BRASIL                                            SPSAO PAULO                                         2016120927000060000000000480INTEGRACAO                                        3007015   2017013022100323730070150000360000000000000000000932175549810FABIANO JOSE VIANA                                          1                        1 2809045                           025009645539412732175549810   FABIANO JOSE VIANA                                          690595                                                                                                                                                                                                                                                                                                           
15148527400015951485274000159C00288606381 54703                         84431                         1424356022201612095BWP7564 1 BRASIL                                            SPLIMEIRA                                           BRASIL                                            SPSAO PAULO                                         2016120927000024000000000192INTEGRACAO                                        4226029   2017013008401023742260290000370000000000000000000421370735871FERNANDO J MORAES                                           1                        1 2807090                           028009645694565721370735871   FERNANDO J MORAES                                           664840                                                                                                                                                                                                                                                                                                           
15148527400015951485274000159C00288606381 54703                         84431                         1424356022201612095BWP7564 1 BRASIL                                            SPLIMEIRA                                           BRASIL                                            SPSAO PAULO                                         2016120927000024000000000192INTEGRACAO                                        4226029   2017013008401123742260290000380000000000000000000421370735871FERNANDO J MORAES                                           1                        1 2807817                           028009645694565721370735871   FERNANDO J MORAES                                           664828                                                                                                                                                                                                                                                                                                           
15148527400015951485274000159C00288607641 9355                          84432                         1270016016201612095EBC3761 1 BRASIL                                            SPLIMEIRA                                           BRASIL                                            SPSAO PAULO                                         2016120927000015000000000120INTEGRACAO                                        0016016   2017013001112623700160160000390000000000000000000979194710449FRANCISCO C MELO                                            1                        1 2808110                           026009645751857979194710449   FRANCISCO DAS CHAGAS DE MELO                                662416                                                                                                                                                                                                                                                                                                           
15148527400015951485274000159C00288610841 6105                          84435                         0168775075201612095DAJ1291 1 BRASIL                                            SPLIMEIRA                                           BRASIL                                            SPSAO PAULO                                         2016120927000040000000000320INTEGRACAO                                        4149023   2017013010202923741490230000400000000000000000000400599411899HELENO J SILVA                                              1                        1 2808425                           023009645880288900599411899   HELENO JOSE DA SILVA                                        667777                                                                                                                                                                                                                                                                                                           
15148527400015951485274000159C00288620231 91080                         84441                         1442515014201612095EFV4023 1 BRASIL                                            SPLIMEIRA                                           BRASIL                                            SPSAO PAULO                                         2016120927000050000000000400INTEGRACAO                                        9219012   2017013011500923792190120000410000000000000000000433366426802IVO D S JR                                                  1                        1 2808634                           020009646353642033366426802   IVO DAVID DE SOUZA JUNIOR                                   671447                                                                                                                                                                                                                                                                                                           
15148527400015951485274000159C00288630871 174775                        84447                         1380576016201612095DPE7319 1 BRASIL                                            SPLIMEIRA                                           BRASIL                                            SPSAO PAULO                                         2016120927000150000000001200INTEGRACAO                                        0576016   2017013021100523705760160000420000000000000000000958459766934JOELSON A C SANTOS                                          1                        1 2809015                           027009646830386058459766934   JOELSON A C SANTOS                                          689926                                                                                                                                                                                                                                                                                                           
15148527400015951485274000159C00288646101 35993                         84460                         1424402024201612095DJQ4992 1 BRASIL                                            SPLIMEIRA                                           BRASIL                                            SPSAO PAULO                                         2016120927000010000000000080INTEGRACAO                                        4240020   2017013010302223742400200000430000000000000000000400171161807JOSE M ALVES                                                1                        1 2808476                           026009647509960300171161807   JOSE MACHADO ALVES                                          668127                                                                                                                                                                                                                                                                                                           
15148527400015951485274000159C00288649021 104670                        84463                         1354850017201612095AKN7535 1 BRASIL                                            SPLIMEIRA                                           BRASIL                                            SPSAO PAULO                                         2016120927000035000000000280INTEGRACAO                                        4850017   2017013002100423748500170000440000000000000000000928224784819JULIANO JAMES MELO                                          1                        1 2808116                           022009647672119428224784819   JULIANO JAMES DE MELO                                       662870                                                                                                                                                                                                                                                                                                           
15148527400015951485274000159C00288652891 24273                         84464                         1354762014201612095CVP8184 1 BRASIL                                            SPLIMEIRA                                           BRASIL                                            SPSAO PAULO                                         2016120927000200000000001600INTEGRACAO                                        4762014   2017013014200523747620140000450000000000000000002327955295803Kleber de Souza palma                                       1                        1 2808797             15202376000156021009647875695815202376000156KLEBER DE SOUZA PALMA TRANSPORTES EPP                       675590                                                                                                                                                                                                                                                                                                           
15148527400015951485274000159C00288656511 24622                         84469                         1393878011201612095CNR6832 1 BRASIL                                            SPLIMEIRA                                           BRASIL                                            SPSAO PAULO                                         2016120927000020000000000160INTEGRACAO                                        3878011   2017013010302723738780110000460000000000000000000900863687881NELSON A L SANTOS                                           1                        1 2808485                           026009648090306816556122000107LOURDES AG SANTOS TRANSPORTES ME                            668183                                                                                                                                                                                                                                                                                                           
15148527400015951485274000159C00288656511 24622                         84469                         1393878011201612095CNR6832 1 BRASIL                                            SPLIMEIRA                                           BRASIL                                            SPSAO PAULO                                         2016120927000230000000001840INTEGRACAO                                        3878011   2017013019100623738780110000470000000000000000000900863687881NELSON A L SANTOS                                           1                        1 2808911                           026009648090306816556122000107LOURDES AG SANTOS TRANSPORTES ME                            687992                                                                                                                                                                                                                                                                                                           
15148527400015951485274000159C00288657211 104648                        84470                         1150345014201612095CZC7445 1 BRASIL                                            SPLIMEIRA                                           BRASIL                                            SPSAO PAULO                                         2016120927000070000000000560INTEGRACAO                                        0345014   2017013021300723703450140000480000000000000000000984732539815GERALDO DOMINGUES                                           1                        1 2809021                           029009648140410915851122838   LOURDES M DOMINGUES                                         690029                                                                                                                                                                                                                                                                                                           
15148527400015951485274000159C00288660561 6886                          84475                         1435389019201612095DPE7544 1 BRASIL                                            SPLIMEIRA                                           BRASIL                                            SPSAO PAULO                                         2016120927000150000000001200INTEGRACAO                                        5389019   2017013019301223753890190000490000000000000000000913941116819LUIS V CHIQUETO                                             1                        1 2808926                           025009648359851813941116819   LUIS V CHIQUETO                                             688377                                                                                                                                                                                                                                                                                                           
15148527400015951485274000159C00288661681 104662                        84477                         0730067015201612095BWK9895 1 BRASIL                                            SPLIMEIRA                                           BRASIL                                            SPSAO PAULO                                         2016120927000026000000000208INTEGRACAO                                        0067015   2017013018501023700670150000500000000000000000000939198273841LUIZ E CLEMENTE                                             1                        1 2808816                           020009648432114539198273841   LUIZ EDUARDO CLEMENTE                                       687692                                                                                                                                                                                                                                                                                                           
15148527400015951485274000159C00288803261 104517                        84489                         1232534015201612125DAH0547 1 BRASIL                                            SPLIMEIRA                                           BRASIL                                            SPSAO PAULO                                         2016121227000075000000000600INTEGRACAO                                        2534015   2017013018500623725340150000510000000000000000000909321222804MARCO A M C P BOSCH                                         1                        1 2808863                           022009659090497209321222804   Marco Alexandre Moreno Covre PS Bosch                       687685                                                                                                                                                                                                                                                                                                           
15148527400015951485274000159C00288805881 104941                        84491                         1532535022201612125AJY4232 1 BRASIL                                            SPLIMEIRA                                           BRASIL                                            SPSAO PAULO                                         2016121227000025500000000204INTEGRACAO                                        5402023   2017013015002123754020230000520000000000000000000409280206818ELIAS A JR                                                  1                        1 2808814                           028009659233126513762721807   Marco Serraglio rota 14                                     677124                                                                                                                                                                                                                                                                                                           
15148527400015951485274000159C00288809191 104765                        84492                         1393866016201612125FAO8370 1 BRASIL                                            SPLIMEIRA                                           BRASIL                                            SPSAO PAULO                                         2016121227000045000000000360INTEGRACAO                                        3866016   2017013020300823738660160000530000000000000000000980839908849MARIO L O GARCIA                                            1                        1 2808985                           027009659403205280839908849   MARIO LUIZ DE OLIVEIRA GARCIA                               689345                                                                                                                                                                                                                                                                                                           
15148527400015951485274000159C00288811721 175078                        84494                         1435391015201612125CZC3360 1 BRASIL                                            SPLIMEIRA                                           BRASIL                                            SPSAO PAULO                                         2016121227000150000000001200INTEGRACAO                                        5391015   2017013021200723753910150000540000000000000000000907875583896MILTON A MOREIRA                                            1                        1 2809018                           027009659530005107875583896   MILTON APARECIDO MOREIRA                                    689987                                                                                                                                                                                                                                                                                                           
15148527400015951485274000159C00288812451 526                           84495                         0840280012201612125DBV9581 1 BRASIL                                            SPLIMEIRA                                           BRASIL                                            SPSAO PAULO                                         2016121227000100000000000800INTEGRACAO                                        9222016   2017013011503223792220160000550000000000000000000425870974879MILTON G CARVALHO                                           1                        1 2808043                           022009659575756525870974879   MILTON GOMES CARVALHO                                       671472                                                                                                                                                                                                                                                                                                           
15148527400015951485274000159C00288812451 526                           84495                         0840280012201612125DBV9581 1 BRASIL                                            SPLIMEIRA                                           BRASIL                                            SPSAO PAULO                                         2016121227000085000000000680INTEGRACAO                                        9222016   2017013022100523792220160000560000000000000000000425870974879MILTON G CARVALHO                                           1                        1 2809047                           022009659575756525870974879   MILTON GOMES CARVALHO                                       690599                                                                                                                                                                                                                                                                                                           
15148527400015951485274000159C00288816021 23606                         84497                         0260713078201612125DBC0927 1 BRASIL                                            SPLIMEIRA                                           BRASIL                                            SPSAO PAULO                                         2016121227000050000000000400INTEGRACAO                                        4608014   2017013009001023746080140000570000000000000000000411474676847NELSON E JR                                                 1                        1 2808246                           027009659728742011474676847   NELSON E JR                                                 665177                                                                                                                                                                                                                                                                                                           
15148527400015951485274000159C00288816021 23606                         84497                         0260713078201612125DBC0927 1 BRASIL                                            SPLIMEIRA                                           BRASIL                                            SPSAO PAULO                                         2016121227000060000000000480INTEGRACAO                                        4608014   2017013022000723746080140000580000000000000000000411474676847NELSON E JR                                                 1                        1 2809033                           027009659728742011474676847   NELSON E JR                                                 690508                                                                                                                                                                                                                                                                                                           
15148527400015951485274000159C00288818581 35985                         84499                         1167195014201612125CLU3364 1 BRASIL                                            SPLIMEIRA                                           BRASIL                                            SPSAO PAULO                                         2016121227000015000000000120INTEGRACAO                                        7195014   2017013013502623771950140000590000000000000000000955543014791NIWTON BONIFACIO                                            1                        1 2808773                           020009659864325555543014791   NIWTON BONIFACIO                                            674637                                                                                                                                                                                                                                                                                                           
15148527400015951485274000159C00288824131 104924                        84501                         1284238010201612125CTC3047 1 BRASIL                                            SPLIMEIRA                                           BRASIL                                            SPSAO PAULO                                         2016121227000045000000000360INTEGRACAO                                        4238010   2017013018501223742380100000600000000000000000000908830101869OSVALDO OLIVEIRA JR                                         1                        1 2808646                           028009660123325208830101869   OSVALDO DE OLIVEIRA JUNIOR                                  687699                1121730507                                                                                                                                                                                                                                                                                 
15148527400015951485274000159C00288832111 10623                         84504                         1232527019201612125EFW8894 1 BRASIL                                            SPLIMEIRA                                           BRASIL                                            SPSAO PAULO                                         2016121227000012000000000096INTEGRACAO                                        2527019   2017013010002323725270190000610000000000000000000925536480812PAULO SILVA NEVES                                           1                        1 2808377                           028009660482290625536480812   PAULO DA SILVA NEVES                                        667276                                                                                                                                                                                                                                                                                                           
15148527400015951485274000159C00288833511 23601                         84506                         0571220016201612125BXG3018 1 BRASIL                                            SPLIMEIRA                                           BRASIL                                            SPSAO PAULO                                         2016121227000060000000000480INTEGRACAO                                        4614012   2017013008101523746140120000620000000000000000000417559015859ORIAS L RIBEIRO                                             1                        1 2808184                           025009660544883517559015859   ORIAS LATIEL RIBEIRO                                        664358                                                                                                                                                                                                                                                                                                           
15148527400015951485274000159C00288835491 105055                        84508                         0830296019201612125BFZ7446 1 BRASIL                                            SPLIMEIRA                                           BRASIL                                            SPSAO PAULO                                         2016121227000040000000000320INTEGRACAO                                        0296019   2017013004400223702960190000630000000000000000002371986405834PEDRO FERREIRA                                              1                        1 2808145             11843123000100024009660610980711843123000100PEDRO FERREIRA TRANSPORTES ME                               663083                                                                                                                                                                                                                                                                                                           
15148527400015951485274000159C00288836471 9284                          84509                         1270029019201612125EPU7821 1 BRASIL                                            SPLIMEIRA                                           BRASIL                                            SPSAO PAULO                                         2016121227000020000000000160INTEGRACAO                                        0029019   2017013011103623700290190000640000000000000000000913773009860PEDRO M S ANTONIO                                           1                        1 2808577                           022009660649962013773009860   PEDRO MANUEL SANTOS ANTONIO                                 669829                                                                                                                                                                                                                                                                                                           
15148527400015951485274000159C00288858081 23604                         84510                         1301531017201612125BWU5318 1 BRASIL                                            SPLIMEIRA                                           BRASIL                                            SPSAO PAULO                                         2016121227000050000000000400INTEGRACAO                                        1531017   2017013021001123715310170000650000000000000000000937122324893RAFAEL SILVA TORRES                                         1                        1 2809013                           023009661484258637122324893   RAFAEL DA SILVA TORRES                                      689816                                                                                                                                                                                                                                                                                                           
15148527400015951485274000159C00288859871 104652                        84516                         1037172011201612125DBM1220 1 BRASIL                                            SPLIMEIRA                                           BRASIL                                            SPSAO PAULO                                         2016121227000135000000001080INTEGRACAO                                        7172011   2017013018501123771720110000660000000000000000000927752405850WILLIANS R BORGES                                           1                        1 2808810                           021009661569574218212504867   REGINALDO CARVALHO                                          687694                                                                                                                                                                                                                                                                                                           
15148527400015951485274000159C00288865771 23696                         84526                         1301526017201612125CBO5292 1 BRASIL                                            SPLIMEIRA                                           BRASIL                                            SPSAO PAULO                                         2016121227000060000000000480INTEGRACAO                                        1526017   2017013022300323715260170000670000000000000000000932430592835ROBERTO L GARCIA JR                                         1                        1 2809062                           026009661901549832430592835   Roberto lopes garcia Junior                                 690800                                                                                                                                                                                                                                                                                                           
15148527400015951485274000159C00288867601 9264                          84530                         0830350014201612125AVZ2218 1 BRASIL                                            SPLIMEIRA                                           BRASIL                                            SPSAO PAULO                                         2016121227000250000000002000INTEGRACAO                                        0350014   2017013021400323703500140000680000000000000000002326491412806EDVALDO RICHITTA                                            1                        1 2809027             07414374000100028009661981351907414374000100EDVALDO RICHITTA TRANSPORTES ME                             690232                                                                                                                                                                                                                                                                                                           
15148527400015951485274000159C00288868781 1806                          84531                         1354853011201612125DKG7457 1 BRASIL                                            SPLIMEIRA                                           BRASIL                                            SPSAO PAULO                                         2016121227000020000000000160INTEGRACAO                                        4853011   2017013014001323748530110000690000000000000000000917457960880RONALDO A D CARDOSO                                         1                        1 2808791                           026009662043921217457960880   RONALDO ADRIANO DIAS CARDOSO                                674822                                                                                                                                                                                                                                                                                                           
15148527400015951485274000159C00288868781 1806                          84531                         1354853011201612125DKG7457 1 BRASIL                                            SPLIMEIRA                                           BRASIL                                            SPSAO PAULO                                         2016121227000020000000000160INTEGRACAO                                        4853011   2017013014201623748530110000700000000000000000000917457960880RONALDO A D CARDOSO                                         1                        1 2808794                           026009662043921217457960880   RONALDO ADRIANO DIAS CARDOSO                                675679                                                                                                                                                                                                                                                                                                           
15148527400015951485274000159C00288874241 10661                         84535                         1354852013201612125EFV5547 1 BRASIL                                            SPLIMEIRA                                           BRASIL                                            SPSAO PAULO                                         2016121227000010000000000080INTEGRACAO                                        4852013   2017013020100923748520130000710000000000000000000911634488857VALDENIR A FERREIRA                                         1                        1 2808968                           026009662222047811634488857   valdenir almeida ferreira                                   688987                                                                                                                                                                                                                                                                                                           
15148527400015951485274000159C00288874741 10716                         84536                         1424444029201612125DBM7890 1 BRASIL                                            SPLIMEIRA                                           BRASIL                                            SPSAO PAULO                                         2016121227000002996000000024INTEGRACAO                                        4258022   2017013018401823742580220000720000000000000000000463857839872VALMIR G ROCHA                                              1                        1 2775264                           027009662250706163857839872   VALMIR GOMES ROCHA                                          687398                                                                                                                                                                                                                                                                                                           
15148527400015951485274000159C00288876021 10614                         84538                         1380568013201612125ETG0129 1 BRASIL                                            SPLIMEIRA                                           BRASIL                                            SPSAO PAULO                                         2016121227000007000000000056INTEGRACAO                                        0568013   2017013011201923705680130000730000000000000000000928905683851VENICIUS B CARVALHO                                         1                        1 2808604                           027009662311402928905683851   VENICIUS BORGES DE CARVALHO                                 670255                                                                                                                                                                                                                                                                                                           
15148527400015951485274000159C00288877281 104668                        84539                         1393875017201612125BWY5476 1 BRASIL                                            SPLIMEIRA                                           BRASIL                                            SPSAO PAULO                                         2016121227000040000000000320INTEGRACAO                                        3875017   2017013005300323738750170000740000000000000000000906838443856VLADIMIR BEVILACQUA                                         1                        1 2808159                           027009662368033306838443856   vladimir aparecido bevilacqua                               663223                                                                                                                                                                                                                                                                                                           
15148527400015951485274000159C00288886051 104620                        84547                         0163379031201612125EYE0982 1 BRASIL                                            SPLIMEIRA                                           BRASIL                                            SPSAO PAULO                                         2016121227000050000000000400INTEGRACAO                                        4188021   2017013011503423741880210000750000000000000000000488370526853WALTER PEREIRA                                              1                        1 2808637                           027009662735252588370526853   WALTER PEREIRA                                              671558                                                                                                                                                                                                                                                                                                           
15148527400015951485274000159C00288887401 9285                          84548                         1037157020201612125FTP0346 1 BRASIL                                            SPLIMEIRA                                           BRASIL                                            SPSAO PAULO                                         2016121227000005000000000040INTEGRACAO                                        7157020   2017013001204323771570200000760000000000000000000941103197819WILLIAN ROGERIO                                             1                        1 2808108                           026009662793281941103197819   WILLIAN ROGERIO                                             662623                                                                                                                                                                                                                                                                                                           
15148527400015951485274000159C00288887401 9285                          84548                         1037157020201612125FTP0346 1 BRASIL                                            SPLIMEIRA                                           BRASIL                                            SPSAO PAULO                                         2016121227000011000000000088INTEGRACAO                                        7157020   2017013010201123771570200000770000000000000000000941103197819WILLIAN ROGERIO                                             1                        1 2808427                           026009662793281941103197819   WILLIAN ROGERIO                                             667754                                                                                                                                                                                                                                                                                                           
15148527400015951485274000159C00295831475 NAO DECLARADO                                               0830300019201701303        7 BRASIL                                            SPLIMEIRA                                           BRASIL                                            SPSANTOS                                            2017013017000014970000000120SARITA BUENO DE CAMPOS                            0300019   2017013008521923703000190000780000327000000177302309592597839JOSE ROBERTO CLAUDIANO                                      1                                                                            14318559000179JOSE ROBERTO CLAUDIANO TRANSPORTES                          665018    5                                                                                                                                                                                                                                                                                                      
15148527400015951485274000159C00295840605 NAO DECLARADO                                               0573446017201701303        2 BRASIL                                            SPLIMEIRA                                           BRASIL                                            SPMARILIA                                           2017013017000016000000000128SARITA BUENO DE CAMPOS                            3446017   2017013009404523734460170000790000160000000000000712375976843EDSON ZECHI DE CAMARGO                                      1                                                                            12375976843   EDSON ZECHI DE CAMARGO                                      666651    5                                                                                                                                                                                                                                                                                                      
15148527400015951485274000159C00295851405 NAO DECLARADO                                               1393878011201701303        8 BRASIL                                            SPLIMEIRA                                           BRASIL                                            SPLIMEIRA                                           2017013017000009240000000074SARITA BUENO DE CAMPOS                            3878011   2017013010251623738780110000800000092400000000000900863687881NELSON A L SANTOS                                           1                                                                            00863687881   NELSON APARECIDO LEMES SANTOS                               667996    5                                                                                                                                                                                                                                                                                                      
15148527400015951485274000159C00295872315 NAO DECLARADO                                               1301515010201701303        2 BRASIL                                            SPLIMEIRA                                           BRASIL                                            SPGUARULHOS                                         2017013017000008660000000069SARITA BUENO DE CAMPOS                            1515010   2017013011395123715150100000810000100800000014200957091714504VIVALDO O FRAGA                                             1                                                                            57091714504   VIVALDO DE OLIVEIRA FRAGA                                   671017    5                                                                                                                                                                                                                                                                                                      
15148527400015951485274000159C00295884011 223285                                                      1393874010201701303        2 BRASIL                                            SPLIMEIRA                                           BRASIL                                            SPESPIRITO SANTO DO PINHAL                          2017013017000005560000000044RAFAEL DE SA PAIVA                                3874010   2017013012334923738740100000820000055600000000000901642228800CLAUDEMIR QUESSADA                                          1                                                                            01642228800   CLAUDEMIR QUESSADA                                          672971    5                                                                                                                                                                                                                                                                                                      
15148527400015951485274000159C00295885123 Milk Run                                                    1413838011201701303        7 BRASIL                                            SPLIMEIRA                                           BRASIL                                            SPSAO PAULO                                         2017013017000025200000000202RAFAEL DE SA PAIVA                                3838011   2017013012452923738380110000830000252000000000000910065639898MARIO A K SEVDALIS                                          1                                                                            10065639898   MARIO ANTONIO KILO SEVDALIS                                 673074    5                                                                                                                                                                                                                                                                                                      
15148527400015951485274000159C00295903591 24905                                                       1354762014201701303        8 BRASIL                                            SPLIMEIRA                                           BRASIL                                            PRSAO PEDRO DO IGUACU                               2017013017000069360000000555RAFAEL DE SA PAIVA                                4762014   2017013014192023747620140000840000693600000000002327955295803Kleber de Souza palma                                       1                                                                            15202376000156KLEBER DE SOUZA PALMA TRANSPORTES EPP                       675656    5                                                                                                                                                                                                                                                                                                      
15148527400015951485274000159C00295979013 Milk Run                                                    0830312014201701303        4 BRASIL                                            SPLIMEIRA                                           BRASIL                                            SPSAO PAULO                                         2017013017000013080000000105RAFAEL DE SA PAIVA                                0312014   2017013018232523703120140000850000130800000000002301630963844DOMINGOS EDUARDO BRUZASCO                                   1                                                                            14173244000180TRANSPORTADORA BRUZASCO LTDA ME                             686940    5                                                                                                                                                                                                                                                                                                      
15148527400015951485274000159C00295986001 24909                                                       1393878011201701303        8 BRASIL                                            SPLIMEIRA                                           BRASIL                                            PRMARECHAL CANDIDO RONDON                           2017013017000075660000000605RAFAEL DE SA PAIVA                                3878011   2017013019033523738780110000860000756600000000000900863687881NELSON A L SANTOS                                           1                                                                            00863687881   NELSON APARECIDO LEMES SANTOS                               687952    5                                                                                                                                                                                                                                                                                                      
15148527400015951485274000159C00295986263 STS                                                         0466345091201701303        7 BRASIL                                            SPLIMEIRA                                           BRASIL                                            SPSANTOS                                            2017013017000010020000000080RAFAEL DE SA PAIVA                                4186041   2017013019052823741860410000870000277500000177300405729267827WAGNER PRONI                                                1                                                                            05729267827   WAGNER PRONI                                                688050    5                                                                                                                                                                                                                                                                                                      
15148527400015951485274000159C00295991093 Milk Run                                                    1380569011201701303        7 BRASIL                                            SPLIMEIRA                                           BRASIL                                            SPSAO PAULO                                         2017013017000025200000000202RAFAEL DE SA PAIVA                                0569011   2017013019441423705690110000880000252000000000000901653338806CLEUCIO A SILVA                                             1                                                                            01653338806   CLEUCIO APARECIDO DA SILVA                                  688583    5                                                                                                                                                                                                                                                                                                      
15148527400015951485274000230E002958409511282581                                                      1232527019201701303EFW8894 1 BRASIL                                            SPSAO PAULO                                         BRASIL                                            SPJAGUARIUNA                                        2017013017000006000000000048EDSON RODRIGUES                                   2527019   2017013009422023725270190000890000060000000000000925536480812PAULO SILVA NEVES                                           1                                                                            25536480812   PAULO DA SILVA NEVES                                        666665    5                                                                                                                                                                                                                                                                                                      
15148527400015951485274000230E00295855646 534188                                                      1424379022201701303CJU4984 1 BRASIL                                            SPDIADEMA                                           BRASIL                                            SPTAUBATE                                           2017013017000002300000000018EDSON RODRIGUES                                   4235020   2017013010394523742350200000900000025800000002800428964837800JORGE M OSHIRO                                              1                                                                            28964837800   JORGE MASAHIRO OSHIRO                                       668422    5                                                                                                                                                                                                                                                                                                      
15148527400015951485274000230E00295868291 10916                                                       1380568013201701303ETG0129   BRASIL                                            SPNAO INFORMADA                                     BRASIL                                            SPNAO INFORMADA                                     2017013017000003500000000028ROBERTO CORNELIO                                  0568013   2017013011232223705680130000910000035000000014300928905683851VENICIUS B CARVALHO                                         1                                                                            28905683851   VENICIUS BORGES DE CARVALHO                                 670414    5                                                                                                                                                                                                                                                                                                      
15148527400015951485274000230E00295872606 26716                                                       1393868012201701303CQF2397   BRASIL                                            SPNAO INFORMADA                                     BRASIL                                            SPNAO INFORMADA                                     2017013017000007600000000061IVONE RODRIGUES TEIXEIRA                          3868012   2017013011405423738680120000920000076000000007100979222765672CUSTODIO S FONSECA                                          1                                                                            79222765672   CUSTODIO SALDANHA DA FONSECA                                671175    5                                                                                                                                                                                                                                                                                                      
15148527400015951485274000230E00295875745 NAO DECLARADO                                               1424335025201701303CRM9532 1 BRASIL                                            SPSAO PAULO                                         BRASIL                                            SPBRAGANCA PAULISTA                                 2017013017000008000000000064EDSON RODRIGUES                                   4220022   2017013011520823742200220000930000080000000009800425048883845ELIAS GABARRON                                              1                                                                            25048883845   ELIAS GABARRON                                              671583    5                                                                                                                                                                                                                                                                                                      
15148527400015951485274000230E00295884795 NAO DECLARADO                                               1413844019201701303DTE4881   BRASIL                                            SPNAO INFORMADA                                     BRASIL                                            SPNAO INFORMADA                                     2017013017000016500000000132ROBERTO CORNELIO                                  3844019   2017013012414823738440190000940000165000000000000912857993803HELCIO JOSE SILVA                                           1                                                                            12857993803   HELCIO JOSE DA SILVA                                        673056    5                                                                                                                                                                                                                                                                                                      
15148527400015951485274000230E00295888455 NAO DECLARADO                                               1442515014201701303EFV4023   BRASIL                                            SPNAO INFORMADA                                     BRASIL                                            SPNAO INFORMADA                                     2017013017000010000000000080ROBERTO CORNELIO                                  9219012   2017013013120923792190120000950000100000000009200433366426802IVO D S JR                                                  1                                                                            33366426802   IVO DAVID DE SOUZA JUNIOR                                   673669    5                                                                                                                                                                                                                                                                                                      
15148527400015951485274000230E00295993151 10931                                                       1424279028201701303ELQ7472   BRASIL                                            SPNAO INFORMADA                                     BRASIL                                            SPNAO INFORMADA                                     2017013017000006000000000048ROBERTO CORNELIO                                  4203028   2017013019584423742030280000960000060000000018500436497274804AURINO M FERREIRA                                           1                                                                            36497274804   AURINO MAIA FERREIRA                                        688915    5                                                                                                                                                                                                                                                                                                      
15148527400015951485274000230E00295994051 10932                                                       1354852013201701303EFV5547   BRASIL                                            SPNAO INFORMADA                                     BRASIL                                            SPNAO INFORMADA                                     2017013017000005000000000040ROBERTO CORNELIO                                  4852013   2017013020075923748520130000970000050000000032300911634488857VALDENIR A FERREIRA                                         1                                                                            11634488857   valdenir almeida ferreira                                   688999    5                                                                                                                                                                                                                                                                                                      
15148527400015951485274000230E00295995555 NAO DECLARADO                                               1422879028201701303EXO0437   BRASIL                                            SPNAO INFORMADA                                     BRASIL                                            SPNAO INFORMADA                                     2017013017000005000000000040ROBERTO CORNELIO                                  3139013   2017013020214623731390130000980000050000000017400459908572849JOSE WINKLER                                                1                                                                            59908572849   jose winkler                                                689284    5                                                                                                                                                                                                                                                                                                      
15148527400015951485274000400E002958185112640594                                                      1329621014201701303FEI4293 8 BRASIL                                            SPSANTOS                                            BRASIL                                            SPGUARUJA                                           2017013017000023640000000189EDGAR SOARES                                      9621014   2017013004032123796210140000990000236400000000000934501205814DIEGO Q ALMEIDA                                             1                                                                            34501205814   DIEGO Q ALMEIDA                                             663156    5                                                                                                                                                                                                                                                                                                      
