020170321                                                                                                                                                                                                                                                                                                                                                                                                                                                      000001                                                                                                                                                                                                                                                                                                                                                                                                                                                                                                                                                                   
15148527400015951485274000159C00292798211 5909                          85034                         1354830019201701095EJY4006 1 BRASIL                                            SPLIMEIRA                                           BRASIL                                            SPSAO PAULO                                         2017010927000002996000000024INTEGRACAO                                        4830019   2017030814503223748300190000020000000000000000000922022379845ANDERSON R SANTOS                                           1                        1 2793738                           022009848302904122022379845   ANDERSON ROBERTO DOS SANTOS                                 556849                                                                                                                                                                                                                                                                                                           
15148527400015951485274000159C00296510881 85556                         85556                         1393868012201702025CQF2397 1 BRASIL                                            SPLIMEIRA                                           BRASIL                                            SPSAO PAULO                                         2017020227000010000000000080INTEGRACAO                                        3868012   2017030812101623738680120000030000000000000000000979222765672CUSTODIO S FONSECA                                          1                        1 2832446                           026010022157033914173244000180TRANSPORTADORA BRUZASCO LTDA ME                             552372                                                                                                                                                                                                                                                                                                           
15148527400015951485274000159C00296510881 85556                         85556                         1393868012201702025CQF2397 1 BRASIL                                            SPLIMEIRA                                           BRASIL                                            SPSAO PAULO                                         2017020227000060000000000480INTEGRACAO                                        3868012   2017030819001723738680120000040000000000000000000979222765672CUSTODIO S FONSECA                                          1                        1 2832813                           026010022157033914173244000180TRANSPORTADORA BRUZASCO LTDA ME                             568227                                                                                                                                                                                                                                                                                                           
15148527400015951485274000159C00296562471 85559                         85559                         1380569011201702025BTR1378 1 BRASIL                                            SPLIMEIRA                                           BRASIL                                            SPSAO PAULO                                         2017020227000050000000000400INTEGRACAO                                        0569011   2017030819500423705690110000050000000000000000000901653338806CLEUCIO A SILVA                                             1                        1 2832835                           028010024400486301653338806   CLEUCIO APARECIDO DA SILVA                                  569182                                                                                                                                                                                                                                                                                                           
15148527400015951485274000159C00296698321 85562                         85562                         1393871016201702035CLH3564 1 BRASIL                                            SPLIMEIRA                                           BRASIL                                            SPSAO PAULO                                         2017020327000002996000000024INTEGRACAO                                        3871016   2017030809102423738710160000060000000000000000000925088244886DANIELA A SANTANNA                                          1                        1 2811993                           020010031414085325088244886   DANIELA APARECIDA PERINA SANTANNA                           545428                                                                                                                                                                                                                                                                                                           
15148527400015951485274000159C00296946881 85563                         85563                         1270025017201702065EFO8752 1 BRASIL                                            SPLIMEIRA                                           BRASIL                                            SPSAO PAULO                                         2017020627000002996000000024INTEGRACAO                                        0025017   2017030809005223700250170000070000000000000000000911009488805CARLOS NASCIMENTO                                           1                        1 2812756                           020010042356148111009488805   CARLOS NASCIMENTO                                           545059                                                                                                                                                                                                                                                                                                           
15148527400015951485274000159C00296951841 85572                         85572                         0969670018201702065DBC1072 1 BRASIL                                            SPLIMEIRA                                           BRASIL                                            SPSAO PAULO                                         2017020627000025000000000200INTEGRACAO                                        9670018   2017030801012623796700180000080000000000000000000977797280800JOSE R GHISELLINE                                           1                        1 2831956                           027010042602496177797280800   jose roberto ghiselline                                     540075                                                                                                                                                                                                                                                                                                           
15148527400015951485274000159C00296958731 85573                         85573                         1167170017201702065BWO9561 1 BRASIL                                            SPLIMEIRA                                           BRASIL                                            SPSAO PAULO                                         2017020627000030000000000240INTEGRACAO                                        7170017   2017030818400523771700170000090000000000000000000917205126800SANDRO S VIGINOTI                                           1                        1 2832809                           025010042976199017205126800   SANDRO SERGIO VIGINOTI                                      567764                                                                                                                                                                                                                                                                                                           
15148527400015951485274000159C00297058201 85584                         85584                         1413837013201702065EFO9070 1 BRASIL                                            SPLIMEIRA                                           BRASIL                                            SPSAO PAULO                                         2017020627000010000000000080INTEGRACAO                                        3837013   2017030805300423738370130000100000000000000000000932901585868CARLOS R MOREIRA                                            1                        1 2832097                           021010047457627932901585868   CARLOS ROBERTO MOREIRA                                      541897                                                                                                                                                                                                                                                                                                           
15148527400015951485274000159C00297060211 85585                         85585                         0830312014201702065ODA6686 1 BRASIL                                            SPLIMEIRA                                           BRASIL                                            SPSAO PAULO                                         2017020627000035000000000280INTEGRACAO                                        0312014   2017030817400623703120140000110000000000000000002301630963844DOMINGOS EDUARDO BRUZASCO                                   1                        1 2832751             14173244000180020010047556111414173244000180TRANSPORTADORA BRUZASCO LTDA ME                             565540                                                                                                                                                                                                                                                                                                           
15148527400015951485274000159C00297087191 85590                         85590                         1413838011201702065DBC1203 1 BRASIL                                            SPLIMEIRA                                           BRASIL                                            SPSAO PAULO                                         2017020627000050000000000400INTEGRACAO                                        3838011   2017030812001223738380110000120000000000000000000910065639898MARIO A K SEVDALIS                                          1                        1 2832431                           025010048761589610065639898   MARIO ANTONIO KILO SEVDALIS                                 551809                                                                                                                                                                                                                                                                                                           
15148527400015951485274000159C00297145071 85591                         85591                         1329620016201702075DPE7517 1 BRASIL                                            SPLIMEIRA                                           BRASIL                                            SPSAO PAULO                                         2017020727000125000000001000INTEGRACAO                                        9620016   2017030811403323796200160000130000000000000000000913933194830PAULO E G SANTOS                                            1                        1 2832399                           027010051842968413933194830   PAULO EMERSON GERALDO DOS SANTOS                            551220                                                                                                                                                                                                                                                                                                           
15148527400015951485274000159C00297208661 85595                         85595                         1393874010201702075BWB9478 1 BRASIL                                            SPLIMEIRA                                           BRASIL                                            SPSAO PAULO                                         2017020727000025000000000200INTEGRACAO                                        3874010   2017030810301923738740100000140000000000000000000901642228800CLAUDEMIR QUESSADA                                          1                        1 2832348                           022010054428978101642228800   CLAUDEMIR QUESSADA                                          548339                                                                                                                                                                                                                                                                                                           
15148527400015951485274000159C00297224561 85596                         85596                         1354828013201702075BIX9164 1 BRASIL                                            SPLIMEIRA                                           BRASIL                                            SPSAO PAULO                                         2017020727000010000000000080INTEGRACAO                                        4828013   2017030821300823748280130000150000000000000000000935690400890KLEYTON S V AH                                              1                        1 2832879                           028010055123867635690400890   KLEYTON SANTANA VON AH                                      570865                                                                                                                                                                                                                                                                                                           
15148527400015951485274000159C00297241771 85599                         85599                         1215471011201702075CFE4210 1 BRASIL                                            SPLIMEIRA                                           BRASIL                                            SPSAO PAULO                                         2017020727000020000000000160INTEGRACAO                                        5471011   2017030820001123754710110000160000000000000000000916072623808HUMBERTO NEGRETO NT                                         1                        1 2832830                           025010055978892611002767857   MARILY MENDES                                               569364                                                                                                                                                                                                                                                                                                           
15148527400015951485274000159C00297264901 85606                         85606                         1435395016201702075BSG4909 1 BRASIL                                            SPLIMEIRA                                           BRASIL                                            SPSAO PAULO                                         2017020727000110000000000880INTEGRACAO                                        5395016   2017030817101623753950160000170000000000000000000944034318872BASILIO C VIEIRA                                            1                        1 2832706                           020010057041012944034318872   BASILIO CANDIDO VIEIRA                                      563797                                                                                                                                                                                                                                                                                                           
15148527400015951485274000159C00297300031 85609                         85609                         1380565019201702075BWS6879 1 BRASIL                                            SPLIMEIRA                                           BRASIL                                            SPSAO PAULO                                         2017020727000035000000000280INTEGRACAO                                        0565019   2017030815501723705650190000180000000000000000000952146057904ELCIO DANIEL                                                1                        1 2832622                           029010057999722852146057904   ELCIO DANIEL                                                559274                                                                                                                                                                                                                                                                                                           
15148527400015951485274000159C00297305311 85610                         85610                         1424402024201702075DJQ4992 1 BRASIL                                            SPLIMEIRA                                           BRASIL                                            SPSAO PAULO                                         2017020727000010000000000080INTEGRACAO                                        4240020   2017030815402923742400200000190000000000000000000400171161807JOSE M ALVES                                                1                        1 2832599                           029010058135543800171161807   JOSE MACHADO ALVES                                          558835                                                                                                                                                                                                                                                                                                           
15148527400015951485274000159C00297307081 85611                         85611                         1424424028201702075BZT8365 1 BRASIL                                            SPLIMEIRA                                           BRASIL                                            SPSAO PAULO                                         2017020727000017500000000140INTEGRACAO                                        4248023   2017030811101523742480230000200000000000000000000418426400892MARCIO A AMARAL                                             1                        1 2832377                           024010058213711718426400892   MARCIO ALEXANDRE DO AMARAL                                  550095                                                                                                                                                                                                                                                                                                           
15148527400015951485274000159C00297495511 85618                         85618                         1465294015201702085DTV5919 1 BRASIL                                            SPLIMEIRA                                           BRASIL                                            SPSAO PAULO                                         2017020827000008000000000064INTEGRACAO                                        6430016   2017030803300323764300160000210000000000000000000406947120861ADAO R MOURA                                                1                        1 2832069                           022010067497482606947120861   ADAO RODRIGUES DE MOURA                                     541076                                                                                                                                                                                                                                                                                                           
15148527400015951485274000159C00297502861 85621                         85621                         1354825019201702085FFW1280 1 BRASIL                                            SPLIMEIRA                                           BRASIL                                            SPSAO PAULO                                         2017020827000005000000000040INTEGRACAO                                        4825019   2017030803200423748250190000220000000000000000000931518252818FABIO BARBOSA                                               1                        1 2832063                           021010067855032130668292865   ALESSANDRA BARBOSA                                          540972                                                                                                                                                                                                                                                                                                           
15148527400015951485274000159C00297566401 85623                         85623                         0453365050201702095KQC9415 1 BRASIL                                            SPLIMEIRA                                           BRASIL                                            SPSAO PAULO                                         2017020927000015600000000125INTEGRACAO                                        4125023   2017030808201523741250230000230000000000000000000406225606890ADEVALDO OLIVEIRA                                           1                        1 2831989                           029010071250429706225606890   Adevaldo de Oliveira Junior                                 543709                                                                                                                                                                                                                                                                                                           
15148527400015951485274000159C00297572321 85625                         85625                         0272932018201702095EFO8301 1 BRASIL                                            SPLIMEIRA                                           BRASIL                                            SPSAO PAULO                                         2017020927000150000000001200INTEGRACAO                                        6428010   2017030815101323764280100000240000000000000000000480941869920ADILSON ROSSI                                               1                        1 2832566                           029010071542727580941869920   ADILSON ROSSI                                               557757                                                                                                                                                                                                                                                                                                           
15148527400015951485274000159C00297575431 85627                         85627                         0803614016201702095DBM7288 1 BRASIL                                            SPLIMEIRA                                           BRASIL                                            SPSAO PAULO                                         2017020927000002996000000024INTEGRACAO                                        7291018   2017030817304323772910180000250000000000000000000434954929920JOSE A MOTTA                                                1                        1 2815049                           027010071680930934954929920   JOSE A MOTTA                                                565120                                                                                                                                                                                                                                                                                                           
15148527400015951485274000159C00297576891 85628                         85628                         1413848010201702095AEY5232 1 BRASIL                                            SPLIMEIRA                                           BRASIL                                            SPSAO PAULO                                         2017020927000050000000000400INTEGRACAO                                        3848010   2017030822500323738480100000260000000000000000000918767821880ALESSANDRO MESSIAS                                          1                        1 2832969                           021010071763079818767821880   ALESSANDRO DONIZETI MESSIAS                                 571638                                                                                                                                                                                                                                                                                                           
15148527400015951485274000159C00297577581 85629                         85629                         0262879011201702095DPE7296 1 BRASIL                                            SPLIMEIRA                                           BRASIL                                            SPSAO PAULO                                         2017020927000150000000001200INTEGRACAO                                        4466017   2017030814503123744660170000270000000000000000000413967020835ALEXANDRE HANSHKOV                                          1                        1 2832552                           028010071811157713967020835   Alexandre hanshkov                                          556845                                                                                                                                                                                                                                                                                                           
15148527400015951485274000159C00297582671 85632                         85632                         0729979014201702095CYN5506 1 BRASIL                                            SPLIMEIRA                                           BRASIL                                            SPSAO PAULO                                         2017020927000009780000000078INTEGRACAO                                        9979014   2017030815501523799790140000280000000000000000000927713424806ANDERSON W F SILVA                                          1                        1 2831836                           023010072139992827713424806   ANDERSON WILSON FREITAS CARVALHO DA SILVA                   559133                                                                                                                                                                                                                                                                                                           
15148527400015951485274000159C00297587981 85635                         85635                         1354835018201702095DPE7075 1 BRASIL                                            SPLIMEIRA                                           BRASIL                                            SPSAO PAULO                                         2017020927000150000000001200INTEGRACAO                                        4835018   2017030810302623748350180000290000000000000000000906290232800APARECIDO R PONTES                                          1                        1 2832336                           020010072409098206290232800   Aparecido Rodrigues pontes                                  548452                                                                                                                                                                                                                                                                                                           
15148527400015951485274000159C00297590481 85640                         85640                         1435401012201702095ELQ7472 1 BRASIL                                            SPLIMEIRA                                           BRASIL                                            SPSAO PAULO                                         2017020927000007000000000056INTEGRACAO                                        4203028   2017030810004423742030280000300000000000000000000436497274804AURINO M FERREIRA                                           1                        1 2832271                           021010072531742336497274804   AURINO MAIA FERREIRA                                        546923                                                                                                                                                                                                                                                                                                           
15148527400015951485274000159C00297593021 85642                         85642                         1167178010201702095AJJ3207 1 BRASIL                                            SPLIMEIRA                                           BRASIL                                            SPSAO PAULO                                         2017020927000020000000000160INTEGRACAO                                        7178010   2017030811501523771780100000310000000000000000000977805178887ADEMAR N SOUZA                                              1                        1 2832426                           022010072682737977805178887   ADEMAR N SOUZA                                              551540                                                                                                                                                                                                                                                                                                           
15148527400015951485274000159C00297593021 85642                         85642                         1167178010201702095AJJ3207 1 BRASIL                                            SPLIMEIRA                                           BRASIL                                            SPSAO PAULO                                         2017020927000020000000000160INTEGRACAO                                        7178010   2017030821500423771780100000320000000000000000000977805178887ADEMAR N SOUZA                                              1                        1 2832901                           022010072682737977805178887   ADEMAR N SOUZA                                              570931                                                                                                                                                                                                                                                                                                           
15148527400015951485274000159C00297615331 85643                         85643                         1435396014201702095ESU5269 1 BRASIL                                            SPLIMEIRA                                           BRASIL                                            SPSAO PAULO                                         2017020927000015000000000120INTEGRACAO                                        5396014   2017030803200423753960140000330000000000000000000911929719817CELSO B MACHADO                                             1                        1 2832060                           021010073837712011929719817   Celso batista machado                                       541061                                                                                                                                                                                                                                                                                                           
15148527400015951485274000159C00297615331 85643                         85643                         1435396014201702095ESU5269 1 BRASIL                                            SPLIMEIRA                                           BRASIL                                            SPSAO PAULO                                         2017020927000002996000000024INTEGRACAO                                        5396014   2017030816103723753960140000340000000000000000000911929719817CELSO B MACHADO                                             1                        1 2815292                           021010073837712011929719817   Celso batista machado                                       560217                                                                                                                                                                                                                                                                                                           
15148527400015951485274000159C00297615641 85644                         85644                         1413843011201702095GMN7056 1 BRASIL                                            SPLIMEIRA                                           BRASIL                                            SPSAO PAULO                                         2017020927000100000000000800INTEGRACAO                                        3843011   2017030815200923738430110000350000000000000000000950536869634CELSO O RODRIGUES                                           1                        1 2832572                           027010073858214950536869634   CELSO DE OLIVEIRA RODRIGUES                                 558037                                                                                                                                                                                                                                                                                                           
15148527400015951485274000159C00297616721 85645                         85645                         1232537018201702095CZC2654 1 BRASIL                                            SPLIMEIRA                                           BRASIL                                            SPSAO PAULO                                         2017020927000027600000000221INTEGRACAO                                        2537018   2017030808201423725370180000360000000000000000000909132633890CELSO G DONADEL                                             1                        1 2832014                           027010073919501209132633890   CELSO GUILHERME DONADEL                                     543833                                                                                                                                                                                                                                                                                                           
15148527400015951485274000159C00297617541 85646                         85646                         1424286024201702095AAL3952 1 BRASIL                                            SPLIMEIRA                                           BRASIL                                            SPSAO PAULO                                         2017020927000009780000000078INTEGRACAO                                        4206021   2017030808100723742060210000370000000000000000000401653786892CLAUDIO A SILVA                                             1                        1 2831839                           028010073966975701653786892   CLAUDIO APARECIDO DA SILVA                                  543530                                                                                                                                                                                                                                                                                                           
15148527400015951485274000159C00297617541 85646                         85646                         1424286024201702095AAL3952 1 BRASIL                                            SPLIMEIRA                                           BRASIL                                            SPSAO PAULO                                         2017020927000033960000000272INTEGRACAO                                        4206021   2017030808101023742060210000380000000000000000000401653786892CLAUDIO A SILVA                                             1                        1 2831137                           028010073966975701653786892   CLAUDIO APARECIDO DA SILVA                                  543533                                                                                                                                                                                                                                                                                                           
15148527400015951485274000159C00297618741 85647                         85647                         0515279032201702095BTA1930 1 BRASIL                                            SPLIMEIRA                                           BRASIL                                            SPSAO PAULO                                         2017020927000021600000000173INTEGRACAO                                        4132029   2017030807500523741320290000390000000000000000000419178597838CLAUDIO A S GODOY                                           1                        1 2831524                           029010074036429219178597838   CLAUDIO APARECIDO DE SOUZA GODOY                            543082                                                                                                                                                                                                                                                                                                           
15148527400015951485274000159C00297619161 85648                         85648                         1354832015201702095FGG9920 1 BRASIL                                            SPLIMEIRA                                           BRASIL                                            SPSAO PAULO                                         2017020927000010000000000080INTEGRACAO                                        4832015   2017030810200723748320150000400000000000000000000975214180853CLAUDIO A SIQUEIRA                                          1                        1 2832305                           024010074067030875214180853   CLAUDIO APARECIDO DO VALE SIQUEIRA                          547971                                                                                                                                                                                                                                                                                                           
15148527400015951485274000159C00297619161 85648                         85648                         1354832015201702095FGG9920 1 BRASIL                                            SPLIMEIRA                                           BRASIL                                            SPSAO PAULO                                         2017020927000007000000000056INTEGRACAO                                        4832015   2017030815403523748320150000410000000000000000000975214180853CLAUDIO A SIQUEIRA                                          1                        1 2832596                           024010074067030875214180853   CLAUDIO APARECIDO DO VALE SIQUEIRA                          558850                                                                                                                                                                                                                                                                                                           
15148527400015951485274000159C00297620241 85651                         85651                         1215464016201702095DBC1476 1 BRASIL                                            SPLIMEIRA                                           BRASIL                                            SPSAO PAULO                                         2017020927000010000000000080INTEGRACAO                                        5464016   2017030801012023754640160000420000000000000000000918588859491SEVERINO O SILVA                                            1                        1 2831964                           027010074136825318588859491   SEVERINO O SILVA                                            539921                                                                                                                                                                                                                                                                                                           
15148527400015951485274000159C00297620801 85652                         85652                         1483045014201702095BWY0827 1 BRASIL                                            SPLIMEIRA                                           BRASIL                                            SPSAO PAULO                                         2017020927000013200000000106INTEGRACAO                                        2262012   2017030808100423722620120000430000000000000000000480050913891CLEIDO N MELO                                               1                        1 2831942                           022010074172473880050913891   CLEIDO N MELO                                               543578                                                                                                                                                                                                                                                                                                           
15148527400015951485274000159C00297621961 85654                         85654                         1232542018201702095BWC0472 1 BRASIL                                            SPLIMEIRA                                           BRASIL                                            SPSAO PAULO                                         2017020927000021600000000173INTEGRACAO                                        2542018   2017030801012023725420180000440000000000000000000984871148815DANIEL CEZAR GARCIA                                         1                        1 2831927                           021010074243232684871148815   DANIEL CEZAR GARCIA                                         540057                                                                                                                                                                                                                                                                                                           
15148527400015951485274000159C00297621961 85654                         85654                         1232542018201702095BWC0472 1 BRASIL                                            SPLIMEIRA                                           BRASIL                                            SPSAO PAULO                                         2017020927000013600000000109INTEGRACAO                                        2542018   2017030801013023725420180000450000000000000000000984871148815DANIEL CEZAR GARCIA                                         1                        1 2831530                           021010074243232684871148815   DANIEL CEZAR GARCIA                                         539932                                                                                                                                                                                                                                                                                                           
15148527400015951485274000159C00297621961 85654                         85654                         1232542018201702095BWC0472 1 BRASIL                                            SPLIMEIRA                                           BRASIL                                            SPSAO PAULO                                         2017020927000021600000000173INTEGRACAO                                        2542018   2017030812100923725420180000460000000000000000000984871148815DANIEL CEZAR GARCIA                                         1                        1 2832437                           021010074243232684871148815   DANIEL CEZAR GARCIA                                         552300                                                                                                                                                                                                                                                                                                           
15148527400015951485274000159C00297622371 85655                         85655                         1167190015201702095EGM4923 1 BRASIL                                            SPLIMEIRA                                           BRASIL                                            SPSAO PAULO                                         2017020927000012000000000096INTEGRACAO                                        7190015   2017030809301023771900150000470000000000000000000915629694472DARIO FERNANDES                                             1                        1 2832193                           027010074259739315629694472   DARIO FERNANDES                                             545940                                                                                                                                                                                                                                                                                                           
15148527400015951485274000159C00297626351 85658                         85658                         0968974041201702095DBC0547 1 BRASIL                                            SPLIMEIRA                                           BRASIL                                            SPSAO PAULO                                         2017020927000050000000000400INTEGRACAO                                        4138026   2017030819300523741380260000480000000000000000000453228057615DONIZETTI REZENDE                                           1                        1 2832817                           020010074470061253228057615   DONIZETTI REZENDE                                           568947                                                                                                                                                                                                                                                                                                           
15148527400015951485274000159C00297626741 85659                         85659                         1329626013201702095JJZ3162 1 BRASIL                                            SPLIMEIRA                                           BRASIL                                            SPSAO PAULO                                         2017020927000060000000000480INTEGRACAO                                        9626013   2017030820100723796260130000490000000000000000000906192398836DORIVAL FELICIO                                             1                        1 2832823                           027010074495123906192398836   DORIVAL FELICIO                                             569766                                                                                                                                                                                                                                                                                                           
15148527400015951485274000159C00297627241 85660                         85660                         1329610017201702095DIW2136 1 BRASIL                                            SPLIMEIRA                                           BRASIL                                            SPSAO PAULO                                         2017020927000007000000000056INTEGRACAO                                        9610017   2017030811500423796100170000500000000000000000000912261847823EDIVALDO B SILVA                                            1                        1 2832421                           025010074528736812261847823   EDIVALDO BARBOSA DA SILVA                                   551520                                                                                                                                                                                                                                                                                                           
15148527400015951485274000159C00297628001 85661                         85661                         1378722010201702095CBH4293 1 BRASIL                                            SPLIMEIRA                                           BRASIL                                            SPSAO PAULO                                         2017020927000010000000000080INTEGRACAO                                        8722010   2017030803200323787220100000510000000000000000000910813846897EDIVALDO DOS SANTOS                                         1                        1 2832057                           022010074577526210813846897   EDIVALDO DOS SANTOS                                         541060                                                                                                                                                                                                                                                                                                           
15148527400015951485274000159C00297629891 85664                         85664                         1393869010201702095GOA4922 1 BRASIL                                            SPLIMEIRA                                           BRASIL                                            SPSAO PAULO                                         2017020927000070000000000560INTEGRACAO                                        3869010   2017030823000623738690100000520000000000000000000937093675816EDUARDO O TEODORO                                           1                        1 2832978                           023010074690671137093675816   EDUARDO DE OLIVEIRA TEODORO                                 571780                                                                                                                                                                                                                                                                                                           
15148527400015951485274000159C00297649261 85674                         85674                         1413841015201702095CEX5123 1 BRASIL                                            SPLIMEIRA                                           BRASIL                                            SPSAO PAULO                                         2017020927000030000000000240INTEGRACAO                                        3841015   2017030806401523738410150000530000000000000000000996562455804VALMIR JOSE RIBEIRO                                         1                        1 2832114                           029010075757745311928043844   CLAUDIO ATHAYDE JUNCO                                       542376                                                                                                                                                                                                                                                                                                           
15148527400015951485274000159C00297651191 85675                         85675                         1353007015201702095DBC1431 1 BRASIL                                            SPLIMEIRA                                           BRASIL                                            SPSAO PAULO                                         2017020927000060000000000480INTEGRACAO                                        3007015   2017030807301123730070150000540000000000000000000932175549810FABIANO JOSE VIANA                                          1                        1 2831985                           022010075845060232175549810   FABIANO JOSE VIANA                                          542851                                                                                                                                                                                                                                                                                                           
15148527400015951485274000159C00297655501 85679                         85679                         1270016016201702095EBC3761 1 BRASIL                                            SPLIMEIRA                                           BRASIL                                            SPSAO PAULO                                         2017020927000045000000000360INTEGRACAO                                        0016016   2017030809401823700160160000550000000000000000000979194710449FRANCISCO C MELO                                            1                        1 2832222                           026010076094862279194710449   FRANCISCO DAS CHAGAS DE MELO                                546284                                                                                                                                                                                                                                                                                                           
15148527400015951485274000159C00297659681 85681                         85681                         1354822016201702095DBL5461 1 BRASIL                                            SPLIMEIRA                                           BRASIL                                            SPSAO PAULO                                         2017020927000060000000000480INTEGRACAO                                        4822016   2017030820100923748220160000560000000000000000000911014831806GILMAR F FREITAS                                            1                        1 2832854                           022010076307806211014831806   GILMAR FERREIRA DE FREITAS                                  569769                                                                                                                                                                                                                                                                                                           
15148527400015951485274000159C00297666021 85685                         85685                         1413844019201702095DTE4881 1 BRASIL                                            SPLIMEIRA                                           BRASIL                                            SPSAO PAULO                                         2017020927000020000000000160INTEGRACAO                                        3844019   2017030812501023738440190000570000000000000000000912857993803HELCIO JOSE SILVA                                           1                        1 2832468                           025010076626150703520275848   IVA DAVID DE SOUZA                                          552912                                                                                                                                                                                                                                                                                                           
15148527400015951485274000159C00297669681 85688                         85688                         1270027013201702095BWP2411 1 BRASIL                                            SPLIMEIRA                                           BRASIL                                            SPSAO PAULO                                         2017020927000050000000000400INTEGRACAO                                        0027013   2017030821300923700270130000580000000000000000000903286283878JAIR MACEDO VIEIRA                                          1                        1 2832851                           025010076805850503286283878   JAIR MACEDO VIEIRA                                          570867                                                                                                                                                                                                                                                                                                           
15148527400015951485274000159C00297671751 85691                         85691                         1380576016201702095DPE7319 1 BRASIL                                            SPLIMEIRA                                           BRASIL                                            SPSAO PAULO                                         2017020927000150000000001200INTEGRACAO                                        0576016   2017030810502723705760160000590000000000000000000958459766934JOELSON A C SANTOS                                          1                        1 2832355                           021010076925413858459766934   JOELSON A C SANTOS                                          549108                                                                                                                                                                                                                                                                                                           
15148527400015951485274000159C00297672601 85692                         85692                         0342127045201702095DPE7192 1 BRASIL                                            SPLIMEIRA                                           BRASIL                                            SPSAO PAULO                                         2017020927000150000000001200INTEGRACAO                                        4561015   2017030811201023745610150000600000000000000000000405734450871JORGE L PEREIRA                                             1                        1 2832384                           027010076970873305734450871   JORGE LUIS PEREIRA                                          550399                                                                                                                                                                                                                                                                                                           
15148527400015951485274000159C00297677201 85696                         85696                         1215458018201702095GUD3165 1 BRASIL                                            SPLIMEIRA                                           BRASIL                                            SPSAO PAULO                                         2017020927000080000000000640INTEGRACAO                                        5458018   2017030801500423754580180000610000000000000000000903284939881JOSE D C CABRAL                                             1                        1 2832034                           023010077212295303284939881   JOSE DANIEL CASACHI CABRAL                                  540216                                                                                                                                                                                                                                                                                                           
15148527400015951485274000159C00297677201 85696                         85696                         1215458018201702095GUD3165 1 BRASIL                                            SPLIMEIRA                                           BRASIL                                            SPSAO PAULO                                         2017020927000070000000000560INTEGRACAO                                        5458018   2017030823100623754580180000620000000000000000000903284939881JOSE D C CABRAL                                             1                        1 2832998                           023010077212295303284939881   JOSE DANIEL CASACHI CABRAL                                  572113                                                                                                                                                                                                                                                                                                           
15148527400015951485274000159C00297686671 85703                         85703                         0135704016201702095BWC7689 1 BRASIL                                            SPLIMEIRA                                           BRASIL                                            SPSAO PAULO                                         2017020927000090000000000720INTEGRACAO                                        3565017   2017030814401723735650170000630000000000000000000409592597839JOSE R CLAUDIANO                                            1                        1 2832538                           025010077678663109592597839   JOSE ROBERTO CLAUDIANO                                      556463                                                                                                                                                                                                                                                                                                           
15148527400015951485274000159C00297687811 85704                         85704                         1422879028201702095EXO0437 1 BRASIL                                            SPLIMEIRA                                           BRASIL                                            SPSAO PAULO                                         2017020927000012000000000096INTEGRACAO                                        3139013   2017030809002923731390130000640000000000000000000459908572849JOSE WINKLER                                                1                        1 2832180                           028010077733916959908572849   jose winkler                                                544981                                                                                                                                                                                                                                                                                                           
15148527400015951485274000159C00297690401 85705                         85705                         1354850017201702095AKN7535 1 BRASIL                                            SPLIMEIRA                                           BRASIL                                            SPSAO PAULO                                         2017020927000034400000000275INTEGRACAO                                        4850017   2017030801013123748500170000650000000000000000000928224784819JULIANO JAMES MELO                                          1                        1 2831978                           029010077836444728224784819   JULIANO JAMES DE MELO                                       539933                                                                                                                                                                                                                                                                                                           
15148527400015951485274000159C00297690401 85705                         85705                         1354850017201702095AKN7535 1 BRASIL                                            SPLIMEIRA                                           BRASIL                                            SPSAO PAULO                                         2017020927000034400000000275INTEGRACAO                                        4850017   2017030823100523748500170000660000000000000000000928224784819JULIANO JAMES MELO                                          1                        1 2833000                           029010077836444728224784819   JULIANO JAMES DE MELO                                       572112                                                                                                                                                                                                                                                                                                           
15148527400015951485274000159C00297691761 85706                         85706                         1232541010201702095HQZ9423 1 BRASIL                                            SPLIMEIRA                                           BRASIL                                            SPSAO PAULO                                         2017020927000070000000000560INTEGRACAO                                        2541010   2017030804500423725410100000670000000000000000000932705101870LEANDRO N SANTOS                                            1                        1 2832090                           026010077890046432705101870   LEANDRO NEVES DOS SANTOS                                    541472                                                                                                                                                                                                                                                                                                           
15148527400015951485274000159C00297695681 85712                         85712                         1424416025201702095BXF4215 1 BRASIL                                            SPLIMEIRA                                           BRASIL                                            SPSAO PAULO                                         2017020927000050000000000400INTEGRACAO                                        4244022   2017030823300323742440220000680000000000000000000428616760865LUIS H BOIM                                                 1                        1 2832994                           020010078086704728616760865   LUIS HENRIQUE BOIM                                          572184                                                                                                                                                                                                                                                                                                           
15148527400015951485274000159C00297696451 85714                         85714                         1435389019201702095DPE7544 1 BRASIL                                            SPLIMEIRA                                           BRASIL                                            SPSAO PAULO                                         2017020927000150000000001200INTEGRACAO                                        5389019   2017030810001423753890190000690000000000000000000913941116819LUIS V CHIQUETO                                             1                        1 2832292                           027010078144115913941116819   LUIS V CHIQUETO                                             546875                                                                                                                                                                                                                                                                                                           
15148527400015951485274000159C00297697871 85716                         85716                         0730067015201702095BWK9895 1 BRASIL                                            SPLIMEIRA                                           BRASIL                                            SPSAO PAULO                                         2017020927000026000000000208INTEGRACAO                                        0067015   2017030811102423700670150000700000000000000000000939198273841LUIZ E CLEMENTE                                             1                        1 2832372                           020010078232879639198273841   LUIZ EDUARDO CLEMENTE                                       550178                                                                                                                                                                                                                                                                                                           
15148527400015951485274000159C00297702731 85718                         85718                         1435386015201702095GMH9217 1 BRASIL                                            SPLIMEIRA                                           BRASIL                                            SPSAO PAULO                                         2017020927000090000000000720INTEGRACAO                                        5386015   2017030811300523753860150000710000000000000000000911454333839CLAUDIO D TEODORO                                           1                        1 2832405                           029010078534881514402061806   MARCIO FERNANDO CORREA                                      550710                                                                                                                                                                                                                                                                                                           
15148527400015951485274000159C00297706661 85727                         85727                         1232534015201702095DAH0547 1 BRASIL                                            SPLIMEIRA                                           BRASIL                                            SPSAO PAULO                                         2017020927000060000000000480INTEGRACAO                                        2534015   2017030811200623725340150000720000000000000000000909321222804MARCO A M C P BOSCH                                         1                        1 2832393                           027010078766354709321222804   Marco Alexandre Moreno Covre PS Bosch                       550395                                                                                                                                                                                                                                                                                                           
15148527400015951485274000159C00297708591 85728                         85728                         1532535022201702095AJY4232 1 BRASIL                                            SPLIMEIRA                                           BRASIL                                            SPSAO PAULO                                         2017020927000018000000000144INTEGRACAO                                        5402023   2017030811301523754020230000730000000000000000000409280206818ELIAS A JR                                                  1                        1 2832409                           020010078878257513762721807   Marco Serraglio rota 14                                     550722                                                                                                                                                                                                                                                                                                           
15148527400015951485274000159C00297750221 85729                         85729                         1424427027201702105CQH6712 1 BRASIL                                            SPLIMEIRA                                           BRASIL                                            SPSAO PAULO                                         2017021027000002996000000024INTEGRACAO                                        4249021   2017030809005423742490210000740000000000000000000413762721807MARCOS R SERRAGLIO                                          1                        1 2816175                           028010080759443813762721807   Marco Serraglio rota 14                                     545060                                                                                                                                                                                                                                                                                                           
15148527400015951485274000159C00297751371 85731                         85731                         1270028011201702105DBC1477 1 BRASIL                                            SPLIMEIRA                                           BRASIL                                            SPSAO PAULO                                         2017021027000060000000000480INTEGRACAO                                        0028011   2017030815301023700280110000750000000000000000000925438502870MARIO C A BARBOZA                                           1                        1 2832590                           020010080800633825438502870   MARIO CELSO ASNAR BARBOZA                                   558344                                                                                                                                                                                                                                                                                                           
15148527400015951485274000159C00297755441 85734                         85734                         1435391015201702105CZC3360 1 BRASIL                                            SPLIMEIRA                                           BRASIL                                            SPSAO PAULO                                         2017021027000150000000001200INTEGRACAO                                        5391015   2017030810301223753910150000760000000000000000000907875583896MILTON A MOREIRA                                            1                        1 2832343                           027010080986204907875583896   MILTON APARECIDO MOREIRA                                    548325                                                                                                                                                                                                                                                                                                           
15148527400015951485274000159C00297757471 85736                         85736                         1190452010201702105FRK5046 1 BRASIL                                            SPLIMEIRA                                           BRASIL                                            SPSAO PAULO                                         2017021027000010000000000080INTEGRACAO                                        0452010   2017030808000423704520100000770000000000000000000935082614843MICHEL R NACIMENTO                                          1                        1 2832128                           021010081069768735082614843   michel rodrigues do nacimento                               543166                                                                                                                                                                                                                                                                                                           
15148527400015951485274000159C00297759781 85737                         85737                         1232531011201702105AJH0010 1 BRASIL                                            SPLIMEIRA                                           BRASIL                                            SPSAO PAULO                                         2017021027000080000000000640INTEGRACAO                                        2531011   2017030802100423725310110000780000000000000000000944048050630SERGIO C MARTINS                                            1                        1 2832037                           021010081154594701688836861   MORACY NOGUEIRA                                             540533                                                                                                                                                                                                                                                                                                           
15148527400015951485274000159C00297761841 85738                         85738                         0260713078201702105DBC0927 1 BRASIL                                            SPLIMEIRA                                           BRASIL                                            SPSAO PAULO                                         2017021027000060000000000480INTEGRACAO                                        4608014   2017030821200823746080140000790000000000000000000411474676847NELSON E JR                                                 1                        1 2832820                           027010081226823911474676847   NELSON E JR                                                 570784                                                                                                                                                                                                                                                                                                           
15148527400015951485274000159C00297762871 85739                         85739                         0592163012201702105DPE7263 1 BRASIL                                            SPLIMEIRA                                           BRASIL                                            SPSAO PAULO                                         2017021027000100000000000800INTEGRACAO                                        4610010   2017030804400323746100100000800000000000000000000409581005862NELSON M NASCIMENTO                                         1                        1 2832031                           021010081272786609581005862   NELSON MANOEL DO NASCIMENTO                                 541445                                                                                                                                                                                                                                                                                                           
15148527400015951485274000159C00297764161 85740                         85740                         1435402010201702105DPE7680 1 BRASIL                                            SPLIMEIRA                                           BRASIL                                            SPSAO PAULO                                         2017021027000170000000001360INTEGRACAO                                        5402010   2017030817502523754020100000810000000000000000000915049487854ODAIR JOSE CARLOS                                           1                        1 2832783                           022010081361502015049487854   Odair Jos  Carlos                                          566009                                                                                                                                                                                                                                                                                                           
15148527400015951485274000159C00297766061 85741                         85741                         0571220016201702105BXG3018 1 BRASIL                                            SPLIMEIRA                                           BRASIL                                            SPSAO PAULO                                         2017021027000050000000000400INTEGRACAO                                        4614012   2017030821201223746140120000820000000000000000000417559015859ORIAS L RIBEIRO                                             1                        1 2832826                           020010081437875917559015859   ORIAS LATIEL RIBEIRO                                        570790                                                                                                                                                                                                                                                                                                           
15148527400015951485274000159C00297777081 85748                         85748                         1301531017201702105BWU5318 1 BRASIL                                            SPLIMEIRA                                           BRASIL                                            SPSAO PAULO                                         2017021027000060000000000480INTEGRACAO                                        1531017   2017030821300923715310170000830000000000000000000937122324893RAFAEL SILVA TORRES                                         1                        1 2832888                           026010082014590937122324893   RAFAEL DA SILVA TORRES                                      570866                                                                                                                                                                                                                                                                                                           
15148527400015951485274000159C00297779511 85750                         85750                         1232533017201702105BWU4446 1 BRASIL                                            SPLIMEIRA                                           BRASIL                                            SPSAO PAULO                                         2017021027000070000000000560INTEGRACAO                                        2533017   2017030823100523725330170000840000000000000000000931469034824RAFAEL F E ALVES                                            1                        1 2832987                           021010082115439931469034824   RAFAEL FERNANDO ESBRICE ALVES                               572018                                                                                                                                                                                                                                                                                                           
15148527400015951485274000159C00297807761 85751                         85751                         1301516018201702105CSK0781 1 BRASIL                                            SPLIMEIRA                                           BRASIL                                            SPSAO PAULO                                         2017021027000015000000000120INTEGRACAO                                        1516018   2017030807001123715160180000850000000000000000000901007142855ANTONIO J SOUZA                                             1                        1 2832118                           022010083402004330604385870   RAIMUNDA N SOUSA                                            542316                                                                                                                                                                                                                                                                                                           
15148527400015951485274000159C00297808911 85753                         85753                         0829929018201702105BSF5356 1 BRASIL                                            SPLIMEIRA                                           BRASIL                                            SPSAO PAULO                                         2017021027000070000000000560INTEGRACAO                                        9929018   2017030823000323799290180000860000000000000000000925871718817RANULFO LUCHESI                                             1                        1 2832981                           024010083458518725871718817   RANULFO LUCHESI                                             571772                                                                                                                                                                                                                                                                                                           
15148527400015951485274000159C00297809761 85755                         85755                         1293049010201702105DBL1051 1 BRASIL                                            SPLIMEIRA                                           BRASIL                                            SPSAO PAULO                                         2017021027000135000000001080INTEGRACAO                                        3049010   2017030811000823730490100000870000000000000000000918212504867REGINALDO CARVALHO                                          1                        1 2832361                           029010083502839318212504867   REGINALDO CARVALHO                                          549478                                                                                                                                                                                                                                                                                                           
15148527400015951485274000159C00297810931 85757                         85757                         1354854019201702105DPE7191 1 BRASIL                                            SPLIMEIRA                                           BRASIL                                            SPSAO PAULO                                         2017021027000170000000001360INTEGRACAO                                        4854019   2017030814502223748540190000880000000000000000000912328683886REINALDO N ANDRADE                                          1                        1 2832549                           028010083574156312328683886   Reinaldo natalino de andrade                                556832                                                                                                                                                                                                                                                                                                           
15148527400015951485274000159C00297811191 85758                         85758                         1232526011201702105BUS0845 1 BRASIL                                            SPLIMEIRA                                           BRASIL                                            SPSAO PAULO                                         2017021027000070000000000560INTEGRACAO                                        2526011   2017030823100523725260110000890000000000000000000971460322800RENATO C SANTIAGO                                           1                        1 2832989                           025010083599817671460322800   RENATO CORREA SANTIAGO                                      572017                                                                                                                                                                                                                                                                                                           
15148527400015951485274000159C00297818031 85765                         85765                         1354834011201702105GMO0059 1 BRASIL                                            SPLIMEIRA                                           BRASIL                                            SPSAO PAULO                                         2017021027000070000000000560INTEGRACAO                                        4834011   2017030823000323748340110000900000000000000000000971960600834ROBERTO L GARCIA                                            1                        1 2832972                           022010084005524671960600834   ROBERTO LOPES GARCIA                                        571734                                                                                                                                                                                                                                                                                                           
15148527400015951485274000159C00297824701 85772                         85772                         1413849018201702105EJV5072 1 BRASIL                                            SPLIMEIRA                                           BRASIL                                            SPSAO PAULO                                         2017021027000060000000000480INTEGRACAO                                        3849018   2017030822000523738490180000910000000000000000000929554811810VAGNER O SIQUEIRA                                           1                        1 2832909                           020010084327915929554811810   VAGNER ORTEGA SIQUEIRA                                      571114                                                                                                                                                                                                                                                                                                           
15148527400015951485274000159C00297825251 85773                         85773                         1354852013201702105EFV5547 1 BRASIL                                            SPLIMEIRA                                           BRASIL                                            SPSAO PAULO                                         2017021027000010000000000080INTEGRACAO                                        4852013   2017030817005223748520130000920000000000000000000911634488857VALDENIR A FERREIRA                                         1                        1 2832684                           025010084363725711634488857   valdenir almeida ferreira                                   563178                                                                                                                                                                                                                                                                                                           
15148527400015951485274000159C00297827841 85777                         85777                         1435392013201702105BWY5476 1 BRASIL                                            SPLIMEIRA                                           BRASIL                                            SPSAO PAULO                                         2017021027000030000000000240INTEGRACAO                                        5392013   2017030823100323753920130000930000000000000000000942487869828MATHEUS F CAMPOS                                            1                        1 2832992                           020010084493486306838443856   vladimir aparecido bevilacqua                               572110                                                                                                                                                                                                                                                                                                           
15148527400015951485274000159C00297828941 85778                         85778                         0466345091201702105DPE6932 1 BRASIL                                            SPLIMEIRA                                           BRASIL                                            SPSAO PAULO                                         2017021027000055000000000440INTEGRACAO                                        4186041   2017030810102823741860410000940000000000000000000405729267827WAGNER PRONI                                                1                        1 2832231                           025010084546403405729267827   WAGNER PRONI                                                547525                                                                                                                                                                                                                                                                                                           
15148527400015951485274000159C00297828941 85778                         85778                         0466345091201702105DPE6932 1 BRASIL                                            SPLIMEIRA                                           BRASIL                                            SPSAO PAULO                                         2017021027000002996000000024INTEGRACAO                                        4186041   2017030817405123741860410000950000000000000000000405729267827WAGNER PRONI                                                1                        1 2816496                           025010084546403405729267827   WAGNER PRONI                                                565703                                                                                                                                                                                                                                                                                                           
15148527400015951485274000159C00297831671 85781                         85781                         1167193019201702105EZU1607 1 BRASIL                                            SPLIMEIRA                                           BRASIL                                            SPSAO PAULO                                         2017021027000030000000000240INTEGRACAO                                        7193019   2017030820200923771930190000960000000000000000000929509731838WILSON V M BORBA                                            1                        1 2832857                           029010084667158388370526853   WALTER PEREIRA                                              569840                                                                                                                                                                                                                                                                                                           
15148527400015951485274000159C00297833261 85782                         85782                         0163379031201702105EYE0982 1 BRASIL                                            SPLIMEIRA                                           BRASIL                                            SPSAO PAULO                                         2017021027000010000000000080INTEGRACAO                                        4188021   2017030803300323741880210000970000000000000000000488370526853WALTER PEREIRA                                              1                        1 2832066                           024010084721371388370526853   WALTER PEREIRA                                              541077                                                                                                                                                                                                                                                                                                           
15148527400015951485274000159C00297834591 85783                         85783                         1037157020201702105FTP0346 1 BRASIL                                            SPLIMEIRA                                           BRASIL                                            SPSAO PAULO                                         2017021027000005000000000040INTEGRACAO                                        7157020   2017030806100323771570200000980000000000000000000941103197819WILLIAN ROGERIO                                             1                        1 2832093                           020010084775815241103197819   WILLIAN ROGERIO                                             542193                                                                                                                                                                                                                                                                                                           
15148527400015951485274000159C00297835491 85784                         85784                         0426661047201702105CXQ2193 1 BRASIL                                            SPLIMEIRA                                           BRASIL                                            SPSAO PAULO                                         2017021027000014000000000112INTEGRACAO                                        4189029   2017030820501123741890290000990000000000000000000408166212846WILSON L LIMA                                               1                        1 2832862                           023010084811496808166212846   WILSON LUIZ DE LIMA                                         570272                                                                                                                                                                                                                                                                                                           
