020170321                                                                                                                                                                                                                                                                                                                                                                                                                                                      000001                                                                                                                                                                                                                                                                                                                                                                                                                                                                                                                                                                   
15148527400015951485274000159C00296562471 85559                         85559                         1380569011201702025BTR1378 1 BRASIL                                            SPLIMEIRA                                           BRASIL                                            SPSAO PAULO                                         2017020227000050000000000400INTEGRACAO                                        0569011   2017031421301123705690110000020000000000000000000901653338806CLEUCIO A SILVA                                             1                        1 2836759                           028010024400486301653338806   CLEUCIO APARECIDO DA SILVA                                  719190                                                                                                                                                                                                                                                                                                           
15148527400015951485274000159C00296951841 85572                         85572                         0969670018201702065DBC1072 1 BRASIL                                            SPLIMEIRA                                           BRASIL                                            SPSAO PAULO                                         2017020627000050000000000400INTEGRACAO                                        9670018   2017031411202123796700180000030000000000000000000977797280800JOSE R GHISELLINE                                           1                        1 2836342                           027010042602496177797280800   jose roberto ghiselline                                     697804                                                                                                                                                                                                                                                                                                           
15148527400015951485274000159C00296958731 85573                         85573                         1167170017201702065BWO9561 1 BRASIL                                            SPLIMEIRA                                           BRASIL                                            SPSAO PAULO                                         2017020627000030000000000240INTEGRACAO                                        7170017   2017031412100623771700170000040000000000000000000917205126800SANDRO S VIGINOTI                                           1                        1 2836388                           025010042976199017205126800   SANDRO SERGIO VIGINOTI                                      699824                                                                                                                                                                                                                                                                                                           
15148527400015951485274000159C00297022891 85578                         85578                         1393879019201702065CQH6189 1 BRASIL                                            SPLIMEIRA                                           BRASIL                                            SPSAO PAULO                                         2017020627000050000000000400INTEGRACAO                                        3879019   2017031410202923738790190000050000000000000000000915836668850CELSO F MACHADO                                             1                        1 2836301                           021010045811223815836668850   CELSO FERREIRA MACHADO                                      695653                                                                                                                                                                                                                                                                                                           
15148527400015951485274000159C00297087191 85590                         85590                         1413838011201702065DBC1203 1 BRASIL                                            SPLIMEIRA                                           BRASIL                                            SPSAO PAULO                                         2017020627000050000000000400INTEGRACAO                                        3838011   2017031410502623738380110000060000000000000000000910065639898MARIO A K SEVDALIS                                          1                        1 2836331                           025010048761589610065639898   MARIO ANTONIO KILO SEVDALIS                                 696868                                                                                                                                                                                                                                                                                                           
15148527400015951485274000159C00297208661 85595                         85595                         1393874010201702075BWB9478 1 BRASIL                                            SPLIMEIRA                                           BRASIL                                            SPSAO PAULO                                         2017020727000010000000000080INTEGRACAO                                        3874010   2017031408400323738740100000070000000000000000000901642228800CLAUDEMIR QUESSADA                                          1                        1 2836222                           022010054428978101642228800   CLAUDEMIR QUESSADA                                          692517                                                                                                                                                                                                                                                                                                           
15148527400015951485274000159C00297224561 85596                         85596                         1354828013201702075BIX9164 1 BRASIL                                            SPLIMEIRA                                           BRASIL                                            SPSAO PAULO                                         2017020727000025000000000200INTEGRACAO                                        4828013   2017031410104023748280130000080000000000000000000935690400890KLEYTON S V AH                                              1                        1 2836285                           028010055123867635690400890   KLEYTON SANTANA VON AH                                      695285                                                                                                                                                                                                                                                                                                           
15148527400015951485274000159C00297224561 85596                         85596                         1354828013201702075BIX9164 1 BRASIL                                            SPLIMEIRA                                           BRASIL                                            SPSAO PAULO                                         2017020727000025000000000200INTEGRACAO                                        4828013   2017031410105423748280130000090000000000000000000935690400890KLEYTON S V AH                                              1                        1 2836282                           028010055123867635690400890   KLEYTON SANTANA VON AH                                      695298                                                                                                                                                                                                                                                                                                           
15148527400015951485274000159C00297224561 85596                         85596                         1354828013201702075BIX9164 1 BRASIL                                            SPLIMEIRA                                           BRASIL                                            SPSAO PAULO                                         2017020727000035000000000280INTEGRACAO                                        4828013   2017031412200723748280130000100000000000000000000935690400890KLEYTON S V AH                                              1                        1 2836403                           028010055123867635690400890   KLEYTON SANTANA VON AH                                      700078                                                                                                                                                                                                                                                                                                           
15148527400015951485274000159C00297241131 85598                         85598                         1444046011201702075DIY2604 1 BRASIL                                            SPLIMEIRA                                           BRASIL                                            SPSAO PAULO                                         2017020727000020000000000160INTEGRACAO                                        2586015   2017031418301623725860150000110000000000000000000430189952873ARY L BRISOLLA                                              1                        1 2836688                           023010055941655330189952873   ARY LEME BRISOLLA NETTO                                     715867                                                                                                                                                                                                                                                                                                           
15148527400015951485274000159C00297241771 85599                         85599                         1215471011201702075CFE4210 1 BRASIL                                            SPLIMEIRA                                           BRASIL                                            SPSAO PAULO                                         2017020727000013000000000104INTEGRACAO                                        5471011   2017031409302023754710110000120000000000000000000916072623808HUMBERTO NEGRETO NT                                         1                        1 2836252                           025010055978892611002767857   MARILY MENDES                                               693997                                                                                                                                                                                                                                                                                                           
15148527400015951485274000159C00297305311 85610                         85610                         1424402024201702075DJQ4992 1 BRASIL                                            SPLIMEIRA                                           BRASIL                                            SPSAO PAULO                                         2017020727000010000000000080INTEGRACAO                                        4240020   2017031410002123742400200000130000000000000000000400171161807JOSE M ALVES                                                1                        1 2836279                           029010058135543800171161807   JOSE MACHADO ALVES                                          694909                                                                                                                                                                                                                                                                                                           
15148527400015951485274000159C00297305311 85610                         85610                         1424402024201702075DJQ4992 1 BRASIL                                            SPLIMEIRA                                           BRASIL                                            SPSAO PAULO                                         2017020727000010000000000080INTEGRACAO                                        4240020   2017031417402923742400200000140000000000000000000400171161807JOSE M ALVES                                                1                        1 2836651                           029010058135543800171161807   JOSE MACHADO ALVES                                          713834                                                                                                                                                                                                                                                                                                           
15148527400015951485274000159C00297307081 85611                         85611                         1424424028201702075BZT8365 1 BRASIL                                            SPLIMEIRA                                           BRASIL                                            SPSAO PAULO                                         2017020727000017500000000140INTEGRACAO                                        4248023   2017031409001323742480230000150000000000000000000418426400892MARCIO A AMARAL                                             1                        1 2836230                           024010058213711718426400892   MARCIO ALEXANDRE DO AMARAL                                  693160                                                                                                                                                                                                                                                                                                           
15148527400015951485274000159C00297308721 85612                         85612                         1167195014201702075CLU3364 1 BRASIL                                            SPLIMEIRA                                           BRASIL                                            SPSAO PAULO                                         2017020727000020000000000160INTEGRACAO                                        7195014   2017031416501223771950140000160000000000000000000955543014791NIWTON BONIFACIO                                            1                        1 2836620                           020010058272264455543014791   NIWTON BONIFACIO                                            711058                                                                                                                                                                                                                                                                                                           
15148527400015951485274000159C00297314211 85613                         85613                         1424446030201702075BXE8476 1 BRASIL                                            SPLIMEIRA                                           BRASIL                                            SPSAO PAULO                                         2017020727000024000000000192INTEGRACAO                                        4259038   2017031417103123742590380000170000000000000000000407418559844VANDERLEI A SANAVIO                                         1                        1 2836637                           022010058539125407418559844   VANDERLEI ANTONIO SANAVIO                                   712199                                                                                                                                                                                                                                                                                                           
15148527400015951485274000159C00297495511 85618                         85618                         1465294015201702085DTV5919 1 BRASIL                                            SPLIMEIRA                                           BRASIL                                            SPSAO PAULO                                         2017020827000015000000000120INTEGRACAO                                        6430016   2017031409100923764300160000180000000000000000000406947120861ADAO R MOURA                                                1                        1 2836235                           022010067497482606947120861   ADAO RODRIGUES DE MOURA                                     693416                                                                                                                                                                                                                                                                                                           
15148527400015951485274000159C00297565481 85622                         85622                         0227011017201702095EFO8333 1 BRASIL                                            SPLIMEIRA                                           BRASIL                                            SPSAO PAULO                                         2017020927000002996000000024INTEGRACAO                                        4458014   2017031413002523744580140000190000000000000000000426307445823ABEL C METZNER                                              1                        1 2815008                           027010071190473126307445823   ABEL C METZNER                                              700843                                                                                                                                                                                                                                                                                                           
15148527400015951485274000159C00297566401 85623                         85623                         0453365050201702095KQC9415 1 BRASIL                                            SPLIMEIRA                                           BRASIL                                            SPSAO PAULO                                         2017020927000026400000000211INTEGRACAO                                        4125023   2017031414101423741250230000200000000000000000000406225606890ADEVALDO OLIVEIRA                                           1                        1 2836095                           029010071250429706225606890   Adevaldo de Oliveira Junior                                 702832                                                                                                                                                                                                                                                                                                           
15148527400015951485274000159C00297572321 85625                         85625                         0272932018201702095EFO8301 1 BRASIL                                            SPLIMEIRA                                           BRASIL                                            SPSAO PAULO                                         2017020927000002996000000024INTEGRACAO                                        6428010   2017031413002623764280100000210000000000000000000480941869920ADILSON ROSSI                                               1                        1 2815031                           029010071542727580941869920   ADILSON ROSSI                                               700913                                                                                                                                                                                                                                                                                                           
15148527400015951485274000159C00297575121 85626                         85626                         1435385017201702095BWO0838 1 BRASIL                                            SPLIMEIRA                                           BRASIL                                            SPSAO PAULO                                         2017020927000090000000000720INTEGRACAO                                        5385017   2017031409300623753850170000220000000000000000000902440099880JOAO C PEREIRA                                              1                        1 2836244                           020010071669615301202919839   AGNALDO DANIEL VIEIRA                                       693923                                                                                                                                                                                                                                                                                                           
15148527400015951485274000159C00297576891 85628                         85628                         1413848010201702095AEY5232 1 BRASIL                                            SPLIMEIRA                                           BRASIL                                            SPSAO PAULO                                         2017020927000120000000000960INTEGRACAO                                        3848010   2017031414303823738480100000230000000000000000000918767821880ALESSANDRO MESSIAS                                          1                        1 2836500                           021010071763079818767821880   ALESSANDRO DONIZETI MESSIAS                                 703827                                                                                                                                                                                                                                                                                                           
15148527400015951485274000159C00297587981 85635                         85635                         1354835018201702095DPE7075 1 BRASIL                                            SPLIMEIRA                                           BRASIL                                            SPSAO PAULO                                         2017020927000002996000000024INTEGRACAO                                        4835018   2017031413002523748350180000240000000000000000000906290232800APARECIDO R PONTES                                          1                        1 2815112                           020010072409098206290232800   Aparecido Rodrigues pontes                                  700912                                                                                                                                                                                                                                                                                                           
15148527400015951485274000159C00297589111 85638                         85638                         1354833013201702095EJY4006 1 BRASIL                                            SPLIMEIRA                                           BRASIL                                            SPSAO PAULO                                         2017020927000140000000001120INTEGRACAO                                        4833013   2017031408001923748330130000250000000000000000000914998992899ODAIR EUGENIO PAES                                          1                        1 2836198                           022010072470078722022379845   ANDERSON ROBERTO DOS SANTOS                                 691633                                                                                                                                                                                                                                                                                                           
15148527400015951485274000159C00297590481 85640                         85640                         1435401012201702095ELQ7472 1 BRASIL                                            SPLIMEIRA                                           BRASIL                                            SPSAO PAULO                                         2017020927000008000000000064INTEGRACAO                                        4203028   2017031408401723742030280000260000000000000000000436497274804AURINO M FERREIRA                                           1                        1 2836224                           021010072531742336497274804   AURINO MAIA FERREIRA                                        692598                                                                                                                                                                                                                                                                                                           
15148527400015951485274000159C00297590481 85640                         85640                         1435401012201702095ELQ7472 1 BRASIL                                            SPLIMEIRA                                           BRASIL                                            SPSAO PAULO                                         2017020927000005000000000040INTEGRACAO                                        4203028   2017031419101123742030280000270000000000000000000436497274804AURINO M FERREIRA                                           1                        1 2836728                           021010072531742336497274804   AURINO MAIA FERREIRA                                        716790                                                                                                                                                                                                                                                                                                           
15148527400015951485274000159C00297593021 85642                         85642                         1167178010201702095AJJ3207 1 BRASIL                                            SPLIMEIRA                                           BRASIL                                            SPSAO PAULO                                         2017020927000020000000000160INTEGRACAO                                        7178010   2017031410110123771780100000280000000000000000000977805178887ADEMAR N SOUZA                                              1                        1 2836264                           022010072682737977805178887   ADEMAR N SOUZA                                              695354                                                                                                                                                                                                                                                                                                           
15148527400015951485274000159C00297593021 85642                         85642                         1167178010201702095AJJ3207 1 BRASIL                                            SPLIMEIRA                                           BRASIL                                            SPSAO PAULO                                         2017020927000010000000000080INTEGRACAO                                        7178010   2017031419200423771780100000290000000000000000000977805178887ADEMAR N SOUZA                                              1                        1 2836731                           022010072682737977805178887   ADEMAR N SOUZA                                              717018                                                                                                                                                                                                                                                                                                           
15148527400015951485274000159C00297615331 85643                         85643                         1435396014201702095ESU5269 1 BRASIL                                            SPLIMEIRA                                           BRASIL                                            SPSAO PAULO                                         2017020927000020000000000160INTEGRACAO                                        5396014   2017031402400323753960140000300000000000000000000911929719817CELSO B MACHADO                                             1                        1 2836144                           021010073837712011929719817   Celso batista machado                                       689989                                                                                                                                                                                                                                                                                                           
15148527400015951485274000159C00297616721 85645                         85645                         1232537018201702095CZC2654 1 BRASIL                                            SPLIMEIRA                                           BRASIL                                            SPSAO PAULO                                         2017020927000009600000000077INTEGRACAO                                        2537018   2017031408200623725370180000310000000000000000000909132633890CELSO G DONADEL                                             1                        1 2835984                           027010073919501209132633890   CELSO GUILHERME DONADEL                                     691922                                                                                                                                                                                                                                                                                                           
15148527400015951485274000159C00297616721 85645                         85645                         1232537018201702095CZC2654 1 BRASIL                                            SPLIMEIRA                                           BRASIL                                            SPSAO PAULO                                         2017020927000003600000000029INTEGRACAO                                        2537018   2017031410102823725370180000320000000000000000000909132633890CELSO G DONADEL                                             1                        1 2836294                           027010073919501209132633890   CELSO GUILHERME DONADEL                                     695271                                                                                                                                                                                                                                                                                                           
15148527400015951485274000159C00297617541 85646                         85646                         1424286024201702095AAL3952 1 BRASIL                                            SPLIMEIRA                                           BRASIL                                            SPSAO PAULO                                         2017020927000014400000000115INTEGRACAO                                        4206021   2017031411100923742060210000330000000000000000000401653786892CLAUDIO A SILVA                                             1                        1 2836020                           028010073966975701653786892   CLAUDIO APARECIDO DA SILVA                                  697558                                                                                                                                                                                                                                                                                                           
15148527400015951485274000159C00297617541 85646                         85646                         1424286024201702095AAL3952 1 BRASIL                                            SPLIMEIRA                                           BRASIL                                            SPSAO PAULO                                         2017020927000019560000000156INTEGRACAO                                        4206021   2017031413403223742060210000340000000000000000000401653786892CLAUDIO A SILVA                                             1                        1 2836039                           028010073966975701653786892   CLAUDIO APARECIDO DA SILVA                                  701740                                                                                                                                                                                                                                                                                                           
15148527400015951485274000159C00297618741 85647                         85647                         0515279032201702095BTA1930 1 BRASIL                                            SPLIMEIRA                                           BRASIL                                            SPSAO PAULO                                         2017020927000002996000000024INTEGRACAO                                        4132029   2017031413102023741320290000350000000000000000000419178597838CLAUDIO A S GODOY                                           1                        1 2815316                           029010074036429219178597838   CLAUDIO APARECIDO DE SOUZA GODOY                            701192                                                                                                                                                                                                                                                                                                           
15148527400015951485274000159C00297618741 85647                         85647                         0515279032201702095BTA1930 1 BRASIL                                            SPLIMEIRA                                           BRASIL                                            SPSAO PAULO                                         2017020927000021600000000173INTEGRACAO                                        4132029   2017031415502123741320290000360000000000000000000419178597838CLAUDIO A S GODOY                                           1                        1 2836315                           029010074036429219178597838   CLAUDIO APARECIDO DE SOUZA GODOY                            707773                                                                                                                                                                                                                                                                                                           
15148527400015951485274000159C00297618741 85647                         85647                         0515279032201702095BTA1930 1 BRASIL                                            SPLIMEIRA                                           BRASIL                                            SPSAO PAULO                                         2017020927000021600000000173INTEGRACAO                                        4132029   2017031417102223741320290000370000000000000000000419178597838CLAUDIO A S GODOY                                           1                        1 2836631                           029010074036429219178597838   CLAUDIO APARECIDO DE SOUZA GODOY                            712271                                                                                                                                                                                                                                                                                                           
15148527400015951485274000159C00297619161 85648                         85648                         1354832015201702095FGG9920 1 BRASIL                                            SPLIMEIRA                                           BRASIL                                            SPSAO PAULO                                         2017020927000010000000000080INTEGRACAO                                        4832015   2017031409401323748320150000380000000000000000000975214180853CLAUDIO A SIQUEIRA                                          1                        1 2836256                           024010074067030875214180853   CLAUDIO APARECIDO DO VALE SIQUEIRA                          694225                                                                                                                                                                                                                                                                                                           
15148527400015951485274000159C00297620171 85650                         85650                         0380508036201702095DBC0557 1 BRASIL                                            SPLIMEIRA                                           BRASIL                                            SPSAO PAULO                                         2017020927000135000000001080INTEGRACAO                                        4468013   2017031412502123744680130000390000000000000000000421887662880ANDERSON BURGER                                             1                        1 2836451                           026010074132256721887662880   ANDERSON BURGER                                             700778                                                                                                                                                                                                                                                                                                           
15148527400015951485274000159C00297620801 85652                         85652                         1483045014201702095BWY0827 1 BRASIL                                            SPLIMEIRA                                           BRASIL                                            SPSAO PAULO                                         2017020927000016800000000134INTEGRACAO                                        2262012   2017031408500823722620120000400000000000000000000480050913891CLEIDO N MELO                                               1                        1 2835973                           022010074172473880050913891   CLEIDO N MELO                                               692860                                                                                                                                                                                                                                                                                                           
15148527400015951485274000159C00297620801 85652                         85652                         1483045014201702095BWY0827 1 BRASIL                                            SPLIMEIRA                                           BRASIL                                            SPSAO PAULO                                         2017020927000013200000000106INTEGRACAO                                        2262012   2017031408502023722620120000410000000000000000000480050913891CLEIDO N MELO                                               1                        1 2835197                           022010074172473880050913891   CLEIDO N MELO                                               692876                                                                                                                                                                                                                                                                                                           
15148527400015951485274000159C00297621961 85654                         85654                         1232542018201702095BWC0472 1 BRASIL                                            SPLIMEIRA                                           BRASIL                                            SPSAO PAULO                                         2017020927000021600000000173INTEGRACAO                                        2542018   2017031417201323725420180000420000000000000000000984871148815DANIEL CEZAR GARCIA                                         1                        1 2836635                           021010074243232684871148815   DANIEL CEZAR GARCIA                                         712693                                                                                                                                                                                                                                                                                                           
15148527400015951485274000159C00297621961 85654                         85654                         1232542018201702095BWC0472 1 BRASIL                                            SPLIMEIRA                                           BRASIL                                            SPSAO PAULO                                         2017020927000021600000000173INTEGRACAO                                        2542018   2017031417202023725420180000430000000000000000000984871148815DANIEL CEZAR GARCIA                                         1                        1 2836328                           021010074243232684871148815   DANIEL CEZAR GARCIA                                         712703                                                                                                                                                                                                                                                                                                           
15148527400015951485274000159C00297621961 85654                         85654                         1232542018201702095BWC0472 1 BRASIL                                            SPLIMEIRA                                           BRASIL                                            SPSAO PAULO                                         2017020927000014400000000115INTEGRACAO                                        2542018   2017031417202523725420180000440000000000000000000984871148815DANIEL CEZAR GARCIA                                         1                        1 2836023                           021010074243232684871148815   DANIEL CEZAR GARCIA                                         712795                                                                                                                                                                                                                                                                                                           
15148527400015951485274000159C00297622371 85655                         85655                         1167190015201702095EGM4923 1 BRASIL                                            SPLIMEIRA                                           BRASIL                                            SPSAO PAULO                                         2017020927000005000000000040INTEGRACAO                                        7190015   2017031412501223771900150000450000000000000000000915629694472DARIO FERNANDES                                             1                        1 2836467                           027010074259739315629694472   DARIO FERNANDES                                             700763                                                                                                                                                                                                                                                                                                           
15148527400015951485274000159C00297626351 85658                         85658                         0968974041201702095DBC0547 1 BRASIL                                            SPLIMEIRA                                           BRASIL                                            SPSAO PAULO                                         2017020927000050000000000400INTEGRACAO                                        4138026   2017031419101323741380260000460000000000000000000453228057615DONIZETTI REZENDE                                           1                        1 2836726                           020010074470061253228057615   DONIZETTI REZENDE                                           716794                                                                                                                                                                                                                                                                                                           
15148527400015951485274000159C00297627241 85660                         85660                         1329610017201702095DIW2136 1 BRASIL                                            SPLIMEIRA                                           BRASIL                                            SPSAO PAULO                                         2017020927000007000000000056INTEGRACAO                                        9610017   2017031415403423796100170000470000000000000000000912261847823EDIVALDO B SILVA                                            1                        1 2836546                           025010074528736812261847823   EDIVALDO BARBOSA DA SILVA                                   707295                                                                                                                                                                                                                                                                                                           
15148527400015951485274000159C00297628001 85661                         85661                         1378722010201702095CBH4293 1 BRASIL                                            SPLIMEIRA                                           BRASIL                                            SPSAO PAULO                                         2017020927000010000000000080INTEGRACAO                                        8722010   2017031401400323787220100000480000000000000000000910813846897EDIVALDO DOS SANTOS                                         1                        1 2835931                           022010074577526210813846897   EDIVALDO DOS SANTOS                                         689871                                                                                                                                                                                                                                                                                                           
15148527400015951485274000159C00297629891 85664                         85664                         1393869010201702095GOA4922 1 BRASIL                                            SPLIMEIRA                                           BRASIL                                            SPSAO PAULO                                         2017020927000160000000001280INTEGRACAO                                        3869010   2017031414303023738690100000490000000000000000000937093675816EDUARDO O TEODORO                                           1                        1 2836506                           023010074690671137093675816   EDUARDO DE OLIVEIRA TEODORO                                 703814                                                                                                                                                                                                                                                                                                           
15148527400015951485274000159C00297644931 85670                         85670                         0830350014201702095FFW5794 1 BRASIL                                            SPLIMEIRA                                           BRASIL                                            SPSAO PAULO                                         2017020927000400000000003200INTEGRACAO                                        0350014   2017031421001623703500140000500000000000000000002326491412806EDVALDO RICHITTA                                            1                        1 2836751             07414374000100022010075497711307414374000100EDVALDO RICHITTA TRANSPORTES ME                             718673                                                                                                                                                                                                                                                                                                           
15148527400015951485274000159C00297660671 85682                         85682                         1300557013201702095GZG1429 1 BRASIL                                            SPLIMEIRA                                           BRASIL                                            SPSAO PAULO                                         2017020927000019560000000156INTEGRACAO                                        0557013   2017031411201423705570130000510000000000000000000922141234824MARCEL G SILVA                                              1                        1 2836062                           026010076353576410624141870   GINO GRECO NETO                                             697979                                                                                                                                                                                                                                                                                                           
15148527400015951485274000159C00297660671 85682                         85682                         1300557013201702095GZG1429 1 BRASIL                                            SPLIMEIRA                                           BRASIL                                            SPSAO PAULO                                         2017020927000021600000000173INTEGRACAO                                        0557013   2017031411202123705570130000520000000000000000000922141234824MARCEL G SILVA                                              1                        1 2836309                           026010076353576410624141870   GINO GRECO NETO                                             697989                                                                                                                                                                                                                                                                                                           
15148527400015951485274000159C00297660671 85682                         85682                         1300557013201702095GZG1429 1 BRASIL                                            SPLIMEIRA                                           BRASIL                                            SPSAO PAULO                                         2017020927000021600000000173INTEGRACAO                                        0557013   2017031416302423705570130000530000000000000000000922141234824MARCEL G SILVA                                              1                        1 2836540                           026010076353576410624141870   GINO GRECO NETO                                             709978                                                                                                                                                                                                                                                                                                           
15148527400015951485274000159C00297666021 85685                         85685                         1413844019201702095DTE4881 1 BRASIL                                            SPLIMEIRA                                           BRASIL                                            SPSAO PAULO                                         2017020927000020000000000160INTEGRACAO                                        3844019   2017031411501623738440190000540000000000000000000912857993803HELCIO JOSE SILVA                                           1                        1 2836365                           025010076626150703520275848   IVA DAVID DE SOUZA                                          699110                                                                                                                                                                                                                                                                                                           
15148527400015951485274000159C00297668771 85687                         85687                         0618882012201702095IEQ3517 1 BRASIL                                            SPLIMEIRA                                           BRASIL                                            SPSAO PAULO                                         2017020927000050000000000400INTEGRACAO                                        7290010   2017031403300323772900100000550000000000000000000413129177841IVAN S NOVAIS                                               1                        1 2836100                           022010076755378213129177841   IVAN SOUSA NOVAIS                                           690133                                                                                                                                                                                                                                                                                                           
15148527400015951485274000159C00297671751 85691                         85691                         1380576016201702095DPE7319 1 BRASIL                                            SPLIMEIRA                                           BRASIL                                            SPSAO PAULO                                         2017020927000002996000000024INTEGRACAO                                        0576016   2017031412301923705760160000560000000000000000000958459766934JOELSON A C SANTOS                                          1                        1 2815587                           021010076925413858459766934   JOELSON A C SANTOS                                          700294                                                                                                                                                                                                                                                                                                           
15148527400015951485274000159C00297672601 85692                         85692                         0342127045201702095DPE7192 1 BRASIL                                            SPLIMEIRA                                           BRASIL                                            SPSAO PAULO                                         2017020927000002996000000024INTEGRACAO                                        4561015   2017031412301923745610150000570000000000000000000405734450871JORGE L PEREIRA                                             1                        1 2815595                           027010076970873305734450871   JORGE LUIS PEREIRA                                          700387                                                                                                                                                                                                                                                                                                           
15148527400015951485274000159C00297676501 85695                         85695                         1167181014201702095BTP1488 1 BRASIL                                            SPLIMEIRA                                           BRASIL                                            SPSAO PAULO                                         2017020927000009780000000078INTEGRACAO                                        7181014   2017031416404823771810140000580000000000000000000911487698895JOSE C PEREIRA                                              1                        1 2836047                           020010077176422318021178000184CARLOS FELIPE GUEDES TRANSPORTES ME                         710630                                                                                                                                                                                                                                                                                                           
15148527400015951485274000159C00297677201 85696                         85696                         1215458018201702095GUD3165 1 BRASIL                                            SPLIMEIRA                                           BRASIL                                            SPSAO PAULO                                         2017020927000150000000001200INTEGRACAO                                        5458018   2017031412500823754580180000590000000000000000000903284939881JOSE D C CABRAL                                             1                        1 2836461                           023010077212295303284939881   JOSE DANIEL CASACHI CABRAL                                  700759                                                                                                                                                                                                                                                                                                           
15148527400015951485274000159C00297686671 85703                         85703                         0135704016201702095BWC7689 1 BRASIL                                            SPLIMEIRA                                           BRASIL                                            SPSAO PAULO                                         2017020927000060000000000480INTEGRACAO                                        3565017   2017031419001523735650170000600000000000000000000409592597839JOSE R CLAUDIANO                                            1                        1 2836722                           025010077678663109592597839   JOSE ROBERTO CLAUDIANO                                      716472                                                                                                                                                                                                                                                                                                           
15148527400015951485274000159C00297693051 85707                         85707                         1150345014201702095CZC7445 1 BRASIL                                            SPLIMEIRA                                           BRASIL                                            SPSAO PAULO                                         2017020927000010000000000080INTEGRACAO                                        0345014   2017031411402023703450140000610000000000000000000984732539815GERALDO DOMINGUES                                           1                        1 2836346                           020010077949493815851122838   LOURDES M DOMINGUES                                         698777                                                                                                                                                                                                                                                                                                           
15148527400015951485274000159C00297696451 85714                         85714                         1435389019201702095DPE7544 1 BRASIL                                            SPLIMEIRA                                           BRASIL                                            SPSAO PAULO                                         2017020927000080000000000640INTEGRACAO                                        5389019   2017031416100723753890190000620000000000000000000913941116819LUIS V CHIQUETO                                             1                        1 2836589                           027010078144115913941116819   LUIS V CHIQUETO                                             708896                                                                                                                                                                                                                                                                                                           
15148527400015951485274000159C00297696851 85715                         85715                         1167175016201702095BWC0262 1 BRASIL                                            SPLIMEIRA                                           BRASIL                                            SPSAO PAULO                                         2017020927000090000000000720INTEGRACAO                                        7175016   2017031412100923771750160000630000000000000000000914896936884LUIZ CARLOS TRISTAO                                         1                        1 2836372                           020010078171320514896936884   LUIZ CARLOS TRISTAO                                         699905                                                                                                                                                                                                                                                                                                           
15148527400015951485274000159C00297697871 85716                         85716                         0730067015201702095BWK9895 1 BRASIL                                            SPLIMEIRA                                           BRASIL                                            SPSAO PAULO                                         2017020927000026000000000208INTEGRACAO                                        0067015   2017031410110023700670150000640000000000000000000939198273841LUIZ E CLEMENTE                                             1                        1 2836288                           020010078232879639198273841   LUIZ EDUARDO CLEMENTE                                       695310                                                                                                                                                                                                                                                                                                           
15148527400015951485274000159C00297697871 85716                         85716                         0730067015201702095BWK9895 1 BRASIL                                            SPLIMEIRA                                           BRASIL                                            SPSAO PAULO                                         2017020927000013000000000104INTEGRACAO                                        0067015   2017031416203623700670150000650000000000000000000939198273841LUIZ E CLEMENTE                                             1                        1 2836596                           020010078232879639198273841   LUIZ EDUARDO CLEMENTE                                       709486                                                                                                                                                                                                                                                                                                           
15148527400015951485274000159C00297704231 85721                         85721                         1424390026201702095CSK3560 1 BRASIL                                            SPLIMEIRA                                           BRASIL                                            SPSAO PAULO                                         2017020927000020000000000160INTEGRACAO                                        4237026   2017031409002123742370260000660000000000000000000405456285800JOSE A CALEFI                                               1                        1 2836227                           029010078609053605456285800   JOSE A CALEFI                                               693085                                                                                                                                                                                                                                                                                                           
15148527400015951485274000159C00297706661 85727                         85727                         1232534015201702095DAH0547 1 BRASIL                                            SPLIMEIRA                                           BRASIL                                            SPSAO PAULO                                         2017020927000025000000000200INTEGRACAO                                        2534015   2017031410101523725340150000670000000000000000000909321222804MARCO A M C P BOSCH                                         1                        1 2836247                           027010078766354709321222804   Marco Alexandre Moreno Covre PS Bosch                       695150                                                                                                                                                                                                                                                                                                           
15148527400015951485274000159C00297706661 85727                         85727                         1232534015201702095DAH0547 1 BRASIL                                            SPLIMEIRA                                           BRASIL                                            SPSAO PAULO                                         2017020927000018000000000144INTEGRACAO                                        2534015   2017031423000523725340150000680000000000000000000909321222804MARCO A M C P BOSCH                                         1                        1 2836785                           027010078766354709321222804   Marco Alexandre Moreno Covre PS Bosch                       720261                                                                                                                                                                                                                                                                                                           
15148527400015951485274000159C00297708591 85728                         85728                         1532535022201702095AJY4232 1 BRASIL                                            SPLIMEIRA                                           BRASIL                                            SPSAO PAULO                                         2017020927000080000000000640INTEGRACAO                                        5402023   2017031401300323754020230000690000000000000000000409280206818ELIAS A JR                                                  1                        1 2836113                           020010078878257513762721807   Marco Serraglio rota 14                                     689749                                                                                                                                                                                                                                                                                                           
15148527400015951485274000159C00297751891 85732                         85732                         1393866016201702105FAO8370 1 BRASIL                                            SPLIMEIRA                                           BRASIL                                            SPSAO PAULO                                         2017021027000045000000000360INTEGRACAO                                        3866016   2017031410104523738660160000700000000000000000000980839908849MARIO L O GARCIA                                            1                        1 2836238                           027010080825710780839908849   MARIO LUIZ DE OLIVEIRA GARCIA                               695238                                                                                                                                                                                                                                                                                                           
15148527400015951485274000159C00297755441 85734                         85734                         1435391015201702105CZC3360 1 BRASIL                                            SPLIMEIRA                                           BRASIL                                            SPSAO PAULO                                         2017021027000002996000000024INTEGRACAO                                        5391015   2017031412403323753910150000710000000000000000000907875583896MILTON A MOREIRA                                            1                        1 2816197                           027010080986204907875583896   MILTON APARECIDO MOREIRA                                    700528                                                                                                                                                                                                                                                                                                           
15148527400015951485274000159C00297757471 85736                         85736                         1190452010201702105FRK5046 1 BRASIL                                            SPLIMEIRA                                           BRASIL                                            SPSAO PAULO                                         2017021027000005000000000040INTEGRACAO                                        0452010   2017031408100923704520100000720000000000000000000935082614843MICHEL R NACIMENTO                                          1                        1 2836215                           021010081069768735082614843   michel rodrigues do nacimento                               691742                                                                                                                                                                                                                                                                                                           
15148527400015951485274000159C00297759781 85737                         85737                         1232531011201702105AJH0010 1 BRASIL                                            SPLIMEIRA                                           BRASIL                                            SPSAO PAULO                                         2017021027000090000000000720INTEGRACAO                                        2531011   2017031414504023725310110000730000000000000000000944048050630SERGIO C MARTINS                                            1                        1 2836529                           021010081154594701688836861   MORACY NOGUEIRA                                             704648                                                                                                                                                                                                                                                                                                           
15148527400015951485274000159C00297761841 85738                         85738                         0260713078201702105DBC0927 1 BRASIL                                            SPLIMEIRA                                           BRASIL                                            SPSAO PAULO                                         2017021027000060000000000480INTEGRACAO                                        4608014   2017031420200623746080140000740000000000000000000411474676847NELSON E JR                                                 1                        1 2836675                           027010081226823911474676847   NELSON E JR                                                 718045                                                                                                                                                                                                                                                                                                           
15148527400015951485274000159C00297762871 85739                         85739                         0592163012201702105DPE7263 1 BRASIL                                            SPLIMEIRA                                           BRASIL                                            SPSAO PAULO                                         2017021027000002996000000024INTEGRACAO                                        4610010   2017031412301923746100100000750000000000000000000409581005862NELSON M NASCIMENTO                                         1                        1 2816223                           021010081272786609581005862   NELSON MANOEL DO NASCIMENTO                                 700386                                                                                                                                                                                                                                                                                                           
15148527400015951485274000159C00297762871 85739                         85739                         0592163012201702105DPE7263 1 BRASIL                                            SPLIMEIRA                                           BRASIL                                            SPSAO PAULO                                         2017021027000070000000000560INTEGRACAO                                        4610010   2017031418401923746100100000760000000000000000000409581005862NELSON M NASCIMENTO                                         1                        1 2836699                           021010081272786609581005862   NELSON MANOEL DO NASCIMENTO                                 716120                                                                                                                                                                                                                                                                                                           
15148527400015951485274000159C00297766061 85741                         85741                         0571220016201702105BXG3018 1 BRASIL                                            SPLIMEIRA                                           BRASIL                                            SPSAO PAULO                                         2017021027000050000000000400INTEGRACAO                                        4614012   2017031420201423746140120000770000000000000000000417559015859ORIAS L RIBEIRO                                             1                        1 2836694                           020010081437875917559015859   ORIAS LATIEL RIBEIRO                                        718157                                                                                                                                                                                                                                                                                                           
15148527400015951485274000159C00297769281 85743                         85743                         1284238010201702105CTC3047 1 BRASIL                                            SPLIMEIRA                                           BRASIL                                            SPSAO PAULO                                         2017021027000015000000000120INTEGRACAO                                        4238010   2017031409401623742380100000780000000000000000000908830101869OSVALDO OLIVEIRA JR                                         1                        1 2836258                           020010081593244708830101869   OSVALDO DE OLIVEIRA JUNIOR                                  694229                1121730507                                                                                                                                                                                                                                                                                 
15148527400015951485274000159C00297770141 85744                         85744                         1413856013201702105CLU5972 1 BRASIL                                            SPLIMEIRA                                           BRASIL                                            SPSAO PAULO                                         2017021027000002996000000024INTEGRACAO                                        3856013   2017031412403323738560130000790000000000000000000909604816802PAULO C R PONTES                                            1                        1 2816254                           027010081641732009604816802   PAULO CESAR RODRIGUES PONTES                                700583                                                                                                                                                                                                                                                                                                           
15148527400015951485274000159C00297770141 85744                         85744                         1413856013201702105CLU5972 1 BRASIL                                            SPLIMEIRA                                           BRASIL                                            SPSAO PAULO                                         2017021027000070000000000560INTEGRACAO                                        3856013   2017031418101223738560130000800000000000000000000909604816802PAULO C R PONTES                                            1                        1 2836682                           027010081641732009604816802   PAULO CESAR RODRIGUES PONTES                                715252                                                                                                                                                                                                                                                                                                           
15148527400015951485274000159C00297771181 85745                         85745                         1232527019201702105EFW8894 1 BRASIL                                            SPLIMEIRA                                           BRASIL                                            SPSAO PAULO                                         2017021027000003000000000024INTEGRACAO                                        2527019   2017031412001523725270190000810000000000000000000925536480812PAULO SILVA NEVES                                           1                        1 2836378                           025010081699241225536480812   PAULO DA SILVA NEVES                                        699401                                                                                                                                                                                                                                                                                                           
15148527400015951485274000159C00297808911 85753                         85753                         0829929018201702105BSF5356 1 BRASIL                                            SPLIMEIRA                                           BRASIL                                            SPSAO PAULO                                         2017021027000090000000000720INTEGRACAO                                        9929018   2017031412101723799290180000820000000000000000000925871718817RANULFO LUCHESI                                             1                        1 2836354                           024010083458518725871718817   RANULFO LUCHESI                                             699913                                                                                                                                                                                                                                                                                                           
15148527400015951485274000159C00297809761 85755                         85755                         1293049010201702105DBL1051 1 BRASIL                                            SPLIMEIRA                                           BRASIL                                            SPSAO PAULO                                         2017021027000135000000001080INTEGRACAO                                        3049010   2017031410110023730490100000830000000000000000000918212504867REGINALDO CARVALHO                                          1                        1 2836275                           029010083502839318212504867   REGINALDO CARVALHO                                          695309                                                                                                                                                                                                                                                                                                           
15148527400015951485274000159C00297810501 85756                         85756                         1393872014201702105DPE7073 1 BRASIL                                            SPLIMEIRA                                           BRASIL                                            SPSAO PAULO                                         2017021027000060000000000480INTEGRACAO                                        3872014   2017031420201523738720140000840000000000000000000907880653864REINALDO L OLIVEIRA                                         1                        1 2836660                           027010083541387507880653864   REINALDO L OLIVEIRA                                         718160                                                                                                                                                                                                                                                                                                           
15148527400015951485274000159C00297817081 85764                         85764                         1301526017201702105CBO5292 1 BRASIL                                            SPLIMEIRA                                           BRASIL                                            SPSAO PAULO                                         2017021027000002996000000024INTEGRACAO                                        1526017   2017031413102023715260170000850000000000000000000932430592835ROBERTO L GARCIA JR                                         1                        1 2816416                           024010083948462532430592835   Roberto lopes garcia Junior                                 701113                                                                                                                                                                                                                                                                                                           
15148527400015951485274000159C00297817081 85764                         85764                         1301526017201702105CBO5292 1 BRASIL                                            SPLIMEIRA                                           BRASIL                                            SPSAO PAULO                                         2017021027000050000000000400INTEGRACAO                                        1526017   2017031419002123715260170000860000000000000000000932430592835ROBERTO L GARCIA JR                                         1                        1 2836715                           024010083948462532430592835   Roberto lopes garcia Junior                                 716604                                                                                                                                                                                                                                                                                                           
15148527400015951485274000159C00297818031 85765                         85765                         1354834011201702105GMO0059 1 BRASIL                                            SPLIMEIRA                                           BRASIL                                            SPSAO PAULO                                         2017021027000160000000001280INTEGRACAO                                        4834011   2017031414304723748340110000870000000000000000000971960600834ROBERTO L GARCIA                                            1                        1 2836519                           022010084005524671960600834   ROBERTO LOPES GARCIA                                        703839                                                                                                                                                                                                                                                                                                           
15148527400015951485274000159C00297821331 85768                         85768                         1393861017201702105HMZ7350 1 BRASIL                                            SPLIMEIRA                                           BRASIL                                            SPSAO PAULO                                         2017021027000008000000000064INTEGRACAO                                        3861017   2017031415503523738610170000880000000000000000000902109598948SANDRO R BARBOSA                                            1                        1 2836562                           026010084150392402109598948   SANDRO ROBERTO BARBOSA                                      707806                                                                                                                                                                                                                                                                                                           
15148527400015951485274000159C00297827841 85777                         85777                         1435392013201702105BWY5476 1 BRASIL                                            SPLIMEIRA                                           BRASIL                                            SPSAO PAULO                                         2017021027000090000000000720INTEGRACAO                                        5392013   2017031410102923753920130000890000000000000000000942487869828MATHEUS F CAMPOS                                            1                        1 2836296                           020010084493486306838443856   vladimir aparecido bevilacqua                               695210                                                                                                                                                                                                                                                                                                           
15148527400015951485274000159C00297828941 85778                         85778                         0466345091201702105DPE6932 1 BRASIL                                            SPLIMEIRA                                           BRASIL                                            SPSAO PAULO                                         2017021027000055000000000440INTEGRACAO                                        4186041   2017031420201023741860410000900000000000000000000405729267827WAGNER PRONI                                                1                        1 2836684                           025010084546403405729267827   WAGNER PRONI                                                718047                                                                                                                                                                                                                                                                                                           
15148527400015951485274000159C00297833261 85782                         85782                         0163379031201702105EYE0982 1 BRASIL                                            SPLIMEIRA                                           BRASIL                                            SPSAO PAULO                                         2017021027000045000000000360INTEGRACAO                                        4188021   2017031416005823741880210000910000000000000000000488370526853WALTER PEREIRA                                              1                        1 2836572                           024010084721371388370526853   WALTER PEREIRA                                              708218                                                                                                                                                                                                                                                                                                           
15148527400015951485274000159C00297834591 85783                         85783                         1037157020201702105FTP0346 1 BRASIL                                            SPLIMEIRA                                           BRASIL                                            SPSAO PAULO                                         2017021027000007000000000056INTEGRACAO                                        7157020   2017031402200423771570200000920000000000000000000941103197819WILLIAN ROGERIO                                             1                        1 2836141                           020010084775815241103197819   WILLIAN ROGERIO                                             689970                                                                                                                                                                                                                                                                                                           
15148527400015951485274000159C00298256841 85790                         85790                         1501996013201702145DBB3322 1 BRASIL                                            SPLIMEIRA                                           BRASIL                                            SPSAO PAULO                                         2017021427000100000000000800INTEGRACAO                                        3800015   2017031419001123738000150000930000000000000000000406005867822ELIO A PEREIRA                                              1                        1 2836720                           024010105021916106005867822   ELIO A PEREIRA                                              716587                                                                                                                                                                                                                                                                                                           
15148527400015951485274000159C00298259321 85792                         85792                         0198302074201702145CQH6140 1 BRASIL                                            SPLIMEIRA                                           BRASIL                                            SPSAO PAULO                                         2017021427000008000000000064INTEGRACAO                                        4158024   2017031401400323741580240000940000000000000000000405339142809LUCIANO F TANAGA                                            1                        1 2835934                           021010105145370905339142809   LUCIANO TANAGA                                              689870                                                                                                                                                                                                                                                                                                           
15148527400015951485274000159C00298259321 85792                         85792                         0198302074201702145CQH6140 1 BRASIL                                            SPLIMEIRA                                           BRASIL                                            SPSAO PAULO                                         2017021427000010000000000080INTEGRACAO                                        4158024   2017031415404123741580240000950000000000000000000405339142809LUCIANO F TANAGA                                            1                        1 2836550                           021010105145370905339142809   LUCIANO TANAGA                                              707225                                                                                                                                                                                                                                                                                                           
15148527400015951485274000159C00299703831 85818                         85818                         1380258011201702225DNA8151 1 BRASIL                                            SPLIMEIRA                                           BRASIL                                            SPSAO PAULO                                         2017022227000015000000000120INTEGRACAO                                        0258011   2017031401400323702580110000960000000000000000002306746863816VICTOR ALBERTO GANDRA BRAZ                                  1                        1 2835924             21028404000163025010173991582521028404000163A T TRANSPORTES EIRELI ME                                   689802                                                                                                                                                                                                                                                                                                           
15148527400015951485274000159C00302767465 NAO DECLARADO                                               0969670018201703143        7 BRASIL                                            SPLIMEIRA                                           BRASIL                                            SPJAGUARIUNA                                        2017031417000005400000000043JOSE VILSON SIMPLICIO                             9670018   2017031406063423796700180000970000054000000000000977797280800JOSE R GHISELLINE                                           1                                                                            77797280800   jose roberto ghiselline                                     690644    5                                                                                                                                                                                                                                                                                                      
15148527400015951485274000159C00302782795 NAO DECLARADO                                               1393874010201703143        2 BRASIL                                            SPLIMEIRA                                           BRASIL                                            SPSUMARE                                            2017031417000003080000000025SARITA BUENO DE CAMPOS                            3874010   2017031408524623738740100000980000030800000000000901642228800CLAUDEMIR QUESSADA                                          1                                                                            01642228800   CLAUDEMIR QUESSADA                                          692832    5                                                                                                                                                                                                                                                                                                      
15148527400015951485274000159C00302828765 NAO DECLARADO                                               1413838011201703143        7 BRASIL                                            SPLIMEIRA                                           BRASIL                                            SPLIMEIRA                                           2017031417000025200000000202SARITA BUENO DE CAMPOS                            3838011   2017031411382323738380110000990000252000000000000910065639898MARIO A K SEVDALIS                                          1                                                                            10065639898   MARIO ANTONIO KILO SEVDALIS                                 698633    5                                                                                                                                                                                                                                                                                                      
