020170321                                                                                                                                                                                                                                                                                                                                                                                                                                                      000001                                                                                                                                                                                                                                                                                                                                                                                                                                                                                                                                                                   
15148527400015951485274000159C00296476271 85555                         85555                         0584519061201702025MCY2826 1 BRASIL                                            SPLIMEIRA                                           BRASIL                                            SPSAO PAULO                                         2017020227000020000000000160INTEGRACAO                                        1669015   2017030708300923716690150000020000000000000000000411011339889REGINALDO OLIVEIRA                                          1                        1 2831316                           024010020395498011011339889   REGINALDO BENEDITO DE OLIVEIRA                              509543                                                                                                                                                                                                                                                                                                           
15148527400015951485274000159C00296510881 85556                         85556                         1393868012201702025CQF2397 1 BRASIL                                            SPLIMEIRA                                           BRASIL                                            SPSAO PAULO                                         2017020227000030000000000240INTEGRACAO                                        3868012   2017030708100423738680120000030000000000000000000979222765672CUSTODIO S FONSECA                                          1                        1 2831309                           026010022157033914173244000180TRANSPORTADORA BRUZASCO LTDA ME                             509055                                                                                                                                                                                                                                                                                                           
15148527400015951485274000159C00296562471 85559                         85559                         1380569011201702025BTR1378 1 BRASIL                                            SPLIMEIRA                                           BRASIL                                            SPSAO PAULO                                         2017020227000050000000000400INTEGRACAO                                        0569011   2017030719500723705690110000040000000000000000000901653338806CLEUCIO A SILVA                                             1                        1 2831875                           028010024400486301653338806   CLEUCIO APARECIDO DA SILVA                                  536411                                                                                                                                                                                                                                                                                                           
15148527400015951485274000159C00296648491 85561                         85561                         1232529015201702035CPI3592 1 BRASIL                                            SPLIMEIRA                                           BRASIL                                            SPSAO PAULO                                         2017020327000002996000000024INTEGRACAO                                        2529015   2017030709302823725290150000050000000000000000000912375976843EDSON ZECHI CAMARGO                                         1                        1 2811835                           029010029077689412375976843   EDSON ZECHI DE CAMARGO                                      511758                                                                                                                                                                                                                                                                                                           
15148527400015951485274000159C00296951841 85572                         85572                         0969670018201702065DBC1072 1 BRASIL                                            SPLIMEIRA                                           BRASIL                                            SPSAO PAULO                                         2017020627000020000000000160INTEGRACAO                                        9670018   2017030711100923796700180000060000000000000000000977797280800JOSE R GHISELLINE                                           1                        1 2831398                           027010042602496177797280800   jose roberto ghiselline                                     515757                                                                                                                                                                                                                                                                                                           
15148527400015951485274000159C00296958731 85573                         85573                         1167170017201702065BWO9561 1 BRASIL                                            SPLIMEIRA                                           BRASIL                                            SPSAO PAULO                                         2017020627000020000000000160INTEGRACAO                                        7170017   2017030712002923771700170000070000000000000000000917205126800SANDRO S VIGINOTI                                           1                        1 2831443                           025010042976199017205126800   SANDRO SERGIO VIGINOTI                                      517602                                                                                                                                                                                                                                                                                                           
15148527400015951485274000159C00297022891 85578                         85578                         1393879019201702065CQH6189 1 BRASIL                                            SPLIMEIRA                                           BRASIL                                            SPSAO PAULO                                         2017020627000063300000000506INTEGRACAO                                        3879019   2017030716101423738790190000080000000000000000000915836668850CELSO F MACHADO                                             1                        1 2831546                           021010045811223815836668850   CELSO FERREIRA MACHADO                                      526639                                                                                                                                                                                                                                                                                                           
15148527400015951485274000159C00297025821 85579                         85579                         1301528013201702065DBC0991 1 BRASIL                                            SPLIMEIRA                                           BRASIL                                            SPSAO PAULO                                         2017020627000010000000000080INTEGRACAO                                        1528013   2017030708100523715280130000090000000000000000000969547912968ANTONIO R G FONSECA                                         1                        1 2831307                           021010045972534169547912968   ANTONIO ROBERTO GOMES FONSECA                               509001                                                                                                                                                                                                                                                                                                           
15148527400015951485274000159C00297025821 85579                         85579                         1301528013201702065DBC0991 1 BRASIL                                            SPLIMEIRA                                           BRASIL                                            SPSAO PAULO                                         2017020627000002996000000024INTEGRACAO                                        1528013   2017030708202223715280130000100000000000000000000969547912968ANTONIO R G FONSECA                                         1                        1 2813038                           021010045972534169547912968   ANTONIO ROBERTO GOMES FONSECA                               509297                                                                                                                                                                                                                                                                                                           
15148527400015951485274000159C00297058201 85584                         85584                         1413837013201702065EFO9070 1 BRASIL                                            SPLIMEIRA                                           BRASIL                                            SPSAO PAULO                                         2017020627000010000000000080INTEGRACAO                                        3837013   2017030703200423738370130000110000000000000000000932901585868CARLOS R MOREIRA                                            1                        1 2831244                           021010047457627932901585868   CARLOS ROBERTO MOREIRA                                      506726                                                                                                                                                                                                                                                                                                           
15148527400015951485274000159C00297087191 85590                         85590                         1413838011201702065DBC1203 1 BRASIL                                            SPLIMEIRA                                           BRASIL                                            SPSAO PAULO                                         2017020627000050000000000400INTEGRACAO                                        3838011   2017030710403423738380110000120000000000000000000910065639898MARIO A K SEVDALIS                                          1                        1 2831388                           025010048761589610065639898   MARIO ANTONIO KILO SEVDALIS                                 514377                                                                                                                                                                                                                                                                                                           
15148527400015951485274000159C00297224561 85596                         85596                         1354828013201702075BIX9164 1 BRASIL                                            SPLIMEIRA                                           BRASIL                                            SPSAO PAULO                                         2017020727000025000000000200INTEGRACAO                                        4828013   2017030712100923748280130000130000000000000000000935690400890KLEYTON S V AH                                              1                        1 2831469                           028010055123867635690400890   KLEYTON SANTANA VON AH                                      518010                                                                                                                                                                                                                                                                                                           
15148527400015951485274000159C00297224561 85596                         85596                         1354828013201702075BIX9164 1 BRASIL                                            SPLIMEIRA                                           BRASIL                                            SPSAO PAULO                                         2017020727000025000000000200INTEGRACAO                                        4828013   2017030712201523748280130000140000000000000000000935690400890KLEYTON S V AH                                              1                        1 2831474                           028010055123867635690400890   KLEYTON SANTANA VON AH                                      518351                                                                                                                                                                                                                                                                                                           
15148527400015951485274000159C00297224561 85596                         85596                         1354828013201702075BIX9164 1 BRASIL                                            SPLIMEIRA                                           BRASIL                                            SPSAO PAULO                                         2017020727000025000000000200INTEGRACAO                                        4828013   2017030712300923748280130000150000000000000000000935690400890KLEYTON S V AH                                              1                        1 2831487                           028010055123867635690400890   KLEYTON SANTANA VON AH                                      518425                                                                                                                                                                                                                                                                                                           
15148527400015951485274000159C00297241131 85598                         85598                         1444046011201702075DIY2604 1 BRASIL                                            SPLIMEIRA                                           BRASIL                                            SPSAO PAULO                                         2017020727000012000000000096INTEGRACAO                                        2586015   2017030717101023725860150000160000000000000000000430189952873ARY L BRISOLLA                                              1                        1 2831596                           023010055941655330189952873   ARY LEME BRISOLLA NETTO                                     529385                                                                                                                                                                                                                                                                                                           
15148527400015951485274000159C00297298481 85608                         85608                         1354824012201702075CYN2539 1 BRASIL                                            SPLIMEIRA                                           BRASIL                                            SPSAO PAULO                                         2017020727000002996000000024INTEGRACAO                                        4824012   2017030710504823748240120000170000000000000000000922072474817CLEBER T B SANTOS                                           1                        1 2813935                           029010057942312022072474817   CLEBER TRAVEZANI BOSGES DOS SANTOS                          514722                                                                                                                                                                                                                                                                                                           
15148527400015951485274000159C00297298481 85608                         85608                         1354824012201702075CYN2539 1 BRASIL                                            SPLIMEIRA                                           BRASIL                                            SPSAO PAULO                                         2017020727000140000000001120INTEGRACAO                                        4824012   2017030711410523748240120000180000000000000000000922072474817CLEBER T B SANTOS                                           1                        1 2831417                           029010057942312022072474817   CLEBER TRAVEZANI BOSGES DOS SANTOS                          516895                                                                                                                                                                                                                                                                                                           
15148527400015951485274000159C00297307081 85611                         85611                         1424424028201702075BZT8365 1 BRASIL                                            SPLIMEIRA                                           BRASIL                                            SPSAO PAULO                                         2017020727000018000000000144INTEGRACAO                                        4248023   2017030718300623742480230000190000000000000000000418426400892MARCIO A AMARAL                                             1                        1 2831729                           024010058213711718426400892   MARCIO ALEXANDRE DO AMARAL                                  534473                                                                                                                                                                                                                                                                                                           
15148527400015951485274000159C00297308721 85612                         85612                         1167195014201702075CLU3364 1 BRASIL                                            SPLIMEIRA                                           BRASIL                                            SPSAO PAULO                                         2017020727000010000000000080INTEGRACAO                                        7195014   2017030719100723771950140000200000000000000000000955543014791NIWTON BONIFACIO                                            1                        1 2831829                           020010058272264455543014791   NIWTON BONIFACIO                                            535901                                                                                                                                                                                                                                                                                                           
15148527400015951485274000159C00297314211 85613                         85613                         1424446030201702075BXE8476 1 BRASIL                                            SPLIMEIRA                                           BRASIL                                            SPSAO PAULO                                         2017020727000024000000000192INTEGRACAO                                        4259038   2017030716301523742590380000210000000000000000000407418559844VANDERLEI A SANAVIO                                         1                        1 2831577                           022010058539125407418559844   VANDERLEI ANTONIO SANAVIO                                   527333                                                                                                                                                                                                                                                                                                           
15148527400015951485274000159C00297314211 85613                         85613                         1424446030201702075BXE8476 1 BRASIL                                            SPLIMEIRA                                           BRASIL                                            SPSAO PAULO                                         2017020727000002996000000024INTEGRACAO                                        4259038   2017030718405223742590380000220000000000000000000407418559844VANDERLEI A SANAVIO                                         1                        1 2813988                           022010058539125407418559844   VANDERLEI ANTONIO SANAVIO                                   534995                                                                                                                                                                                                                                                                                                           
15148527400015951485274000159C00297478501 85604                         85604                         0259427118201702085CZC2418 1 BRASIL                                            SPLIMEIRA                                           BRASIL                                            SPSAO PAULO                                         2017020827000025000000000200INTEGRACAO                                        4180028   2017030716405923741800280000230000000000000000000400381848850SEBASTIAO T B NT                                            1                        1 2831582                           023010066850710600381848850   SEBASTIAO TEIXEIRA BARBOSA NETO                             527978                                                                                                                                                                                                                                                                                                           
15148527400015951485274000159C00297501571 85619                         85619                         0210586067201702085ESU5447 1 BRASIL                                            SPLIMEIRA                                           BRASIL                                            SPSAO PAULO                                         2017020827000090000000000720INTEGRACAO                                        2265015   2017030719001123722650150000240000000000000000000426743368890ADENILSON P CRUZ                                            1                        1 2831685                           027010067796331726743368890   Adenilson Pereira da Cruz                                   535433                                                                                                                                                                                                                                                                                                           
15148527400015951485274000159C00297566401 85623                         85623                         0453365050201702095KQC9415 1 BRASIL                                            SPLIMEIRA                                           BRASIL                                            SPSAO PAULO                                         2017020927000022800000000182INTEGRACAO                                        4125023   2017030708300823741250230000250000000000000000000406225606890ADEVALDO OLIVEIRA                                           1                        1 2831190                           029010071250429706225606890   Adevaldo de Oliveira Junior                                 509540                                                                                                                                                                                                                                                                                                           
15148527400015951485274000159C00297576891 85628                         85628                         1413848010201702095AEY5232 1 BRASIL                                            SPLIMEIRA                                           BRASIL                                            SPSAO PAULO                                         2017020927000050000000000400INTEGRACAO                                        3848010   2017030717502623738480100000260000000000000000000918767821880ALESSANDRO MESSIAS                                          1                        1 2831669                           021010071763079818767821880   ALESSANDRO DONIZETI MESSIAS                                 532080                                                                                                                                                                                                                                                                                                           
15148527400015951485274000159C00297577581 85629                         85629                         0262879011201702095DPE7296 1 BRASIL                                            SPLIMEIRA                                           BRASIL                                            SPSAO PAULO                                         2017020927000100000000000800INTEGRACAO                                        4466017   2017030714101023744660170000270000000000000000000413967020835ALEXANDRE HANSHKOV                                          1                        1 2831445                           028010071811157713967020835   Alexandre hanshkov                                          521067                                                                                                                                                                                                                                                                                                           
15148527400015951485274000159C00297580761 85630                         85630                         1150334018201702095DBL5348 1 BRASIL                                            SPLIMEIRA                                           BRASIL                                            SPSAO PAULO                                         2017020927000020000000000160INTEGRACAO                                        0334018   2017030702200423703340180000280000000000000000000900488173841AMARO JOSE LUIZ                                             1                        1 2831226                           028010072014849400488173841   AMARO JOSE LUIZ                                             506503                                                                                                                                                                                                                                                                                                           
15148527400015951485274000159C00297582671 85632                         85632                         0729979014201702095CYN5506 1 BRASIL                                            SPLIMEIRA                                           BRASIL                                            SPSAO PAULO                                         2017020927000033960000000272INTEGRACAO                                        9979014   2017030715210023799790140000290000000000000000000927713424806ANDERSON W F SILVA                                          1                        1 2831116                           023010072139992827713424806   ANDERSON WILSON FREITAS CARVALHO DA SILVA                   524147                                                                                                                                                                                                                                                                                                           
15148527400015951485274000159C00297584641 85634                         85634                         1329623010201702095BVM2884 1 BRASIL                                            SPLIMEIRA                                           BRASIL                                            SPSAO PAULO                                         2017020927000035000000000280INTEGRACAO                                        9623010   2017030723200323796230100000300000000000000000000934035353809ANDERSON O DELFINO                                          1                        1 2831948                           027010072241846110354067800   ANTONIO RAIMUNDO                                            539488                                                                                                                                                                                                                                                                                                           
15148527400015951485274000159C00297588481 85636                         85636                         1215469015201702095DPE7513 1 BRASIL                                            SPLIMEIRA                                           BRASIL                                            SPSAO PAULO                                         2017020927000180000000001440INTEGRACAO                                        5469015   2017030712200823754690150000310000000000000000000920732082820APARECIDO N ANDRADE                                         1                        1 2831478                           028010072434644920732082820   APARECIDO NATALINO DE ANDRADE                               518342                                                                                                                                                                                                                                                                                                           
15148527400015951485274000159C00297589111 85638                         85638                         1354833013201702095EJY4006 1 BRASIL                                            SPLIMEIRA                                           BRASIL                                            SPSAO PAULO                                         2017020927000240000000001920INTEGRACAO                                        4833013   2017030715405923748330130000320000000000000000000914998992899ODAIR EUGENIO PAES                                          1                        1 2831538                           022010072470078722022379845   ANDERSON ROBERTO DOS SANTOS                                 525155                                                                                                                                                                                                                                                                                                           
15148527400015951485274000159C00297589771 85639                         85639                         1393873012201702095GKT5597 1 BRASIL                                            SPLIMEIRA                                           BRASIL                                            SPSAO PAULO                                         2017020927000024180000000193INTEGRACAO                                        3873012   2017030715100923738730120000330000000000000000000924799126806ARIOVALDO VICENTINI                                         1                        1 2831134                           024010072501248624799126806   ARIOVALDO VICENTINI JUNIOR                                  523511                                                                                                                                                                                                                                                                                                           
15148527400015951485274000159C00297593021 85642                         85642                         1167178010201702095AJJ3207 1 BRASIL                                            SPLIMEIRA                                           BRASIL                                            SPSAO PAULO                                         2017020927000020000000000160INTEGRACAO                                        7178010   2017030712005823771780100000340000000000000000000977805178887ADEMAR N SOUZA                                              1                        1 2831432                           022010072682737977805178887   ADEMAR N SOUZA                                              517715                                                                                                                                                                                                                                                                                                           
15148527400015951485274000159C00297593021 85642                         85642                         1167178010201702095AJJ3207 1 BRASIL                                            SPLIMEIRA                                           BRASIL                                            SPSAO PAULO                                         2017020927000020000000000160INTEGRACAO                                        7178010   2017030721400423771780100000350000000000000000000977805178887ADEMAR N SOUZA                                              1                        1 2831910                           022010072682737977805178887   ADEMAR N SOUZA                                              538212                                                                                                                                                                                                                                                                                                           
15148527400015951485274000159C00297615641 85644                         85644                         1413843011201702095GMN7056 1 BRASIL                                            SPLIMEIRA                                           BRASIL                                            SPSAO PAULO                                         2017020927000080000000000640INTEGRACAO                                        3843011   2017030709101323738430110000360000000000000000000950536869634CELSO O RODRIGUES                                           1                        1 2831331                           027010073858214950536869634   CELSO DE OLIVEIRA RODRIGUES                                 511055                                                                                                                                                                                                                                                                                                           
15148527400015951485274000159C00297616721 85645                         85645                         1232537018201702095CZC2654 1 BRASIL                                            SPLIMEIRA                                           BRASIL                                            SPSAO PAULO                                         2017020927000031200000000250INTEGRACAO                                        2537018   2017030708500823725370180000370000000000000000000909132633890CELSO G DONADEL                                             1                        1 2831274                           027010073919501209132633890   CELSO GUILHERME DONADEL                                     510156                                                                                                                                                                                                                                                                                                           
15148527400015951485274000159C00297619161 85648                         85648                         1354832015201702095FGG9920 1 BRASIL                                            SPLIMEIRA                                           BRASIL                                            SPSAO PAULO                                         2017020927000007000000000056INTEGRACAO                                        4832015   2017030701010623748320150000380000000000000000000975214180853CLAUDIO A SIQUEIRA                                          1                        1 2831154                           024010074067030875214180853   CLAUDIO APARECIDO DO VALE SIQUEIRA                          505981                                                                                                                                                                                                                                                                                                           
15148527400015951485274000159C00297620801 85652                         85652                         1483045014201702095BWY0827 1 BRASIL                                            SPLIMEIRA                                           BRASIL                                            SPSAO PAULO                                         2017020927000013200000000106INTEGRACAO                                        2262012   2017030707201123722620120000390000000000000000000480050913891CLEIDO N MELO                                               1                        1 2831197                           022010074172473880050913891   CLEIDO N MELO                                               508025                                                                                                                                                                                                                                                                                                           
15148527400015951485274000159C00297620801 85652                         85652                         1483045014201702095BWY0827 1 BRASIL                                            SPLIMEIRA                                           BRASIL                                            SPSAO PAULO                                         2017020927000009600000000077INTEGRACAO                                        2262012   2017030707201523722620120000400000000000000000000480050913891CLEIDO N MELO                                               1                        1 2831265                           022010074172473880050913891   CLEIDO N MELO                                               508028                                                                                                                                                                                                                                                                                                           
15148527400015951485274000159C00297622371 85655                         85655                         1167190015201702095EGM4923 1 BRASIL                                            SPLIMEIRA                                           BRASIL                                            SPSAO PAULO                                         2017020927000005000000000040INTEGRACAO                                        7190015   2017030702300423771900150000410000000000000000000915629694472DARIO FERNANDES                                             1                        1 2831239                           027010074259739315629694472   DARIO FERNANDES                                             506518                                                                                                                                                                                                                                                                                                           
15148527400015951485274000159C00297626351 85658                         85658                         0968974041201702095DBC0547 1 BRASIL                                            SPLIMEIRA                                           BRASIL                                            SPSAO PAULO                                         2017020927000002996000000024INTEGRACAO                                        4138026   2017030718405123741380260000420000000000000000000453228057615DONIZETTI REZENDE                                           1                        1 2815376                           020010074470061253228057615   DONIZETTI REZENDE                                           535063                                                                                                                                                                                                                                                                                                           
15148527400015951485274000159C00297626741 85659                         85659                         1329626013201702095JJZ3162 1 BRASIL                                            SPLIMEIRA                                           BRASIL                                            SPSAO PAULO                                         2017020927000002996000000024INTEGRACAO                                        9626013   2017030718405123796260130000430000000000000000000906192398836DORIVAL FELICIO                                             1                        1 2815380                           027010074495123906192398836   DORIVAL FELICIO                                             534994                                                                                                                                                                                                                                                                                                           
15148527400015951485274000159C00297627241 85660                         85660                         1329610017201702095DIW2136 1 BRASIL                                            SPLIMEIRA                                           BRASIL                                            SPSAO PAULO                                         2017020927000008000000000064INTEGRACAO                                        9610017   2017030711403323796100170000440000000000000000000912261847823EDIVALDO B SILVA                                            1                        1 2831407                           025010074528736812261847823   EDIVALDO BARBOSA DA SILVA                                   516740                                                                                                                                                                                                                                                                                                           
15148527400015951485274000159C00297628001 85661                         85661                         1378722010201702095CBH4293 1 BRASIL                                            SPLIMEIRA                                           BRASIL                                            SPSAO PAULO                                         2017020927000010000000000080INTEGRACAO                                        8722010   2017030702100423787220100000450000000000000000000910813846897EDIVALDO DOS SANTOS                                         1                        1 2831223                           022010074577526210813846897   EDIVALDO DOS SANTOS                                         506479                                                                                                                                                                                                                                                                                                           
15148527400015951485274000159C00297628001 85661                         85661                         1378722010201702095CBH4293 1 BRASIL                                            SPLIMEIRA                                           BRASIL                                            SPSAO PAULO                                         2017020927000002996000000024INTEGRACAO                                        8722010   2017030705300423787220100000460000000000000000000910813846897EDIVALDO DOS SANTOS                                         1                        1 2815391                           022010074577526210813846897   EDIVALDO DOS SANTOS                                         507314                                                                                                                                                                                                                                                                                                           
15148527400015951485274000159C00297629891 85664                         85664                         1393869010201702095GOA4922 1 BRASIL                                            SPLIMEIRA                                           BRASIL                                            SPSAO PAULO                                         2017020927000070000000000560INTEGRACAO                                        3869010   2017030717401723738690100000470000000000000000000937093675816EDUARDO O TEODORO                                           1                        1 2831660                           023010074690671137093675816   EDUARDO DE OLIVEIRA TEODORO                                 531394                                                                                                                                                                                                                                                                                                           
15148527400015951485274000159C00297644931 85670                         85670                         0830350014201702095FFW5794 1 BRASIL                                            SPLIMEIRA                                           BRASIL                                            SPSAO PAULO                                         2017020927000400000000003200INTEGRACAO                                        0350014   2017030721200723703500140000480000000000000000002326491412806EDVALDO RICHITTA                                            1                        1 2831907             07414374000100022010075497711307414374000100EDVALDO RICHITTA TRANSPORTES ME                             538021                                                                                                                                                                                                                                                                                                           
15148527400015951485274000159C00297648301 85673                         85673                         1413855015201702095EJV7609 1 BRASIL                                            SPLIMEIRA                                           BRASIL                                            SPSAO PAULO                                         2017020927000080000000000640INTEGRACAO                                        3855015   2017030702100523738550150000490000000000000000000927877434987EZEQUIEL TONCHE                                             1                        1 2831104                           021010075704168227877434987   EZEQUIEL TONCHE                                             506480                                                                                                                                                                                                                                                                                                           
15148527400015951485274000159C00297655501 85679                         85679                         1270016016201702095EBC3761 1 BRASIL                                            SPLIMEIRA                                           BRASIL                                            SPSAO PAULO                                         2017020927000020000000000160INTEGRACAO                                        0016016   2017030702200323700160160000500000000000000000000979194710449FRANCISCO C MELO                                            1                        1 2831236                           026010076094862279194710449   FRANCISCO DAS CHAGAS DE MELO                                506501                                                                                                                                                                                                                                                                                                           
15148527400015951485274000159C00297659471 85680                         85680                         1215470013201702095BUD8340 1 BRASIL                                            SPLIMEIRA                                           BRASIL                                            SPSAO PAULO                                         2017020927000002996000000024INTEGRACAO                                        5470013   2017030718404923754700130000510000000000000000000916828077890GILBERTO I CRUZ                                             1                        1 2815508                           022010076294882116828077890   GILBERTO INOCENCIO DA CRUZ                                  534991                                                                                                                                                                                                                                                                                                           
15148527400015951485274000159C00297659471 85680                         85680                         1215470013201702095BUD8340 1 BRASIL                                            SPLIMEIRA                                           BRASIL                                            SPSAO PAULO                                         2017020927000035000000000280INTEGRACAO                                        5470013   2017030720201623754700130000520000000000000000000916828077890GILBERTO I CRUZ                                             1                        1 2831889                           022010076294882116828077890   GILBERTO INOCENCIO DA CRUZ                                  537048                                                                                                                                                                                                                                                                                                           
15148527400015951485274000159C00297659681 85681                         85681                         1354822016201702095DBL5461 1 BRASIL                                            SPLIMEIRA                                           BRASIL                                            SPSAO PAULO                                         2017020927000050000000000400INTEGRACAO                                        4822016   2017030723100823748220160000530000000000000000000911014831806GILMAR F FREITAS                                            1                        1 2831939                           022010076307806211014831806   GILMAR FERREIRA DE FREITAS                                  539464                                                                                                                                                                                                                                                                                                           
15148527400015951485274000159C00297660671 85682                         85682                         1300557013201702095GZG1429 1 BRASIL                                            SPLIMEIRA                                           BRASIL                                            SPSAO PAULO                                         2017020927000021600000000173INTEGRACAO                                        0557013   2017030715104923705570130000540000000000000000000922141234824MARCEL G SILVA                                              1                        1 2831527                           026010076353576410624141870   GINO GRECO NETO                                             523672                                                                                                                                                                                                                                                                                                           
15148527400015951485274000159C00297660671 85682                         85682                         1300557013201702095GZG1429 1 BRASIL                                            SPLIMEIRA                                           BRASIL                                            SPSAO PAULO                                         2017020927000009780000000078INTEGRACAO                                        0557013   2017030721200623705570130000550000000000000000000922141234824MARCEL G SILVA                                              1                        1 2831859                           026010076353576410624141870   GINO GRECO NETO                                             538019                                                                                                                                                                                                                                                                                                           
15148527400015951485274000159C00297660671 85682                         85682                         1300557013201702095GZG1429 1 BRASIL                                            SPLIMEIRA                                           BRASIL                                            SPSAO PAULO                                         2017020927000013680000000109INTEGRACAO                                        0557013   2017030721200923705570130000560000000000000000000922141234824MARCEL G SILVA                                              1                        1 2831902                           026010076353576410624141870   GINO GRECO NETO                                             538022                                                                                                                                                                                                                                                                                                           
15148527400015951485274000159C00297662261 85683                         85683                         1469858010201702095BXG6044 1 BRASIL                                            SPLIMEIRA                                           BRASIL                                            SPSAO PAULO                                         2017020927000037560000000300INTEGRACAO                                        3601010   2017030709003923736010100000570000000000000000000437582030826GUSTAVO O MOTTA                                             1                        1 2831148                           025010076438232737582030826   GUSTAVO OLIVEIRA DA MOTTA                                   510467                                                                                                                                                                                                                                                                                                           
15148527400015951485274000159C00297666021 85685                         85685                         1413844019201702095DTE4881 1 BRASIL                                            SPLIMEIRA                                           BRASIL                                            SPSAO PAULO                                         2017020927000020000000000160INTEGRACAO                                        3844019   2017030712005823738440190000580000000000000000000912857993803HELCIO JOSE SILVA                                           1                        1 2831439                           025010076626150703520275848   IVA DAVID DE SOUZA                                          517714                                                                                                                                                                                                                                                                                                           
15148527400015951485274000159C00297675701 85694                         85694                         1232538016201702095BYD5650 1 BRASIL                                            SPLIMEIRA                                           BRASIL                                            SPSAO PAULO                                         2017020927000002996000000024INTEGRACAO                                        2538016   2017030709202623725380160000590000000000000000000901031633871JOSE A SILVA                                                1                        1 2815613                           021010077133377401031633871   JOSE A SILVA                                                511353                                                                                                                                                                                                                                                                                                           
15148527400015951485274000159C00297678441 85697                         85697                         1167183010201702095APB1867 1 BRASIL                                            SPLIMEIRA                                           BRASIL                                            SPSAO PAULO                                         2017020927000011400000000091INTEGRACAO                                        7183010   2017030712004423771830100000600000000000000000000973061786449JOSE DE MELO                                                1                        1 2830274                           021010077270463673061786449   JOSE DE MELO                                                517625                                                                                                                                                                                                                                                                                                           
15148527400015951485274000159C00297686671 85703                         85703                         0135704016201702095BWC7689 1 BRASIL                                            SPLIMEIRA                                           BRASIL                                            SPSAO PAULO                                         2017020927000030000000000240INTEGRACAO                                        3565017   2017030721100323735650170000610000000000000000000409592597839JOSE R CLAUDIANO                                            1                        1 2831880                           025010077678663109592597839   JOSE ROBERTO CLAUDIANO                                      538064                                                                                                                                                                                                                                                                                                           
15148527400015951485274000159C00297693051 85707                         85707                         1150345014201702095CZC7445 1 BRASIL                                            SPLIMEIRA                                           BRASIL                                            SPSAO PAULO                                         2017020927000020000000000160INTEGRACAO                                        0345014   2017030713501823703450140000620000000000000000000984732539815GERALDO DOMINGUES                                           1                        1 2831506                           020010077949493815851122838   LOURDES M DOMINGUES                                         520157                                                                                                                                                                                                                                                                                                           
15148527400015951485274000159C00297696451 85714                         85714                         1435389019201702095DPE7544 1 BRASIL                                            SPLIMEIRA                                           BRASIL                                            SPSAO PAULO                                         2017020927000100000000000800INTEGRACAO                                        5389019   2017030701500323753890190000630000000000000000000913941116819LUIS V CHIQUETO                                             1                        1 2831073                           027010078144115913941116819   LUIS V CHIQUETO                                             506133                                                                                                                                                                                                                                                                                                           
15148527400015951485274000159C00297696851 85715                         85715                         1167175016201702095BWC0262 1 BRASIL                                            SPLIMEIRA                                           BRASIL                                            SPSAO PAULO                                         2017020927000090000000000720INTEGRACAO                                        7175016   2017030711404523771750160000640000000000000000000914896936884LUIZ CARLOS TRISTAO                                         1                        1 2831411                           020010078171320514896936884   LUIZ CARLOS TRISTAO                                         516858                                                                                                                                                                                                                                                                                                           
15148527400015951485274000159C00297697871 85716                         85716                         0730067015201702095BWK9895 1 BRASIL                                            SPLIMEIRA                                           BRASIL                                            SPSAO PAULO                                         2017020927000012000000000096INTEGRACAO                                        0067015   2017030716301623700670150000650000000000000000000939198273841LUIZ E CLEMENTE                                             1                        1 2831573                           020010078232879639198273841   LUIZ EDUARDO CLEMENTE                                       527332                                                                                                                                                                                                                                                                                                           
15148527400015951485274000159C00297697871 85716                         85716                         0730067015201702095BWK9895 1 BRASIL                                            SPLIMEIRA                                           BRASIL                                            SPSAO PAULO                                         2017020927000026000000000208INTEGRACAO                                        0067015   2017030716501623700670150000660000000000000000000939198273841LUIZ E CLEMENTE                                             1                        1 2831586                           020010078232879639198273841   LUIZ EDUARDO CLEMENTE                                       528313                                                                                                                                                                                                                                                                                                           
15148527400015951485274000159C00297702731 85718                         85718                         1435386015201702095GMH9217 1 BRASIL                                            SPLIMEIRA                                           BRASIL                                            SPSAO PAULO                                         2017020927000080000000000640INTEGRACAO                                        5386015   2017030709101423753860150000670000000000000000000911454333839CLAUDIO D TEODORO                                           1                        1 2831329                           029010078534881514402061806   MARCIO FERNANDO CORREA                                      511056                                                                                                                                                                                                                                                                                                           
15148527400015951485274000159C00297704231 85721                         85721                         1424390026201702095CSK3560 1 BRASIL                                            SPLIMEIRA                                           BRASIL                                            SPSAO PAULO                                         2017020927000020000000000160INTEGRACAO                                        4237026   2017030711201123742370260000680000000000000000000405456285800JOSE A CALEFI                                               1                        1 2831402                           029010078609053605456285800   JOSE A CALEFI                                               516016                                                                                                                                                                                                                                                                                                           
15148527400015951485274000159C00297706661 85727                         85727                         1232534015201702095DAH0547 1 BRASIL                                            SPLIMEIRA                                           BRASIL                                            SPSAO PAULO                                         2017020927000075000000000600INTEGRACAO                                        2534015   2017030712401723725340150000690000000000000000000909321222804MARCO A M C P BOSCH                                         1                        1 2831494                           027010078766354709321222804   Marco Alexandre Moreno Covre PS Bosch                       518626                                                                                                                                                                                                                                                                                                           
15148527400015951485274000159C00297708591 85728                         85728                         1532535022201702095AJY4232 1 BRASIL                                            SPLIMEIRA                                           BRASIL                                            SPSAO PAULO                                         2017020927000018000000000144INTEGRACAO                                        5402023   2017030702100423754020230000700000000000000000000409280206818ELIAS A JR                                                  1                        1 2831215                           020010078878257513762721807   Marco Serraglio rota 14                                     506396                                                                                                                                                                                                                                                                                                           
15148527400015951485274000159C00297708591 85728                         85728                         1532535022201702095AJY4232 1 BRASIL                                            SPLIMEIRA                                           BRASIL                                            SPSAO PAULO                                         2017020927000018000000000144INTEGRACAO                                        5402023   2017030713200923754020230000710000000000000000000409280206818ELIAS A JR                                                  1                        1 2831501                           020010078878257513762721807   Marco Serraglio rota 14                                     519330                                                                                                                                                                                                                                                                                                           
15148527400015951485274000159C00297708591 85728                         85728                         1532535022201702095AJY4232 1 BRASIL                                            SPLIMEIRA                                           BRASIL                                            SPSAO PAULO                                         2017020927000017500000000140INTEGRACAO                                        5402023   2017030723000623754020230000720000000000000000000409280206818ELIAS A JR                                                  1                        1 2831935                           020010078878257513762721807   Marco Serraglio rota 14                                     539130                                                                                                                                                                                                                                                                                                           
15148527400015951485274000159C00297751371 85731                         85731                         1270028011201702105DBC1477 1 BRASIL                                            SPLIMEIRA                                           BRASIL                                            SPSAO PAULO                                         2017021027000060000000000480INTEGRACAO                                        0028011   2017030717505623700280110000730000000000000000000925438502870MARIO C A BARBOZA                                           1                        1 2831616                           020010080800633825438502870   MARIO CELSO ASNAR BARBOZA                                   532179                                                                                                                                                                                                                                                                                                           
15148527400015951485274000159C00297751891 85732                         85732                         1393866016201702105FAO8370 1 BRASIL                                            SPLIMEIRA                                           BRASIL                                            SPSAO PAULO                                         2017021027000010000000000080INTEGRACAO                                        3866016   2017030702100423738660160000740000000000000000000980839908849MARIO L O GARCIA                                            1                        1 2831220                           027010080825710780839908849   MARIO LUIZ DE OLIVEIRA GARCIA                               506478                                                                                                                                                                                                                                                                                                           
15148527400015951485274000159C00297751891 85732                         85732                         1393866016201702105FAO8370 1 BRASIL                                            SPLIMEIRA                                           BRASIL                                            SPSAO PAULO                                         2017021027000045000000000360INTEGRACAO                                        3866016   2017030711100923738660160000750000000000000000000980839908849MARIO L O GARCIA                                            1                        1 2831396                           027010080825710780839908849   MARIO LUIZ DE OLIVEIRA GARCIA                               515713                                                                                                                                                                                                                                                                                                           
15148527400015951485274000159C00297757471 85736                         85736                         1190452010201702105FRK5046 1 BRASIL                                            SPLIMEIRA                                           BRASIL                                            SPSAO PAULO                                         2017021027000007000000000056INTEGRACAO                                        0452010   2017030707400423704520100000760000000000000000000935082614843MICHEL R NACIMENTO                                          1                        1 2831280                           021010081069768735082614843   michel rodrigues do nacimento                               508404                                                                                                                                                                                                                                                                                                           
15148527400015951485274000159C00297764161 85740                         85740                         1435402010201702105DPE7680 1 BRASIL                                            SPLIMEIRA                                           BRASIL                                            SPSAO PAULO                                         2017021027000100000000000800INTEGRACAO                                        6888011   2017030717212923768880110000770000000000000000000915049487854ODAIR J CARLOS                                              1                        1 2831591                           022010081361502015049487854   Odair Jos  Carlos                                          530352                                                                                                                                                                                                                                                                                                           
15148527400015951485274000159C00297770141 85744                         85744                         1413856013201702105CLU5972 1 BRASIL                                            SPLIMEIRA                                           BRASIL                                            SPSAO PAULO                                         2017021027000150000000001200INTEGRACAO                                        3856013   2017030713503023738560130000780000000000000000000909604816802PAULO C R PONTES                                            1                        1 2831509                           027010081641732009604816802   PAULO CESAR RODRIGUES PONTES                                520173                                                                                                                                                                                                                                                                                                           
15148527400015951485274000159C00297771181 85745                         85745                         1232527019201702105EFW8894 1 BRASIL                                            SPLIMEIRA                                           BRASIL                                            SPSAO PAULO                                         2017021027000004000000000032INTEGRACAO                                        2527019   2017030708301523725270190000790000000000000000000925536480812PAULO SILVA NEVES                                           1                        1 2831312                           025010081699241225536480812   PAULO DA SILVA NEVES                                        509549                                                                                                                                                                                                                                                                                                           
15148527400015951485274000159C00297771181 85745                         85745                         1232527019201702105EFW8894 1 BRASIL                                            SPLIMEIRA                                           BRASIL                                            SPSAO PAULO                                         2017021027000010000000000080INTEGRACAO                                        2527019   2017030718102023725270190000800000000000000000000925536480812PAULO SILVA NEVES                                           1                        1 2831692                           025010081699241225536480812   PAULO DA SILVA NEVES                                        533220                                                                                                                                                                                                                                                                                                           
15148527400015951485274000159C00297772721 85746                         85746                         0830296019201702105BFZ7446 1 BRASIL                                            SPLIMEIRA                                           BRASIL                                            SPSAO PAULO                                         2017021027000050000000000400INTEGRACAO                                        0296019   2017030714102223702960190000810000000000000000002371986405834PEDRO FERREIRA                                              1                        1 2831513             11843123000100021010081781752511843123000100PEDRO FERREIRA TRANSPORTES ME                               521077                                                                                                                                                                                                                                                                                                           
15148527400015951485274000159C00297777081 85748                         85748                         1301531017201702105BWU5318 1 BRASIL                                            SPLIMEIRA                                           BRASIL                                            SPSAO PAULO                                         2017021027000050000000000400INTEGRACAO                                        1531017   2017030721101223715310170000820000000000000000000937122324893RAFAEL SILVA TORRES                                         1                        1 2831892                           026010082014590937122324893   RAFAEL DA SILVA TORRES                                      537973                                                                                                                                                                                                                                                                                                           
15148527400015951485274000159C00297779511 85750                         85750                         1232533017201702105BWU4446 1 BRASIL                                            SPLIMEIRA                                           BRASIL                                            SPSAO PAULO                                         2017021027000070000000000560INTEGRACAO                                        2533017   2017030718103623725330170000830000000000000000000931469034824RAFAEL F E ALVES                                            1                        1 2831605                           021010082115439931469034824   RAFAEL FERNANDO ESBRICE ALVES                               533377                                                                                                                                                                                                                                                                                                           
15148527400015951485274000159C00297808481 85752                         85752                         1393877013201702105BSF5355 1 BRASIL                                            SPLIMEIRA                                           BRASIL                                            SPSAO PAULO                                         2017021027000120000000000960INTEGRACAO                                        3877013   2017030717414123738770130000840000000000000000000926712330866RANGEL A RAYMUNDO                                           1                        1 2831611                           022010083440293726712330866   RANGEL A RAYMUNDO                                           531592                                                                                                                                                                                                                                                                                                           
15148527400015951485274000159C00297808911 85753                         85753                         0829929018201702105BSF5356 1 BRASIL                                            SPLIMEIRA                                           BRASIL                                            SPSAO PAULO                                         2017021027000070000000000560INTEGRACAO                                        9929018   2017030717305923799290180000850000000000000000000925871718817RANULFO LUCHESI                                             1                        1 2831652                           024010083458518725871718817   RANULFO LUCHESI                                             530789                                                                                                                                                                                                                                                                                                           
15148527400015951485274000159C00297809231 85754                         85754                         1037172011201702105DBM1220 1 BRASIL                                            SPLIMEIRA                                           BRASIL                                            SPSAO PAULO                                         2017021027000135000000001080INTEGRACAO                                        7172011   2017030711001523771720110000860000000000000000000927752405850WILLIANS R BORGES                                           1                        1 2831393                           028010083475406018212504867   REGINALDO CARVALHO                                          514945                                                                                                                                                                                                                                                                                                           
15148527400015951485274000159C00297810501 85756                         85756                         1393872014201702105DPE7073 1 BRASIL                                            SPLIMEIRA                                           BRASIL                                            SPSAO PAULO                                         2017021027000060000000000480INTEGRACAO                                        3872014   2017030721101423738720140000870000000000000000000907880653864REINALDO L OLIVEIRA                                         1                        1 2831872                           027010083541387507880653864   REINALDO L OLIVEIRA                                         537976                                                                                                                                                                                                                                                                                                           
15148527400015951485274000159C00297810931 85757                         85757                         1354854019201702105DPE7191 1 BRASIL                                            SPLIMEIRA                                           BRASIL                                            SPSAO PAULO                                         2017021027000100000000000800INTEGRACAO                                        4854019   2017030709502323748540190000880000000000000000000912328683886REINALDO N ANDRADE                                          1                        1 2831080                           028010083574156312328683886   Reinaldo natalino de andrade                                512143                                                                                                                                                                                                                                                                                                           
15148527400015951485274000159C00297811191 85758                         85758                         1232526011201702105BUS0845 1 BRASIL                                            SPLIMEIRA                                           BRASIL                                            SPSAO PAULO                                         2017021027000080000000000640INTEGRACAO                                        2526011   2017030718403223725260110000890000000000000000000971460322800RENATO C SANTIAGO                                           1                        1 2831663                           025010083599817671460322800   RENATO CORREA SANTIAGO                                      534945                                                                                                                                                                                                                                                                                                           
15148527400015951485274000159C00297811921 85759                         85759                         1270011017201702105DDY4684 1 BRASIL                                            SPLIMEIRA                                           BRASIL                                            SPSAO PAULO                                         2017021027000002996000000024INTEGRACAO                                        0011017   2017030708402323700110170000900000000000000000000914989733886REYNALDO BENATTI FL                                         1                        1 2816379                           024010083651060814989733886   REYNALDO BENATTI FL                                         509733                                                                                                                                                                                                                                                                                                           
15148527400015951485274000159C00297818031 85765                         85765                         1354834011201702105GMO0059 1 BRASIL                                            SPLIMEIRA                                           BRASIL                                            SPSAO PAULO                                         2017021027000070000000000560INTEGRACAO                                        4834011   2017030718402923748340110000910000000000000000000971960600834ROBERTO L GARCIA                                            1                        1 2831752                           022010084005524671960600834   ROBERTO LOPES GARCIA                                        534959                                                                                                                                                                                                                                                                                                           
15148527400015951485274000159C00297826771 85775                         85775                         1380568013201702105ETG0129 1 BRASIL                                            SPLIMEIRA                                           BRASIL                                            SPSAO PAULO                                         2017021027000007000000000056INTEGRACAO                                        0568013   2017030710101523705680130000920000000000000000000928905683851VENICIUS B CARVALHO                                         1                        1 2831378                           028010084432523228905683851   VENICIUS BORGES DE CARVALHO                                 513265                                                                                                                                                                                                                                                                                                           
15148527400015951485274000159C00297830271 85779                         85779                         1354853011201702105DKG7457 1 BRASIL                                            SPLIMEIRA                                           BRASIL                                            SPSAO PAULO                                         2017021027000020000000000160INTEGRACAO                                        4853011   2017030701013123748530110000930000000000000000000917457960880RONALDO A D CARDOSO                                         1                        1 2831099                           027010084611270317457960880   RONALDO ADRIANO DIAS CARDOSO                                505904                                                                                                                                                                                                                                                                                                           
15148527400015951485274000159C00297830271 85779                         85779                         1354853011201702105DKG7457 1 BRASIL                                            SPLIMEIRA                                           BRASIL                                            SPSAO PAULO                                         2017021027000020000000000160INTEGRACAO                                        4853011   2017030723300423748530110000940000000000000000000917457960880RONALDO A D CARDOSO                                         1                        1 2831961                           027010084611270317457960880   RONALDO ADRIANO DIAS CARDOSO                                539515                                                                                                                                                                                                                                                                                                           
15148527400015951485274000159C00297834591 85783                         85783                         1037157020201702105FTP0346 1 BRASIL                                            SPLIMEIRA                                           BRASIL                                            SPSAO PAULO                                         2017021027000037000000000296INTEGRACAO                                        7157020   2017030718400623771570200000950000000000000000000941103197819WILLIAN ROGERIO                                             1                        1 2831767                           020010084775815241103197819   WILLIAN ROGERIO                                             534821                                                                                                                                                                                                                                                                                                           
15148527400015951485274000159C00297835491 85784                         85784                         0426661047201702105CXQ2193 1 BRASIL                                            SPLIMEIRA                                           BRASIL                                            SPSAO PAULO                                         2017021027000014000000000112INTEGRACAO                                        4189029   2017030717303223741890290000960000000000000000000408166212846WILSON L LIMA                                               1                        1 2831638                           023010084811496808166212846   WILSON LUIZ DE LIMA                                         530724                                                                                                                                                                                                                                                                                                           
15148527400015951485274000159C00297847591 85747                         85747                         1270029019201702105EPU7821 1 BRASIL                                            SPLIMEIRA                                           BRASIL                                            SPSAO PAULO                                         2017021027000010000000000080INTEGRACAO                                        0029019   2017030701500323700290190000970000000000000000000913773009860PEDRO M S ANTONIO                                           1                        1 2831210                           021010085425916813773009860   PEDRO MANUEL SANTOS ANTONIO                                 506132                                                                                                                                                                                                                                                                                                           
15148527400015951485274000159C00297847591 85747                         85747                         1270029019201702105EPU7821 1 BRASIL                                            SPLIMEIRA                                           BRASIL                                            SPSAO PAULO                                         2017021027000010000000000080INTEGRACAO                                        0029019   2017030722401123700290190000980000000000000000000913773009860PEDRO M S ANTONIO                                           1                        1 2831930                           021010085425916813773009860   PEDRO MANUEL SANTOS ANTONIO                                 538987                                                                                                                                                                                                                                                                                                           
15148527400015951485274000159C00297890711 85577                         85577                         1270030017201702105BSG8630 1 BRASIL                                            SPLIMEIRA                                           BRASIL                                            SPSAO PAULO                                         2017021027000020000000000160INTEGRACAO                                        0030017   2017030712300423700300170000990000000000000000000904123788840SALVADOR A TESTA                                            1                        1 2831490                           026010087323159704123788840   SALVADOR APARECIDO TESTA                                    518416                                                                                                                                                                                                                                                                                                           
