020170321                                                                                                                                                                                                                                                                                                                                                                                                                                                      000001                                                                                                                                                                                                                                                                                                                                                                                                                                                                                                                                                                   
15148527400015951485274000159C00292279831 223733                        84972                         1265307023201701045DPE7514 1 BRASIL                                            SPLIMEIRA                                           BRASIL                                            SPSAO PAULO                                         2017010427000002996000000024INTEGRACAO                                        4605028   2017030315212923746050280000020000000000000000000433725034818MATEUS H ROSA                                               1                        1 2791991                           029009823727235233725034818   Mateus Hergert Rosa                                         438873                                                                                                                                                                                                                                                                                                           
15148527400015951485274000159C00292864221 24955                         85065                         0584519061201701095MCY2826 1 BRASIL                                            SPLIMEIRA                                           BRASIL                                            SPSAO PAULO                                         2017010927000002996000000024INTEGRACAO                                        1669015   2017030313403123716690150000030000000000000000000411011339889REGINALDO OLIVEIRA                                          1                        1 2794022                           025009851265323311011339889   REGINALDO BENEDITO DE OLIVEIRA                              434305                                                                                                                                                                                                                                                                                                           
15148527400015951485274000159C00293019881 85152                         85152                         1376641014201701105GMO3244 1 BRASIL                                            SPLIMEIRA                                           BRASIL                                            SPSAO PAULO                                         2017011027000002996000000024INTEGRACAO                                        6641014   2017030317203423766410140000040000000000000000000915500833847RODNEI GALUSNI                                              1                        1 2794901                           024009857908031215500833847   RODNEI GALUSNI                                              445360                                                                                                                                                                                                                                                                                                           
15148527400015951485274000159C00296562471 85559                         85559                         1380569011201702025BTR1378 1 BRASIL                                            SPLIMEIRA                                           BRASIL                                            SPSAO PAULO                                         2017020227000050000000000400INTEGRACAO                                        0569011   2017030301013223705690110000050000000000000000000901653338806CLEUCIO A SILVA                                             1                        1 2829550                           028010024400486301653338806   CLEUCIO APARECIDO DA SILVA                                  421989                                                                                                                                                                                                                                                                                                           
15148527400015951485274000159C00296698321 85562                         85562                         1393876015201702035CLH3564 1 BRASIL                                            SPLIMEIRA                                           BRASIL                                            SPSAO PAULO                                         2017020327000035000000000280INTEGRACAO                                        3876015   2017030305402123738760150000060000000000000000000930592011887NAERTE PERINA                                               1                        1 2829642                           020010031414085325088244886   DANIELA APARECIDA PERINA SANTANNA                           422722                                                                                                                                                                                                                                                                                                           
15148527400015951485274000159C00296756981 666                           32423                         1435393011201702035BUP1405 1 BRASIL                                            SPLIMEIRA                                           BRASIL                                            SPSAO PAULO                                         2017020327000002996000000024INTEGRACAO                                        5393011   2017030308302723753930110000070000000000000000000907006145830LUIZ OTAVIO CRUZ                                            1                        1 2812082                           029010033970258807006145830   LUIZ OTAVIO CRUZ                                            424430                                                                                                                                                                                                                                                                                                           
15148527400015951485274000159C00296946881 85563                         85563                         1270025017201702065EFO8752 1 BRASIL                                            SPLIMEIRA                                           BRASIL                                            SPSAO PAULO                                         2017020627000035000000000280INTEGRACAO                                        0025017   2017030305402723700250170000080000000000000000000911009488805CARLOS NASCIMENTO                                           1                        1 2829637                           020010042356148111009488805   CARLOS NASCIMENTO                                           422724                                                                                                                                                                                                                                                                                                           
15148527400015951485274000159C00296951841 85572                         85572                         0969670018201702065DBC1072 1 BRASIL                                            SPLIMEIRA                                           BRASIL                                            SPSAO PAULO                                         2017020627000002996000000024INTEGRACAO                                        9670018   2017030315404823796700180000090000000000000000000977797280800JOSE R GHISELLINE                                           1                        1 2812785                           027010042602496177797280800   jose roberto ghiselline                                     439938                                                                                                                                                                                                                                                                                                           
15148527400015951485274000159C00296958731 85573                         85573                         1167170017201702065BWO9561 1 BRASIL                                            SPLIMEIRA                                           BRASIL                                            SPSAO PAULO                                         2017020627000020000000000160INTEGRACAO                                        7170017   2017030312103423771700170000100000000000000000000917205126800SANDRO S VIGINOTI                                           1                        1 2829786                           025010042976199017205126800   SANDRO SERGIO VIGINOTI                                      432408                                                                                                                                                                                                                                                                                                           
15148527400015951485274000159C00297058201 85584                         85584                         1413837013201702065EFO9070 1 BRASIL                                            SPLIMEIRA                                           BRASIL                                            SPSAO PAULO                                         2017020627000050000000000400INTEGRACAO                                        3837013   2017030310301823738370130000110000000000000000000932901585868CARLOS R MOREIRA                                            1                        1 2829745                           021010047457627932901585868   CARLOS ROBERTO MOREIRA                                      428291                                                                                                                                                                                                                                                                                                           
15148527400015951485274000159C00297058201 85584                         85584                         1413837013201702065EFO9070 1 BRASIL                                            SPLIMEIRA                                           BRASIL                                            SPSAO PAULO                                         2017020627000002996000000024INTEGRACAO                                        3837013   2017030311511723738370130000120000000000000000000932901585868CARLOS R MOREIRA                                            1                        1 2813110                           021010047457627932901585868   CARLOS ROBERTO MOREIRA                                      431705                                                                                                                                                                                                                                                                                                           
15148527400015951485274000159C00297060211 85585                         85585                         0830312014201702065ODA6686 1 BRASIL                                            SPLIMEIRA                                           BRASIL                                            SPSAO PAULO                                         2017020627000035000000000280INTEGRACAO                                        0312014   2017030317401323703120140000130000000000000000002301630963844DOMINGOS EDUARDO BRUZASCO                                   1                        1 2830027             14173244000180020010047556111414173244000180TRANSPORTADORA BRUZASCO LTDA ME                             446250                                                                                                                                                                                                                                                                                                           
15148527400015951485274000159C00297080201 85588                         85588                         0540229011201702065CUD0073 1 BRASIL                                            SPLIMEIRA                                           BRASIL                                            SPSAO PAULO                                         2017020627000328000000002624INTEGRACAO                                        0229011   2017030315105623702290110000140000000000000000002377570383834JOSE EMILIO DA SILVA                                        1                        1 2829894             11264046000134024010048511663411264046000134SILVA TRANSPORTES ME                                        438258                                                                                                                                                                                                                                                                                                           
15148527400015951485274000159C00297087191 85590                         85590                         1413838011201702065DBC1203 1 BRASIL                                            SPLIMEIRA                                           BRASIL                                            SPSAO PAULO                                         2017020627000050000000000400INTEGRACAO                                        3838011   2017030311422323738380110000150000000000000000000910065639898MARIO A K SEVDALIS                                          1                        1 2829771                           025010048761589610065639898   MARIO ANTONIO KILO SEVDALIS                                 431439                                                                                                                                                                                                                                                                                                           
15148527400015951485274000159C00297208661 85595                         85595                         1393874010201702075BWB9478 1 BRASIL                                            SPLIMEIRA                                           BRASIL                                            SPSAO PAULO                                         2017020727000025000000000200INTEGRACAO                                        3874010   2017030308503423738740100000160000000000000000000901642228800CLAUDEMIR QUESSADA                                          1                        1 2829687                           022010054428978101642228800   CLAUDEMIR QUESSADA                                          425002                                                                                                                                                                                                                                                                                                           
15148527400015951485274000159C00297224561 85596                         85596                         1354828013201702075BIX9164 1 BRASIL                                            SPLIMEIRA                                           BRASIL                                            SPSAO PAULO                                         2017020727000025000000000200INTEGRACAO                                        4828013   2017030316303423748280130000170000000000000000000935690400890KLEYTON S V AH                                              1                        1 2829982                           028010055123867635690400890   KLEYTON SANTANA VON AH                                      442764                                                                                                                                                                                                                                                                                                           
15148527400015951485274000159C00297224561 85596                         85596                         1354828013201702075BIX9164 1 BRASIL                                            SPLIMEIRA                                           BRASIL                                            SPSAO PAULO                                         2017020727000025000000000200INTEGRACAO                                        4828013   2017030321100423748280130000180000000000000000000935690400890KLEYTON S V AH                                              1                        1 2830172                           028010055123867635690400890   KLEYTON SANTANA VON AH                                      451368                                                                                                                                                                                                                                                                                                           
15148527400015951485274000159C00297298481 85608                         85608                         1354824012201702075CYN2539 1 BRASIL                                            SPLIMEIRA                                           BRASIL                                            SPSAO PAULO                                         2017020727000140000000001120INTEGRACAO                                        4824012   2017030322200523748240120000190000000000000000000922072474817CLEBER T B SANTOS                                           1                        1 2830202                           029010057942312022072474817   CLEBER TRAVEZANI BOSGES DOS SANTOS                          452196                                                                                                                                                                                                                                                                                                           
15148527400015951485274000159C00297300031 85609                         85609                         1380565019201702075BWS6879 1 BRASIL                                            SPLIMEIRA                                           BRASIL                                            SPSAO PAULO                                         2017020727000020000000000160INTEGRACAO                                        0565019   2017030313100923705650190000200000000000000000000952146057904ELCIO DANIEL                                                1                        1 2829821                           029010057999722852146057904   ELCIO DANIEL                                                433549                                                                                                                                                                                                                                                                                                           
15148527400015951485274000159C00297300031 85609                         85609                         1380565019201702075BWS6879 1 BRASIL                                            SPLIMEIRA                                           BRASIL                                            SPSAO PAULO                                         2017020727000002996000000024INTEGRACAO                                        0565019   2017030313105823705650190000210000000000000000000952146057904ELCIO DANIEL                                                1                        1 2813939                           029010057999722852146057904   ELCIO DANIEL                                                433626                                                                                                                                                                                                                                                                                                           
15148527400015951485274000159C00297300031 85609                         85609                         1380565019201702075BWS6879 1 BRASIL                                            SPLIMEIRA                                           BRASIL                                            SPSAO PAULO                                         2017020727000024000000000192INTEGRACAO                                        0565019   2017030317201923705650190000220000000000000000000952146057904ELCIO DANIEL                                                1                        1 2830037                           029010057999722852146057904   ELCIO DANIEL                                                445241                                                                                                                                                                                                                                                                                                           
15148527400015951485274000159C00297307081 85611                         85611                         1424424028201702075BZT8365 1 BRASIL                                            SPLIMEIRA                                           BRASIL                                            SPSAO PAULO                                         2017020727000017500000000140INTEGRACAO                                        4248023   2017030310122723742480230000230000000000000000000418426400892MARCIO A AMARAL                                             1                        1 2829737                           024010058213711718426400892   MARCIO ALEXANDRE DO AMARAL                                  427721                                                                                                                                                                                                                                                                                                           
15148527400015951485274000159C00297314211 85613                         85613                         1424446030201702075BXE8476 1 BRASIL                                            SPLIMEIRA                                           BRASIL                                            SPSAO PAULO                                         2017020727000035000000000280INTEGRACAO                                        4259038   2017030317101923742590380000240000000000000000000407418559844VANDERLEI A SANAVIO                                         1                        1 2830021                           022010058539125407418559844   VANDERLEI ANTONIO SANAVIO                                   444876                                                                                                                                                                                                                                                                                                           
15148527400015951485274000159C00297495511 85618                         85618                         1465294015201702085DTV5919 1 BRASIL                                            SPLIMEIRA                                           BRASIL                                            SPSAO PAULO                                         2017020827000010000000000080INTEGRACAO                                        6430016   2017030302000723764300160000250000000000000000000406947120861ADAO R MOURA                                                1                        1 2829618                           022010067497482606947120861   ADAO RODRIGUES DE MOURA                                     422094                                                                                                                                                                                                                                                                                                           
15148527400015951485274000159C00297501571 85619                         85619                         0210586067201702085ESU5447 1 BRASIL                                            SPLIMEIRA                                           BRASIL                                            SPSAO PAULO                                         2017020827000090000000000720INTEGRACAO                                        2265015   2017030317003623722650150000260000000000000000000426743368890ADENILSON P CRUZ                                            1                        1 2830010                           027010067796331726743368890   Adenilson Pereira da Cruz                                   444363                                                                                                                                                                                                                                                                                                           
15148527400015951485274000159C00297502861 85621                         85621                         1354825019201702085FFW1280 1 BRASIL                                            SPLIMEIRA                                           BRASIL                                            SPSAO PAULO                                         2017020827000010000000000080INTEGRACAO                                        4825019   2017030301300423748250190000270000000000000000000931518252818FABIO BARBOSA                                               1                        1 2829590                           021010067855032130668292865   ALESSANDRA BARBOSA                                          421946                                                                                                                                                                                                                                                                                                           
15148527400015951485274000159C00297502861 85621                         85621                         1354826017201702085FFW1280 1 BRASIL                                            SPLIMEIRA                                           BRASIL                                            SPSAO PAULO                                         2017020827000002996000000024INTEGRACAO                                        4826017   2017030312303123748260170000280000000000000000000930668292865ALESSANDRA BARBOSA                                          1                        1 2814702                           021010067855032130668292865   ALESSANDRA BARBOSA                                          432846                                                                                                                                                                                                                                                                                                           
15148527400015951485274000159C00297565481 85622                         85622                         0227011017201702095EFO8333 1 BRASIL                                            SPLIMEIRA                                           BRASIL                                            SPSAO PAULO                                         2017020927000150000000001200INTEGRACAO                                        4458014   2017030318400623744580140000290000000000000000000426307445823ABEL C METZNER                                              1                        1 2830077                           027010071190473126307445823   ABEL C METZNER                                              448763                                                                                                                                                                                                                                                                                                           
15148527400015951485274000159C00297572321 85625                         85625                         0272932018201702095EFO8301 1 BRASIL                                            SPLIMEIRA                                           BRASIL                                            SPSAO PAULO                                         2017020927000150000000001200INTEGRACAO                                        6428010   2017030318102223764280100000300000000000000000000480941869920ADILSON ROSSI                                               1                        1 2830064                           029010071542727580941869920   ADILSON ROSSI                                               447775                                                                                                                                                                                                                                                                                                           
15148527400015951485274000159C00297575121 85626                         85626                         1037175014201702095BWO0838 1 BRASIL                                            SPLIMEIRA                                           BRASIL                                            SPSAO PAULO                                         2017020927000002996000000024INTEGRACAO                                        7175014   2017030308302823771750140000310000000000000000000901202919839AGNALDO D VIEIRA                                            1                        1 2815042                           020010071669615301202919839   AGNALDO DANIEL VIEIRA                                       424431                                                                                                                                                                                                                                                                                                           
15148527400015951485274000159C00297575121 85626                         85626                         1435385017201702095BWO0838 1 BRASIL                                            SPLIMEIRA                                           BRASIL                                            SPSAO PAULO                                         2017020927000090000000000720INTEGRACAO                                        5385017   2017030319100723753850170000320000000000000000000902440099880JOAO C PEREIRA                                              1                        1 2830097                           020010071669615301202919839   AGNALDO DANIEL VIEIRA                                       449480                                                                                                                                                                                                                                                                                                           
15148527400015951485274000159C00297576891 85628                         85628                         1413848010201702095AEY5232 1 BRASIL                                            SPLIMEIRA                                           BRASIL                                            SPSAO PAULO                                         2017020927000002996000000024INTEGRACAO                                        3848010   2017030311104023738480100000330000000000000000000918767821880ALESSANDRO MESSIAS                                          1                        1 2815060                           021010071763079818767821880   ALESSANDRO DONIZETI MESSIAS                                 430124                                                                                                                                                                                                                                                                                                           
15148527400015951485274000159C00297576891 85628                         85628                         1413848010201702095AEY5232 1 BRASIL                                            SPLIMEIRA                                           BRASIL                                            SPSAO PAULO                                         2017020927000090000000000720INTEGRACAO                                        3848010   2017030313400823738480100000340000000000000000000918767821880ALESSANDRO MESSIAS                                          1                        1 2829838                           021010071763079818767821880   ALESSANDRO DONIZETI MESSIAS                                 434279                                                                                                                                                                                                                                                                                                           
15148527400015951485274000159C00297580761 85630                         85630                         1150334018201702095DBL5348 1 BRASIL                                            SPLIMEIRA                                           BRASIL                                            SPSAO PAULO                                         2017020927000010000000000080INTEGRACAO                                        0334018   2017030302000523703340180000350000000000000000000900488173841AMARO JOSE LUIZ                                             1                        1 2829612                           028010072014849400488173841   AMARO JOSE LUIZ                                             422093                                                                                                                                                                                                                                                                                                           
15148527400015951485274000159C00297584641 85634                         85634                         1435387013201702095BVM2884 1 BRASIL                                            SPLIMEIRA                                           BRASIL                                            SPSAO PAULO                                         2017020927000002996000000024INTEGRACAO                                        5387013   2017030316210523753870130000360000000000000000000910354067800ANTONIO RAIMUNDO                                            1                        1 2815096                           027010072241846110354067800   ANTONIO RAIMUNDO                                            442351                1211230468                                                                                                                                                                                                                                                                                 
15148527400015951485274000159C00297587981 85635                         85635                         1354835018201702095DPE7075 1 BRASIL                                            SPLIMEIRA                                           BRASIL                                            SPSAO PAULO                                         2017020927000150000000001200INTEGRACAO                                        4835018   2017030318003723748350180000370000000000000000000906290232800APARECIDO R PONTES                                          1                        1 2830060                           020010072409098206290232800   Aparecido Rodrigues pontes                                  447317                                                                                                                                                                                                                                                                                                           
15148527400015951485274000159C00297588481 85636                         85636                         1215469015201702095DPE7513 1 BRASIL                                            SPLIMEIRA                                           BRASIL                                            SPSAO PAULO                                         2017020927000002996000000024INTEGRACAO                                        5469015   2017030311104123754690150000380000000000000000000920732082820APARECIDO N ANDRADE                                         1                        1 2815116                           028010072434644920732082820   APARECIDO NATALINO DE ANDRADE                               430126                                                                                                                                                                                                                                                                                                           
15148527400015951485274000159C00297588481 85636                         85636                         1215469015201702095DPE7513 1 BRASIL                                            SPLIMEIRA                                           BRASIL                                            SPSAO PAULO                                         2017020927000180000000001440INTEGRACAO                                        5469015   2017030318300623754690150000390000000000000000000920732082820APARECIDO N ANDRADE                                         1                        1 2830071                           028010072434644920732082820   APARECIDO NATALINO DE ANDRADE                               448347                                                                                                                                                                                                                                                                                                           
15148527400015951485274000159C00297592241 85641                         85641                         1435398010201702095III6788 1 BRASIL                                            SPLIMEIRA                                           BRASIL                                            SPSAO PAULO                                         2017020927000010000000000080INTEGRACAO                                        1110012   2017030309401023711100120000400000000000000000000917342421839CARLOS R RODRIGUES                                          1                        1 2829728                           026010072642106213575984000180BRUTALE TRANSPORTES LTDA                                    426454                                                                                                                                                                                                                                                                                                           
15148527400015951485274000159C00297592241 85641                         85641                         0830340015201702095III6788 1 BRASIL                                            SPLIMEIRA                                           BRASIL                                            SPSAO PAULO                                         2017020927000002996000000024INTEGRACAO                                        0340015   2017030312105423703400150000410000000000000000002327136842859LUIZ ANTONIO RODRIGUES                                      1                        1 2815142             13575984000180026010072642106213575984000180BRUTALE TRANSPORTES LTDA                                    432432                                                                                                                                                                                                                                                                                                           
15148527400015951485274000159C00297592241 85641                         85641                         1435398010201702095III6788 1 BRASIL                                            SPLIMEIRA                                           BRASIL                                            SPSAO PAULO                                         2017020927000035000000000280INTEGRACAO                                        1110012   2017030319501123711100120000420000000000000000000917342421839CARLOS R RODRIGUES                                          1                        1 2830144                           026010072642106213575984000180BRUTALE TRANSPORTES LTDA                                    450183                                                                                                                                                                                                                                                                                                           
15148527400015951485274000159C00297593021 85642                         85642                         1167178010201702095AJJ3207 1 BRASIL                                            SPLIMEIRA                                           BRASIL                                            SPSAO PAULO                                         2017020927000018500000000148INTEGRACAO                                        7178010   2017030301200423771780100000430000000000000000000977805178887ADEMAR N SOUZA                                              1                        1 2829584                           022010072682737977805178887   ADEMAR N SOUZA                                              422045                                                                                                                                                                                                                                                                                                           
15148527400015951485274000159C00297593021 85642                         85642                         1167178010201702095AJJ3207 1 BRASIL                                            SPLIMEIRA                                           BRASIL                                            SPSAO PAULO                                         2017020927000045000000000360INTEGRACAO                                        7178010   2017030315402123771780100000440000000000000000000977805178887ADEMAR N SOUZA                                              1                        1 2829929                           022010072682737977805178887   ADEMAR N SOUZA                                              439980                                                                                                                                                                                                                                                                                                           
15148527400015951485274000159C00297593021 85642                         85642                         1167178010201702095AJJ3207 1 BRASIL                                            SPLIMEIRA                                           BRASIL                                            SPSAO PAULO                                         2017020927000020000000000160INTEGRACAO                                        7178010   2017030315501523771780100000450000000000000000000977805178887ADEMAR N SOUZA                                              1                        1 2829951                           022010072682737977805178887   ADEMAR N SOUZA                                              440453                                                                                                                                                                                                                                                                                                           
15148527400015951485274000159C00297615331 85643                         85643                         1435396014201702095ESU5269 1 BRASIL                                            SPLIMEIRA                                           BRASIL                                            SPSAO PAULO                                         2017020927000015000000000120INTEGRACAO                                        5396014   2017030310310823753960140000460000000000000000000911929719817CELSO B MACHADO                                             1                        1 2829740                           021010073837712011929719817   Celso batista machado                                       428393                                                                                                                                                                                                                                                                                                           
15148527400015951485274000159C00297615641 85644                         85644                         1413843011201702095GMN7056 1 BRASIL                                            SPLIMEIRA                                           BRASIL                                            SPSAO PAULO                                         2017020927000002996000000024INTEGRACAO                                        3843011   2017030310505323738430110000470000000000000000000950536869634CELSO O RODRIGUES                                           1                        1 2815297                           027010073858214950536869634   CELSO DE OLIVEIRA RODRIGUES                                 429495                                                                                                                                                                                                                                                                                                           
15148527400015951485274000159C00297615641 85644                         85644                         1413843011201702095GMN7056 1 BRASIL                                            SPLIMEIRA                                           BRASIL                                            SPSAO PAULO                                         2017020927000090000000000720INTEGRACAO                                        3843011   2017030320101123738430110000480000000000000000000950536869634CELSO O RODRIGUES                                           1                        1 2830162                           027010073858214950536869634   CELSO DE OLIVEIRA RODRIGUES                                 450544                                                                                                                                                                                                                                                                                                           
15148527400015951485274000159C00297616721 85645                         85645                         1232537018201702095CZC2654 1 BRASIL                                            SPLIMEIRA                                           BRASIL                                            SPSAO PAULO                                         2017020927000013200000000106INTEGRACAO                                        2537018   2017030315105923725370180000490000000000000000000909132633890CELSO G DONADEL                                             1                        1 2829581                           027010073919501209132633890   CELSO GUILHERME DONADEL                                     438260                                                                                                                                                                                                                                                                                                           
15148527400015951485274000159C00297617541 85646                         85646                         1424286024201702095AAL3952 1 BRASIL                                            SPLIMEIRA                                           BRASIL                                            SPSAO PAULO                                         2017020927000019560000000156INTEGRACAO                                        4206021   2017030316202123742060210000500000000000000000000401653786892CLAUDIO A SILVA                                             1                        1 2829401                           028010073966975701653786892   CLAUDIO APARECIDO DA SILVA                                  442093                                                                                                                                                                                                                                                                                                           
15148527400015951485274000159C00297619161 85648                         85648                         1354832015201702095FGG9920 1 BRASIL                                            SPLIMEIRA                                           BRASIL                                            SPSAO PAULO                                         2017020927000007000000000056INTEGRACAO                                        4832015   2017030318001023748320150000510000000000000000000975214180853CLAUDIO A SIQUEIRA                                          1                        1 2830055                           024010074067030875214180853   CLAUDIO APARECIDO DO VALE SIQUEIRA                          447280                                                                                                                                                                                                                                                                                                           
15148527400015951485274000159C00297620081 85649                         85649                         1354836016201702095DBL7891 1 BRASIL                                            SPLIMEIRA                                           BRASIL                                            SPSAO PAULO                                         2017020927000010000000000080INTEGRACAO                                        4836016   2017030302000723748360160000520000000000000000000915851126825CLEBER R DOMINGUES                                          1                        1 2829615                           020010074125011115851126825   CLEBER ROGERIO DOMINGUES                                    422186                                                                                                                                                                                                                                                                                                           
15148527400015951485274000159C00297620241 85651                         85651                         1215464016201702095DBC1476 1 BRASIL                                            SPLIMEIRA                                           BRASIL                                            SPSAO PAULO                                         2017020927000120000000000960INTEGRACAO                                        5464016   2017030316002023754640160000530000000000000000000918588859491SEVERINO O SILVA                                            1                        1 2829954                           027010074136825318588859491   SEVERINO O SILVA                                            440974                                                                                                                                                                                                                                                                                                           
15148527400015951485274000159C00297620801 85652                         85652                         1483045014201702095BWY0827 1 BRASIL                                            SPLIMEIRA                                           BRASIL                                            SPSAO PAULO                                         2017020927000034800000000278INTEGRACAO                                        2262012   2017030307300623722620120000540000000000000000000480050913891CLEIDO N MELO                                               1                        1 2829666                           022010074172473880050913891   CLEIDO N MELO                                               423191                                                                                                                                                                                                                                                                                                           
15148527400015951485274000159C00297621961 85654                         85654                         1232542018201702095BWC0472 1 BRASIL                                            SPLIMEIRA                                           BRASIL                                            SPSAO PAULO                                         2017020927000009780000000078INTEGRACAO                                        2542018   2017030318301423725420180000550000000000000000000984871148815DANIEL CEZAR GARCIA                                         1                        1 2829414                           021010074243232684871148815   DANIEL CEZAR GARCIA                                         448396                                                                                                                                                                                                                                                                                                           
15148527400015951485274000159C00297621961 85654                         85654                         1232542018201702095BWC0472 1 BRASIL                                            SPLIMEIRA                                           BRASIL                                            SPSAO PAULO                                         2017020927000013680000000109INTEGRACAO                                        2542018   2017030318301523725420180000560000000000000000000984871148815DANIEL CEZAR GARCIA                                         1                        1 2830073                           021010074243232684871148815   DANIEL CEZAR GARCIA                                         448462                                                                                                                                                                                                                                                                                                           
15148527400015951485274000159C00297621961 85654                         85654                         1232542018201702095BWC0472 1 BRASIL                                            SPLIMEIRA                                           BRASIL                                            SPSAO PAULO                                         2017020927000013680000000109INTEGRACAO                                        2542018   2017030318301823725420180000570000000000000000000984871148815DANIEL CEZAR GARCIA                                         1                        1 2829647                           021010074243232684871148815   DANIEL CEZAR GARCIA                                         448399                                                                                                                                                                                                                                                                                                           
15148527400015951485274000159C00297621961 85654                         85654                         1232542018201702095BWC0472 1 BRASIL                                            SPLIMEIRA                                           BRASIL                                            SPSAO PAULO                                         2017020927000013680000000109INTEGRACAO                                        2542018   2017030318302423725420180000580000000000000000000984871148815DANIEL CEZAR GARCIA                                         1                        1 2829941                           021010074243232684871148815   DANIEL CEZAR GARCIA                                         448475                                                                                                                                                                                                                                                                                                           
15148527400015951485274000159C00297621961 85654                         85654                         1232542018201702095BWC0472 1 BRASIL                                            SPLIMEIRA                                           BRASIL                                            SPSAO PAULO                                         2017020927000021600000000173INTEGRACAO                                        2542018   2017030321400323725420180000590000000000000000000984871148815DANIEL CEZAR GARCIA                                         1                        1 2830189                           021010074243232684871148815   DANIEL CEZAR GARCIA                                         451727                                                                                                                                                                                                                                                                                                           
15148527400015951485274000159C00297628001 85661                         85661                         1378722010201702095CBH4293 1 BRASIL                                            SPLIMEIRA                                           BRASIL                                            SPSAO PAULO                                         2017020927000010000000000080INTEGRACAO                                        8722010   2017030302001023787220100000600000000000000000000910813846897EDIVALDO DOS SANTOS                                         1                        1 2829609                           022010074577526210813846897   EDIVALDO DOS SANTOS                                         422096                                                                                                                                                                                                                                                                                                           
15148527400015951485274000159C00297629891 85664                         85664                         1393869010201702095GOA4922 1 BRASIL                                            SPLIMEIRA                                           BRASIL                                            SPSAO PAULO                                         2017020927000002996000000024INTEGRACAO                                        3869010   2017030310505423738690100000610000000000000000000937093675816EDUARDO O TEODORO                                           1                        1 2815405                           023010074690671137093675816   EDUARDO DE OLIVEIRA TEODORO                                 429447                                                                                                                                                                                                                                                                                                           
15148527400015951485274000159C00297629891 85664                         85664                         1393869010201702095GOA4922 1 BRASIL                                            SPLIMEIRA                                           BRASIL                                            SPSAO PAULO                                         2017020927000090000000000720INTEGRACAO                                        3869010   2017030314001523738690100000620000000000000000000937093675816EDUARDO O TEODORO                                           1                        1 2829858                           023010074690671137093675816   EDUARDO DE OLIVEIRA TEODORO                                 434964                                                                                                                                                                                                                                                                                                           
15148527400015951485274000159C00297638721 85666                         85666                         0830350014201702095DPB7675 1 BRASIL                                            SPLIMEIRA                                           BRASIL                                            SPSAO PAULO                                         2017020927000002996000000024INTEGRACAO                                        0350014   2017030322200823703500140000630000000000000000002326491412806EDVALDO RICHITTA                                            1                        1 2815426             07414374000100022010075143093007414374000100EDVALDO RICHITTA TRANSPORTES ME                             452288                                                                                                                                                                                                                                                                                                           
15148527400015951485274000159C00297649261 85674                         85674                         1413841015201702095CEX5123 1 BRASIL                                            SPLIMEIRA                                           BRASIL                                            SPSAO PAULO                                         2017020927000050000000000400INTEGRACAO                                        3841015   2017030321500723738410150000640000000000000000000996562455804VALMIR JOSE RIBEIRO                                         1                        1 2830195                           029010075757745311928043844   CLAUDIO ATHAYDE JUNCO                                       451891                                                                                                                                                                                                                                                                                                           
15148527400015951485274000159C00297651191 85675                         85675                         1353007015201702095DBC1431 1 BRASIL                                            SPLIMEIRA                                           BRASIL                                            SPSAO PAULO                                         2017020927000060000000000480INTEGRACAO                                        3007015   2017030321300523730070150000650000000000000000000932175549810FABIANO JOSE VIANA                                          1                        1 2830149                           022010075845060232175549810   FABIANO JOSE VIANA                                          451685                                                                                                                                                                                                                                                                                                           
15148527400015951485274000159C00297660671 85682                         85682                         1300557013201702095GZG1429 1 BRASIL                                            SPLIMEIRA                                           BRASIL                                            SPSAO PAULO                                         2017020927000013680000000109INTEGRACAO                                        0557013   2017030304300423705570130000660000000000000000000922141234824MARCEL G SILVA                                              1                        1 2829561                           026010076353576410624141870   GINO GRECO NETO                                             422513                                                                                                                                                                                                                                                                                                           
15148527400015951485274000159C00297660671 85682                         85682                         1300557013201702095GZG1429 1 BRASIL                                            SPLIMEIRA                                           BRASIL                                            SPSAO PAULO                                         2017020927000009780000000078INTEGRACAO                                        0557013   2017030304300423705570130000670000000000000000000922141234824MARCEL G SILVA                                              1                        1 2829444                           026010076353576410624141870   GINO GRECO NETO                                             422401                                                                                                                                                                                                                                                                                                           
15148527400015951485274000159C00297660671 85682                         85682                         1300557013201702095GZG1429 1 BRASIL                                            SPLIMEIRA                                           BRASIL                                            SPSAO PAULO                                         2017020927000013680000000109INTEGRACAO                                        0557013   2017030309402723705570130000680000000000000000000922141234824MARCEL G SILVA                                              1                        1 2829725                           026010076353576410624141870   GINO GRECO NETO                                             426488                                                                                                                                                                                                                                                                                                           
15148527400015951485274000159C00297660671 85682                         85682                         1300557013201702095GZG1429 1 BRASIL                                            SPLIMEIRA                                           BRASIL                                            SPSAO PAULO                                         2017020927000013680000000109INTEGRACAO                                        0557013   2017030317102023705570130000690000000000000000000922141234824MARCEL G SILVA                                              1                        1 2830017                           026010076353576410624141870   GINO GRECO NETO                                             444878                                                                                                                                                                                                                                                                                                           
15148527400015951485274000159C00297662261 85683                         85683                         1469858010201702095BXG6044 1 BRASIL                                            SPLIMEIRA                                           BRASIL                                            SPSAO PAULO                                         2017020927000009780000000078INTEGRACAO                                        3601010   2017030308101123736010100000700000000000000000000437582030826GUSTAVO O MOTTA                                             1                        1 2829427                           025010076438232737582030826   GUSTAVO OLIVEIRA DA MOTTA                                   423777                                                                                                                                                                                                                                                                                                           
15148527400015951485274000159C00297662261 85683                         85683                         1469858010201702095BXG6044 1 BRASIL                                            SPLIMEIRA                                           BRASIL                                            SPSAO PAULO                                         2017020927000009780000000078INTEGRACAO                                        3601010   2017030308102223736010100000710000000000000000000437582030826GUSTAVO O MOTTA                                             1                        1 2828414                           025010076438232737582030826   GUSTAVO OLIVEIRA DA MOTTA                                   423886                                                                                                                                                                                                                                                                                                           
15148527400015951485274000159C00297666021 85685                         85685                         1413844019201702095DTE4881 1 BRASIL                                            SPLIMEIRA                                           BRASIL                                            SPSAO PAULO                                         2017020927000020000000000160INTEGRACAO                                        3844019   2017030313100923738440190000720000000000000000000912857993803HELCIO JOSE SILVA                                           1                        1 2829814                           025010076626150703520275848   IVA DAVID DE SOUZA                                          433558                                                                                                                                                                                                                                                                                                           
15148527400015951485274000159C00297671751 85691                         85691                         1380576016201702095DPE7319 1 BRASIL                                            SPLIMEIRA                                           BRASIL                                            SPSAO PAULO                                         2017020927000150000000001200INTEGRACAO                                        0576016   2017030318501523705760160000730000000000000000000958459766934JOELSON A C SANTOS                                          1                        1 2830044                           021010076925413858459766934   JOELSON A C SANTOS                                          448997                                                                                                                                                                                                                                                                                                           
15148527400015951485274000159C00297672601 85692                         85692                         0342127045201702095DPE7192 1 BRASIL                                            SPLIMEIRA                                           BRASIL                                            SPSAO PAULO                                         2017020927000150000000001200INTEGRACAO                                        4561015   2017030315401523745610150000740000000000000000000405734450871JORGE L PEREIRA                                             1                        1 2829924                           027010076970873305734450871   JORGE LUIS PEREIRA                                          439964                                                                                                                                                                                                                                                                                                           
15148527400015951485274000159C00297678441 85697                         85697                         1167183010201702095APB1867 1 BRASIL                                            SPLIMEIRA                                           BRASIL                                            SPSAO PAULO                                         2017020927000010800000000086INTEGRACAO                                        7183010   2017030315203323771830100000750000000000000000000973061786449JOSE DE MELO                                                1                        1 2829574                           021010077270463673061786449   JOSE DE MELO                                                438685                                                                                                                                                                                                                                                                                                           
15148527400015951485274000159C00297687811 85704                         85704                         1422879028201702095EXO0437 1 BRASIL                                            SPLIMEIRA                                           BRASIL                                            SPSAO PAULO                                         2017020927000012000000000096INTEGRACAO                                        3139013   2017030308100623731390130000760000000000000000000459908572849JOSE WINKLER                                                1                        1 2829680                           028010077733916959908572849   jose winkler                                                423770                                                                                                                                                                                                                                                                                                           
15148527400015951485274000159C00297690401 85705                         85705                         1354850017201702095AKN7535 1 BRASIL                                            SPLIMEIRA                                           BRASIL                                            SPSAO PAULO                                         2017020927000080000000000640INTEGRACAO                                        4850017   2017030319100623748500170000770000000000000000000928224784819JULIANO JAMES MELO                                          1                        1 2830095                           029010077836444728224784819   JULIANO JAMES DE MELO                                       449347                                                                                                                                                                                                                                                                                                           
15148527400015951485274000159C00297691761 85706                         85706                         1232541010201702095HQZ9423 1 BRASIL                                            SPLIMEIRA                                           BRASIL                                            SPSAO PAULO                                         2017020927000010000000000080INTEGRACAO                                        2541010   2017030312400323725410100000780000000000000000000932705101870LEANDRO N SANTOS                                            1                        1 2829801                           026010077890046432705101870   LEANDRO NEVES DOS SANTOS                                    432917                                                                                                                                                                                                                                                                                                           
15148527400015951485274000159C00297694041 85709                         85709                         0168775075201702095DAJ1291 1 BRASIL                                            SPLIMEIRA                                           BRASIL                                            SPSAO PAULO                                         2017020927000020000000000160INTEGRACAO                                        4149023   2017030309210623741490230000790000000000000000000400599411899HELENO J SILVA                                              1                        1 2829692                           022010077991785000599411899   HELENO JOSE DA SILVA                                        425980                                                                                                                                                                                                                                                                                                           
15148527400015951485274000159C00297696851 85715                         85715                         1167175016201702095BWC0262 1 BRASIL                                            SPLIMEIRA                                           BRASIL                                            SPSAO PAULO                                         2017020927000002996000000024INTEGRACAO                                        7175016   2017030310505323771750160000800000000000000000000914896936884LUIZ CARLOS TRISTAO                                         1                        1 2815745                           020010078171320514896936884   LUIZ CARLOS TRISTAO                                         429494                                                                                                                                                                                                                                                                                                           
15148527400015951485274000159C00297696851 85715                         85715                         1167175016201702095BWC0262 1 BRASIL                                            SPLIMEIRA                                           BRASIL                                            SPSAO PAULO                                         2017020927000090000000000720INTEGRACAO                                        7175016   2017030313400323771750160000810000000000000000000914896936884LUIZ CARLOS TRISTAO                                         1                        1 2829832                           020010078171320514896936884   LUIZ CARLOS TRISTAO                                         434270                                                                                                                                                                                                                                                                                                           
15148527400015951485274000159C00297697871 85716                         85716                         0730067015201702095BWK9895 1 BRASIL                                            SPLIMEIRA                                           BRASIL                                            SPSAO PAULO                                         2017020927000026000000000208INTEGRACAO                                        0067015   2017030306200323700670150000820000000000000000000939198273841LUIZ E CLEMENTE                                             1                        1 2829653                           020010078232879639198273841   LUIZ EDUARDO CLEMENTE                                       422892                                                                                                                                                                                                                                                                                                           
15148527400015951485274000159C00297697871 85716                         85716                         0730067015201702095BWK9895 1 BRASIL                                            SPLIMEIRA                                           BRASIL                                            SPSAO PAULO                                         2017020927000026000000000208INTEGRACAO                                        0067015   2017030307501423700670150000830000000000000000000939198273841LUIZ E CLEMENTE                                             1                        1 2829671                           020010078232879639198273841   LUIZ EDUARDO CLEMENTE                                       423423                                                                                                                                                                                                                                                                                                           
15148527400015951485274000159C00297697871 85716                         85716                         0730067015201702095BWK9895 1 BRASIL                                            SPLIMEIRA                                           BRASIL                                            SPSAO PAULO                                         2017020927000002996000000024INTEGRACAO                                        0067015   2017030315503523700670150000840000000000000000000939198273841LUIZ E CLEMENTE                                             1                        1 2815752                           020010078232879639198273841   LUIZ EDUARDO CLEMENTE                                       440576                                                                                                                                                                                                                                                                                                           
15148527400015951485274000159C00297702731 85718                         85718                         1380577014201702095GMH9217 1 BRASIL                                            SPLIMEIRA                                           BRASIL                                            SPSAO PAULO                                         2017020927000002996000000024INTEGRACAO                                        0577014   2017030309413223705770140000850000000000000000000914402061806MARCIO F CORREA                                             1                        1 2815780                           029010078534881514402061806   MARCIO FERNANDO CORREA                                      426643                                                                                                                                                                                                                                                                                                           
15148527400015951485274000159C00297702731 85718                         85718                         1435386015201702095GMH9217 1 BRASIL                                            SPLIMEIRA                                           BRASIL                                            SPSAO PAULO                                         2017020927000090000000000720INTEGRACAO                                        5386015   2017030320200923753860150000860000000000000000000911454333839CLAUDIO D TEODORO                                           1                        1 2830164                           029010078534881514402061806   MARCIO FERNANDO CORREA                                      450740                                                                                                                                                                                                                                                                                                           
15148527400015951485274000159C00297708591 85728                         85728                         1532535022201702095AJY4232 1 BRASIL                                            SPLIMEIRA                                           BRASIL                                            SPSAO PAULO                                         2017020927000052000000000416INTEGRACAO                                        5402023   2017030322400823754020230000870000000000000000000409280206818ELIAS A JR                                                  1                        1 2830212                           020010078878257513762721807   Marco Serraglio rota 14                                     452399                                                                                                                                                                                                                                                                                                           
15148527400015951485274000159C00297751371 85731                         85731                         1270028011201702105DBC1477 1 BRASIL                                            SPLIMEIRA                                           BRASIL                                            SPSAO PAULO                                         2017021027000002996000000024INTEGRACAO                                        0028011   2017030309413223700280110000880000000000000000000925438502870MARIO C A BARBOZA                                           1                        1 2816183                           020010080800633825438502870   MARIO CELSO ASNAR BARBOZA                                   426668                                                                                                                                                                                                                                                                                                           
15148527400015951485274000159C00297751371 85731                         85731                         1270028011201702105DBC1477 1 BRASIL                                            SPLIMEIRA                                           BRASIL                                            SPSAO PAULO                                         2017021027000090000000000720INTEGRACAO                                        0028011   2017030314000623700280110000890000000000000000000925438502870MARIO C A BARBOZA                                           1                        1 2829852                           020010080800633825438502870   MARIO CELSO ASNAR BARBOZA                                   434948                                                                                                                                                                                                                                                                                                           
15148527400015951485274000159C00297751891 85732                         85732                         1393866016201702105FAO8370 1 BRASIL                                            SPLIMEIRA                                           BRASIL                                            SPSAO PAULO                                         2017021027000002996000000024INTEGRACAO                                        3866016   2017030315212823738660160000900000000000000000000980839908849MARIO L O GARCIA                                            1                        1 2816186                           027010080825710780839908849   MARIO LUIZ DE OLIVEIRA GARCIA                               438806                                                                                                                                                                                                                                                                                                           
15148527400015951485274000159C00297751891 85732                         85732                         1393866016201702105FAO8370 1 BRASIL                                            SPLIMEIRA                                           BRASIL                                            SPSAO PAULO                                         2017021027000045000000000360INTEGRACAO                                        3866016   2017030315404023738660160000910000000000000000000980839908849MARIO L O GARCIA                                            1                        1 2829881                           027010080825710780839908849   MARIO LUIZ DE OLIVEIRA GARCIA                               439926                                                                                                                                                                                                                                                                                                           
15148527400015951485274000159C00297755441 85734                         85734                         1435391015201702105CZC3360 1 BRASIL                                            SPLIMEIRA                                           BRASIL                                            SPSAO PAULO                                         2017021027000150000000001200INTEGRACAO                                        5391015   2017030318401423753910150000920000000000000000000907875583896MILTON A MOREIRA                                            1                        1 2830047                           027010080986204907875583896   MILTON APARECIDO MOREIRA                                    448774                                                                                                                                                                                                                                                                                                           
15148527400015951485274000159C00297757471 85736                         85736                         1190452010201702105FRK5046 1 BRASIL                                            SPLIMEIRA                                           BRASIL                                            SPSAO PAULO                                         2017021027000007000000000056INTEGRACAO                                        0452010   2017030307300423704520100000930000000000000000000935082614843MICHEL R NACIMENTO                                          1                        1 2829663                           021010081069768735082614843   michel rodrigues do nacimento                               423190                                                                                                                                                                                                                                                                                                           
15148527400015951485274000159C00297764161 85740                         85740                         1435402010201702105DPE7680 1 BRASIL                                            SPLIMEIRA                                           BRASIL                                            SPSAO PAULO                                         2017021027000170000000001360INTEGRACAO                                        6888011   2017030317500623768880110000940000000000000000000915049487854ODAIR J CARLOS                                              1                        1 2830052                           022010081361502015049487854   Odair Jos  Carlos                                          446704                                                                                                                                                                                                                                                                                                           
15148527400015951485274000159C00297766061 85741                         85741                         0571220016201702105BXG3018 1 BRASIL                                            SPLIMEIRA                                           BRASIL                                            SPSAO PAULO                                         2017021027000050000000000400INTEGRACAO                                        4614012   2017030321300523746140120000950000000000000000000417559015859ORIAS L RIBEIRO                                             1                        1 2830057                           020010081437875917559015859   ORIAS LATIEL RIBEIRO                                        451686                                                                                                                                                                                                                                                                                                           
15148527400015951485274000159C00297777081 85748                         85748                         1301531017201702105BWU5318 1 BRASIL                                            SPLIMEIRA                                           BRASIL                                            SPSAO PAULO                                         2017021027000002996000000024INTEGRACAO                                        1531017   2017030309413223715310170000960000000000000000000937122324893RAFAEL SILVA TORRES                                         1                        1 2816283                           026010082014590937122324893   RAFAEL DA SILVA TORRES                                      426642                                                                                                                                                                                                                                                                                                           
15148527400015951485274000159C00297777081 85748                         85748                         1301531017201702105BWU5318 1 BRASIL                                            SPLIMEIRA                                           BRASIL                                            SPSAO PAULO                                         2017021027000060000000000480INTEGRACAO                                        1531017   2017030321300723715310170000970000000000000000000937122324893RAFAEL SILVA TORRES                                         1                        1 2830167                           026010082014590937122324893   RAFAEL DA SILVA TORRES                                      451691                                                                                                                                                                                                                                                                                                           
15148527400015951485274000159C00297779511 85750                         85750                         1232533017201702105BWU4446 1 BRASIL                                            SPLIMEIRA                                           BRASIL                                            SPSAO PAULO                                         2017021027000002996000000024INTEGRACAO                                        2533017   2017030309413223725330170000980000000000000000000931469034824RAFAEL F E ALVES                                            1                        1 2816295                           021010082115439931469034824   RAFAEL FERNANDO ESBRICE ALVES                               426670                                                                                                                                                                                                                                                                                                           
15148527400015951485274000159C00297779511 85750                         85750                         1232533017201702105BWU4446 1 BRASIL                                            SPLIMEIRA                                           BRASIL                                            SPSAO PAULO                                         2017021027000090000000000720INTEGRACAO                                        2533017   2017030317302123725330170000990000000000000000000931469034824RAFAEL F E ALVES                                            1                        1 2830035                           021010082115439931469034824   RAFAEL FERNANDO ESBRICE ALVES                               445775                                                                                                                                                                                                                                                                                                           
