020170328                                                                                                                                                                                                                                                                                                                                                                                                                                                      000001                                                                                                                                                                                                                                                                                                                                                                                                                                                                                                                                                                   
15148527400015951485274000159C00292041211 224522                        84954                         1354762014201701035CVP8184 1 BRASIL                                            SPLIMEIRA                                           BRASIL                                            SPSAO PAULO                                         2017010327000002996000000024INTEGRACAO                                        4762014   2017030109104523747620140000020000000000000000002327955295803Kleber de Souza palma                                       1                        1 2791212             15202376000156027009812616517315202376000156KLEBER DE SOUZA PALMA TRANSPORTES EPP                       364418                                                                                                                                                                                                                                                                                                           
15148527400015951485274000159C00292806741 19631                         85041                         1424286024201701095AAL3952 1 BRASIL                                            SPLIMEIRA                                           BRASIL                                            SPSAO PAULO                                         2017010927000019560000000156INTEGRACAO                                        4206021   2017030110001323742060210000030000000000000000000401653786892CLAUDIO A SILVA                                             1                        1 2827603                           028009848667677501653786892   CLAUDIO APARECIDO DA SILVA                                  365802                                                                                                                                                                                                                                                                                                           
15148527400015951485274000159C00292816751 24966                         85046                         1380566017201701095DBC0658 1 BRASIL                                            SPLIMEIRA                                           BRASIL                                            SPSAO PAULO                                         2017010927000015000000000120INTEGRACAO                                        0566017   2017030101010923705660170000040000000000000000000901608523829AMILTON AMANCIO                                             1                        1 2827750                           025009849079152628797204862   ALEX HUMBERTO GERALDO DOS SANTOS                            360028                                                                                                                                                                                                                                                                                                           
15148527400015951485274000159C00292855691 176786                        85061                         0968974041201701095DBC0547 1 BRASIL                                            SPLIMEIRA                                           BRASIL                                            SPSAO PAULO                                         2017010927000050000000000400INTEGRACAO                                        4138026   2017030101110423741380260000050000000000000000000453228057615DONIZETTI REZENDE                                           1                        1 2827421                           021009850885598953228057615   DONIZETTI REZENDE                                           360311                                                                                                                                                                                                                                                                                                           
15148527400015951485274000159C00292858051 11083                         85063                         1329626013201701095JJZ3162 1 BRASIL                                            SPLIMEIRA                                           BRASIL                                            SPSAO PAULO                                         2017010927000050000000000400INTEGRACAO                                        9626013   2017030101110323796260130000060000000000000000000906192398836DORIVAL FELICIO                                             1                        1 2827456                           020009850980427506192398836   DORIVAL FELICIO                                             360381                                                                                                                                                                                                                                                                                                           
15148527400015951485274000159C00292890461 19635                         85079                         1469858010201701095BXG6044 1 BRASIL                                            SPLIMEIRA                                           BRASIL                                            SPSAO PAULO                                         2017010927000019560000000156INTEGRACAO                                        3601010   2017030110000323736010100000070000000000000000000437582030826GUSTAVO O MOTTA                                             1                        1 2827009                           021009852295831037582030826   GUSTAVO OLIVEIRA DA MOTTA                                   365733                                                                                                                                                                                                                                                                                                           
15148527400015951485274000159C00292890461 19635                         85079                         1469858010201701095BXG6044 1 BRASIL                                            SPLIMEIRA                                           BRASIL                                            SPSAO PAULO                                         2017010927000009780000000078INTEGRACAO                                        3601010   2017030110000923736010100000080000000000000000000437582030826GUSTAVO O MOTTA                                             1                        1 2827612                           021009852295831037582030826   GUSTAVO OLIVEIRA DA MOTTA                                   365740                                                                                                                                                                                                                                                                                                           
15148527400015951485274000159C00292998511 7186                          85130                         1435402010201701105DPE7680 1 BRASIL                                            SPLIMEIRA                                           BRASIL                                            SPSAO PAULO                                         2017011027000050000000000400INTEGRACAO                                        6888011   2017030101110323768880110000090000000000000000000915049487854ODAIR J CARLOS                                              1                        1 2827424                           024009856942657115049487854   Odair José  Carlos                                          360380                                                                                                                                                                                                                                                                                                           
15148527400015951485274000159C00293011081 23947                         85142                         1393872014201701105DPE7073 1 BRASIL                                            SPLIMEIRA                                           BRASIL                                            SPSAO PAULO                                         2017011027000060000000000480INTEGRACAO                                        3872014   2017030101110323738720140000100000000000000000000907880653864REINALDO L OLIVEIRA                                         1                        1 2827448                           028009857497094907880653864   REINALDO L OLIVEIRA                                         360379                                                                                                                                                                                                                                                                                                           
15148527400015951485274000159C00293016831 19721                         85149                         1215463018201701105BYF9125 1 BRASIL                                            SPLIMEIRA                                           BRASIL                                            SPSAO PAULO                                         2017011027000029340000000235INTEGRACAO                                        5463018   2017030110000723754630180000110000000000000000000978399726834RONALDO F HORA                                              1                        1 2827633                           023009857758160437582030826   GUSTAVO OLIVEIRA DA MOTTA                                   365795                                                                                                                                                                                                                                                                                                           
15148527400015951485274000159C00293121501 176801                        85176                         1300557013201701105GZG1429 1 BRASIL                                            SPLIMEIRA                                           BRASIL                                            SPSAO PAULO                                         2017011027000009780000000078INTEGRACAO                                        0557013   2017030122200323705570130000120000000000000000000922141234824MARCEL G SILVA                                              1                        1 2827621                           024009862453528210624141870   GINO GRECO NETO                                             389855                                                                                                                                                                                                                                                                                                           
15148527400015951485274000159C00296510881 85556                         85556                         1393868012201702025CQF2397 1 BRASIL                                            SPLIMEIRA                                           BRASIL                                            SPSAO PAULO                                         2017020227000030000000000240INTEGRACAO                                        3868012   2017030111501023738680120000130000000000000000000979222765672CUSTODIO S FONSECA                                          1                        1 2828115                           026010022157033914173244000180TRANSPORTADORA BRUZASCO LTDA ME                             369820                                                                                                                                                                                                                                                                                                           
15148527400015951485274000159C00296510881 85556                         85556                         1393868012201702025CQF2397 1 BRASIL                                            SPLIMEIRA                                           BRASIL                                            SPSAO PAULO                                         2017020227000060000000000480INTEGRACAO                                        3868012   2017030115102023738680120000140000000000000000000979222765672CUSTODIO S FONSECA                                          1                        1 2828225                           026010022157033914173244000180TRANSPORTADORA BRUZASCO LTDA ME                             376316                                                                                                                                                                                                                                                                                                           
15148527400015951485274000159C00296562471 85559                         85559                         1380569011201702025BTR1378 1 BRASIL                                            SPLIMEIRA                                           BRASIL                                            SPSAO PAULO                                         2017020227000050000000000400INTEGRACAO                                        0569011   2017030120400723705690110000150000000000000000000901653338806CLEUCIO A SILVA                                             1                        1 2828482                           028010024400486301653338806   CLEUCIO APARECIDO DA SILVA                                  388852                                                                                                                                                                                                                                                                                                           
15148527400015951485274000159C00296958731 85573                         85573                         1167170017201702065BWO9561 1 BRASIL                                            SPLIMEIRA                                           BRASIL                                            SPSAO PAULO                                         2017020627000025000000000200INTEGRACAO                                        7170017   2017030112101723771700170000160000000000000000000917205126800SANDRO S VIGINOTI                                           1                        1 2828142                           025010042976199017205126800   SANDRO SERGIO VIGINOTI                                      370443                                                                                                                                                                                                                                                                                                           
15148527400015951485274000159C00297060211 85585                         85585                         0830312014201702065ODA6686 1 BRASIL                                            SPLIMEIRA                                           BRASIL                                            SPSAO PAULO                                         2017020627000035000000000280INTEGRACAO                                        0312014   2017030117502223703120140000170000000000000000002301630963844DOMINGOS EDUARDO BRUZASCO                                   1                        1 2828270             14173244000180020010047556111414173244000180TRANSPORTADORA BRUZASCO LTDA ME                             385363                                                                                                                                                                                                                                                                                                           
15148527400015951485274000159C00297080201 85588                         85588                         0540229011201702065CUD0073 1 BRASIL                                            SPLIMEIRA                                           BRASIL                                            SPSAO PAULO                                         2017020627000020000000000160INTEGRACAO                                        0229011   2017030116300723702290110000180000000000000000002377570383834JOSE EMILIO DA SILVA                                        1                        1 2828319             11264046000134024010048511663411264046000134SILVA TRANSPORTES ME                                        380421                                                                                                                                                                                                                                                                                                           
15148527400015951485274000159C00297087191 85590                         85590                         1413838011201702065DBC1203 1 BRASIL                                            SPLIMEIRA                                           BRASIL                                            SPSAO PAULO                                         2017020627000050000000000400INTEGRACAO                                        3838011   2017030112200623738380110000190000000000000000000910065639898MARIO A K SEVDALIS                                          1                        1 2828156                           025010048761589610065639898   MARIO ANTONIO KILO SEVDALIS                                 370645                                                                                                                                                                                                                                                                                                           
15148527400015951485274000159C00297087191 85590                         85590                         1413838011201702065DBC1203 1 BRASIL                                            SPLIMEIRA                                           BRASIL                                            SPSAO PAULO                                         2017020627000002996000000024INTEGRACAO                                        3838011   2017030117505223738380110000200000000000000000000910065639898MARIO A K SEVDALIS                                          1                        1 2813169                           025010048761589610065639898   MARIO ANTONIO KILO SEVDALIS                                 385392                                                                                                                                                                                                                                                                                                           
15148527400015951485274000159C00297152231 85592                         85592                         1301515010201702074BWC2973 1 BRASIL                                            SPLIMEIRA                                           BRASIL                                            SPSAO PAULO                                         2017020727000002996000000024INTEGRACAO                                        1515010   2017030115011023715150100000210000000000000000000957091714504VIVALDO O FRAGA                                             1                        1 2813531                           028010052186989957091714504   VIVALDO DE OLIVEIRA FRAGA                                   375921                                                                                                                                                                                                                                                                                                           
15148527400015951485274000159C00297160061 25306                         85594                         1270234015201702075MIM8927 1 BRASIL                                            SPLIMEIRA                                           BRASIL                                            SPSAO PAULO                                         2017020727000002996000000024INTEGRACAO                                        0234015   2017030113504723702340150000220000000000000000002353798643091NERI FINATTO                                                1                        1 2813543             13857996000106021010052514007313857996000106neri finato transportes ltda                                372719                                                                                                                                                                                                                                                                                                           
15148527400015951485274000159C00297208661 85595                         85595                         1393874010201702075BWB9478 1 BRASIL                                            SPLIMEIRA                                           BRASIL                                            SPSAO PAULO                                         2017020727000008000000000064INTEGRACAO                                        3874010   2017030109200823738740100000230000000000000000000901642228800CLAUDEMIR QUESSADA                                          1                        1 2828049                           022010054428978101642228800   CLAUDEMIR QUESSADA                                          364677                                                                                                                                                                                                                                                                                                           
15148527400015951485274000159C00297208661 85595                         85595                         1393874010201702075BWB9478 1 BRASIL                                            SPLIMEIRA                                           BRASIL                                            SPSAO PAULO                                         2017020727000002996000000024INTEGRACAO                                        3874010   2017030109503223738740100000240000000000000000000901642228800CLAUDEMIR QUESSADA                                          1                        1 2813688                           022010054428978101642228800   CLAUDEMIR QUESSADA                                          365583                                                                                                                                                                                                                                                                                                           
15148527400015951485274000159C00297224561 85596                         85596                         1354828013201702075BIX9164 1 BRASIL                                            SPLIMEIRA                                           BRASIL                                            SPSAO PAULO                                         2017020727000022500000000180INTEGRACAO                                        4828013   2017030102000423748280130000250000000000000000000935690400890KLEYTON S V AH                                              1                        1 2827837                           028010055123867635690400890   KLEYTON SANTANA VON AH                                      360474                                                                                                                                                                                                                                                                                                           
15148527400015951485274000159C00297224561 85596                         85596                         1354828013201702075BIX9164 1 BRASIL                                            SPLIMEIRA                                           BRASIL                                            SPSAO PAULO                                         2017020727000022500000000180INTEGRACAO                                        4828013   2017030102000423748280130000260000000000000000000935690400890KLEYTON S V AH                                              1                        1 2827840                           028010055123867635690400890   KLEYTON SANTANA VON AH                                      360472                                                                                                                                                                                                                                                                                                           
15148527400015951485274000159C00297224561 85596                         85596                         1354828013201702075BIX9164 1 BRASIL                                            SPLIMEIRA                                           BRASIL                                            SPSAO PAULO                                         2017020727000002996000000024INTEGRACAO                                        4828013   2017030122400823748280130000270000000000000000000935690400890KLEYTON S V AH                                              1                        1 2813751                           028010055123867635690400890   KLEYTON SANTANA VON AH                                      389953                                                                                                                                                                                                                                                                                                           
15148527400015951485274000159C00297241131 85598                         85598                         1444046011201702075DIY2604 1 BRASIL                                            SPLIMEIRA                                           BRASIL                                            SPSAO PAULO                                         2017020727000020000000000160INTEGRACAO                                        2586015   2017030111501623725860150000280000000000000000000430189952873ARY L BRISOLLA                                              1                        1 2828117                           023010055941655330189952873   ARY LEME BRISOLLA NETTO                                     369838                                                                                                                                                                                                                                                                                                           
15148527400015951485274000159C00297241131 85598                         85598                         1444046011201702075DIY2604 1 BRASIL                                            SPLIMEIRA                                           BRASIL                                            SPSAO PAULO                                         2017020727000002996000000024INTEGRACAO                                        2586015   2017030118402123725860150000290000000000000000000430189952873ARY L BRISOLLA                                              1                        1 2813806                           023010055941655330189952873   ARY LEME BRISOLLA NETTO                                     386885                                                                                                                                                                                                                                                                                                           
15148527400015951485274000159C00297241771 85599                         85599                         1215471011201702075CFE4210 1 BRASIL                                            SPLIMEIRA                                           BRASIL                                            SPSAO PAULO                                         2017020727000005000000000040INTEGRACAO                                        5471011   2017030116103323754710110000300000000000000000000916072623808HUMBERTO NEGRETO NT                                         1                        1 2828299                           025010055978892611002767857   MARILY MENDES                                               379332                                                                                                                                                                                                                                                                                                           
15148527400015951485274000159C00297241771 85599                         85599                         1215471011201702075CFE4210 1 BRASIL                                            SPLIMEIRA                                           BRASIL                                            SPSAO PAULO                                         2017020727000030000000000240INTEGRACAO                                        5471011   2017030120001923754710110000310000000000000000000916072623808HUMBERTO NEGRETO NT                                         1                        1 2828457                           025010055978892611002767857   MARILY MENDES                                               388286                                                                                                                                                                                                                                                                                                           
15148527400015951485274000159C00297264901 85606                         85606                         1435395016201702075BSG4909 1 BRASIL                                            SPLIMEIRA                                           BRASIL                                            SPSAO PAULO                                         2017020727000015000000000120INTEGRACAO                                        5395016   2017030109002023753950160000320000000000000000000944034318872BASILIO C VIEIRA                                            1                        1 2828036                           020010057041012944034318872   BASILIO CANDIDO VIEIRA                                      364123                                                                                                                                                                                                                                                                                                           
15148527400015951485274000159C00297264901 85606                         85606                         1435395016201702075BSG4909 1 BRASIL                                            SPLIMEIRA                                           BRASIL                                            SPSAO PAULO                                         2017020727000090000000000720INTEGRACAO                                        5395016   2017030116002223753950160000330000000000000000000944034318872BASILIO C VIEIRA                                            1                        1 2828259                           020010057041012944034318872   BASILIO CANDIDO VIEIRA                                      378746                                                                                                                                                                                                                                                                                                           
15148527400015951485274000159C00297300031 85609                         85609                         1380565019201702075BWS6879 1 BRASIL                                            SPLIMEIRA                                           BRASIL                                            SPSAO PAULO                                         2017020727000035000000000280INTEGRACAO                                        0565019   2017030116201623705650190000340000000000000000000952146057904ELCIO DANIEL                                                1                        1 2828308                           029010057999722852146057904   ELCIO DANIEL                                                380022                                                                                                                                                                                                                                                                                                           
15148527400015951485274000159C00297307081 85611                         85611                         1424424028201702075BZT8365 1 BRASIL                                            SPLIMEIRA                                           BRASIL                                            SPSAO PAULO                                         2017020727000018000000000144INTEGRACAO                                        4248023   2017030118200923742480230000350000000000000000000418426400892MARCIO A AMARAL                                             1                        1 2828429                           024010058213711718426400892   MARCIO ALEXANDRE DO AMARAL                                  386388                                                                                                                                                                                                                                                                                                           
15148527400015951485274000159C00297308721 85612                         85612                         1167195014201702075CLU3364 1 BRASIL                                            SPLIMEIRA                                           BRASIL                                            SPSAO PAULO                                         2017020727000010000000000080INTEGRACAO                                        7195014   2017030113101723771950140000360000000000000000000955543014791NIWTON BONIFACIO                                            1                        1 2828175                           020010058272264455543014791   NIWTON BONIFACIO                                            371541                                                                                                                                                                                                                                                                                                           
15148527400015951485274000159C00297308721 85612                         85612                         1167195014201702075CLU3364 1 BRASIL                                            SPLIMEIRA                                           BRASIL                                            SPSAO PAULO                                         2017020727000002996000000024INTEGRACAO                                        7195014   2017030113404323771950140000370000000000000000000955543014791NIWTON BONIFACIO                                            1                        1 2813965                           020010058272264455543014791   NIWTON BONIFACIO                                            372318                                                                                                                                                                                                                                                                                                           
15148527400015951485274000159C00297495511 85618                         85618                         1465294015201702085DTV5919 1 BRASIL                                            SPLIMEIRA                                           BRASIL                                            SPSAO PAULO                                         2017020827000010000000000080INTEGRACAO                                        6430016   2017030101300523764300160000380000000000000000000406947120861ADAO R MOURA                                                1                        1 2827786                           022010067497482606947120861   ADAO RODRIGUES DE MOURA                                     360337                                                                                                                                                                                                                                                                                                           
15148527400015951485274000159C00297501571 85619                         85619                         0210586067201702085ESU5447 1 BRASIL                                            SPLIMEIRA                                           BRASIL                                            SPSAO PAULO                                         2017020827000090000000000720INTEGRACAO                                        2265015   2017030118201123722650150000390000000000000000000426743368890ADENILSON P CRUZ                                            1                        1 2828426                           027010067796331726743368890   Adenilson Pereira da Cruz                                   386393                                                                                                                                                                                                                                                                                                           
15148527400015951485274000159C00297501571 85619                         85619                         0210586067201702085ESU5447 1 BRASIL                                            SPLIMEIRA                                           BRASIL                                            SPSAO PAULO                                         2017020827000002996000000024INTEGRACAO                                        2265015   2017030119501823722650150000400000000000000000000426743368890ADENILSON P CRUZ                                            1                        1 2814695                           027010067796331726743368890   Adenilson Pereira da Cruz                                   388205                                                                                                                                                                                                                                                                                                           
15148527400015951485274000159C00297584641 85634                         85634                         1329623010201702095BVM2884 1 BRASIL                                            SPLIMEIRA                                           BRASIL                                            SPSAO PAULO                                         2017020927000005000000000040INTEGRACAO                                        9623010   2017030112201123796230100000410000000000000000000934035353809ANDERSON O DELFINO                                          1                        1 2828148                           027010072241846110354067800   ANTONIO RAIMUNDO                                            370852                                                                                                                                                                                                                                                                                                           
15148527400015951485274000159C00297590481 85640                         85640                         1435401012201702095ELQ7472 1 BRASIL                                            SPLIMEIRA                                           BRASIL                                            SPSAO PAULO                                         2017020927000007000000000056INTEGRACAO                                        4203028   2017030109400823742030280000420000000000000000000436497274804AURINO M FERREIRA                                           1                        1 2828059                           021010072531742336497274804   AURINO MAIA FERREIRA                                        365215                                                                                                                                                                                                                                                                                                           
15148527400015951485274000159C00297592241 85641                         85641                         1435398010201702095III6788 1 BRASIL                                            SPLIMEIRA                                           BRASIL                                            SPSAO PAULO                                         2017020927000010000000000080INTEGRACAO                                        1110012   2017030109300923711100120000430000000000000000000917342421839CARLOS R RODRIGUES                                          1                        1 2828057                           026010072642106213575984000180BRUTALE TRANSPORTES LTDA                                    364935                                                                                                                                                                                                                                                                                                           
15148527400015951485274000159C00297593021 85642                         85642                         1167178010201702095AJJ3207 1 BRASIL                                            SPLIMEIRA                                           BRASIL                                            SPSAO PAULO                                         2017020927000020000000000160INTEGRACAO                                        7178010   2017030102000323771780100000440000000000000000000977805178887ADEMAR N SOUZA                                              1                        1 2827834                           022010072682737977805178887   ADEMAR N SOUZA                                              360471                                                                                                                                                                                                                                                                                                           
15148527400015951485274000159C00297593021 85642                         85642                         1167178010201702095AJJ3207 1 BRASIL                                            SPLIMEIRA                                           BRASIL                                            SPSAO PAULO                                         2017020927000020000000000160INTEGRACAO                                        7178010   2017030116111023771780100000450000000000000000000977805178887ADEMAR N SOUZA                                              1                        1 2828263                           022010072682737977805178887   ADEMAR N SOUZA                                              379502                                                                                                                                                                                                                                                                                                           
15148527400015951485274000159C00297615331 85643                         85643                         1435396014201702095ESU5269 1 BRASIL                                            SPLIMEIRA                                           BRASIL                                            SPSAO PAULO                                         2017020927000015000000000120INTEGRACAO                                        5396014   2017030101300523753960140000460000000000000000000911929719817CELSO B MACHADO                                             1                        1 2827798                           021010073837712011929719817   Celso batista machado                                       360340                                                                                                                                                                                                                                                                                                           
15148527400015951485274000159C00297615641 85644                         85644                         1413843011201702095GMN7056 1 BRASIL                                            SPLIMEIRA                                           BRASIL                                            SPSAO PAULO                                         2017020927000070000000000560INTEGRACAO                                        3843011   2017030116501223738430110000470000000000000000000950536869634CELSO O RODRIGUES                                           1                        1 2828360                           027010073858214950536869634   CELSO DE OLIVEIRA RODRIGUES                                 381461                                                                                                                                                                                                                                                                                                           
15148527400015951485274000159C00297620081 85649                         85649                         1354836016201702095DBL7891 1 BRASIL                                            SPLIMEIRA                                           BRASIL                                            SPSAO PAULO                                         2017020927000005000000000040INTEGRACAO                                        4836016   2017030108501623748360160000480000000000000000000915851126825CLEBER R DOMINGUES                                          1                        1 2828032                           020010074125011115851126825   CLEBER ROGERIO DOMINGUES                                    363896                                                                                                                                                                                                                                                                                                           
15148527400015951485274000159C00297621691 85653                         85653                         1329617012201702095GSW0110 1 BRASIL                                            SPLIMEIRA                                           BRASIL                                            SPSAO PAULO                                         2017020927000002996000000024INTEGRACAO                                        9617012   2017030116205123796170120000490000000000000000000921845389816DANIEL BOSCOLO                                              1                        1 2815340                           020010074229026021845389816   DANIEL BOSCOLO                                              380168                                                                                                                                                                                                                                                                                                           
15148527400015951485274000159C00297622371 85655                         85655                         1167190015201702095EGM4923 1 BRASIL                                            SPLIMEIRA                                           BRASIL                                            SPSAO PAULO                                         2017020927000005000000000040INTEGRACAO                                        7190015   2017030101300323771900150000500000000000000000000915629694472DARIO FERNANDES                                             1                        1 2827801                           027010074259739315629694472   DARIO FERNANDES                                             360334                                                                                                                                                                                                                                                                                                           
15148527400015951485274000159C00297627241 85660                         85660                         1329610017201702095DIW2136 1 BRASIL                                            SPLIMEIRA                                           BRASIL                                            SPSAO PAULO                                         2017020927000008000000000064INTEGRACAO                                        9610017   2017030110302223796100170000510000000000000000000912261847823EDIVALDO B SILVA                                            1                        1 2828077                           025010074528736812261847823   EDIVALDO BARBOSA DA SILVA                                   366696                                                                                                                                                                                                                                                                                                           
15148527400015951485274000159C00297629891 85664                         85664                         1393869010201702095GOA4922 1 BRASIL                                            SPLIMEIRA                                           BRASIL                                            SPSAO PAULO                                         2017020927000070000000000560INTEGRACAO                                        3869010   2017030115101023738690100000520000000000000000000937093675816EDUARDO O TEODORO                                           1                        1 2828223                           023010074690671137093675816   EDUARDO DE OLIVEIRA TEODORO                                 376363                                                                                                                                                                                                                                                                                                           
15148527400015951485274000159C00297638721 85666                         85666                         0830350014201702095DPB7675 1 BRASIL                                            SPLIMEIRA                                           BRASIL                                            SPSAO PAULO                                         2017020927000030000000000240INTEGRACAO                                        0350014   2017030108001323703500140000530000000000000000002326491412806EDVALDO RICHITTA                                            1                        1 2828005             07414374000100022010075143093007414374000100EDVALDO RICHITTA TRANSPORTES ME                             362528                                                                                                                                                                                                                                                                                                           
15148527400015951485274000159C00297648301 85673                         85673                         1413855015201702095EJV7609 1 BRASIL                                            SPLIMEIRA                                           BRASIL                                            SPSAO PAULO                                         2017020927000060000000000480INTEGRACAO                                        4145021   2017030103400323741450210000540000000000000000000427877434987EZIQUIEL TONCHE                                             1                        1 2827970                           021010075704168227877434987   EZEQUIEL TONCHE                                             360781                                                                                                                                                                                                                                                                                                           
15148527400015951485274000159C00297649261 85674                         85674                         1413841015201702095CEX5123 1 BRASIL                                            SPLIMEIRA                                           BRASIL                                            SPSAO PAULO                                         2017020927000030000000000240INTEGRACAO                                        3841015   2017030106300323738410150000550000000000000000000996562455804VALMIR JOSE RIBEIRO                                         1                        1 2827986                           029010075757745311928043844   CLAUDIO ATHAYDE JUNCO                                       361810                                                                                                                                                                                                                                                                                                           
15148527400015951485274000159C00297651191 85675                         85675                         1353007015201702095DBC1431 1 BRASIL                                            SPLIMEIRA                                           BRASIL                                            SPSAO PAULO                                         2017020927000060000000000480INTEGRACAO                                        3007015   2017030121200823730070150000560000000000000000000932175549810FABIANO JOSE VIANA                                          1                        1 2828438                           022010075845060232175549810   FABIANO JOSE VIANA                                          389351                                                                                                                                                                                                                                                                                                           
15148527400015951485274000159C00297654641 85678                         85678                         1424335025201702095CRM9532 1 BRASIL                                            SPLIMEIRA                                           BRASIL                                            SPSAO PAULO                                         2017020927000005000000000040INTEGRACAO                                        4220022   2017030108400923742200220000570000000000000000000425048883845ELIAS GABARRON                                              1                        1 2828027                           029010076040983325048883845   ELIAS GABARRON                                              363428                                                                                                                                                                                                                                                                                                           
15148527400015951485274000159C00297655501 85679                         85679                         1270016016201702095EBC3761 1 BRASIL                                            SPLIMEIRA                                           BRASIL                                            SPSAO PAULO                                         2017020927000010000000000080INTEGRACAO                                        0016016   2017030112004123700160160000580000000000000000000979194710449FRANCISCO C MELO                                            1                        1 2828121                           026010076094862279194710449   FRANCISCO DAS CHAGAS DE MELO                                370253                                                                                                                                                                                                                                                                                                           
15148527400015951485274000159C00297655501 85679                         85679                         1270016016201702095EBC3761 1 BRASIL                                            SPLIMEIRA                                           BRASIL                                            SPSAO PAULO                                         2017020927000012000000000096INTEGRACAO                                        0016016   2017030120200723700160160000590000000000000000000979194710449FRANCISCO C MELO                                            1                        1 2828474                           026010076094862279194710449   FRANCISCO DAS CHAGAS DE MELO                                388532                                                                                                                                                                                                                                                                                                           
15148527400015951485274000159C00297655501 85679                         85679                         1270016016201702095EBC3761 1 BRASIL                                            SPLIMEIRA                                           BRASIL                                            SPSAO PAULO                                         2017020927000002996000000024INTEGRACAO                                        0016016   2017030121400823700160160000600000000000000000000979194710449FRANCISCO C MELO                                            1                        1 2815503                           026010076094862279194710449   FRANCISCO DAS CHAGAS DE MELO                                389455                                                                                                                                                                                                                                                                                                           
15148527400015951485274000159C00297659681 85681                         85681                         1354822016201702095DBL5461 1 BRASIL                                            SPLIMEIRA                                           BRASIL                                            SPSAO PAULO                                         2017020927000006000000000048INTEGRACAO                                        4822016   2017030107400623748220160000610000000000000000000911014831806GILMAR F FREITAS                                            1                        1 2828000                           022010076307806211014831806   GILMAR FERREIRA DE FREITAS                                  362279                                                                                                                                                                                                                                                                                                           
15148527400015951485274000159C00297659681 85681                         85681                         1354822016201702095DBL5461 1 BRASIL                                            SPLIMEIRA                                           BRASIL                                            SPSAO PAULO                                         2017020927000008000000000064INTEGRACAO                                        4822016   2017030117301923748220160000620000000000000000000911014831806GILMAR F FREITAS                                            1                        1 2828382                           022010076307806211014831806   GILMAR FERREIRA DE FREITAS                                  383931                                                                                                                                                                                                                                                                                                           
15148527400015951485274000159C00297660671 85682                         85682                         1300557013201702095GZG1429 1 BRASIL                                            SPLIMEIRA                                           BRASIL                                            SPSAO PAULO                                         2017020927000021600000000173INTEGRACAO                                        0557013   2017030122000423705570130000630000000000000000000922141234824MARCEL G SILVA                                              1                        1 2828493                           026010076353576410624141870   GINO GRECO NETO                                             389701                                                                                                                                                                                                                                                                                                           
15148527400015951485274000159C00297666021 85685                         85685                         1413844019201702095DTE4881 1 BRASIL                                            SPLIMEIRA                                           BRASIL                                            SPSAO PAULO                                         2017020927000020000000000160INTEGRACAO                                        3844019   2017030112400323738440190000640000000000000000000912857993803HELCIO JOSE SILVA                                           1                        1 2828162                           025010076626150703520275848   IVA DAVID DE SOUZA                                          371059                                                                                                                                                                                                                                                                                                           
15148527400015951485274000159C00297667591 85686                         85686                         1442515014201702095EFV4023 1 BRASIL                                            SPLIMEIRA                                           BRASIL                                            SPSAO PAULO                                         2017020927000010000000000080INTEGRACAO                                        9219012   2017030107100923792190120000650000000000000000000433366426802IVO D S JR                                                  1                        1 2827989                           025010076688359333366426802   IVO DAVID DE SOUZA JUNIOR                                   362085                                                                                                                                                                                                                                                                                                           
15148527400015951485274000159C00297667591 85686                         85686                         1442515014201702095EFV4023 1 BRASIL                                            SPLIMEIRA                                           BRASIL                                            SPSAO PAULO                                         2017020927000002996000000024INTEGRACAO                                        9219012   2017030113202923792190120000660000000000000000000433366426802IVO D S JR                                                  1                        1 2815558                           025010076688359333366426802   IVO DAVID DE SOUZA JUNIOR                                   371803                                                                                                                                                                                                                                                                                                           
15148527400015951485274000159C00297668771 85687                         85687                         0618882012201702095IEQ3517 1 BRASIL                                            SPLIMEIRA                                           BRASIL                                            SPSAO PAULO                                         2017020927000050000000000400INTEGRACAO                                        7290010   2017030121200523772900100000670000000000000000000413129177841IVAN S NOVAIS                                               1                        1 2828465                           022010076755378213129177841   IVAN SOUSA NOVAIS                                           389148                                                                                                                                                                                                                                                                                                           
15148527400015951485274000159C00297670921 85689                         85689                         1005103041201702095KMB0284 1 BRASIL                                            SPLIMEIRA                                           BRASIL                                            SPSAO PAULO                                         2017020927000002996000000024INTEGRACAO                                        4152027   2017030115503623741520270000680000000000000000000404005100813JOAO S LIMA                                                 1                        1 2815575                           025010076872227404005100813   JOAO S LIMA                                                 378327                                                                                                                                                                                                                                                                                                           
15148527400015951485274000159C00297684551 85701                         85701                         1424457031201702095BTP1848 1 BRASIL                                            SPLIMEIRA                                           BRASIL                                            SPSAO PAULO                                         2017020927000002996000000024INTEGRACAO                                        4264038   2017030115503223742640380000690000000000000000000405381396848JOSE J DUARTE                                               1                        1 2815668                           024010077570047905381396848   jose jucledineide duarte                                    378373                                                                                                                                                                                                                                                                                                           
15148527400015951485274000159C00297686671 85703                         85703                         0135704016201702095BWC7689 1 BRASIL                                            SPLIMEIRA                                           BRASIL                                            SPSAO PAULO                                         2017020927000050000000000400INTEGRACAO                                        3565017   2017030122001123735650170000700000000000000000000409592597839JOSE R CLAUDIANO                                            1                        1 2828454                           025010077678663109592597839   JOSE ROBERTO CLAUDIANO                                      389706                                                                                                                                                                                                                                                                                                           
15148527400015951485274000159C00297687811 85704                         85704                         1422879028201702095EXO0437 1 BRASIL                                            SPLIMEIRA                                           BRASIL                                            SPSAO PAULO                                         2017020927000005000000000040INTEGRACAO                                        3139013   2017030109101023731390130000710000000000000000000459908572849JOSE WINKLER                                                1                        1 2828044                           028010077733916959908572849   jose winkler                                                364392                                                                                                                                                                                                                                                                                                           
15148527400015951485274000159C00297687811 85704                         85704                         1422879028201702095EXO0437 1 BRASIL                                            SPLIMEIRA                                           BRASIL                                            SPSAO PAULO                                         2017020927000002996000000024INTEGRACAO                                        3139013   2017030116010023731390130000720000000000000000000459908572849JOSE WINKLER                                                1                        1 2815679                           028010077733916959908572849   jose winkler                                                378962                                                                                                                                                                                                                                                                                                           
15148527400015951485274000159C00297690401 85705                         85705                         1354850017201702095AKN7535 1 BRASIL                                            SPLIMEIRA                                           BRASIL                                            SPSAO PAULO                                         2017020927000034400000000275INTEGRACAO                                        4850017   2017030101500323748500170000730000000000000000000928224784819JULIANO JAMES MELO                                          1                        1 2827845                           029010077836444728224784819   JULIANO JAMES DE MELO                                       360465                                                                                                                                                                                                                                                                                                           
15148527400015951485274000159C00297690401 85705                         85705                         1354850017201702095AKN7535 1 BRASIL                                            SPLIMEIRA                                           BRASIL                                            SPSAO PAULO                                         2017020927000034400000000275INTEGRACAO                                        4850017   2017030122400323748500170000740000000000000000000928224784819JULIANO JAMES MELO                                          1                        1 2828498                           029010077836444728224784819   JULIANO JAMES DE MELO                                       389945                                                                                                                                                                                                                                                                                                           
15148527400015951485274000159C00297690401 85705                         85705                         1354850017201702095AKN7535 1 BRASIL                                            SPLIMEIRA                                           BRASIL                                            SPSAO PAULO                                         2017020927000003500000000028INTEGRACAO                                        4850017   2017030122500423748500170000750000000000000000000928224784819JULIANO JAMES MELO                                          1                        1 2828501                           029010077836444728224784819   JULIANO JAMES DE MELO                                       389987                                                                                                                                                                                                                                                                                                           
15148527400015951485274000159C00297691761 85706                         85706                         1232541010201702095HQZ9423 1 BRASIL                                            SPLIMEIRA                                           BRASIL                                            SPSAO PAULO                                         2017020927000030000000000240INTEGRACAO                                        2541010   2017030101100423725410100000760000000000000000000932705101870LEANDRO N SANTOS                                            1                        1 2827811                           026010077890046432705101870   LEANDRO NEVES DOS SANTOS                                    360129                                                                                                                                                                                                                                                                                                           
15148527400015951485274000159C00297691761 85706                         85706                         1232541010201702095HQZ9423 1 BRASIL                                            SPLIMEIRA                                           BRASIL                                            SPSAO PAULO                                         2017020927000010000000000080INTEGRACAO                                        2541010   2017030117401423725410100000770000000000000000000932705101870LEANDRO N SANTOS                                            1                        1 2828390                           026010077890046432705101870   LEANDRO NEVES DOS SANTOS                                    384663                                                                                                                                                                                                                                                                                                           
15148527400015951485274000159C00297693051 85707                         85707                         1150345014201702095CZC7445 1 BRASIL                                            SPLIMEIRA                                           BRASIL                                            SPSAO PAULO                                         2017020927000010000000000080INTEGRACAO                                        0345014   2017030101300523703450140000780000000000000000000984732539815GERALDO DOMINGUES                                           1                        1 2827792                           020010077949493815851122838   LOURDES M DOMINGUES                                         360338                                                                                                                                                                                                                                                                                                           
15148527400015951485274000159C00297694041 85709                         85709                         0168775075201702095DAJ1291 1 BRASIL                                            SPLIMEIRA                                           BRASIL                                            SPSAO PAULO                                         2017020927000040000000000320INTEGRACAO                                        4149023   2017030110000623741490230000790000000000000000000400599411899HELENO J SILVA                                              1                        1 2828069                           022010077991785000599411899   HELENO JOSE DA SILVA                                        365792                                                                                                                                                                                                                                                                                                           
15148527400015951485274000159C00297697871 85716                         85716                         0730067015201702095BWK9895 1 BRASIL                                            SPLIMEIRA                                           BRASIL                                            SPSAO PAULO                                         2017020927000026000000000208INTEGRACAO                                        0067015   2017030102000723700670150000800000000000000000000939198273841LUIZ E CLEMENTE                                             1                        1 2827825                           020010078232879639198273841   LUIZ EDUARDO CLEMENTE                                       360475                                                                                                                                                                                                                                                                                                           
15148527400015951485274000159C00297697871 85716                         85716                         0730067015201702095BWK9895 1 BRASIL                                            SPLIMEIRA                                           BRASIL                                            SPSAO PAULO                                         2017020927000026000000000208INTEGRACAO                                        0067015   2017030115201823700670150000810000000000000000000939198273841LUIZ E CLEMENTE                                             1                        1 2828229                           020010078232879639198273841   LUIZ EDUARDO CLEMENTE                                       376739                                                                                                                                                                                                                                                                                                           
15148527400015951485274000159C00297706661 85727                         85727                         1232534015201702095DAH0547 1 BRASIL                                            SPLIMEIRA                                           BRASIL                                            SPSAO PAULO                                         2017020927000060000000000480INTEGRACAO                                        2534015   2017030102000423725340150000820000000000000000000909321222804MARCO A M C P BOSCH                                         1                        1 2827831                           027010078766354709321222804   Marco Alexandre Moreno Covre PS Bosch                       360404                                                                                                                                                                                                                                                                                                           
15148527400015951485274000159C00297706661 85727                         85727                         1232534015201702095DAH0547 1 BRASIL                                            SPLIMEIRA                                           BRASIL                                            SPSAO PAULO                                         2017020927000060000000000480INTEGRACAO                                        2534015   2017030115300723725340150000830000000000000000000909321222804MARCO A M C P BOSCH                                         1                        1 2828238                           027010078766354709321222804   Marco Alexandre Moreno Covre PS Bosch                       377482                                                                                                                                                                                                                                                                                                           
15148527400015951485274000159C00297708591 85728                         85728                         1435400014201702095AJY4232 1 BRASIL                                            SPLIMEIRA                                           BRASIL                                            SPSAO PAULO                                         2017020927000016500000000132INTEGRACAO                                        5402023   2017030103300223754020230000840000000000000000000409280206818ELIAS A JR                                                  1                        1 2827967                           020010078878257513762721807   Marco Serraglio rota 14                                     360931                                                                                                                                                                                                                                                                                                           
15148527400015951485274000159C00297751371 85731                         85731                         1270028011201702105DBC1477 1 BRASIL                                            SPLIMEIRA                                           BRASIL                                            SPSAO PAULO                                         2017021027000060000000000480INTEGRACAO                                        0028011   2017030119301423700280110000850000000000000000000925438502870MARIO C A BARBOZA                                           1                        1 2828334                           020010080800633825438502870   MARIO CELSO ASNAR BARBOZA                                   387839                                                                                                                                                                                                                                                                                                           
15148527400015951485274000159C00297751891 85732                         85732                         1393866016201702105FAO8370 1 BRASIL                                            SPLIMEIRA                                           BRASIL                                            SPSAO PAULO                                         2017021027000045000000000360INTEGRACAO                                        3866016   2017030101100723738660160000860000000000000000000980839908849MARIO L O GARCIA                                            1                        1 2827814                           027010080825710780839908849   MARIO LUIZ DE OLIVEIRA GARCIA                               360223                                                                                                                                                                                                                                                                                                           
15148527400015951485274000159C00297757471 85736                         85736                         1190452010201702105FRK5046 1 BRASIL                                            SPLIMEIRA                                           BRASIL                                            SPSAO PAULO                                         2017021027000012000000000096INTEGRACAO                                        0452010   2017030108001223704520100000870000000000000000000935082614843MICHEL R NACIMENTO                                          1                        1 2828009                           021010081069768735082614843   michel rodrigues do nacimento                               362399                                                                                                                                                                                                                                                                                                           
15148527400015951485274000159C00297757471 85736                         85736                         1190452010201702105FRK5046 1 BRASIL                                            SPLIMEIRA                                           BRASIL                                            SPSAO PAULO                                         2017021027000002996000000024INTEGRACAO                                        0452010   2017030115503123704520100000880000000000000000000935082614843MICHEL R NACIMENTO                                          1                        1 2816204                           021010081069768735082614843   michel rodrigues do nacimento                               378318                                                                                                                                                                                                                                                                                                           
15148527400015951485274000159C00297766061 85741                         85741                         0571220016201702105BXG3018 1 BRASIL                                            SPLIMEIRA                                           BRASIL                                            SPSAO PAULO                                         2017021027000050000000000400INTEGRACAO                                        4614012   2017030107300623746140120000890000000000000000000417559015859ORIAS L RIBEIRO                                             1                        1 2827997                           020010081437875917559015859   ORIAS LATIEL RIBEIRO                                        362215                                                                                                                                                                                                                                                                                                           
15148527400015951485274000159C00297766061 85741                         85741                         0571220016201702105BXG3018 1 BRASIL                                            SPLIMEIRA                                           BRASIL                                            SPSAO PAULO                                         2017021027000050000000000400INTEGRACAO                                        4614012   2017030121200323746140120000900000000000000000000417559015859ORIAS L RIBEIRO                                             1                        1 2828487                           020010081437875917559015859   ORIAS LATIEL RIBEIRO                                        389261                                                                                                                                                                                                                                                                                                           
15148527400015951485274000159C00297769281 85743                         85743                         1284238010201702105CTC3047 1 BRASIL                                            SPLIMEIRA                                           BRASIL                                            SPSAO PAULO                                         2017021027000015000000000120INTEGRACAO                                        4238010   2017030101300323742380100000910000000000000000000908830101869OSVALDO OLIVEIRA JR                                         1                        1 2827789                           020010081593244708830101869   OSVALDO DE OLIVEIRA JUNIOR                                  360333                1121730507                                                                                                                                                                                                                                                                                 
15148527400015951485274000159C00297771181 85745                         85745                         1232527019201702105EFW8894 1 BRASIL                                            SPLIMEIRA                                           BRASIL                                            SPSAO PAULO                                         2017021027000003000000000024INTEGRACAO                                        2527019   2017030110400423725270190000920000000000000000000925536480812PAULO SILVA NEVES                                           1                        1 2828088                           025010081699241225536480812   PAULO DA SILVA NEVES                                        366815                                                                                                                                                                                                                                                                                                           
15148527400015951485274000159C00297772721 85746                         85746                         0830296019201702105BFZ7446 1 BRASIL                                            SPLIMEIRA                                           BRASIL                                            SPSAO PAULO                                         2017021027000040000000000320INTEGRACAO                                        0296019   2017030102100323702960190000930000000000000000002371986405834PEDRO FERREIRA                                              1                        1 2827848             11843123000100021010081781752511843123000100PEDRO FERREIRA TRANSPORTES ME                               360597                                                                                                                                                                                                                                                                                                           
15148527400015951485274000159C00297777081 85748                         85748                         1301531017201702105BWU5318 1 BRASIL                                            SPLIMEIRA                                           BRASIL                                            SPSAO PAULO                                         2017021027000060000000000480INTEGRACAO                                        1531017   2017030121200223715310170000940000000000000000000937122324893RAFAEL SILVA TORRES                                         1                        1 2828448                           026010082014590937122324893   RAFAEL DA SILVA TORRES                                      389259                                                                                                                                                                                                                                                                                                           
15148527400015951485274000159C00297779511 85750                         85750                         1232533017201702105BWU4446 1 BRASIL                                            SPLIMEIRA                                           BRASIL                                            SPSAO PAULO                                         2017021027000070000000000560INTEGRACAO                                        2533017   2017030117312123725330170000950000000000000000000931469034824RAFAEL F E ALVES                                            1                        1 2828369                           021010082115439931469034824   RAFAEL FERNANDO ESBRICE ALVES                               384158                                                                                                                                                                                                                                                                                                           
15148527400015951485274000159C00297809231 85754                         85754                         1037172011201702105DBM1220 1 BRASIL                                            SPLIMEIRA                                           BRASIL                                            SPSAO PAULO                                         2017021027000135000000001080INTEGRACAO                                        7172011   2017030111101823771720110000960000000000000000000927752405850WILLIANS R BORGES                                           1                        1 2828096                           028010083475406018212504867   REGINALDO CARVALHO                                          368199                                                                                                                                                                                                                                                                                                           
15148527400015951485274000159C00297809761 85755                         85755                         1293049010201702105DBL1051 1 BRASIL                                            SPLIMEIRA                                           BRASIL                                            SPSAO PAULO                                         2017021027000135000000001080INTEGRACAO                                        3049010   2017030101300423730490100000970000000000000000000918212504867REGINALDO CARVALHO                                          1                        1 2827822                           029010083502839318212504867   REGINALDO CARVALHO                                          360335                                                                                                                                                                                                                                                                                                           
15148527400015951485274000159C00297810501 85756                         85756                         1393872014201702105DPE7073 1 BRASIL                                            SPLIMEIRA                                           BRASIL                                            SPSAO PAULO                                         2017021027000060000000000480INTEGRACAO                                        3872014   2017030121200423738720140000980000000000000000000907880653864REINALDO L OLIVEIRA                                         1                        1 2828479                           027010083541387507880653864   REINALDO L OLIVEIRA                                         389262                                                                                                                                                                                                                                                                                                           
15148527400015951485274000159C00297811921 85759                         85759                         1270011017201702105DDY4684 1 BRASIL                                            SPLIMEIRA                                           BRASIL                                            SPSAO PAULO                                         2017021027000040000000000320INTEGRACAO                                        0011017   2017030102000423700110170000990000000000000000000914989733886REYNALDO BENATTI FL                                         1                        1 2827828                           024010083651060814989733886   REYNALDO BENATTI FL                                         360473                                                                                                                                                                                                                                                                                                           
