020170321                                                                                                                                                                                                                                                                                                                                                                                                                                                      000001                                                                                                                                                                                                                                                                                                                                                                                                                                                                                                                                                                   
15148527400015951485274000159C00287988691 222062                        84327                         1265307023201612065DPE7514 1 BRASIL                                            SPLIMEIRA                                           BRASIL                                            SPSAO PAULO                                         2016120627000003321000000027INTEGRACAO                                        4605028   2017022410015623746050280000020000000000000000000433725034818MATEUS H ROSA                                               1                        3 2826295                           028009613787483733725034818   Mateus Hergert Rosa                                         286551                                                                                                                                                                                                                                                                                                           
15148527400015951485274000159C00288559931 23698                         84409                         1329621014201612095FEI4293 1 BRASIL                                            SPLIMEIRA                                           BRASIL                                            SPSAO PAULO                                         2016120927000684157000005473INTEGRACAO                                        9621014   2017022410003223796210140000030000000000000000000934501205814DIEGO Q ALMEIDA                                             1                        3 2826297                           027009643474764634501205814   DIEGO Q ALMEIDA                                             286329                                                                                                                                                                                                                                                                                                           
15148527400015951485274000159C00291932871 225046                        84946                         1270030017201701025BSG8630 1 BRASIL                                            SPLIMEIRA                                           BRASIL                                            SPSAO PAULO                                         2017010227000020000000000160INTEGRACAO                                        0030017   2017022409312823700300170000040000000000000000000904123788840SALVADOR A TESTA                                            1                        1 2826213                           028009807474681904123788840   SALVADOR APARECIDO TESTA                                    285194                                                                                                                                                                                                                                                                                                           
15148527400015951485274000159C00291932871 225046                        84946                         1270030017201701025BSG8630 1 BRASIL                                            SPLIMEIRA                                           BRASIL                                            SPSAO PAULO                                         2017010227000150000000001200INTEGRACAO                                        0030017   2017022421400523700300170000050000000000000000000904123788840SALVADOR A TESTA                                            1                        1 2826968                           028009807474681904123788840   SALVADOR APARECIDO TESTA                                    313962                                                                                                                                                                                                                                                                                                           
15148527400015951485274000159C00292015501 225044                        84949                         0115556134201701035MRW9411 1 BRASIL                                            SPLIMEIRA                                           BRASIL                                            SPSAO PAULO                                         2017010327000180000000001440INTEGRACAO                                        4161028   2017022418021523741610280000060000000000000000000462331167915LUIZ C MANZINI                                              1                        1 2826891                           024009811524086862331167915   Luiz Cassio Manzini                                         309557                                                                                                                                                                                                                                                                                                           
15148527400015951485274000159C00292036051 24932                         84953                         1413838011201701035DBC1203 1 BRASIL                                            SPLIMEIRA                                           BRASIL                                            SPSAO PAULO                                         2017010327000050000000000400INTEGRACAO                                        3838011   2017022412200423738380110000070000000000000000000910065639898MARIO A K SEVDALIS                                          1                        1 2826576                           029009812432706610065639898   MARIO ANTONIO KILO SEVDALIS                                 292364                                                                                                                                                                                                                                                                                                           
15148527400015951485274000159C00292173541 55922                         84956                         0453365050201701045KQC9415 1 BRASIL                                            SPLIMEIRA                                           BRASIL                                            SPSAO PAULO                                         2017010427000019200000000154INTEGRACAO                                        4125023   2017022408101023741250230000080000000000000000000406225606890ADEVALDO OLIVEIRA                                           1                        1 2825926                           025009818515815906225606890   Adevaldo de Oliveira Junior                                 281874                                                                                                                                                                                                                                                                                                           
15148527400015951485274000159C00292174771 55884                         84957                         1232537018201701045CZC2654 1 BRASIL                                            SPLIMEIRA                                           BRASIL                                            SPSAO PAULO                                         2017010427000013200000000106INTEGRACAO                                        2537018   2017022413100523725370180000090000000000000000000909132633890CELSO G DONADEL                                             1                        1 2826552                           023009818583766009132633890   CELSO GUILHERME DONADEL                                     293244                                                                                                                                                                                                                                                                                                           
15148527400015951485274000159C00292181091 55882                         84958                         1483045014201701045BWY0827 1 BRASIL                                            SPLIMEIRA                                           BRASIL                                            SPSAO PAULO                                         2017010427000016800000000134INTEGRACAO                                        2262012   2017022407400423722620120000100000000000000000000480050913891CLEIDO N MELO                                               1                        1 2825952                           023009818899099680050913891   CLEIDO N MELO                                               281402                                                                                                                                                                                                                                                                                                           
15148527400015951485274000159C00292207121 224680                        84961                         1413850016201701045DPE7284 1 BRASIL                                            SPLIMEIRA                                           BRASIL                                            SPSAO PAULO                                         2017010427000200000000001600INTEGRACAO                                        3850016   2017022412501323738500160000110000000000000000000902046357990ROGERIO AUGUSTO                                             1                        1 2826595                           026009820141649402046357990   ROGERIO AUGUSTO                                             292839                                                                                                                                                                                                                                                                                                           
15148527400015951485274000159C00292239391 55918                         84963                         1380574011201701045DBC0563 1 BRASIL                                            SPLIMEIRA                                           BRASIL                                            SPSAO PAULO                                         2017010427000016800000000134INTEGRACAO                                        0574011   2017022407400323705740110000120000000000000000000911294422847SEVERINO J SANTOS                                           1                        1 2825897                           027009821890844111294422847   SEVERINO JOAO DOS SANTOS                                    281401                                                                                                                                                                                                                                                                                                           
15148527400015951485274000159C00292261721 223433                        84969                         0830312014201701045ODA6686 1 BRASIL                                            SPLIMEIRA                                           BRASIL                                            SPSAO PAULO                                         2017010427000035000000000280INTEGRACAO                                        0312014   2017022417402023703120140000130000000000000000002301630963844DOMINGOS EDUARDO BRUZASCO                                   1                        1 2826723             14173244000180022009823033536314173244000180TRANSPORTADORA BRUZASCO LTDA ME                             307961                                                                                                                                                                                                                                                                                                           
15148527400015951485274000159C00292358971 25182                         84984                         0259427118201701055CZC2418 1 BRASIL                                            SPLIMEIRA                                           BRASIL                                            SPSAO PAULO                                         2017010527000025000000000200INTEGRACAO                                        4180028   2017022409301123741800280000140000000000000000000400381848850SEBASTIAO T B NT                                            1                        1 2826220                           028009828023898800381848850   SEBASTIAO TEIXEIRA BARBOSA NETO                             284879                                                                                                                                                                                                                                                                                                           
15148527400015951485274000159C00292358971 25182                         84984                         0259427118201701055CZC2418 1 BRASIL                                            SPLIMEIRA                                           BRASIL                                            SPSAO PAULO                                         2017010527000230000000001840INTEGRACAO                                        4180028   2017022420100923741800280000150000000000000000000400381848850SEBASTIAO T B NT                                            1                        1 2826948                           028009828023898800381848850   SEBASTIAO TEIXEIRA BARBOSA NETO                             312827                                                                                                                                                                                                                                                                                                           
15148527400015951485274000159C00292371111 223384                        84986                         1393874010201701055BWB9478 1 BRASIL                                            SPLIMEIRA                                           BRASIL                                            SPSAO PAULO                                         2017010527000005000000000040INTEGRACAO                                        3874010   2017022405202923738740100000160000000000000000000901642228800CLAUDEMIR QUESSADA                                          1                        1 2825990                           020009828649867301642228800   CLAUDEMIR QUESSADA                                          280462                                                                                                                                                                                                                                                                                                           
15148527400015951485274000159C00292371111 223384                        84986                         1393874010201701055BWB9478 1 BRASIL                                            SPLIMEIRA                                           BRASIL                                            SPSAO PAULO                                         2017010527000008000000000064INTEGRACAO                                        3874010   2017022413101123738740100000170000000000000000000901642228800CLAUDEMIR QUESSADA                                          1                        1 2826643                           020009828649867301642228800   CLAUDEMIR QUESSADA                                          293355                                                                                                                                                                                                                                                                                                           
15148527400015951485274000159C00292402031 24949                         84992                         1380569011201701055BTR1378 1 BRASIL                                            SPLIMEIRA                                           BRASIL                                            SPSAO PAULO                                         2017010527000050000000000400INTEGRACAO                                        0569011   2017022419301523705690110000180000000000000000000901653338806CLEUCIO A SILVA                                             1                        1 2826929                           026009830201146301653338806   CLEUCIO APARECIDO DA SILVA                                  312151                                                                                                                                                                                                                                                                                                           
15148527400015951485274000159C00292404321 36195                         84994                         1354824012201701055CYN2539 1 BRASIL                                            SPLIMEIRA                                           BRASIL                                            SPSAO PAULO                                         2017010527000035000000000280INTEGRACAO                                        4824012   2017022419001423748240120000190000000000000000000922072474817CLEBER T B SANTOS                                           1                        1 2826920                           029009830308431922072474817   CLEBER TRAVEZANI BOSGES DOS SANTOS                          311409                                                                                                                                                                                                                                                                                                           
15148527400015951485274000159C00292409411 36201                         84998                         1167195014201701055CLU3364 1 BRASIL                                            SPLIMEIRA                                           BRASIL                                            SPSAO PAULO                                         2017010527000010000000000080INTEGRACAO                                        7195014   2017022409501623771950140000200000000000000000000955543014791NIWTON BONIFACIO                                            1                        1 2826277                           023009830580227055543014791   NIWTON BONIFACIO                                            286009                                                                                                                                                                                                                                                                                                           
15148527400015951485274000159C00292409411 36201                         84998                         1167195014201701055CLU3364 1 BRASIL                                            SPLIMEIRA                                           BRASIL                                            SPSAO PAULO                                         2017010527000010000000000080INTEGRACAO                                        7195014   2017022418201023771950140000210000000000000000000955543014791NIWTON BONIFACIO                                            1                        1 2826898                           023009830580227055543014791   NIWTON BONIFACIO                                            310375                                                                                                                                                                                                                                                                                                           
15148527400015951485274000159C00292430141 10991                         85001                         1424279028201701055ELQ7472 1 BRASIL                                            SPLIMEIRA                                           BRASIL                                            SPSAO PAULO                                         2017010527000010000000000080INTEGRACAO                                        4203028   2017022412300423742030280000220000000000000000000436497274804AURINO M FERREIRA                                           1                        1 2826580                           027009831573697136497274804   AURINO MAIA FERREIRA                                        292500                                                                                                                                                                                                                                                                                                           
15148527400015951485274000159C00292430141 10991                         85001                         1424279028201701055ELQ7472 1 BRASIL                                            SPLIMEIRA                                           BRASIL                                            SPSAO PAULO                                         2017010527000003000000000024INTEGRACAO                                        4203028   2017022413301723742030280000230000000000000000000436497274804AURINO M FERREIRA                                           1                        1 2826684                           027009831573697136497274804   AURINO MAIA FERREIRA                                        293646                                                                                                                                                                                                                                                                                                           
15148527400015951485274000159C00292440161 10998                         85005                         1442515014201701055EFV4023 1 BRASIL                                            SPLIMEIRA                                           BRASIL                                            SPSAO PAULO                                         2017010527000010000000000080INTEGRACAO                                        9219012   2017022408202323792190120000240000000000000000000433366426802IVO D S JR                                                  1                        1 2826051                           029009831992708933366426802   IVO DAVID DE SOUZA JUNIOR                                   282296                                                                                                                                                                                                                                                                                                           
15148527400015951485274000159C00292446511 10997                         85009                         1422879028201701055EXO0437 1 BRASIL                                            SPLIMEIRA                                           BRASIL                                            SPSAO PAULO                                         2017010527000012000000000096INTEGRACAO                                        3139013   2017022409102223731390130000250000000000000000000459908572849JOSE WINKLER                                                1                        1 2826148                           022009832184239959908572849   jose winkler                                                283953                                                                                                                                                                                                                                                                                                           
15148527400015951485274000159C00292446511 10997                         85009                         1422879028201701055EXO0437 1 BRASIL                                            SPLIMEIRA                                           BRASIL                                            SPSAO PAULO                                         2017010527000012000000000096INTEGRACAO                                        3139013   2017022418013623731390130000260000000000000000000459908572849JOSE WINKLER                                                1                        1 2826884                           022009832184239959908572849   jose winkler                                                309314                                                                                                                                                                                                                                                                                                           
15148527400015951485274000159C00292446861 91474                         85010                         1232527019201701055EFW8894 1 BRASIL                                            SPLIMEIRA                                           BRASIL                                            SPSAO PAULO                                         2017010527000005000000000040INTEGRACAO                                        2527019   2017022407200323725270190000270000000000000000000925536480812PAULO SILVA NEVES                                           1                        1 2826013                           025009832210900525536480812   PAULO DA SILVA NEVES                                        281133                                                                                                                                                                                                                                                                                                           
15148527400015951485274000159C00292446861 91474                         85010                         1232527019201701055EFW8894 1 BRASIL                                            SPLIMEIRA                                           BRASIL                                            SPSAO PAULO                                         2017010527000008000000000064INTEGRACAO                                        2527019   2017022413502623725270190000280000000000000000000925536480812PAULO SILVA NEVES                                           1                        1 2826698                           025009832210900525536480812   PAULO DA SILVA NEVES                                        294477                                                                                                                                                                                                                                                                                                           
15148527400015951485274000159C00292450461 10970                         85013                         1380568013201701055ETG0129 1 BRASIL                                            SPLIMEIRA                                           BRASIL                                            SPSAO PAULO                                         2017010527000012000000000096INTEGRACAO                                        0568013   2017022409310723705680130000290000000000000000000928905683851VENICIUS B CARVALHO                                         1                        1 2826216                           028009832317469328905683851   VENICIUS BORGES DE CARVALHO                                 285062                                                                                                                                                                                                                                                                                                           
15148527400015951485274000159C00292511131 36187                         84999                         1424446030201701065BXE8476 1 BRASIL                                            SPLIMEIRA                                           BRASIL                                            SPSAO PAULO                                         2017010627000024000000000192INTEGRACAO                                        4259038   2017022417311223742590380000300000000000000000000407418559844VANDERLEI A SANAVIO                                         1                        1 2826870                           024009835233872707418559844   VANDERLEI ANTONIO SANAVIO                                   307391                                                                                                                                                                                                                                                                                                           
15148527400015951485274000159C00292637591 7212                          85017                         0227011017201701065EFO8333 1 BRASIL                                            SPLIMEIRA                                           BRASIL                                            SPSAO PAULO                                         2017010627000100000000000800INTEGRACAO                                        4458014   2017022401003623744580140000310000000000000000000426307445823ABEL C METZNER                                              1                        1 2825459                           026009840460543826307445823   ABEL C METZNER                                              279377                                                                                                                                                                                                                                                                                                           
15148527400015951485274000159C00292638801 9467                          85018                         1380258011201701065DNA8151 1 BRASIL                                            SPLIMEIRA                                           BRASIL                                            SPSAO PAULO                                         2017010627000012500000000100INTEGRACAO                                        0258011   2017022401300423702580110000320000000000000000002306746863816VICTOR ALBERTO GANDRA BRAZ                                  1                        1 2825956             21028404000163020009840509856321028404000163A T TRANSPORTES EIRELI ME                                   279784                                                                                                                                                                                                                                                                                                           
15148527400015951485274000159C00292638801 9467                          85018                         1380258011201701065DNA8151 1 BRASIL                                            SPLIMEIRA                                           BRASIL                                            SPSAO PAULO                                         2017010627000012500000000100INTEGRACAO                                        0258011   2017022401300523702580110000330000000000000000002306746863816VICTOR ALBERTO GANDRA BRAZ                                  1                        1 2825959             21028404000163020009840509856321028404000163A T TRANSPORTES EIRELI ME                                   279788                                                                                                                                                                                                                                                                                                           
15148527400015951485274000159C00292638801 9467                          85018                         1380258011201701065DNA8151 1 BRASIL                                            SPLIMEIRA                                           BRASIL                                            SPSAO PAULO                                         2017010627000049000000000392INTEGRACAO                                        0258011   2017022420400423702580110000340000000000000000002306746863816VICTOR ALBERTO GANDRA BRAZ                                  1                        1 2826956             21028404000163020009840509856321028404000163A T TRANSPORTES EIRELI ME                                   313238                                                                                                                                                                                                                                                                                                           
15148527400015951485274000159C00292641391 106307                        85020                         1465294015201701065DTV5919 1 BRASIL                                            SPLIMEIRA                                           BRASIL                                            SPSAO PAULO                                         2017010627000008000000000064INTEGRACAO                                        6430016   2017022401300223764300160000350000000000000000000406947120861ADAO R MOURA                                                1                        1 2825943                           021009840636660106947120861   ADAO RODRIGUES DE MOURA                                     279781                                                                                                                                                                                                                                                                                                           
15148527400015951485274000159C00292643361 9360                          85021                         1167178010201701065AJJ3207 1 BRASIL                                            SPLIMEIRA                                           BRASIL                                            SPSAO PAULO                                         2017010627000018000000000144INTEGRACAO                                        7178010   2017022404200423771780100000360000000000000000000977805178887ADEMAR N SOUZA                                              1                        1 2825987                           026009840733325277805178887   ADEMAR N SOUZA                                              280366                                                                                                                                                                                                                                                                                                           
15148527400015951485274000159C00292643361 9360                          85021                         1167178010201701065AJJ3207 1 BRASIL                                            SPLIMEIRA                                           BRASIL                                            SPSAO PAULO                                         2017010627000010000000000080INTEGRACAO                                        7178010   2017022413402223771780100000370000000000000000000977805178887ADEMAR N SOUZA                                              1                        1 2826691                           026009840733325277805178887   ADEMAR N SOUZA                                              294075                                                                                                                                                                                                                                                                                                           
15148527400015951485274000159C00292645751 1984                          85022                         0210586067201701065ESU5447 1 BRASIL                                            SPLIMEIRA                                           BRASIL                                            SPSAO PAULO                                         2017010627000090000000000720INTEGRACAO                                        2265015   2017022401300523722650150000380000000000000000000426743368890ADENILSON P CRUZ                                            1                        1 2825972                           021009840844339526743368890   Adenilson Pereira da Cruz                                   279786                                                                                                                                                                                                                                                                                                           
15148527400015951485274000159C00292790151 7192                          85029                         1413848010201701095AEY5232 1 BRASIL                                            SPLIMEIRA                                           BRASIL                                            SPSAO PAULO                                         2017010927000090000000000720INTEGRACAO                                        3848010   2017022415402123738480100000390000000000000000000918767821880ALESSANDRO MESSIAS                                          1                        1 2826799                           025009847914430918767821880   ALESSANDRO DONIZETI MESSIAS                                 299406                                                                                                                                                                                                                                                                                                           
15148527400015951485274000159C00292806741 19631                         85041                         1424286024201701095AAL3952 1 BRASIL                                            SPLIMEIRA                                           BRASIL                                            SPSAO PAULO                                         2017010927000067920000000543INTEGRACAO                                        4206021   2017022408104723742060210000400000000000000000000401653786892CLAUDIO A SILVA                                             1                        1 2825789                           028009848667677501653786892   CLAUDIO APARECIDO DA SILVA                                  281926                                                                                                                                                                                                                                                                                                           
15148527400015951485274000159C00292807281 176734                        85042                         0515279032201701095BTA1930 1 BRASIL                                            SPLIMEIRA                                           BRASIL                                            SPSAO PAULO                                         2017010927000009780000000078INTEGRACAO                                        4132029   2017022412000723741320290000410000000000000000000419178597838CLAUDIO A S GODOY                                           1                        1 2822718                           026009848687852119178597838   CLAUDIO APARECIDO DE SOUZA GODOY                            291682                                                                                                                                                                                                                                                                                                           
15148527400015951485274000159C00292807281 176734                        85042                         0515279032201701095BTA1930 1 BRASIL                                            SPLIMEIRA                                           BRASIL                                            SPSAO PAULO                                         2017010927000024180000000193INTEGRACAO                                        4132029   2017022412001223741320290000420000000000000000000419178597838CLAUDIO A S GODOY                                           1                        1 2825792                           026009848687852119178597838   CLAUDIO APARECIDO DE SOUZA GODOY                            291693                                                                                                                                                                                                                                                                                                           
15148527400015951485274000159C00292807281 176734                        85042                         0515279032201701095BTA1930 1 BRASIL                                            SPLIMEIRA                                           BRASIL                                            SPSAO PAULO                                         2017010927000002996000000024INTEGRACAO                                        4132029   2017022415204523741320290000430000000000000000000419178597838CLAUDIO A S GODOY                                           1                        1 2793788                           026009848687852119178597838   CLAUDIO APARECIDO DE SOUZA GODOY                            298380                                                                                                                                                                                                                                                                                                           
15148527400015951485274000159C00292809351 5931                          85043                         1354832015201701095FGG9920 1 BRASIL                                            SPLIMEIRA                                           BRASIL                                            SPSAO PAULO                                         2017010927000015000000000120INTEGRACAO                                        4832015   2017022413503323748320150000440000000000000000000975214180853CLAUDIO A SIQUEIRA                                          1                        1 2826709                           023009848778611975214180853   CLAUDIO APARECIDO DO VALE SIQUEIRA                          294488                                                                                                                                                                                                                                                                                                           
15148527400015951485274000159C00292816751 24966                         85046                         1380566017201701095DBC0658 1 BRASIL                                            SPLIMEIRA                                           BRASIL                                            SPSAO PAULO                                         2017010927000015000000000120INTEGRACAO                                        0566017   2017022413503323705660170000450000000000000000000901608523829AMILTON AMANCIO                                             1                        1 2826707                           025009849079152628797204862   ALEX HUMBERTO GERALDO DOS SANTOS                            294489                                                                                                                                                                                                                                                                                                           
15148527400015951485274000159C00292827221 9464                          85048                         1329622012201701095ENV1118 1 BRASIL                                            SPLIMEIRA                                           BRASIL                                            SPSAO PAULO                                         2017010927000010000000000080INTEGRACAO                                        9622012   2017022411501223796220120000460000000000000000000953986199853PAULO ALVARENGA                                             1                        1 2826547                           029009849548740353986199853   PAULO ALVARENGA                                             291461                                                                                                                                                                                                                                                                                                           
15148527400015951485274000159C00292833431 106201                        85052                         1167190015201701095EGM4923 1 BRASIL                                            SPLIMEIRA                                           BRASIL                                            SPSAO PAULO                                         2017010927000007000000000056INTEGRACAO                                        7190015   2017022413402023771900150000470000000000000000000915629694472DARIO FERNANDES                                             1                        1 2826688                           021009849849663615629694472   DARIO FERNANDES                                             294040                                                                                                                                                                                                                                                                                                           
15148527400015951485274000159C00292848831 20039                         85054                         1297713031201701095BXG8144 1 BRASIL                                            SPLIMEIRA                                           BRASIL                                            SPSAO PAULO                                         2017010927000068460000000548INTEGRACAO                                        4137028   2017022416113723741370280000480000000000000000000435108828810DIEGO GUADAGNINI                                            1                        1 2825850                           028009850537266035108828810   DIEGO GUADAGNINI                                            301881                                                                                                                                                                                                                                                                                                           
15148527400015951485274000159C00292855691 176786                        85061                         0968974041201701095DBC0547 1 BRASIL                                            SPLIMEIRA                                           BRASIL                                            SPSAO PAULO                                         2017010927000050000000000400INTEGRACAO                                        4138026   2017022421101123741380260000490000000000000000000453228057615DONIZETTI REZENDE                                           1                        1 2826904                           021009850885598953228057615   DONIZETTI REZENDE                                           313616                                                                                                                                                                                                                                                                                                           
15148527400015951485274000159C00292858051 11083                         85063                         1329626013201701095JJZ3162 1 BRASIL                                            SPLIMEIRA                                           BRASIL                                            SPSAO PAULO                                         2017010927000050000000000400INTEGRACAO                                        9626013   2017022421001523796260130000500000000000000000000906192398836DORIVAL FELICIO                                             1                        1 2826895                           020009850980427506192398836   DORIVAL FELICIO                                             313499                                                                                                                                                                                                                                                                                                           
15148527400015951485274000159C00292858171 176924                        85064                         1393869010201701095GOA4922 1 BRASIL                                            SPLIMEIRA                                           BRASIL                                            SPSAO PAULO                                         2017010927000090000000000720INTEGRACAO                                        3869010   2017022415301523738690100000510000000000000000000937093675816EDUARDO O TEODORO                                           1                        1 2826752                           021009850989713737093675816   EDUARDO DE OLIVEIRA TEODORO                                 298857                                                                                                                                                                                                                                                                                                           
15148527400015951485274000159C00292864221 24955                         85065                         0584519061201701095MCY2826 1 BRASIL                                            SPLIMEIRA                                           BRASIL                                            SPSAO PAULO                                         2017010927000020000000000160INTEGRACAO                                        1669015   2017022410203723716690150000520000000000000000000411011339889REGINALDO OLIVEIRA                                          1                        1 2826353                           025009851265323311011339889   REGINALDO BENEDITO DE OLIVEIRA                              287489                                                                                                                                                                                                                                                                                                           
15148527400015951485274000159C00292864221 24955                         85065                         0584519061201701095MCY2826 1 BRASIL                                            SPLIMEIRA                                           BRASIL                                            SPSAO PAULO                                         2017010927000150000000001200INTEGRACAO                                        1669015   2017022421400623716690150000530000000000000000000411011339889REGINALDO OLIVEIRA                                          1                        1 2826985                           025009851265323311011339889   REGINALDO BENEDITO DE OLIVEIRA                              313912                                                                                                                                                                                                                                                                                                           
15148527400015951485274000159C00292874051 105668                        85069                         0830350014201701095DPB7675 1 BRASIL                                            SPLIMEIRA                                           BRASIL                                            SPSAO PAULO                                         2017010927000120000000000960INTEGRACAO                                        0350014   2017022420500623703500140000540000000000000000002326491412806EDVALDO RICHITTA                                            1                        1 2826959             07414374000100021009851696321407414374000100EDVALDO RICHITTA TRANSPORTES ME                             313333                                                                                                                                                                                                                                                                                                           
15148527400015951485274000159C00292876421 25029                         85071                         0830350014201701095HBZ5412 1 BRASIL                                            SPLIMEIRA                                           BRASIL                                            SPSAO PAULO                                         2017010927000140000000001120INTEGRACAO                                        0350014   2017022417411223703500140000550000000000000000002326491412806EDVALDO RICHITTA                                            1                        1 2826855             07414374000100029009851800826307414374000100EDVALDO RICHITTA TRANSPORTES ME                             308116                                                                                                                                                                                                                                                                                                           
15148527400015951485274000159C00292884391 19741                         85074                         1435394019201701095CKD8956 1 BRASIL                                            SPLIMEIRA                                           BRASIL                                            SPSAO PAULO                                         2017010927000077700000000622INTEGRACAO                                        5394019   2017022408200723753940190000560000000000000000000933114352812FABRICIO R ANDRADE                                          1                        1 2825853                           025009852057041933114352812   FABRICIO RANULFO ANDRADE                                    282351                                                                                                                                                                                                                                                                                                           
15148527400015951485274000159C00292884391 19741                         85074                         1435394019201701095CKD8956 1 BRASIL                                            SPLIMEIRA                                           BRASIL                                            SPSAO PAULO                                         2017010927000024180000000193INTEGRACAO                                        5394019   2017022408201723753940190000570000000000000000000933114352812FABRICIO R ANDRADE                                          1                        1 2822732                           025009852057041933114352812   FABRICIO RANULFO ANDRADE                                    282361                                                                                                                                                                                                                                                                                                           
15148527400015951485274000159C00292888591 9470                          85076                         1270016016201701095EBC3761 1 BRASIL                                            SPLIMEIRA                                           BRASIL                                            SPSAO PAULO                                         2017010927000010000000000080INTEGRACAO                                        0016016   2017022409314023700160160000580000000000000000000979194710449FRANCISCO C MELO                                            1                        1 2826180                           026009852212398779194710449   FRANCISCO DAS CHAGAS DE MELO                                285112                                                                                                                                                                                                                                                                                                           
15148527400015951485274000159C00292888591 9470                          85076                         1270016016201701095EBC3761 1 BRASIL                                            SPLIMEIRA                                           BRASIL                                            SPSAO PAULO                                         2017010927000005000000000040INTEGRACAO                                        0016016   2017022416203623700160160000590000000000000000000979194710449FRANCISCO C MELO                                            1                        1 2826816                           026009852212398779194710449   FRANCISCO DAS CHAGAS DE MELO                                302362                                                                                                                                                                                                                                                                                                           
15148527400015951485274000159C00292890461 19635                         85079                         1469858010201701095BXG6044 1 BRASIL                                            SPLIMEIRA                                           BRASIL                                            SPSAO PAULO                                         2017010927000097260000000778INTEGRACAO                                        3601010   2017022408104223736010100000600000000000000000000437582030826GUSTAVO O MOTTA                                             1                        1 2825856                           021009852295831037582030826   GUSTAVO OLIVEIRA DA MOTTA                                   282006                                                                                                                                                                                                                                                                                                           
15148527400015951485274000159C00292896001 177477                        85084                         1413853010201701095IHC4035 1 BRASIL                                            SPLIMEIRA                                           BRASIL                                            SPSAO PAULO                                         2017010927000019560000000156INTEGRACAO                                        3853010   2017022414000923738530100000610000000000000000000902220783839JOSE PEDRO DA SILVA                                         1                        1 2825859                           028009852579875402220783839   JOSE PEDRO DA SILVA                                         294808                                                                                                                                                                                                                                                                                                           
15148527400015951485274000159C00292896861 107540                        85085                         0410222019201701095BTA9444 1 BRASIL                                            SPLIMEIRA                                           BRASIL                                            SPSAO PAULO                                         2017010927000002996000000024INTEGRACAO                                        9220010   2017022414404523792200100000620000000000000000000477567269872JEIJO HIGA                                                  1                        1 2794161                           020009852620660277567269872   JEIJO HIGA                                                  296367                                                                                                                                                                                                                                                                                                           
15148527400015951485274000159C00292900521 19925                         85091                         1167181014201701095BTP1488 1 BRASIL                                            SPLIMEIRA                                           BRASIL                                            SPSAO PAULO                                         2017010927000067920000000543INTEGRACAO                                        7181014   2017022416105523771810140000630000000000000000000911487698895JOSE C PEREIRA                                              1                        1 2825862                           027009852754314518021178000184CARLOS FELIPE GUEDES TRANSPORTES ME                         301636                                                                                                                                                                                                                                                                                                           
15148527400015951485274000159C00292914711 223394                        85096                         1354828013201701095BIX9164 1 BRASIL                                            SPLIMEIRA                                           BRASIL                                            SPSAO PAULO                                         2017010927000014600000000117INTEGRACAO                                        4828013   2017022408105423748280130000640000000000000000000935690400890KLEYTON S V AH                                              1                        1 2826016                           027009853249516035690400890   KLEYTON SANTANA VON AH                                      282019                                                                                                                                                                                                                                                                                                           
15148527400015951485274000159C00292926011 9460                          85100                         0198302074201701095CQH6140 1 BRASIL                                            SPLIMEIRA                                           BRASIL                                            SPSAO PAULO                                         2017010927000010000000000080INTEGRACAO                                        4158024   2017022406100323741580240000650000000000000000000405339142809LUCIANO F TANAGA                                            1                        1 2825993                           020009853460605605339142809   LUCIANO TANAGA                                              280724                                                                                                                                                                                                                                                                                                           
15148527400015951485274000159C00292934931 1986                          85104                         1232528017201701095FCB2599 1 BRASIL                                            SPLIMEIRA                                           BRASIL                                            SPSAO PAULO                                         2017010927000010000000000080INTEGRACAO                                        2528017   2017022412401523725280170000660000000000000000000931904328806LUIS F QUEIROZ                                              1                        1 2826590                           023009853717273731904328806   LUIS FERNANDO DE QUEIROZ                                    292649                                                                                                                                                                                                                                                                                                           
15148527400015951485274000159C00292939251 7190                          85107                         1167175016201701095BWC0262 1 BRASIL                                            SPLIMEIRA                                           BRASIL                                            SPSAO PAULO                                         2017010927000090000000000720INTEGRACAO                                        7175016   2017022415512323771750160000670000000000000000000914896936884LUIZ CARLOS TRISTAO                                         1                        1 2826782                           029009853917855114896936884   LUIZ CARLOS TRISTAO                                         300333                                                                                                                                                                                                                                                                                                           
15148527400015951485274000159C00292975161 19693                         85035                         0729979014201701105CYN5506 1 BRASIL                                            SPLIMEIRA                                           BRASIL                                            SPSAO PAULO                                         2017011027000068460000000548INTEGRACAO                                        9979014   2017022408105723799790140000680000000000000000000927713424806ANDERSON W F SILVA                                          1                        1 2825782                           024009855886669127713424806   ANDERSON WILSON FREITAS CARVALHO DA SILVA                   282025                                                                                                                                                                                                                                                                                                           
15148527400015951485274000159C00292983111 6321                          85119                         1532535022201701105AJY4232 1 BRASIL                                            SPLIMEIRA                                           BRASIL                                            SPSAO PAULO                                         2017011027000089500000000716INTEGRACAO                                        5402023   2017022401300323754020230000690000000000000000000409280206818ELIAS A JR                                                  1                        1 2825923                           022009856306412113762721807   Marco Serraglio rota 14                                     279745                                                                                                                                                                                                                                                                                                           
15148527400015951485274000159C00292993591 176750                        85127                         1232531011201701105AJH0010 1 BRASIL                                            SPLIMEIRA                                           BRASIL                                            SPSAO PAULO                                         2017011027000090000000000720INTEGRACAO                                        2531011   2017022422100423725310110000700000000000000000000944048050630SERGIO C MARTINS                                            1                        1 2827029                           024009856715243501688836861   MORACY NOGUEIRA                                             314267                                                                                                                                                                                                                                                                                                           
15148527400015951485274000159C00292998511 7186                          85130                         1435402010201701105DPE7680 1 BRASIL                                            SPLIMEIRA                                           BRASIL                                            SPSAO PAULO                                         2017011027000170000000001360INTEGRACAO                                        6888011   2017022416102923768880110000710000000000000000000915049487854ODAIR J CARLOS                                              1                        1 2826833                           024009856942657115049487854   Odair Jos  Carlos                                          301533                                                                                                                                                                                                                                                                                                           
15148527400015951485274000159C00293002781 26176                         85135                         1270029019201701105EPU7821 1 BRASIL                                            SPLIMEIRA                                           BRASIL                                            SPSAO PAULO                                         2017011027000010000000000080INTEGRACAO                                        0029019   2017022409112923700290190000720000000000000000000913773009860PEDRO M S ANTONIO                                           1                        1 2826108                           020009857123382713773009860   PEDRO MANUEL SANTOS ANTONIO                                 284037                                                                                                                                                                                                                                                                                                           
15148527400015951485274000159C00293008031 19625                         85139                         1393877013201701105BSF5355 1 BRASIL                                            SPLIMEIRA                                           BRASIL                                            SPSAO PAULO                                         2017011027000120000000000960INTEGRACAO                                        3877013   2017022417411023738770130000730000000000000000000926712330866RANGEL A RAYMUNDO                                           1                        1 2826860                           027009857370579426712330866   RANGEL A RAYMUNDO                                           308119                                                                                                                                                                                                                                                                                                           
15148527400015951485274000159C00293011081 23947                         85142                         1393872014201701105DPE7073 1 BRASIL                                            SPLIMEIRA                                           BRASIL                                            SPSAO PAULO                                         2017011027000060000000000480INTEGRACAO                                        3872014   2017022421000523738720140000740000000000000000000907880653864REINALDO L OLIVEIRA                                         1                        1 2826886                           028009857497094907880653864   REINALDO L OLIVEIRA                                         313489                                                                                                                                                                                                                                                                                                           
15148527400015951485274000159C00293016831 19721                         85149                         1215463018201701105BYF9125 1 BRASIL                                            SPLIMEIRA                                           BRASIL                                            SPSAO PAULO                                         2017011027000039120000000313INTEGRACAO                                        5463018   2017022408105723754630180000750000000000000000000978399726834RONALDO F HORA                                              1                        1 2825880                           023009857758160437582030826   GUSTAVO OLIVEIRA DA MOTTA                                   281945                                                                                                                                                                                                                                                                                                           
15148527400015951485274000159C00293017121 7182                          85150                         1354834011201701105GMO0059 1 BRASIL                                            SPLIMEIRA                                           BRASIL                                            SPSAO PAULO                                         2017011027000090000000000720INTEGRACAO                                        4834011   2017022415301023748340110000760000000000000000000971960600834ROBERTO L GARCIA                                            1                        1 2826761                           022009857773803671960600834   ROBERTO LOPES GARCIA                                        298805                                                                                                                                                                                                                                                                                                           
15148527400015951485274000159C00293039571 5903                          85153                         1354853011201701105DKG7457 1 BRASIL                                            SPLIMEIRA                                           BRASIL                                            SPSAO PAULO                                         2017011027000015000000000120INTEGRACAO                                        4853011   2017022409311723748530110000770000000000000000000917457960880RONALDO A D CARDOSO                                         1                        1 2826185                           023009858847560317457960880   RONALDO ADRIANO DIAS CARDOSO                                285177                                                                                                                                                                                                                                                                                                           
15148527400015951485274000159C00293039571 5903                          85153                         1354853011201701105DKG7457 1 BRASIL                                            SPLIMEIRA                                           BRASIL                                            SPSAO PAULO                                         2017011027000015000000000120INTEGRACAO                                        4853011   2017022410004923748530110000780000000000000000000917457960880RONALDO A D CARDOSO                                         1                        1 2826312                           023009858847560317457960880   RONALDO ADRIANO DIAS CARDOSO                                286350                                                                                                                                                                                                                                                                                                           
15148527400015951485274000159C00293039571 5903                          85153                         1354853011201701105DKG7457 1 BRASIL                                            SPLIMEIRA                                           BRASIL                                            SPSAO PAULO                                         2017011027000015000000000120INTEGRACAO                                        4853011   2017022421400623748530110000790000000000000000000917457960880RONALDO A D CARDOSO                                         1                        1 2826977                           023009858847560317457960880   RONALDO ADRIANO DIAS CARDOSO                                313963                                                                                                                                                                                                                                                                                                           
15148527400015951485274000159C00293040211 106305                        85154                         1393861017201701105HMZ7350 1 BRASIL                                            SPLIMEIRA                                           BRASIL                                            SPSAO PAULO                                         2017011027000008000000000064INTEGRACAO                                        3861017   2017022402100323738610170000800000000000000000000902109598948SANDRO R BARBOSA                                            1                        1 2825976                           022009858895242502109598948   SANDRO ROBERTO BARBOSA                                      279987                                                                                                                                                                                                                                                                                                           
15148527400015951485274000159C00293042031 105938                        85159                         0163379031201701105EYE0982 1 BRASIL                                            SPLIMEIRA                                           BRASIL                                            SPSAO PAULO                                         2017011027000010000000000080INTEGRACAO                                        4188021   2017022412301323741880210000810000000000000000000488370526853WALTER PEREIRA                                              1                        1 2826583                           027009858992508688370526853   WALTER PEREIRA                                              292590                                                                                                                                                                                                                                                                                                           
15148527400015951485274000159C00293043191 2999                          85161                         1037157020201701105FTP0346 1 BRASIL                                            SPLIMEIRA                                           BRASIL                                            SPSAO PAULO                                         2017011027000010000000000080INTEGRACAO                                        7157020   2017022401300323771570200000820000000000000000000941103197819WILLIAN ROGERIO                                             1                        1 2825948                           026009859063963241103197819   WILLIAN ROGERIO                                             279783                                                                                                                                                                                                                                                                                                           
15148527400015951485274000159C00293057301 24937                         85165                         1413854018201701105DBC0922 1 BRASIL                                            SPLIMEIRA                                           BRASIL                                            SPSAO PAULO                                         2017011027000200000000001600INTEGRACAO                                        2310012   2017022412200623723100120000830000000000000000000901604974850JOSE ROCHA BUENO                                            1                        1 2826573                           027009859557655501604974850   JOSE ROCHA BUENO                                            292297                                                                                                                                                                                                                                                                                                           
15148527400015951485274000159C00293071091 1996                          85166                         1215471011201701105CFE4210 1 BRASIL                                            SPLIMEIRA                                           BRASIL                                            SPSAO PAULO                                         2017011027000035000000000280INTEGRACAO                                        5471011   2017022401100423754710110000840000000000000000000916072623808HUMBERTO NEGRETO NT                                         1                        1 2825937                           027009860278441111002767857   MARILY MENDES                                               279591                                                                                                                                                                                                                                                                                                           
15148527400015951485274000159C00293334231 176855                        85179                         0829929018201701125BSF5356 1 BRASIL                                            SPLIMEIRA                                           BRASIL                                            SPSAO PAULO                                         2017011227000090000000000720INTEGRACAO                                        9929018   2017022415402023799290180000850000000000000000000925871718817RANULFO LUCHESI                                             1                        1 2826811                           028009873218563225871718817   RANULFO LUCHESI                                             299249                                                                                                                                                                                                                                                                                                           
15148527400015951485274000159C00293880271 25040                         85185                         1270234015201701165MIM8927 1 BRASIL                                            SPLIMEIRA                                           BRASIL                                            SPSAO PAULO                                         2017011627000281015000002248INTEGRACAO                                        0234015   2017022410020623702340150000860000000000000000002353798643091NERI FINATTO                                                1                        3 2826299             13857996000106025009899366870313857996000106neri finato transportes ltda                                286655                                                                                                                                                                                                                                                                                                           
15148527400015951485274000159C00293881661 25041                         85186                         1354746017201701165IMF7895 1 BRASIL                                            SPLIMEIRA                                           BRASIL                                            SPSAO PAULO                                         2017011627000442800000003542INTEGRACAO                                        4746017   2017022410020523747460170000870000000000000000002303664497961SANDRO TAFFAREL                                             1                        3 2826300             05655361000190029009899430549305655361000190SANDRO TAFFAREL ME                                          286571                                                                                                                                                                                                                                                                                                           
15148527400015951485274000159C00294971651 24976                         85216                         0476395018201701245MHH3797 1 BRASIL                                            SPLIMEIRA                                           BRASIL                                            SPSAO PAULO                                         2017012427000139500000001116INTEGRACAO                                        6395018   2017022410010923763950180000880000000000000000002398403982020ARIBERTO CHIARELLO                                          1                        3 2826298             13095506000173028009950240606013095506000173ACHI TRANSPORTES E COMERCIO LTDA                            286418                                                                                                                                                                                                                                                                                                           
15148527400015951485274000159C00296366191 25024                         85545                         1413837013201702015EFO9070 1 BRASIL                                            SPLIMEIRA                                           BRASIL                                            SPSAO PAULO                                         2017020127000015000000000120INTEGRACAO                                        3837013   2017022406300623738370130000890000000000000000000932901585868CARLOS R MOREIRA                                            1                        1 2826000                           026010014794001832901585868   CARLOS ROBERTO MOREIRA                                      280805                                                                                                                                                                                                                                                                                                           
15148527400015951485274000159C00300060305 NAO DECLARADO                                               0434963014201702243        4 BRASIL                                            SPLIMEIRA                                           BRASIL                                            SPARACATUBA                                         2017022417000036960000000296JOSE VILSON SIMPLICIO                             4963014   2017022404043923749630140000900000369600000261900905733277858AGNALDO C CRUSCO                                            1                                                                            05733277858   agnaldo cassiano crusco                                     280144    5                                                                                                                                                                                                                                                                                                      
15148527400015951485274000159C00300064195 NAO DECLARADO                                               1413837013201702243        1 BRASIL                                            SPLIMEIRA                                           BRASIL                                            SPGUARULHOS                                         2017022417000006060000000048CESAR MACEDO                                      3837013   2017022406312223738370130000910000060600000016500932901585868CARLOS R MOREIRA                                            1                                                                            32901585868   CARLOS ROBERTO MOREIRA                                      280866    5                                                                                                                                                                                                                                                                                                      
15148527400015951485274000159C00300064635 NAO DECLARADO                                               1393874010201702243        2 BRASIL                                            SPLIMEIRA                                           BRASIL                                            SPPIRACICABA                                        2017022417000001100000000009CESAR MACEDO                                      3874010   2017022406420723738740100000920000011000000000000901642228800CLAUDEMIR QUESSADA                                          1                                                                            01642228800   CLAUDEMIR QUESSADA                                          280889    5                                                                                                                                                                                                                                                                                                      
15148527400015951485274000159C00300064725 NAO DECLARADO                                               0422310012201702243        8 BRASIL                                            SPLIMEIRA                                           BRASIL                                            SPPAULINIA                                          2017022417000008500000000068CESAR MACEDO                                      2310012   2017022406434023723100120000930000092400000007400901604974850JOSE ROCHA BUENO                                            1                                                                            01604974850   JOSE ROCHA BUENO                                            280898    5                                                                                                                                                                                                                                                                                                      
15148527400015951485274000159C00300070865 NAO DECLARADO                                               1186887013201702243        8 BRASIL                                            SPLIMEIRA                                           BRASIL                                            SPLIMEIRA                                           2017022417000009240000000074SARITA BUENO DE CAMPOS                            6887013   2017022408061123768870130000940000092400000063200906281986806ADELSON CARLOS LIMA                                         1                                                                            06281986806   adelson carlos de lima                                      281796    5                                                                                                                                                                                                                                                                                                      
15148527400015951485274000159C00300082145 NAO DECLARADO                                               0428161013201702243        8 BRASIL                                            SPLIMEIRA                                           BRASIL                                            SPLIMEIRA                                           2017022417000009240000000074SARITA BUENO DE CAMPOS                            8161013   2017022409030123781610130000950000092400000000000962331167915LUIZ CASSIO MANZINI                                         1                                                                            62331167915   Luiz Cassio Manzini                                         283682    5                                                                                                                                                                                                                                                                                                      
15148527400015951485274000159C00300109465 NAO DECLARADO                                               0259427118201702243        8 BRASIL                                            SPLIMEIRA                                           BRASIL                                            SPLIMEIRA                                           2017022417000009240000000074SARITA BUENO DE CAMPOS                            4180028   2017022410220623741800280000960000092400000066000400381848850SEBASTIAO T B NT                                            1                                                                            00381848850   SEBASTIAO TEIXEIRA BARBOSA NETO                             287603    5                                                                                                                                                                                                                                                                                                      
15148527400015951485274000159C00300118135 NAO DECLARADO                                               1270030017201702243        8 BRASIL                                            SPLIMEIRA                                           BRASIL                                            SPLIMEIRA                                           2017022417000009240000000074SARITA BUENO DE CAMPOS                            0030017   2017022410450523700300170000970000092400000000000904123788840SALVADOR A TESTA                                            1                                                                            04123788840   SALVADOR APARECIDO TESTA                                    288598    5                                                                                                                                                                                                                                                                                                      
15148527400015951485274000159C00300118775 NAO DECLARADO                                               0646962016201702243        7 BRASIL                                            SPLIMEIRA                                           BRASIL                                            SPLIMEIRA                                           2017022417000007700000000062SARITA BUENO DE CAMPOS                            6962016   2017022410465623769620160000980000077000000000000711011339889REGINALDO BENEDITO DE OLIVEIRA                              1                                                                            11011339889   REGINALDO BENEDITO DE OLIVEIRA                              288636    5                                                                                                                                                                                                                                                                                                      
15148527400015951485274000159C00300143363 Delphi                                                      1329620016201702243        4 BRASIL                                            SPLIMEIRA                                           BRASIL                                            SPPAULINIA                                          2017022417000009150000000073RAFAEL DE SA PAIVA                                9620016   2017022412034523796200160000990000091500000000000913933194830PAULO E G SANTOS                                            1                                                                            13933194830   PAULO EMERSON GERALDO DOS SANTOS                            291977    5                                                                                                                                                                                                                                                                                                      
