020170328                                                                                                                                                                                                                                                                                                                                                                                                                                                      000001                                                                                                                                                                                                                                                                                                                                                                                                                                                                                                                                                                   
15148527400015951485274000159C00296476271 85555                         85555                         0584519061201702025MCY2826 1 BRASIL                                            SPLIMEIRA                                           BRASIL                                            SPSAO PAULO                                         2017020227000180000000001440INTEGRACAO                                        1669015   2017031623200423716690150000020000000000000000000411011339889REGINALDO OLIVEIRA                                          1                        1 2838349                           024010020395498011011339889   REGINALDO BENEDITO DE OLIVEIRA                              789242                                                                                                                                                                                                                                                                                                           
15148527400015951485274000159C00296562471 85559                         85559                         1380569011201702025BTR1378 1 BRASIL                                            SPLIMEIRA                                           BRASIL                                            SPSAO PAULO                                         2017020227000050000000000400INTEGRACAO                                        0569011   2017031619500323705690110000030000000000000000000901653338806CLEUCIO A SILVA                                             1                        1 2838232                           028010024400486301653338806   CLEUCIO APARECIDO DA SILVA                                  787287                                                                                                                                                                                                                                                                                                           
15148527400015951485274000159C00296951841 85572                         85572                         0969670018201702065DBC1072 1 BRASIL                                            SPLIMEIRA                                           BRASIL                                            SPSAO PAULO                                         2017020627000025000000000200INTEGRACAO                                        9670018   2017031610400723796700180000040000000000000000000977797280800JOSE R GHISELLINE                                           1                        1 2837896                           027010042602496177797280800   jose roberto ghiselline                                     766329                                                                                                                                                                                                                                                                                                           
15148527400015951485274000159C00296951841 85572                         85572                         0969670018201702065DBC1072 1 BRASIL                                            SPLIMEIRA                                           BRASIL                                            SPSAO PAULO                                         2017020627000010000000000080INTEGRACAO                                        9670018   2017031617200723796700180000050000000000000000000977797280800JOSE R GHISELLINE                                           1                        1 2838148                           027010042602496177797280800   jose roberto ghiselline                                     782800                                                                                                                                                                                                                                                                                                           
15148527400015951485274000159C00296958731 85573                         85573                         1167170017201702065BWO9561 1 BRASIL                                            SPLIMEIRA                                           BRASIL                                            SPSAO PAULO                                         2017020627000025000000000200INTEGRACAO                                        7170017   2017031617301023771700170000060000000000000000000917205126800SANDRO S VIGINOTI                                           1                        1 2838151                           025010042976199017205126800   SANDRO SERGIO VIGINOTI                                      783351                                                                                                                                                                                                                                                                                                           
15148527400015951485274000159C00297022891 85578                         85578                         1393879019201702065CQH6189 1 BRASIL                                            SPLIMEIRA                                           BRASIL                                            SPSAO PAULO                                         2017020627000076600000000613INTEGRACAO                                        3879019   2017031614401823738790190000070000000000000000000915836668850CELSO F MACHADO                                             1                        1 2838022                           021010045811223815836668850   CELSO FERREIRA MACHADO                                      774809                                                                                                                                                                                                                                                                                                           
15148527400015951485274000159C00297058201 85584                         85584                         1413837013201702065EFO9070 1 BRASIL                                            SPLIMEIRA                                           BRASIL                                            SPSAO PAULO                                         2017020627000015000000000120INTEGRACAO                                        3837013   2017031614403623738370130000080000000000000000000932901585868CARLOS R MOREIRA                                            1                        1 2838019                           021010047457627932901585868   CARLOS ROBERTO MOREIRA                                      774837                                                                                                                                                                                                                                                                                                           
15148527400015951485274000159C00297080201 85588                         85588                         0540229011201702065CUD0073 1 BRASIL                                            SPLIMEIRA                                           BRASIL                                            SPSAO PAULO                                         2017020627000020000000000160INTEGRACAO                                        0229011   2017031610201923702290110000090000000000000000002377570383834JOSE EMILIO DA SILVA                                        1                        1 2837866             11264046000134024010048511663411264046000134SILVA TRANSPORTES ME                                        765697                                                                                                                                                                                                                                                                                                           
15148527400015951485274000159C00297080201 85588                         85588                         0540229011201702065CUD0073 1 BRASIL                                            SPLIMEIRA                                           BRASIL                                            SPSAO PAULO                                         2017020627000170000000001360INTEGRACAO                                        0229011   2017031623200523702290110000100000000000000000002377570383834JOSE EMILIO DA SILVA                                        1                        1 2838337             11264046000134024010048511663411264046000134SILVA TRANSPORTES ME                                        789400                                                                                                                                                                                                                                                                                                           
15148527400015951485274000159C00297087191 85590                         85590                         1413838011201702065DBC1203 1 BRASIL                                            SPLIMEIRA                                           BRASIL                                            SPSAO PAULO                                         2017020627000050000000000400INTEGRACAO                                        3838011   2017031611202823738380110000110000000000000000000910065639898MARIO A K SEVDALIS                                          1                        1 2837921                           025010048761589610065639898   MARIO ANTONIO KILO SEVDALIS                                 768021                                                                                                                                                                                                                                                                                                           
15148527400015951485274000159C00297208661 85595                         85595                         1393874010201702075BWB9478 1 BRASIL                                            SPLIMEIRA                                           BRASIL                                            SPSAO PAULO                                         2017020727000010000000000080INTEGRACAO                                        3874010   2017031605200423738740100000120000000000000000000901642228800CLAUDEMIR QUESSADA                                          1                        1 2837750                           022010054428978101642228800   CLAUDEMIR QUESSADA                                          759665                                                                                                                                                                                                                                                                                                           
15148527400015951485274000159C00297208661 85595                         85595                         1393874010201702075BWB9478 1 BRASIL                                            SPLIMEIRA                                           BRASIL                                            SPSAO PAULO                                         2017020727000010000000000080INTEGRACAO                                        3874010   2017031609001023738740100000130000000000000000000901642228800CLAUDEMIR QUESSADA                                          1                        1 2837813                           022010054428978101642228800   CLAUDEMIR QUESSADA                                          762855                                                                                                                                                                                                                                                                                                           
15148527400015951485274000159C00297224561 85596                         85596                         1354828013201702075BIX9164 1 BRASIL                                            SPLIMEIRA                                           BRASIL                                            SPSAO PAULO                                         2017020727000025000000000200INTEGRACAO                                        4828013   2017031610500723748280130000140000000000000000000935690400890KLEYTON S V AH                                              1                        1 2837911                           028010055123867635690400890   KLEYTON SANTANA VON AH                                      766723                                                                                                                                                                                                                                                                                                           
15148527400015951485274000159C00297224561 85596                         85596                         1354828013201702075BIX9164 1 BRASIL                                            SPLIMEIRA                                           BRASIL                                            SPSAO PAULO                                         2017020727000025000000000200INTEGRACAO                                        4828013   2017031610501523748280130000150000000000000000000935690400890KLEYTON S V AH                                              1                        1 2837908                           028010055123867635690400890   KLEYTON SANTANA VON AH                                      766766                                                                                                                                                                                                                                                                                                           
15148527400015951485274000159C00297241131 85598                         85598                         1444046011201702075DIY2604 1 BRASIL                                            SPLIMEIRA                                           BRASIL                                            SPSAO PAULO                                         2017020727000045000000000360INTEGRACAO                                        2586015   2017031612001523725860150000160000000000000000000430189952873ARY L BRISOLLA                                              1                        1 2837938                           023010055941655330189952873   ARY LEME BRISOLLA NETTO                                     769593                                                                                                                                                                                                                                                                                                           
15148527400015951485274000159C00297241771 85599                         85599                         1215471011201702075CFE4210 1 BRASIL                                            SPLIMEIRA                                           BRASIL                                            SPSAO PAULO                                         2017020727000010000000000080INTEGRACAO                                        5471011   2017031612302023754710110000170000000000000000000916072623808HUMBERTO NEGRETO NT                                         1                        1 2837973                           025010055978892611002767857   MARILY MENDES                                               770605                                                                                                                                                                                                                                                                                                           
15148527400015951485274000159C00297247831 85602                         85602                         0715064011201702075DBC0939 1 BRASIL                                            SPLIMEIRA                                           BRASIL                                            SPSAO PAULO                                         2017020727000180000000001440INTEGRACAO                                        5064011   2017031601015523750640110000180000000000000000000928797204862ALEX H G SANTOS                                             1                        1 2837490                           024010056271124628797204862   ALEX HUMBERTO GERALDO DOS SANTOS                            757939                                                                                                                                                                                                                                                                                                           
15148527400015951485274000159C00297254171 85603                         85603                         0024733050201702075AIC9715 1 BRASIL                                            SPLIMEIRA                                           BRASIL                                            SPSAO PAULO                                         2017020727000160000000001280INTEGRACAO                                        4170029   2017031613000523741700290000190000000000000000000403210437823NIVALDO PERINA                                              1                        1 2837991                           020010056490618303210437823   NIVALDO PERINA                                              771121                                                                                                                                                                                                                                                                                                           
15148527400015951485274000159C00297305311 85610                         85610                         1424402024201702075DJQ4992 1 BRASIL                                            SPLIMEIRA                                           BRASIL                                            SPSAO PAULO                                         2017020727000010000000000080INTEGRACAO                                        4240020   2017031609101523742400200000200000000000000000000400171161807JOSE M ALVES                                                1                        1 2837820                           029010058135543800171161807   JOSE MACHADO ALVES                                          763300                                                                                                                                                                                                                                                                                                           
15148527400015951485274000159C00297307081 85611                         85611                         1424424028201702075BZT8365 1 BRASIL                                            SPLIMEIRA                                           BRASIL                                            SPSAO PAULO                                         2017020727000020000000000160INTEGRACAO                                        4248023   2017031613200823742480230000210000000000000000000418426400892MARCIO A AMARAL                                             1                        1 2837998                           024010058213711718426400892   MARCIO ALEXANDRE DO AMARAL                                  771697                                                                                                                                                                                                                                                                                                           
15148527400015951485274000159C00297314211 85613                         85613                         1424446030201702075BXE8476 1 BRASIL                                            SPLIMEIRA                                           BRASIL                                            SPSAO PAULO                                         2017020727000024000000000192INTEGRACAO                                        4259038   2017031617012023742590380000220000000000000000000407418559844VANDERLEI A SANAVIO                                         1                        1 2838135                           022010058539125407418559844   VANDERLEI ANTONIO SANAVIO                                   781754                                                                                                                                                                                                                                                                                                           
15148527400015951485274000159C00297478501 85604                         85604                         0259427118201702085CZC2418 1 BRASIL                                            SPLIMEIRA                                           BRASIL                                            SPSAO PAULO                                         2017020827000020000000000160INTEGRACAO                                        4180028   2017031601001123741800280000230000000000000000000400381848850SEBASTIAO T B NT                                            1                        1 2837646                           023010066850710600381848850   SEBASTIAO TEIXEIRA BARBOSA NETO                             757689                                                                                                                                                                                                                                                                                                           
15148527400015951485274000159C00297478501 85604                         85604                         0259427118201702085CZC2418 1 BRASIL                                            SPLIMEIRA                                           BRASIL                                            SPSAO PAULO                                         2017020827000205000000001640INTEGRACAO                                        4180028   2017031623300923741800280000240000000000000000000400381848850SEBASTIAO T B NT                                            1                        1 2838357                           023010066850710600381848850   SEBASTIAO TEIXEIRA BARBOSA NETO                             789437                                                                                                                                                                                                                                                                                                           
15148527400015951485274000159C00297575121 85626                         85626                         1435385017201702095BWO0838 1 BRASIL                                            SPLIMEIRA                                           BRASIL                                            SPSAO PAULO                                         2017020927000090000000000720INTEGRACAO                                        5385017   2017031618002423753850170000250000000000000000000902440099880JOAO C PEREIRA                                              1                        1 2838170                           020010071669615301202919839   AGNALDO DANIEL VIEIRA                                       784623                                                                                                                                                                                                                                                                                                           
15148527400015951485274000159C00297575431 85627                         85627                         1301521018201702095DBM7288 1 BRASIL                                            SPLIMEIRA                                           BRASIL                                            SPSAO PAULO                                         2017020927000009780000000078INTEGRACAO                                        1521018   2017031609301423715210180000260000000000000000000958862285787AGNALDO M ANJOS                                             1                        1 2837414                           027010071680930934954929920   JOSE A MOTTA                                                763859                                                                                                                                                                                                                                                                                                           
15148527400015951485274000159C00297575431 85627                         85627                         1301521018201702095DBM7288 1 BRASIL                                            SPLIMEIRA                                           BRASIL                                            SPSAO PAULO                                         2017020927000009780000000078INTEGRACAO                                        1521018   2017031609301723715210180000270000000000000000000958862285787AGNALDO M ANJOS                                             1                        1 2836771                           027010071680930934954929920   JOSE A MOTTA                                                763863                                                                                                                                                                                                                                                                                                           
15148527400015951485274000159C00297575431 85627                         85627                         1301521018201702095DBM7288 1 BRASIL                                            SPLIMEIRA                                           BRASIL                                            SPSAO PAULO                                         2017020927000019560000000156INTEGRACAO                                        1521018   2017031609302623715210180000280000000000000000000958862285787AGNALDO M ANJOS                                             1                        1 2835998                           027010071680930934954929920   JOSE A MOTTA                                                763955                                                                                                                                                                                                                                                                                                           
15148527400015951485274000159C00297576891 85628                         85628                         1413848010201702095AEY5232 1 BRASIL                                            SPLIMEIRA                                           BRASIL                                            SPSAO PAULO                                         2017020927000090000000000720INTEGRACAO                                        3848010   2017031618202323738480100000290000000000000000000918767821880ALESSANDRO MESSIAS                                          1                        1 2838185                           021010071763079818767821880   ALESSANDRO DONIZETI MESSIAS                                 785364                                                                                                                                                                                                                                                                                                           
15148527400015951485274000159C00297580761 85630                         85630                         1150334018201702095DBL5348 1 BRASIL                                            SPLIMEIRA                                           BRASIL                                            SPSAO PAULO                                         2017020927000035000000000280INTEGRACAO                                        0334018   2017031622500523703340180000300000000000000000000900488173841AMARO JOSE LUIZ                                             1                        1 2838314                           028010072014849400488173841   AMARO JOSE LUIZ                                             789275                                                                                                                                                                                                                                                                                                           
15148527400015951485274000159C00297589111 85638                         85638                         1354833013201702095EJY4006 1 BRASIL                                            SPLIMEIRA                                           BRASIL                                            SPSAO PAULO                                         2017020927000140000000001120INTEGRACAO                                        4833013   2017031608403323748330130000310000000000000000000914998992899ODAIR EUGENIO PAES                                          1                        1 2837802                           022010072470078722022379845   ANDERSON ROBERTO DOS SANTOS                                 762138                                                                                                                                                                                                                                                                                                           
15148527400015951485274000159C00297590481 85640                         85640                         1435401012201702095ELQ7472 1 BRASIL                                            SPLIMEIRA                                           BRASIL                                            SPSAO PAULO                                         2017020927000007000000000056INTEGRACAO                                        5401012   2017031616301923754010120000320000000000000000000936497274804AURINO M FERREIRA                                           1                        1 2838123                           021010072531742336497274804   AURINO MAIA FERREIRA                                        780253                                                                                                                                                                                                                                                                                                           
15148527400015951485274000159C00297593021 85642                         85642                         1167178010201702095AJJ3207 1 BRASIL                                            SPLIMEIRA                                           BRASIL                                            SPSAO PAULO                                         2017020927000020000000000160INTEGRACAO                                        7178010   2017031620101223771780100000330000000000000000000977805178887ADEMAR N SOUZA                                              1                        1 2838239                           022010072682737977805178887   ADEMAR N SOUZA                                              787684                                                                                                                                                                                                                                                                                                           
15148527400015951485274000159C00297615641 85644                         85644                         1413843011201702095GMN7056 1 BRASIL                                            SPLIMEIRA                                           BRASIL                                            SPSAO PAULO                                         2017020927000090000000000720INTEGRACAO                                        3843011   2017031619101523738430110000340000000000000000000950536869634CELSO O RODRIGUES                                           1                        1 2838214                           027010073858214950536869634   CELSO DE OLIVEIRA RODRIGUES                                 786639                                                                                                                                                                                                                                                                                                           
15148527400015951485274000159C00297616721 85645                         85645                         1232537018201702095CZC2654 1 BRASIL                                            SPLIMEIRA                                           BRASIL                                            SPSAO PAULO                                         2017020927000016800000000134INTEGRACAO                                        2537018   2017031607500423725370180000350000000000000000000909132633890CELSO G DONADEL                                             1                        1 2837682                           027010073919501209132633890   CELSO GUILHERME DONADEL                                     760856                                                                                                                                                                                                                                                                                                           
15148527400015951485274000159C00297617541 85646                         85646                         1424286024201702095AAL3952 1 BRASIL                                            SPLIMEIRA                                           BRASIL                                            SPSAO PAULO                                         2017020927000009780000000078INTEGRACAO                                        4206021   2017031613202223742060210000360000000000000000000401653786892CLAUDIO A SILVA                                             1                        1 2837428                           028010073966975701653786892   CLAUDIO APARECIDO DA SILVA                                  771727                                                                                                                                                                                                                                                                                                           
15148527400015951485274000159C00297620801 85652                         85652                         1483045014201702095BWY0827 1 BRASIL                                            SPLIMEIRA                                           BRASIL                                            SPSAO PAULO                                         2017020927000009600000000077INTEGRACAO                                        2262012   2017031614201523722620120000370000000000000000000480050913891CLEIDO N MELO                                               1                        1 2836805                           022010074172473880050913891   CLEIDO N MELO                                               773995                                                                                                                                                                                                                                                                                                           
15148527400015951485274000159C00297620801 85652                         85652                         1483045014201702095BWY0827 1 BRASIL                                            SPLIMEIRA                                           BRASIL                                            SPSAO PAULO                                         2017020927000018000000000144INTEGRACAO                                        2262012   2017031614201623722620120000380000000000000000000480050913891CLEIDO N MELO                                               1                        1 2837892                           022010074172473880050913891   CLEIDO N MELO                                               773996                                                                                                                                                                                                                                                                                                           
15148527400015951485274000159C00297620801 85652                         85652                         1483045014201702095BWY0827 1 BRASIL                                            SPLIMEIRA                                           BRASIL                                            SPSAO PAULO                                         2017020927000013200000000106INTEGRACAO                                        2262012   2017031614203123722620120000390000000000000000000480050913891CLEIDO N MELO                                               1                        1 2837933                           022010074172473880050913891   CLEIDO N MELO                                               774012                                                                                                                                                                                                                                                                                                           
15148527400015951485274000159C00297622371 85655                         85655                         1167190015201702095EGM4923 1 BRASIL                                            SPLIMEIRA                                           BRASIL                                            SPSAO PAULO                                         2017020927000005000000000040INTEGRACAO                                        7190015   2017031603000323771900150000400000000000000000000915629694472DARIO FERNANDES                                             1                        1 2837705                           027010074259739315629694472   DARIO FERNANDES                                             758599                                                                                                                                                                                                                                                                                                           
15148527400015951485274000159C00297626351 85658                         85658                         0968974041201702095DBC0547 1 BRASIL                                            SPLIMEIRA                                           BRASIL                                            SPSAO PAULO                                         2017020927000050000000000400INTEGRACAO                                        4138026   2017031621200823741380260000410000000000000000000453228057615DONIZETTI REZENDE                                           1                        1 2838260                           020010074470061253228057615   DONIZETTI REZENDE                                           788316                                                                                                                                                                                                                                                                                                           
15148527400015951485274000159C00297628001 85661                         85661                         1378722010201702095CBH4293 1 BRASIL                                            SPLIMEIRA                                           BRASIL                                            SPSAO PAULO                                         2017020927000010000000000080INTEGRACAO                                        8722010   2017031601300323787220100000420000000000000000000910813846897EDIVALDO DOS SANTOS                                         1                        1 2837448                           022010074577526210813846897   EDIVALDO DOS SANTOS                                         758198                                                                                                                                                                                                                                                                                                           
15148527400015951485274000159C00297629331 85663                         85663                         1424308028201702095GXA4183 1 BRASIL                                            SPLIMEIRA                                           BRASIL                                            SPSAO PAULO                                         2017020927000045000000000360INTEGRACAO                                        4215022   2017031621200723742150220000430000000000000000000488081842853EDSON BONGIORNO                                             1                        1 2838278                           028010074664177288081842853   EDSON BONGIORNO                                             788453                                                                                                                                                                                                                                                                                                           
15148527400015951485274000159C00297629891 85664                         85664                         1393869010201702095GOA4922 1 BRASIL                                            SPLIMEIRA                                           BRASIL                                            SPSAO PAULO                                         2017020927000090000000000720INTEGRACAO                                        3869010   2017031617101423738690100000440000000000000000000937093675816EDUARDO O TEODORO                                           1                        1 2838141                           023010074690671137093675816   EDUARDO DE OLIVEIRA TEODORO                                 782299                                                                                                                                                                                                                                                                                                           
15148527400015951485274000159C00297648301 85673                         85673                         1413855015201702095EJV7609 1 BRASIL                                            SPLIMEIRA                                           BRASIL                                            SPSAO PAULO                                         2017020927000090000000000720INTEGRACAO                                        3855015   2017031623300923738550150000450000000000000000000927877434987EZEQUIEL TONCHE                                             1                        1 2838362                           021010075704168227877434987   EZEQUIEL TONCHE                                             789456                                                                                                                                                                                                                                                                                                           
15148527400015951485274000159C00297655501 85679                         85679                         1270016016201702095EBC3761 1 BRASIL                                            SPLIMEIRA                                           BRASIL                                            SPSAO PAULO                                         2017020927000005000000000040INTEGRACAO                                        0016016   2017031604400323700160160000460000000000000000000979194710449FRANCISCO C MELO                                            1                        1 2837744                           026010076094862279194710449   FRANCISCO DAS CHAGAS DE MELO                                759354                                                                                                                                                                                                                                                                                                           
15148527400015951485274000159C00297659471 85680                         85680                         1215470013201702095BUD8340 1 BRASIL                                            SPLIMEIRA                                           BRASIL                                            SPSAO PAULO                                         2017020927000030000000000240INTEGRACAO                                        5470013   2017031621500723754700130000470000000000000000000916828077890GILBERTO I CRUZ                                             1                        1 2838284                           022010076294882116828077890   GILBERTO INOCENCIO DA CRUZ                                  788634                                                                                                                                                                                                                                                                                                           
15148527400015951485274000159C00297659681 85681                         85681                         1354822016201702095DBL5461 1 BRASIL                                            SPLIMEIRA                                           BRASIL                                            SPSAO PAULO                                         2017020927000013000000000104INTEGRACAO                                        4822016   2017031609403223748220160000480000000000000000000911014831806GILMAR F FREITAS                                            1                        1 2837834                           022010076307806211014831806   GILMAR FERREIRA DE FREITAS                                  764224                                                                                                                                                                                                                                                                                                           
15148527400015951485274000159C00297660671 85682                         85682                         1300557013201702095GZG1429 1 BRASIL                                            SPLIMEIRA                                           BRASIL                                            SPSAO PAULO                                         2017020927000009780000000078INTEGRACAO                                        0557013   2017031612001023705570130000490000000000000000000922141234824MARCEL G SILVA                                              1                        1 2837436                           026010076353576410624141870   GINO GRECO NETO                                             769580                                                                                                                                                                                                                                                                                                           
15148527400015951485274000159C00297660671 85682                         85682                         1300557013201702095GZG1429 1 BRASIL                                            SPLIMEIRA                                           BRASIL                                            SPSAO PAULO                                         2017020927000021600000000173INTEGRACAO                                        0557013   2017031612002123705570130000500000000000000000000922141234824MARCEL G SILVA                                              1                        1 2837924                           026010076353576410624141870   GINO GRECO NETO                                             769673                                                                                                                                                                                                                                                                                                           
15148527400015951485274000159C00297660671 85682                         85682                         1300557013201702095GZG1429 1 BRASIL                                            SPLIMEIRA                                           BRASIL                                            SPSAO PAULO                                         2017020927000009780000000078INTEGRACAO                                        0557013   2017031612004723705570130000510000000000000000000922141234824MARCEL G SILVA                                              1                        1 2836853                           026010076353576410624141870   GINO GRECO NETO                                             769631                                                                                                                                                                                                                                                                                                           
15148527400015951485274000159C00297666021 85685                         85685                         1413844019201702095DTE4881 1 BRASIL                                            SPLIMEIRA                                           BRASIL                                            SPSAO PAULO                                         2017020927000020000000000160INTEGRACAO                                        3844019   2017031612401323738440190000520000000000000000000912857993803HELCIO JOSE SILVA                                           1                        1 2837981                           025010076626150703520275848   IVA DAVID DE SOUZA                                          770868                                                                                                                                                                                                                                                                                                           
15148527400015951485274000159C00297667591 85686                         85686                         1442515014201702095EFV4023 1 BRASIL                                            SPLIMEIRA                                           BRASIL                                            SPSAO PAULO                                         2017020927000010000000000080INTEGRACAO                                        9219012   2017031608500323792190120000530000000000000000000433366426802IVO D S JR                                                  1                        1 2837809                           025010076688359333366426802   IVO DAVID DE SOUZA JUNIOR                                   762446                                                                                                                                                                                                                                                                                                           
15148527400015951485274000159C00297667591 85686                         85686                         1442515014201702095EFV4023 1 BRASIL                                            SPLIMEIRA                                           BRASIL                                            SPSAO PAULO                                         2017020927000010000000000080INTEGRACAO                                        9219012   2017031619002123792190120000540000000000000000000433366426802IVO D S JR                                                  1                        1 2838201                           025010076688359333366426802   IVO DAVID DE SOUZA JUNIOR                                   786234                                                                                                                                                                                                                                                                                                           
15148527400015951485274000159C00297671751 85691                         85691                         1380576016201702095DPE7319 1 BRASIL                                            SPLIMEIRA                                           BRASIL                                            SPSAO PAULO                                         2017020927000070000000000560INTEGRACAO                                        0576016   2017031619003423705760160000550000000000000000000958459766934JOELSON A C SANTOS                                          1                        1 2838204                           021010076925413858459766934   JOELSON A C SANTOS                                          786393                                                                                                                                                                                                                                                                                                           
15148527400015951485274000159C00297677201 85696                         85696                         1215458018201702095GUD3165 1 BRASIL                                            SPLIMEIRA                                           BRASIL                                            SPSAO PAULO                                         2017020927000090000000000720INTEGRACAO                                        5458018   2017031618101623754580180000560000000000000000000903284939881JOSE D C CABRAL                                             1                        1 2838175                           023010077212295303284939881   JOSE DANIEL CASACHI CABRAL                                  785026                                                                                                                                                                                                                                                                                                           
15148527400015951485274000159C00297678441 85697                         85697                         1167183010201702095APB1867 1 BRASIL                                            SPLIMEIRA                                           BRASIL                                            SPSAO PAULO                                         2017020927000022800000000182INTEGRACAO                                        7183010   2017031614302023771830100000570000000000000000000973061786449JOSE DE MELO                                                1                        1 2837664                           021010077270463673061786449   JOSE DE MELO                                                774461                                                                                                                                                                                                                                                                                                           
15148527400015951485274000159C00297686671 85703                         85703                         0135704016201702095BWC7689 1 BRASIL                                            SPLIMEIRA                                           BRASIL                                            SPSAO PAULO                                         2017020927000050000000000400INTEGRACAO                                        3565017   2017031621200723735650170000580000000000000000000409592597839JOSE R CLAUDIANO                                            1                        1 2838235                           025010077678663109592597839   JOSE ROBERTO CLAUDIANO                                      788455                                                                                                                                                                                                                                                                                                           
15148527400015951485274000159C00297690401 85705                         85705                         1354850017201702095AKN7535 1 BRASIL                                            SPLIMEIRA                                           BRASIL                                            SPSAO PAULO                                         2017020927000004000000000032INTEGRACAO                                        4850017   2017031602300323748500170000590000000000000000000928224784819JULIANO JAMES MELO                                          1                        1 2837690                           029010077836444728224784819   JULIANO JAMES DE MELO                                       758551                                                                                                                                                                                                                                                                                                           
15148527400015951485274000159C00297690401 85705                         85705                         1354850017201702095AKN7535 1 BRASIL                                            SPLIMEIRA                                           BRASIL                                            SPSAO PAULO                                         2017020927000034400000000275INTEGRACAO                                        4850017   2017031610502323748500170000600000000000000000000928224784819JULIANO JAMES MELO                                          1                        1 2837899                           029010077836444728224784819   JULIANO JAMES DE MELO                                       766853                                                                                                                                                                                                                                                                                                           
15148527400015951485274000159C00297696451 85714                         85714                         1435389019201702095DPE7544 1 BRASIL                                            SPLIMEIRA                                           BRASIL                                            SPSAO PAULO                                         2017020927000150000000001200INTEGRACAO                                        5389019   2017031619000823753890190000610000000000000000000913941116819LUIS V CHIQUETO                                             1                        1 2838196                           027010078144115913941116819   LUIS V CHIQUETO                                             786341                                                                                                                                                                                                                                                                                                           
15148527400015951485274000159C00297697871 85716                         85716                         0730067015201702095BWK9895 1 BRASIL                                            SPLIMEIRA                                           BRASIL                                            SPSAO PAULO                                         2017020927000026000000000208INTEGRACAO                                        0067015   2017031610502723700670150000620000000000000000000939198273841LUIZ E CLEMENTE                                             1                        1 2837869                           020010078232879639198273841   LUIZ EDUARDO CLEMENTE                                       766861                                                                                                                                                                                                                                                                                                           
15148527400015951485274000159C00297702731 85718                         85718                         1435386015201702095GMH9217 1 BRASIL                                            SPLIMEIRA                                           BRASIL                                            SPSAO PAULO                                         2017020927000090000000000720INTEGRACAO                                        5386015   2017031619101123753860150000630000000000000000000911454333839CLAUDIO D TEODORO                                           1                        1 2838211                           029010078534881514402061806   MARCIO FERNANDO CORREA                                      786634                                                                                                                                                                                                                                                                                                           
15148527400015951485274000159C00297706661 85727                         85727                         1232534015201702095DAH0547 1 BRASIL                                            SPLIMEIRA                                           BRASIL                                            SPSAO PAULO                                         2017020927000060000000000480INTEGRACAO                                        2534015   2017031610500623725340150000640000000000000000000909321222804MARCO A M C P BOSCH                                         1                        1 2837876                           027010078766354709321222804   Marco Alexandre Moreno Covre PS Bosch                       766758                                                                                                                                                                                                                                                                                                           
15148527400015951485274000159C00297708591 85728                         85728                         1435400014201702095AJY4232 1 BRASIL                                            SPLIMEIRA                                           BRASIL                                            SPSAO PAULO                                         2017020927000011000000000088INTEGRACAO                                        5402023   2017031604300323754020230000650000000000000000000409280206818ELIAS A JR                                                  1                        1 2837741                           020010078878257513762721807   Marco Serraglio rota 14                                     759237                                                                                                                                                                                                                                                                                                           
15148527400015951485274000159C00297708591 85728                         85728                         1435400014201702095AJY4232 1 BRASIL                                            SPLIMEIRA                                           BRASIL                                            SPSAO PAULO                                         2017020927000149500000001196INTEGRACAO                                        5402023   2017031611301123754020230000660000000000000000000409280206818ELIAS A JR                                                  1                        1 2837931                           020010078878257513762721807   Marco Serraglio rota 14                                     768418                                                                                                                                                                                                                                                                                                           
15148527400015951485274000159C00297750221 85729                         85729                         1424427027201702105CQH6712 1 BRASIL                                            SPLIMEIRA                                           BRASIL                                            SPSAO PAULO                                         2017021027000030000000000240INTEGRACAO                                        4249021   2017031610500523742490210000670000000000000000000413762721807MARCOS R SERRAGLIO                                          1                        1 2837888                           028010080759443813762721807   Marco Serraglio rota 14                                     766757                                                                                                                                                                                                                                                                                                           
15148527400015951485274000159C00297751371 85731                         85731                         1270028011201702105DBC1477 1 BRASIL                                            SPLIMEIRA                                           BRASIL                                            SPSAO PAULO                                         2017021027000090000000000720INTEGRACAO                                        0028011   2017031620500923700280110000680000000000000000000925438502870MARIO C A BARBOZA                                           1                        1 2838268                           020010080800633825438502870   MARIO CELSO ASNAR BARBOZA                                   788110                                                                                                                                                                                                                                                                                                           
15148527400015951485274000159C00297751891 85732                         85732                         1393866016201702105FAO8370 1 BRASIL                                            SPLIMEIRA                                           BRASIL                                            SPSAO PAULO                                         2017021027000045000000000360INTEGRACAO                                        3866016   2017031610501823738660160000690000000000000000000980839908849MARIO L O GARCIA                                            1                        1 2837863                           027010080825710780839908849   MARIO LUIZ DE OLIVEIRA GARCIA                               766744                                                                                                                                                                                                                                                                                                           
15148527400015951485274000159C00297752211 85733                         85733                         1413845016201702105CGS7190 1 BRASIL                                            SPLIMEIRA                                           BRASIL                                            SPSAO PAULO                                         2017021027000009780000000078INTEGRACAO                                        3845016   2017031617401923738450160000700000000000000000000930180323814MAXIMILI NASCIMENTO                                         1                        1 2836071                           028010080839406187822636804   SERGIO GUADAGNINI                                           783784                                                                                                                                                                                                                                                                                                           
15148527400015951485274000159C00297752211 85733                         85733                         1413845016201702105CGS7190 1 BRASIL                                            SPLIMEIRA                                           BRASIL                                            SPSAO PAULO                                         2017021027000019560000000156INTEGRACAO                                        3845016   2017031617402723738450160000710000000000000000000930180323814MAXIMILI NASCIMENTO                                         1                        1 2837444                           028010080839406187822636804   SERGIO GUADAGNINI                                           783882                                                                                                                                                                                                                                                                                                           
15148527400015951485274000159C00297759781 85737                         85737                         1232531011201702105AJH0010 1 BRASIL                                            SPLIMEIRA                                           BRASIL                                            SPSAO PAULO                                         2017021027000090000000000720INTEGRACAO                                        2531011   2017031617402823725310110000720000000000000000000944048050630SERGIO C MARTINS                                            1                        1 2838164                           021010081154594701688836861   MORACY NOGUEIRA                                             783802                                                                                                                                                                                                                                                                                                           
15148527400015951485274000159C00297762871 85739                         85739                         0592163012201702105DPE7263 1 BRASIL                                            SPLIMEIRA                                           BRASIL                                            SPSAO PAULO                                         2017021027000150000000001200INTEGRACAO                                        4610010   2017031610002823746100100000730000000000000000000409581005862NELSON M NASCIMENTO                                         1                        1 2837854                           021010081272786609581005862   NELSON MANOEL DO NASCIMENTO                                 764908                                                                                                                                                                                                                                                                                                           
15148527400015951485274000159C00297766061 85741                         85741                         0571220016201702105BXG3018 1 BRASIL                                            SPLIMEIRA                                           BRASIL                                            SPSAO PAULO                                         2017021027000050000000000400INTEGRACAO                                        4614012   2017031620001023746140120000740000000000000000000417559015859ORIAS L RIBEIRO                                             1                        1 2838226                           020010081437875917559015859   ORIAS LATIEL RIBEIRO                                        787432                                                                                                                                                                                                                                                                                                           
15148527400015951485274000159C00297770141 85744                         85744                         1413856013201702105CLU5972 1 BRASIL                                            SPLIMEIRA                                           BRASIL                                            SPSAO PAULO                                         2017021027000150000000001200INTEGRACAO                                        3856013   2017031610101723738560130000750000000000000000000909604816802PAULO C R PONTES                                            1                        1 2837858                           027010081641732009604816802   PAULO CESAR RODRIGUES PONTES                                765463                                                                                                                                                                                                                                                                                                           
15148527400015951485274000159C00297771181 85745                         85745                         1232527019201702105EFW8894 1 BRASIL                                            SPLIMEIRA                                           BRASIL                                            SPSAO PAULO                                         2017021027000003000000000024INTEGRACAO                                        2527019   2017031609505323725270190000760000000000000000000925536480812PAULO SILVA NEVES                                           1                        1 2837841                           025010081699241225536480812   PAULO DA SILVA NEVES                                        764593                                                                                                                                                                                                                                                                                                           
15148527400015951485274000159C00297771181 85745                         85745                         1232527019201702105EFW8894 1 BRASIL                                            SPLIMEIRA                                           BRASIL                                            SPSAO PAULO                                         2017021027000008000000000064INTEGRACAO                                        2527019   2017031618101723725270190000770000000000000000000925536480812PAULO SILVA NEVES                                           1                        1 2838178                           025010081699241225536480812   PAULO DA SILVA NEVES                                        785027                                                                                                                                                                                                                                                                                                           
15148527400015951485274000159C00297779511 85750                         85750                         1232533017201702105BWU4446 1 BRASIL                                            SPLIMEIRA                                           BRASIL                                            SPSAO PAULO                                         2017021027000090000000000720INTEGRACAO                                        2533017   2017031613100523725330170000780000000000000000000931469034824RAFAEL F E ALVES                                            1                        1 2837843                           021010082115439931469034824   RAFAEL FERNANDO ESBRICE ALVES                               771577                                                                                                                                                                                                                                                                                                           
15148527400015951485274000159C00297808481 85752                         85752                         1393877013201702105BSF5355 1 BRASIL                                            SPLIMEIRA                                           BRASIL                                            SPSAO PAULO                                         2017021027000090000000000720INTEGRACAO                                        3877013   2017031619201223738770130000790000000000000000000926712330866RANGEL A RAYMUNDO                                           1                        1 2838217                           022010083440293726712330866   RANGEL A RAYMUNDO                                           786739                                                                                                                                                                                                                                                                                                           
15148527400015951485274000159C00297809761 85755                         85755                         1293049010201702105DBL1051 1 BRASIL                                            SPLIMEIRA                                           BRASIL                                            SPSAO PAULO                                         2017021027000135000000001080INTEGRACAO                                        3049010   2017031610502323730490100000800000000000000000000918212504867REGINALDO CARVALHO                                          1                        1 2837902                           029010083502839318212504867   REGINALDO CARVALHO                                          766852                                                                                                                                                                                                                                                                                                           
15148527400015951485274000159C00297810501 85756                         85756                         1393872014201702105DPE7073 1 BRASIL                                            SPLIMEIRA                                           BRASIL                                            SPSAO PAULO                                         2017021027000060000000000480INTEGRACAO                                        3872014   2017031621001623738720140000810000000000000000000907880653864REINALDO L OLIVEIRA                                         1                        1 2838263                           027010083541387507880653864   REINALDO L OLIVEIRA                                         788255                                                                                                                                                                                                                                                                                                           
15148527400015951485274000159C00297811921 85759                         85759                         1270011017201702105DDY4684 1 BRASIL                                            SPLIMEIRA                                           BRASIL                                            SPSAO PAULO                                         2017021027000030000000000240INTEGRACAO                                        0011017   2017031610502923700110170000820000000000000000000914989733886REYNALDO BENATTI FL                                         1                        1 2837905                           024010083651060814989733886   REYNALDO BENATTI FL                                         766864                                                                                                                                                                                                                                                                                                           
15148527400015951485274000159C00297817081 85764                         85764                         1301526017201702105CBO5292 1 BRASIL                                            SPLIMEIRA                                           BRASIL                                            SPSAO PAULO                                         2017021027000060000000000480INTEGRACAO                                        1526017   2017031621200723715260170000830000000000000000000932430592835ROBERTO L GARCIA JR                                         1                        1 2838257                           024010083948462532430592835   Roberto lopes garcia Junior                                 788313                                                                                                                                                                                                                                                                                                           
15148527400015951485274000159C00297818031 85765                         85765                         1354834011201702105GMO0059 1 BRASIL                                            SPLIMEIRA                                           BRASIL                                            SPSAO PAULO                                         2017021027000090000000000720INTEGRACAO                                        4834011   2017031617003923748340110000840000000000000000000971960600834ROBERTO L GARCIA                                            1                        1 2838132                           022010084005524671960600834   ROBERTO LOPES GARCIA                                        781503                                                                                                                                                                                                                                                                                                           
15148527400015951485274000159C00297822651 85770                         85770                         0803614016201702105BXG3389 1 BRASIL                                            SPLIMEIRA                                           BRASIL                                            SPSAO PAULO                                         2017021027000019560000000156INTEGRACAO                                        7291018   2017031609302723772910180000850000000000000000000434954929920JOSE A MOTTA                                                1                        1 2836077                           021010084223159634954929920   JOSE A MOTTA                                                763884                                                                                                                                                                                                                                                                                                           
15148527400015951485274000159C00297825251 85773                         85773                         1354852013201702105EFV5547 1 BRASIL                                            SPLIMEIRA                                           BRASIL                                            SPSAO PAULO                                         2017021027000008000000000064INTEGRACAO                                        4852013   2017031610302523748520130000860000000000000000000911634488857VALDENIR A FERREIRA                                         1                        1 2837872                           025010084363725711634488857   valdenir almeida ferreira                                   766013                                                                                                                                                                                                                                                                                                           
15148527400015951485274000159C00297825251 85773                         85773                         1354852013201702105EFV5547 1 BRASIL                                            SPLIMEIRA                                           BRASIL                                            SPSAO PAULO                                         2017021027000010000000000080INTEGRACAO                                        4852013   2017031622000423748520130000870000000000000000000911634488857VALDENIR A FERREIRA                                         1                        1 2838292                           025010084363725711634488857   valdenir almeida ferreira                                   788760                                                                                                                                                                                                                                                                                                           
15148527400015951485274000159C00297826771 85775                         85775                         1380568013201702105ETG0129 1 BRASIL                                            SPLIMEIRA                                           BRASIL                                            SPSAO PAULO                                         2017021027000005000000000040INTEGRACAO                                        0568013   2017031608301223705680130000880000000000000000000928905683851VENICIUS B CARVALHO                                         1                        1 2837795                           028010084432523228905683851   VENICIUS BORGES DE CARVALHO                                 761748                                                                                                                                                                                                                                                                                                           
15148527400015951485274000159C00297826771 85775                         85775                         1380568013201702105ETG0129 1 BRASIL                                            SPLIMEIRA                                           BRASIL                                            SPSAO PAULO                                         2017021027000005000000000040INTEGRACAO                                        0568013   2017031614003023705680130000890000000000000000000928905683851VENICIUS B CARVALHO                                         1                        1 2838007                           028010084432523228905683851   VENICIUS BORGES DE CARVALHO                                 773054                                                                                                                                                                                                                                                                                                           
15148527400015951485274000159C00297828941 85778                         85778                         0466345091201702105DPE6932 1 BRASIL                                            SPLIMEIRA                                           BRASIL                                            SPSAO PAULO                                         2017021027000055000000000440INTEGRACAO                                        4186041   2017031621200923741860410000900000000000000000000405729267827WAGNER PRONI                                                1                        1 2838229                           025010084546403405729267827   WAGNER PRONI                                                788456                                                                                                                                                                                                                                                                                                           
15148527400015951485274000159C00297830271 85779                         85779                         1354853011201702105DKG7457 1 BRASIL                                            SPLIMEIRA                                           BRASIL                                            SPSAO PAULO                                         2017021027000015000000000120INTEGRACAO                                        4853011   2017031608000823748530110000910000000000000000000917457960880RONALDO A D CARDOSO                                         1                        1 2837772                           027010084611270317457960880   RONALDO ADRIANO DIAS CARDOSO                                760994                                                                                                                                                                                                                                                                                                           
15148527400015951485274000159C00297834591 85783                         85783                         1037157020201702105FTP0346 1 BRASIL                                            SPLIMEIRA                                           BRASIL                                            SPSAO PAULO                                         2017021027000035000000000280INTEGRACAO                                        7157020   2017031617500423771570200000920000000000000000000941103197819WILLIAN ROGERIO                                             1                        1 2838167                           020010084775815241103197819   WILLIAN ROGERIO                                             784210                                                                                                                                                                                                                                                                                                           
15148527400015951485274000159C00297890711 85577                         85577                         1270030017201702105BSG8630 1 BRASIL                                            SPLIMEIRA                                           BRASIL                                            SPSAO PAULO                                         2017021027000020000000000160INTEGRACAO                                        0030017   2017031606300323700300170000930000000000000000000904123788840SALVADOR A TESTA                                            1                        1 2837756                           026010087323159704123788840   SALVADOR APARECIDO TESTA                                    760091                                                                                                                                                                                                                                                                                                           
15148527400015951485274000159C00297890711 85577                         85577                         1270030017201702105BSG8630 1 BRASIL                                            SPLIMEIRA                                           BRASIL                                            SPSAO PAULO                                         2017021027000130000000001040INTEGRACAO                                        0030017   2017031615101623700300170000940000000000000000000904123788840SALVADOR A TESTA                                            1                        1 2838047                           026010087323159704123788840   SALVADOR APARECIDO TESTA                                    776482                                                                                                                                                                                                                                                                                                           
15148527400015951485274000159C00298256841 85790                         85790                         1501996013201702145DBB3322 1 BRASIL                                            SPLIMEIRA                                           BRASIL                                            SPSAO PAULO                                         2017021427000100000000000800INTEGRACAO                                        3800015   2017031619002523738000150000950000000000000000000406005867822ELIO A PEREIRA                                              1                        1 2838193                           024010105021916106005867822   ELIO A PEREIRA                                              786377                                                                                                                                                                                                                                                                                                           
15148527400015951485274000159C00298259321 85792                         85792                         0198302074201702145CQH6140 1 BRASIL                                            SPLIMEIRA                                           BRASIL                                            SPSAO PAULO                                         2017021427000015000000000120INTEGRACAO                                        4158024   2017031609401323741580240000960000000000000000000405339142809LUCIANO F TANAGA                                            1                        1 2837828                           021010105145370905339142809   LUCIANO TANAGA                                              764186                                                                                                                                                                                                                                                                                                           
15148527400015951485274000159C00299215081 85803                         85803                         1150344017201702205AJK9535 1 BRASIL                                            SPLIMEIRA                                           BRASIL                                            SPSAO PAULO                                         2017022027000025000000000200INTEGRACAO                                        0344017   2017031601300323703440170000970000000000000000000922521790826LUCIO TRAGINO COSTA                                         1                        1 2837669                           022010150528118922521790826   Lucio Tragino Costa                                         758109                                                                                                                                                                                                                                                                                                           
15148527400015951485274000159C00299215081 85803                         85803                         1150344017201702205AJK9535 1 BRASIL                                            SPLIMEIRA                                           BRASIL                                            SPSAO PAULO                                         2017022027000085000000000680INTEGRACAO                                        0344017   2017031619201623703440170000980000000000000000000922521790826LUCIO TRAGINO COSTA                                         1                        1 2838220                           022010150528118922521790826   Lucio Tragino Costa                                         786823                                                                                                                                                                                                                                                                                                           
15148527400015951485274000159C00299703831 85818                         85818                         1380258011201702225DNA8151 1 BRASIL                                            SPLIMEIRA                                           BRASIL                                            SPSAO PAULO                                         2017022227000013000000000104INTEGRACAO                                        0258011   2017031609300723702580110000990000000000000000002306746863816VICTOR ALBERTO GANDRA BRAZ                                  1                        1 2837825             21028404000163025010173991582521028404000163A T TRANSPORTES EIRELI ME                                   763847                                                                                                                                                                                                                                                                                                           
